:020000040800F2
:10000000381D0020690200085D050008A7030008EC
:100010005905000811030008E30A00080000000069
:100020000000000000000000000000007908000847
:100030001503000800000000550800089109000899
:10004000830200088302000883020008830200087C
:10005000830200088302000883020008830200086C
:10006000830200088302000883020008830200085C
:10007000830200088302000883020008830200084C
:10008000830200088302000883020008830200083C
:10009000830200088302000883020008830200082C
:1000A000830200088302000883020008830200081C
:1000B000830200088302000883020008830200080C
:1000C00083020008830200088302000883020008FC
:1000D00083020008FD09000883020008830200086B
:1000E00083020008830200088302000883020008DC
:1000F00083020008830200088302000883020008CC
:1001000083020008830200088302000883020008BB
:1001100083020008830200088302000883020008AB
:10012000830200088302000883020008830200089B
:10013000830200088302000883020008830200088B
:10014000830200088302000883020008830200087B
:10015000830200088302000883020008830200086B
:10016000830200088302000883020008830200085B
:10017000830200088302000883020008830200084B
:10018000830200088302000800F002F800F05CF827
:100190000AA090E8000C82448344AAF10107DA45E2
:1001A00001D100F051F8AFF2090EBAE80F0013F0D8
:1001B000010F18BFFB1A43F001031847F40A0000AF
:1001C000140B00000A444FF0000C10F8013B13F030
:1001D000070408BF10F8014B1D1108BF10F8015BA0
:1001E000641E05D010F8016B641E01F8016BF9D193
:1001F00013F0080F1EBF10F8014BAD1C0C1B09D1EA
:100200006D1E58BF01F801CBFAD505E014F8016B5B
:1002100001F8016B6D1EF9D59142D6D370470000ED
:100220000023002400250026103A28BF78C1FBD8FF
:10023000520728BF30C148BF0B6070471FB500F0A0
:1002400031FD1FBD10B510BD00F033F81146FFF7AA
:10025000F5FF00F0FDFC00F051F803B4FFF7F2FFEA
:1002600003BC00F06CFC00000948804709480047C7
:10027000FEE7FEE7FEE7FEE7FEE7FEE7FEE7FEE756
:10028000FEE7FEE704480549054A064B70470000B3
:10029000950900088901000838170020381D002042
:1002A0003819002038190020704770477047704790
:1002B0007047754600F028F8AE460500694653467B
:1002C00020F00700854618B020B5FFF7DBFFBDE83A
:1002D00020404FF000064FF000074FF000084FF0AD
:1002E000000B21F00701AC46ACE8C009ACE8C0093E
:1002F000ACE8C009ACE8C0098D4670470446AFF3CE
:1003000000802046FFF7A9FF00487047D416002060
:1003100000BFFEE77047F0B50A4600210023002425
:1003200000BF3DE0012505FA01F3156805EA030465
:100330009C4234D105684F000326BE40B54305609A
:1003400015794E00B5400668354305601579012DD5
:1003500002D01579022D16D185684F000326BE40C4
:10036000B543856055794E00B54086683543856054
:10037000456801268E40B5434560456896798E40B4
:10038000B6B235434560C5684F000326BE40B5434D
:10039000C560D5794E00B540C6683543C560491C77
:1003A0001029BFD3F0BD00BFFEE700001CB501213E
:1003B000022000F051FA4FF44070009001208DF8B7
:1003C000040000208DF8060003208DF805000120B0
:1003D0008DF8070069460548FFF79DFF0120044995
:1003E00008600449C1F8A4021CBD000000040240DA
:1003F000A08240420080404270B504461548006823
:1004000020F44020134908600846006840F480202A
:100410000860002010490860002517E0E0090E4937
:10042000091D08606006040E022000F0C5FB0120D3
:100430000A49C1F8A002022000F0BEFB00200649D4
:100440000860022000F0B8FB681CC5B2082DE5DB8F
:1004500070BD000000040240A08240420080404283
:1004600010B50F48006820F440200D490860084688
:10047000006840F48020086001200A4908600A49A9
:10048000C1F8A002042000F097FB00200549086095
:10049000042000F091FB00200349C1F8A00210BD28
:1004A00000040240A48240420080404210B50F4840
:1004B000006820F440200D4908600846006840F4B8
:1004C0008020086000200A4908600A49C1F8A40297
:1004D000042000F071FB0120054908600549C1F8BE
:1004E000A402042000F068FB10BD000000040240DC
:1004F000A08240420080404210B5002413480068AA
:1005000020F4402011490860084600680860012076
:100510000F49086000F050FB01200E49C1F8A0020D
:1005200000F04AFB07E0601CC4B2FA2C03DDFFF7C1
:10053000BDFF012010BD0648803800680028F2D1B8
:100540000349091F086000BFF4E7000000040240EF
:10055000A48240420080404200BFFEE77047000096
:1005600002490143024A1160704700000000FA0589
:100570000CED00E070B500241BE004F1B000002198
:1005800000F05CF90021084600F058F90021102025
:1005900000F054F9002506E00020074901EBC501F1
:1005A0000855681CC5B2802DF6DB00F00FF9601C01
:1005B000C4B2082CE1DB70BDD41200202DE9F05F3D
:1005C00006460F4690461C46DDF828A04FF0000B6B
:1005D000E11704EB5171C910A4EBC10131B92046F8
:1005E000E11704EB5171C1F3C70506E02046E1179E
:1005F00004EB5171C910491CCDB23D4615E02946A6
:10060000304600F007F9B1460BE059460BF1010BFB
:100610001AF80100012100F011F909F1010000F0C0
:10062000FF09C145F1DB681CC5B2A542E7DBBDE8A7
:10063000F09F0000F0B5144600267F2801DC3F291A
:1006400000DDF0BD0B46CF1701EB5777FF10C7F168
:100650000707FAB2CF1701EB5777FF10A1EBC707D7
:10066000FDB2C5F107070123BB40DEB24CB10A4B16
:1006700003EBC0039B5C3343074F07EBC007BB543E
:1006800008E0054B03EBC0039B5CB343024F07EB51
:10069000C007BB5400BFD4E7D41200202DE9F05F9F
:1006A00006460F4690469946DDF828A04FF0000B0D
:1006B000344611E03D460BE05846411C1FFA81FBD1
:1006C0001AF8002029462046FFF7B4FF681CC5B27F
:1006D0004D45F1DD601CC4B24445EBDD00F076F819
:1006E000BDE8F09F10B5FFF761FE4FF4487000F0D1
:1006F00047FA0021AE2000F0A1F80021084600F0E2
:100700009DF80021102000F099F80021402000F011
:1007100095F80021B02000F091F80021812000F030
:100720008DF80021FF2000F089F80021A12000F0C1
:1007300085F80021A62000F081F80021A82000F013
:100740007DF800213F2000F079F80021C82000F05A
:1007500075F80021D32000F071F80021084600F060
:100760006DF80021D52000F069F80021802000F00C
:1007700065F80021D82000F061F80021052000F084
:100780005DF80021D92000F059F80021F12000F097
:1007900055F80021DA2000F051F80021122000F075
:1007A0004DF80021DB2000F049F80021302000F056
:1007B00045F800218D2000F041F80021142000F0C0
:1007C0003DF80021AF2000F039F810BD70B50024CD
:1007D0001BE004F1B000002100F030F800210846D1
:1007E00000F02CF80021102000F028F8002508E087
:1007F000074901EBC501085D012100F01FF8681CE5
:10080000C5B2802DF4DB601CC4B2082CE1DB70BDE6
:10081000D412002070B504460D4605F1B000002149
:1008200000F00CF8102141EA1410002100F006F845
:1008300004F00F00002100F001F870BD70B504460F
:100840000D461DB1E0B200F064F902E0E0B200F044
:100850004AF970BD7047000029B1064A1268024388
:10086000044B1A6004E0034A12688243014B1A6089
:100870007047000030380240704700000CB500207F
:10088000019000903448006840F48030324908609C
:1008900000BF3148006800F4003000900198401C0F
:1008A0000190009818B90198B0F5A04FF1D12A48ED
:1008B000006800F4003010B10120009001E0002039
:1008C00000900098012846D123484030006840F04D
:1008D00080502149403108602048006840F4404081
:1008E0001E4908601C48083000681B490831086030
:1008F0000846006840F4004008600846006840F47C
:10090000A05008601648091F0860081F006840F0E2
:100910008070091F086000BF0F48006800F0007079
:100920000028F9D040F205700E4908600A480830E6
:10093000006820F003000849083108600846006894
:1009400040F00200086000BF03480830006800F073
:100950000C000828F8D10CBD00380240007000409F
:1009600008544007003C0240042808D14FF0E02121
:10097000096941F004014FF0E022116107E04FF0F6
:10098000E021096921F004014FF0E0221161704774
:100990007047000010B51548006840F47000134916
:1009A00008601348006840F0010011490860002009
:1009B0000F49083108600E4800680E4908400C498C
:1009C00008600D48091D0860081F006820F4802099
:1009D000091F0860002006490C310860FFF74EFF30
:1009E0004FF0006001498039086010BD88ED00E0DB
:1009F00000380240FFFFF6FE1030002410B540F230
:100A000025511D4800F03EF810B31B4800F064F873
:100A1000C4B21A48008800F40040C8B917480088DA
:100A200000F4804060B10A2C03D0002013490880F4
:100A300020E01248008840F400401049088019E086
:100A40000D2C06D10D48008840F480400B490880E9
:100A500010E00A480088C0F30D0009490C5407480B
:100A60000088401C0549088008460088C72801DD29
:100A70000020088010BD0000001001400812002076
:100A80000C12002070B5024600240023002500202F
:100A900040F66A16B14200D100BFC1F3421501F021
:100AA0001F03012606FA03F3012D02D19689334074
:100AB00006E0022D02D1168A334001E0968A3340C7
:100AC0000C12012606FA04F41688344013B10CB156
:100AD000012000E0002070BD01468888C0F30800B6
:100AE000704700BFFEE710B50446FFF7B9FC782059
:100AF000FFF782FCFFF700FD0020FFF77DFCFFF70A
:100B0000FBFC2046FFF778FCFFF7F6FCFFF7CEFC76
:100B100010BD10B50446FFF7A3FC7820FFF76CFC6E
:100B2000FFF7EAFC4020FFF767FCFFF7E5FC2046F3
:100B3000FFF762FCFFF7E0FCFFF7B8FC10BD00BF59
:100B40007047000010B504466FF00400FFF70CFF7B
:100B5000E11704EB5171C1F3C701074A1170104648
:100B6000007800EB4001C1EBC0104FF6FF7101EAC5
:100B7000C0000249088010BD0012002002120020AF
:100B800070B504464FF4077094FBF0F0C6B24FF412
:100B9000077094FBF0F100FB114085B205E04FF4C3
:100BA000077000F02FF8701EC6B2002EF7D115B1F5
:100BB000284600F027F870BD0146114A12784A43D2
:100BC0004FF0E0235A6100229A611A46126942F0FE
:100BD00001021A6100BF4FF0E022106900F001022B
:100BE0001AB100F48032002AF5D04FF0E0221269E9
:100BF00022F001024FF0E0231A6100229A6170474F
:100C0000001200200146114A12884A434FF0E023A7
:100C10005A6100229A611A46126942F001021A6171
:100C200000BF4FF0E022106900F001021AB100F499
:100C30008032002AF5D04FF0E022126922F0010242
:100C40004FF0E0231A6100229A61704702120020DF
:100C500008B54FF4A060FFF783FCA820FFF772FFF0
:100C6000FFF740FDFFF786FC17E00C481C238022AD
:100C7000002100900846FFF711FD4FF4FA50FFF7EE
:100C80007FFF074808238022002100900846FFF7D5
:100C900095FC4FF4FA50FFF773FFE6E700040020DD
:100CA000000000204FF04070E1EE100A7047000095
:100CB000D00C0008000000200C120000C401000845
:100CC000DC0D00080C1200202C0B00002002000894
:100CD0001116060AFE0AC612E012F062F84EFE7DF8
:100CE000BBC7EF01053EC7BB7DFE300D080CFEFE05
:100CF0000C082060FEFE60208F7848FE82BABA039E
:100D000009135EAA0101017E6CFEFF0301CBFFFF08
:100D10000F39BBECC0C0C0271918F9270139297554
:100D2000990B6CFFFF0C01491A0C22E1E1E127014C
:100D3000396C0F1F1801FB1F0F0F092E27013616E4
:100D40008C4222120C26FC020202FC3304FE162006
:100D50005844FE402A10015912491E4912A92A017D
:100D600023300A24A42E24E4242EA424C00AF84A02
:100D70004C48F8484C4AF82A01013907490D5915E1
:100D8000991F9918091412712BC020A1AB20C00A19
:100D900011300A120A07027F02070A121E0B0A0A02
:100DA0000A7F0402560B980A1F2040404050205FE3
:100DB000800A01FF01FF01FF01FF01FF01FF01FFA9
:100DC00001FF810AFD010109FD0109FD0109FD0184
:0C0DD00009FD0109FD013901C10000000E
:040000050800018965
:00000001FF
