:020000040800F2
:10000000D8A5002081020008390B000885090008E6
:10001000350B000897080008DF13000800000000F7
:10002000000000000000000000000000110F0008A8
:100030009B08000800000000C50D000829100008FA
:100040009B0200089B0200089B0200089B0200081C
:100050009B0200089B0200089B0200089B0200080C
:100060009B0200089B0200089B0200089B020008FC
:100070009B0200089B0200089B0200089B020008EC
:100080009B0200089B0200089B0200089B020008DC
:100090009B0200089B0200089B0200089B020008CC
:1000A0009B0200089B0200089B0200089B020008BC
:1000B0009B020008951000089B0200089B020008A4
:1000C0009B0200089B0200089B0200089B0200089C
:1000D0009B020008C11100089B0200089B02000857
:1000E0009B0200089B0200089B0200089B0200087C
:1000F0009B0200089B0200089B0200089B0200086C
:100100009B0200089B0200089B0200089B0200085B
:100110009B0200089B0200089B0200089B0200084B
:100120009B0200089B0200089B0200089B0200083B
:100130009B0200089B0200089B0200089B0200082B
:100140009B0200089B0200089B0200089B0200081B
:100150009B0200089B0200089B0200089B0200080B
:100160009B0200089B0200089B0200089B020008FB
:100170009B0200089B0200089B0200089B020008EB
:100180009B0200089B02000800F002F800F068F8EB
:100190000AA090E8000C82448344AAF10107DA45E2
:1001A00001D100F05DF8AFF2090EBAE80F0013F0CC
:1001B000010F18BFFB1A43F00103184760980100B4
:1001C0008098010010F8013B0A4413F0030408BFB3
:1001D00010F8014B1D1108BF10F8015B641E05D01B
:1001E00010F8016B641E01F8016BF9D1002D15D0D8
:1001F00010F8014B03F00C030C2BA1EB04040ABF15
:1002000010F8013BA4EB8314A4EB032405F10103D4
:1002100014F8016B5B1E01F8016BF9D5914238BFF0
:1002200010F8013BD1D3704700230024002500269D
:10023000103A28BF78C1FBD8520728BF30C148BF49
:100240000B607047642900F07380732900F0DA8234
:10025000002070471FB511F0F0FB1FBD10B510BD99
:1002600000F0EEFA1146FFF7F5FF10F01BFE00F06C
:100270000CFB03B4FFF7F2FF03BC01F0E5F800004C
:100280000948804709480047FEE7FEE7FEE7FEE72A
:10029000FEE7FEE7FEE7FEE7FEE7FEE70448054966
:1002A000054A064B704700002D1000088901000820
:1002B000D89F0020D8A50020D8A10020D8A10020D8
:1002C000704700000FB4044910B503AA029800F06B
:1002D0009DFA10BC5DF814FB6C1A002070B50C463A
:1002E0000546012A05D02878800600D5EA69002352
:1002F00002E0012305E05B1C934202D2E05C00288F
:10030000F9D1A869E618C01AA861286A18442862B9
:100310002846AFF3008004E0D5E9012114F8010B71
:100320009047B442F8D32846AFF3008070BD000078
:100330002DE9F0410646002410687529314616A5BE
:1003400010D0AFF30080002802DA404213A507E086
:1003500031688A0701D512A502E0490704D511A525
:10036000012401E0AFF3008000210A2206F12407F6
:1003700009E0B0FBF2FCB0FBF2F302FB1C003030F2
:1003800078541846491C0028F3D123462A463046A3
:10039000BDE8F04100F0B3B9000000002D000000FE
:1003A0002B000000200000002DE9F05F8946044684
:1003B0004FF0000ADFF824B1FB44C0F820A020462B
:1003C000E168884700287DD0252806D0D4E901219E
:1003D0009047206A401C2062F1E700255F462046D6
:1003E000E16888472028064607DB312E05D2B81978
:1003F00010F8200C08B10543F1E7A80701D525F056
:100400000405C4F81CA00027C4F818A02A2E09D09F
:10041000304601F012F838B304EB8708303EC8F8D4
:10042000186019E059F8041B204604EB870291611B
:10043000E1688847012F064618D1E069002820DAD4
:1004400025F020051DE0D8F8180000EB800006EB31
:1004500040003038C8F818002046E1688847064652
:1004600000F0EBFF0028EED1012F0AD02E2E08D18C
:100470002046E16888477F1C0646022F45F020058C
:10048000C4DBA069002803DA404245F00105A06101
:10049000E80701D025F01005A6B1A6F14100192802
:1004A00002D8203645F400654A463146204625608C
:1004B0004D46FFF7C7FE60B1012807D0ED1D25F0BE
:1004C000070000E007E000F1080978E705F10409FA
:1004D00075E730467AE7206ABDE8F09FFD9301009A
:1004E00040EA0103024630B59B0710D14FF00134BA
:1004F00000E008C208C91D1B9D4315EAC41FF8D0BF
:1005000013F0FF0102F8011B0DD01B0AF8E711F8E8
:10051000013B002B02F8013B05D011F8013B002BF9
:1005200002F8013BF3D130BD10B5431C02E010F8D6
:10053000011B71B18107FAD14FF0013202C88C1A48
:100540008C4314EAC211F9D0C01A0A0603D0C01EA7
:1005500010BDC01A10BD0A0401D0801E10BD0902D2
:10056000FCD0401E10BD032A40F2308010F0030C76
:1005700000F0158011F8013BBCF1020F624498BFF6
:1005800011F801CB00F8013B38BF11F8013BA2F193
:10059000040298BF00F801CB38BF00F8013B11F00E
:1005A000030300F02580083AC0F0088051F8043BAE
:1005B000083A51F804CBA0E80810F5E7121D5CBF1B
:1005C00051F8043B40F8043BAFF30080D20724BF4E
:1005D00011F8013B11F801CB48BF11F8012B24BFE2
:1005E00000F8013B00F801CB48BF00F8012B704731
:1005F00010B5203AC0F00B80B1E81850203AA0E8BE
:100600001850B1E81850A0E81850BFF4F5AF5FEAF1
:10061000027C24BFB1E81850A0E8185044BF18C9A4
:1006200018C0BDE810405FEA827C24BF51F8043B4B
:1006300040F8043B08BF7047D20728BF31F8023B9F
:1006400048BF11F8012B28BF20F8023B48BF00F833
:10065000012B704702F0FF0343EA032242EA024201
:1006600000F002B84FF000020429C0F0128010F030
:10067000030C00F01B80CCF1040CBCF1020F18BF7E
:1006800000F8012BA8BF20F8022BA1EB0C0100F011
:100690000DB85FEAC17C24BF00F8012B00F8012BE4
:1006A00048BF00F8012B70474FF0000200B5134619
:1006B00094469646203922BFA0E80C50A0E80C5082
:1006C000B1F12001BFF4F7AF090728BFA0E80C5033
:1006D00048BF0CC05DF804EB890028BF40F8042B2C
:1006E00008BF704748BF20F8022B11F0804F18BF99
:1006F00000F8012B704770477047704770472DE92D
:10070000F0470D4699469246044600F124080168D8
:10071000880604D5E06921F01001216000E0012085
:10072000A84201DD471B00E00027A1697A1902EB0E
:100730000900081AA0612078C00602D42046AFF351
:100740000080002608E0D4E901211AF8060090474D
:10075000206A401C761C20624E45F4DB2078C006DF
:100760000AD52046AFF3008006E0D4E9012130200D
:100770009047206A401C2062381EA7F10107F4DC74
:1007800007E0D4E9012118F805009047206A401CD1
:100790002062281EA5F10105F3DC2046AFF300809E
:1007A0002078000602D50220BDE8F0870120FBE793
:1007B00001694A1C02610878704700B58FB0CDE925
:1007C00001310021059105497944CDE90310114615
:1007D0006846FFF7E9FD0FB000BD0000E5FFFFFF31
:1007E00010B5436913B1AFF3008001E0FFF776FD68
:1007F000012010BD127800F124010A7000224A7015
:100800000122EDE711684FF0FF32E9E7074B70B5C1
:100810000D467B44FFF7D1FF0446284600F00CF854
:1008200010B14FF0FF3070BD204670BDDB120000EC
:1008300000487047789F0020007B00F080007047E0
:100840007546FFF7F5FFAE4605006946534620F0B2
:100850000700854618B020B5FFF720FDBDE8204011
:100860004FF000064FF000074FF000084FF0000B6C
:1008700021F00701AC46ACE8C009ACE8C009ACE81F
:10088000C009ACE8C0098D4670470446AFF300804C
:100890002046FFF7EEFC00BFFEE77047F0B50A46C2
:1008A00000210023002400BF3DE0012505FA01F3EB
:1008B000156805EA03049C4234D105684F000326FD
:1008C000BE40B543056015794E00B5400668354316
:1008D00005601579012D02D01579022D16D1856894
:1008E0004F000326BE40B543856055794E00B540A4
:1008F000866835438560456801268E40B54345606E
:10090000456896798E40B6B235434560C5684F005C
:100910000326BE40B543C560D5794E00B540C668D4
:100920003543C560491C1029BFD3F0BDF0B5002385
:1009300000244D07ED0E02FA05F3CE1000F120055C
:1009400055F826504E07F70E0F26BE40B543CF1080
:1009500000F1200646F82750CE1000F1200555F88A
:10096000265045EA0304CE1000F1200545F8264044
:10097000F0BD0246002013690B400BB1012000E0DE
:100980000020704700BFFEE71CB50121022000F0E7
:100990001BFA4FF44070009001208DF804000020F5
:1009A0008DF8060003208DF8050001208DF8070062
:1009B00069460548FFF772FF0120044908600449B1
:1009C000C1F8A4021CBD000000040240A082404205
:1009D0000080404270B504461548006820F440206D
:1009E000134908600846006840F480200860002031
:1009F00010490860002517E0E0090E49091D08604C
:100A00006006040E022000F0B7FE01200A49C1F87A
:100A1000A002022000F0B0FE00200649086002207B
:100A200000F0AAFE681CC5B2082DE5DB70BD000011
:100A300000040240A08240420080404210B50F48AE
:100A4000006820F440200D4908600846006840F422
:100A50008020086001200A4908600A49C1F8A00204
:100A6000042000F089FE002005490860042000F001
:100A700083FE00200349C1F8A00210BD000402401B
:100A8000A48240420080404210B50F48006820F424
:100A900040200D4908600846006840F48020086046
:100AA00000200A4908600A49C1F8A402042000F0A5
:100AB00063FE0120054908600549C1F8A40204202D
:100AC00000F05AFE10BD000000040240A082404227
:100AD0000080404210B500241348006820F44020F4
:100AE0001149086008460068086001200F49086045
:100AF00000F042FE01200E49C1F8A00200F03CFEC9
:100B000007E0601CC4B2FA2C03DDFFF7BDFF012033
:100B100010BD0648803800680028F2D10349091F3B
:100B2000086000BFF4E7000000040240A4824042D5
:100B30000080404200BFFEE77047000070B5002112
:100B400000230F22C4781CB3174C246804F4E0641B
:100B5000C4F5E064C4F30721C1F10404E3B20A411F
:100B600044789C40E1B28478144021430C07210E64
:100B70000E4C05786155047804F01F050124AC4043
:100B800005786D11AD0005F1E025C5F8004109E0DB
:100B9000047804F01F050124AC40054D0678761159
:100BA00045F8264070BD00000CED00E000E400E0D8
:100BB00080E100E002490143024A116070470000F1
:100BC0000000FA050CED00E0F0B5144600267F2881
:100BD00001DC3F2900DDF0BD0B46CF1701EB577755
:100BE000FF10C7F10707FAB2CF1701EB5777FF10D5
:100BF000A1EBC707FDB2C5F107070123BB40DEB279
:100C00004CB10A4B03EBC0039B5C3343074F07EB2C
:100C1000C007BB5408E0054B03EBC0039B5CB34328
:100C2000024F07EBC007BB5400BFD4E7841A002073
:100C30002DE9F05F06460F4690469946DDF828A05C
:100C40004FF0000B3D4611E034460BE05846411C86
:100C50001FFA81FB1AF8002029462046FFF7B4FF4F
:100C6000601CC4B24445F1DD681CC5B24D45EBDDE6
:100C700000F076F8BDE8F09F10B5FFF785FE4FF461
:100C8000487000F05DFD0021AE2000F08FF80021DB
:100C9000084600F08BF80021102000F087F80021B2
:100CA000402000F083F80021B02000F07FF8002100
:100CB000812000F07BF80021FF2000F077F8002170
:100CC000A12000F073F80021A72000F06FF80021A8
:100CD000A82000F06BF800213F2000F067F8002109
:100CE000C02000F063F80021D32000F05FF800215D
:100CF000084600F05BF80021D52000F057F80021ED
:100D0000802000F053F80021D82000F04FF8002197
:100D1000052000F04BF80021D92000F047F8002111
:100D2000F12000F043F80021DA2000F03FF8002124
:100D3000122000F03BF80021DB2000F037F8002102
:100D4000302000F033F800218D2000F02FF8002132
:100D5000142000F02BF80021AF2000F027F810BD80
:100D600070B500241CE004F1B001C8B2002100F00D
:100D70001DF80021084600F019F80021102000F0AD
:100D800015F8002508E0084901EBC501085D0121BF
:100D900000F00CF8681CC5B2802DF4DB601CC4B2F6
:100DA000082CE0DB70BD0000841A002070B50546F9
:100DB0000C461CB1284600F02AFB02E0284600F051
:100DC00010FB70BD7047000029B1064A126802434B
:100DD000044B1A6004E0034A12688243014B1A6014
:100DE000704700003038024029B1064A12680243B9
:100DF000044B1A6004E0034A12688243014B1A60F4
:100E0000704700004038024029B1064A1268024388
:100E1000044B1A6004E0034A12688243014B1A60D3
:100E20007047000044380240F0B500210022002441
:100E3000022500260223324F3F6807F00C0121B142
:100E4000042905D0082937D105E02E4F076036E088
:100E50002D4F076033E02A4F3F1F3F68C7F380568E
:100E6000274F3F1F3F6807F03F036EB1264FB7FB88
:100E7000F3F7DFF88CC0ACF1040CDCF800C0CCF365
:100E8000881C07FB0CF40CE01E4FB7FBF3F7DFF8F0
:100E900070C0ACF1040CDCF800C0CCF3881C07FB7C
:100EA0000CF4174F3F1F3F68C7F301477F1C7D00BD
:100EB000B4FBF5F7076002E0124F076000BF00BF08
:100EC0000F4F3F6807F0F0010909104F7A5C07687F
:100ED000D74047600A4F3F6807F4E051890A0B4F3B
:100EE0007A5C4768D7408760054F3F6807F46041E8
:100EF000490B064F7A5C4768D740C760F0BD0000D9
:100F0000083802400024F40000127A00721A00200F
:100F1000704700000CB50020019000903448006834
:100F200040F480303249086000BF3148006800F466
:100F3000003000900198401C0190009818B9019869
:100F4000B0F5A04FF1D12A48006800F4003010B18C
:100F50000120009001E0002000900098012846D177
:100F600023484030006840F08050214940310860FB
:100F70002048006840F440401E4908601C48083082
:100F800000681B49083108600846006840F40040CA
:100F900008600846006840F4A05008601648091F21
:100FA0000860081F006840F08070091F086000BFDB
:100FB0000F48006800F000700028F9D040F205707A
:100FC0000E4908600A480830006820F0030008490C
:100FD000083108600846006840F00200086000BF61
:100FE00003480830006800F00C000828F8D10CBD58
:100FF000003802400070004008544007003C0240A6
:10100000042808D14FF0E021096941F004014FF0B4
:10101000E022116107E04FF0E021096921F00401AD
:101020004FF0E022116170477047000010B515487D
:10103000006840F47000134908601348006840F0ED
:1010400001001149086000200F49083108600E486E
:1010500000680E4908400C4908600D48091D0860E9
:10106000081F006820F48020091F0860002006493E
:101070000C310860FFF74EFF4FF0006001498039E6
:10108000086010BD88ED00E000380240FFFFF6FE6A
:101090001030002410B50648008800F0010010B19F
:1010A00001200FF08DFB4FF6FE700149088010BD46
:1010B000100400407FB505460C4601210220FFF7D1
:1010C00093FE0295ADF804400020ADF80600ADF89F
:1010D0000C0001A90D4800F031F8012211460B481F
:1010E00000F022F80121094800F012F81D208DF8C7
:1010F000000001208DF8010003208DF8020001207E
:101100008DF803006846FFF719FD7FBD000400401D
:1011100021B1028842F00102028004E002884FF609
:10112000FE731A40028070471AB183890B43838192
:1011300002E083898B43838170470000002202888C
:10114000184B98420ED0184B98420BD0B0F1804FFC
:1011500008D0164B984205D0154B984202D0154B3B
:10116000984204D14FF68F731A404B881A43124BA2
:10117000984207D0114B984204D04FF6FF431A40D3
:101180000B891A4302804B68C3620B880385054BA9
:10119000984202D0044B984201D18B7A03860123F6
:1011A00083827047000001400004014000040040B9
:1011B00000080040000C00400010004000140040F7
:1011C00010B540F225511D4800F04AF810B31B48F5
:1011D00000F000F9C4B21A48008800F40040C8B911
:1011E0001748008800F4804060B10A2C03D000202A
:1011F0001349088020E01248008840F4004010495C
:10120000088019E00D2C06D10D48008840F480407C
:101210000B49088010E00A480088C0F30D00094916
:101220000C5407480088401C05490880084600887F
:10123000C72801DD0020088010BD0000001001401B
:10124000701A0020B09E002021B1828942F4005221
:10125000828104E082894DF6FF731A4082817047D3
:1012600070B50246002400230025002040F66A16CF
:10127000B14200D100BFC1F3421501F01F030126A6
:1012800006FA03F3012D02D19689334006E0022DC0
:1012900002D1168A334001E0968A33400C120126AF
:1012A00006FA04F41688344013B10CB1012000E0B2
:1012B000002070BDF0B50346002400260025002064
:1012C00040F66A17B94200D100BF1846C1F3421474
:1012D00001F01F06012707FA06F5012C01D10C3099
:1012E00004E0022C01D1103000E014301AB107687C
:1012F0002F43076002E00768AF430760F0BD0000BE
:101300002DE9FF4705460E460024A14600BFA04632
:10131000B08900B100BF2C8A24F44054F088044303
:101320002C82AC8941F20C608443B0883189084337
:10133000718908430443AC81AC8A24F44074B089B9
:101340000443AC826846FFF76FFD2048854202D017
:101350001F48854202D1DDF80C9001E0DDF80890CD
:10136000A88900F4004040B109EBC90000EB091066
:1013700031684900B0FBF1F707E009EBC90000EB69
:10138000091031688900B0FBF1F76420B7FBF0F079
:1013900004012009642101FB1078A88900F40040B1
:1013A00040B1322000EBC800B0FBF1F000F00700C4
:1013B000044308E0322000EB08106421B0FBF1F098
:1013C00000F00F0004432C81BDE8FF8700100140AE
:1013D0000014014001468888C0F30800704700BF30
:1013E000FEE710B50446FFF729FB7820FFF7F2FA75
:1013F000FFF770FB0020FFF7EDFAFFF76BFB2046CD
:10140000FFF7E8FAFFF766FBFFF73EFB10BD10B5EC
:101410000446FFF713FB7820FFF7DCFAFFF75AFBCF
:101420004020FFF7D7FAFFF755FB2046FFF7D2FA27
:10143000FFF750FBFFF728FB10BD30380A2801D218
:10144000012070470020704700BF704710B58AB078
:10145000044694F82000C0F3400020B994F820001E
:1014600000F0010070B194F82000C0F34000F0B922
:1014700094F8200000F00100C8B194F82000C0F3F7
:101480008000A0B12422214601A8FFF7B1F821462F
:1014900019480BF03AF820460BF054FB012017498D
:1014A0000870049810B101A8049988471FE0E08BE8
:1014B000404200B2608394F8200000F00100B0B117
:1014C00094F82010C1F3800119B9A18B494209B2E7
:1014D00061831034217C8908C943227C61F3820234
:1014E00022742068616821606060103C00BF03487E
:1014F00000780AB010BD0000E82300203019002059
:101500002DE9F04107462F480AF018FF044608E08D
:10151000206A20F00800206221462A480AF013FFC2
:101520000446002CF4D1284800680FF02BF9064639
:1015300024480AF003FF04463CE0002023490870D9
:1015400094F82000C0F3C00038BB206A20F00800E7
:1015500008302062608B304400B26083B4F91A0016
:1015600000281ADBB4F91A00218B884202DD208B97
:1015700000B260832046A16888470546606818B1BC
:1015800029B2D4E900029047B4F91A00218B8842AD
:1015900002DB2046FFF75AFF00BF0C48007820B15D
:1015A00008480AF0CBFE044604E0214605480AF04C
:1015B000CAFE0446002CC0D10FF0F2F802490860C0
:1015C000BDE8F081E82300202C190020301900200C
:1015D00030B50346022B04D10E48405C5043001244
:1015E00030BD032B04D10C48405C50430012F7E798
:1015F000042B04D10948405C50430012F0E7C1EBD2
:10160000C105581EB5FBF0F0C4B20548005D50435B
:10161000000AE5E7911A0108931A0108961A0108D1
:101620009A1A010810B50446012C2FD130480078D1
:10163000401C40B22E490870084690F9000003286B
:1016400001DB002008702A4890F9000020B1012831
:101650000AD0022818D10FE0012226480168264846
:1016600000680CF097FF10E001222448016822482E
:1016700000680CF08FFF08E00122214801681E4835
:1016800000680CF087FF00E000BF30E07CBB18482A
:101690000078401E40B216490870084690F90000D4
:1016A000002801DA02200870114890F9000020B1EA
:1016B00001280AD0022818D10FE001220D48016844
:1016C0000D4800680CF066FF10E001220B4801682D
:1016D000094800680CF05EFF08E001220848016834
:1016E000054800680CF056FF00E000BF00BF10BDC9
:1016F000D5000020B00000209C000020B400002095
:10170000B800002010B504466FF00400FFF778FC25
:10171000E11704EB5171C1F3C701074A117010467C
:10172000007800EB4001C1EBC0104FF6FF7101EAF9
:10173000C0000249088010BD681A00206A1A002003
:1017400070B504464FF4077094FBF0F0C6B24FF446
:10175000077094FBF0F100FB114085B205E04FF4F7
:10176000077000F02FF8701EC6B2002EF7D115B129
:10177000284600F027F870BD0146114A12784A4306
:101780004FF0E0235A6100229A611A46126942F032
:1017900001021A6100BF4FF0E022106900F001025F
:1017A0001AB100F48032002AF5D04FF0E02212691D
:1017B00022F001024FF0E0231A6100229A61704783
:1017C000681A00200146114A12884A434FF0E0236C
:1017D0005A6100229A611A46126942F001021A61A6
:1017E00000BF4FF0E022106900F001021AB100F4CE
:1017F0008032002AF5D04FF0E022126922F0010277
:101800004FF0E0231A6100229A6170476A1A0020A3
:101810002DE9F0470446201D0AF090FD06462046BB
:101820000CF0E7F88046B8F1000F02D0204608F02F
:1018300081FC08E03146201D0AF085FD0746304650
:10184000FFF7E6FF3E46002EF4D10022132120468A
:1018500008F0F8F9204608F0E5F90021204603F0E9
:10186000AFF8002009F040FB05461BE0686BA04282
:1018700002D0A86BA04202D1284609F03FFCE86BD9
:10188000A04201D10021E963686D404506D109F00D
:1018900039FBA04202D1284609F030FC284609F065
:1018A00023FB0546002DE1D120460CF0C7F8814608
:1018B000214609F104000AF028FE002211462046C4
:1018C000E3699847606A10B1606A0BF03BF9204603
:1018D0000BF038F9BDE8F087F8B506460C4615461A
:1018E0000095A3792279A1782078FFF7A1F93046F5
:1018F00004F0EEF9F8BD70B505460C4628460CF02C
:1019000075F80646348428460CF004F970BD70B5AD
:10191000054628680CF06AF804462820005D20F08F
:10192000020128200155005D20F004012820015506
:10193000005D20F0100128200155005D20F0080115
:101940002820015528680CF0E5F870BD70B50446F4
:101950000D460026207800F0010068B92068B5EB3C
:10196000500F09D82946204600F020F8206820F0C2
:101970000100401C2060261D304670BD10B5014698
:10198000002011B9084A10680CE00A1D0B6802EB30
:101990005300031D044C246804F58044A34200D383
:1019A000002000BF10BD00000C1A002030B501F06F
:1019B000030212B121F00301091D0A1D0368B2EBF5
:1019C000530F01D1026851080268B1EB520F0ED0DB
:1019D000031D5A18146824F0010414600468C1EB54
:1019E0005404241F156864F35F05156000BF026886
:1019F00061F35F02026030BD2DE9F84F044688466E
:101A0000914694F8580000F0010008B1BDE8F88F45
:101A1000E56800264FF0010A4FF0010B00BF8DB9B9
:101A200094F85800C0F3001000B956B9BBF1000F8C
:101A300000D1EBE72046C04705464FF0000AD346E9
:101A400000E0E3E716B92E4606B9DFE7BAF1000F6A
:101A500006D029462046C8470546B54200D1D5E7FD
:101A60004FF0010A05B9DAE728680BF0CDFF00B99D
:101A700000E0D4E700BFE068A84200D1C6E7E06814
:101A8000A8B1E168086800221021C3699847E1689D
:101A9000002208680D2108F0D5F800900098012870
:101AA00000D0B3E7E16808680CF034F800BFE560E7
:101AB000E168086800220F21C3699847E1680022A5
:101AC00008680C2108F0BEF80746012F00D09DE7FA
:101AD000E16808680FF0F3FCE16808680CF01AF898
:101AE000A06910B12046A169884700BF8EE70000B9
:101AF00000BF054A128802F04002002AF9D0C2B2A3
:101B0000014B9A8070470000001001402DE9FC470E
:101B100080460E4616B90020BDE8FC87D8F80C4078
:101B20006069B04201D1A069F6E70025AEE005EB9F
:101B30008501A06850F82100301A019005EB85015D
:101B4000A06800EB810080880199884200D29BE068
:101B5000002705EB8501A06800EB8100807C00F088
:101B6000030040B905EB8501A06800EB8100C08847
:101B70000199471884E005EB8501A06800EB81001E
:101B8000807C00F0030001280FD105EB8502A168DD
:101B900001EB8201C86805EB8502A16801EB8201B7
:101BA000C988019A825C8F186AE005EB8501A068FC
:101BB00000EB8100807C00F00300022827D1394827
:101BC000009005EB8503A06800EB8300028A05EB1B
:101BD0008503A06800EB83000223816801A80FF051
:101BE00037F98146B9F1000F10D005EB8502A168E5
:101BF00001EB82018968A9EB0100400805EB850231
:101C0000A16801EB8201C9880F1800BF38E005EB1D
:101C10008501A06800EB8100807C00F003000328B0
:101C20002ED12048009005EB8503A06800EB8300CF
:101C3000028A05EB8503A06800EB8300022381681C
:101C400001A80FF005F98146B9F1000F17D005EB97
:101C50008503A26802EB83029268A9EB02004008A8
:101C600005EB8503A26802EB8302D16805EB8503CF
:101C7000A26802EB8302D2880B5CD71800BF00BFBA
:101C80006661A761384647E7681C85B2608AC0F381
:101C90000900A8423FF74BAF66610020A06100BF7A
:101CA0003AE70000311A01082DE9FC5F80460D4635
:101CB0001646D8F80C704FF0000A788AC0F340300E
:101CC000002841D1FC68A068C0F30160D8B9D4F8FD
:101CD000009005EB062080B2019027480090A06894
:101CE00020F07F420223494601A80FF0B1F8834655
:101CF000BBF1000F06D0ABEB09004008616811F999
:101D000000A000BF1FE0A068C0F3016001281AD145
:101D1000D4F8009005EB0620019018480090A068C8
:101D200020F07F420423494601A80FF091F8834632
:101D3000BBF1000F06D0ABEB09000009616811F997
:101D400000A000BF00BF13E0F8684368595D436816
:101D50009A5D00290BDD002A09DD531E4C1E90F808
:101D60000DC004FB0C330468E35C4FFA83FA00BF38
:101D70005046BDE8FC9F0000AF2F00088F2F0008E1
:101D800001460020302905DB392903DCA1F13002AE
:101D9000D0B21CE0612902DBA1F12002D1B2A1F195
:101DA0004102062A10D2DFE802F0030507090B0DF5
:101DB0000A200BE00B2009E00C2007E00D2005E0D5
:101DC0000E2003E00F2001E0002000BF00BF70479D
:101DD00070B504460D46A06DA96830F82110218425
:101DE000A06DA96800EB810041886184B4F92410DA
:101DF000B4F9200081420DD1B4F92610B4F92200C3
:101E0000814207D1A87B012804D104F11C0000F015
:101E100069FD03E004F11C0000F014FF218CA18493
:101E2000618CE18470BD00002DE9F04F87B004465D
:101E3000A5694FF0000903E028460BF0FFFD0546B9
:101E400028460BF0C7FD08B1002DF5D115B907B034
:101E5000BDE8F08F28460BF0B1FD00B9F7E7284642
:101E60000BF0B2FD0646218AA089084401B2218206
:101E7000618AE089084401B2618294F8240000F08C
:101E8000010060BB06F0010070B1B4F91000002839
:101E900002DDB4F9100002E0B4F9100040426F49CD
:101EA0000968097D884211DA06F00200B8B1B4F978
:101EB0001200002802DDB4F9120002E0B4F91200A9
:101EC000404266490968097D884208DB94F824008D
:101ED00020F00100401C84F824004FF0010994F820
:101EE000240000F00100002876D0A08910B9E08914
:101EF0000028F9D059490968C86803F01AFF8246DA
:101F0000B5F910000690B5F91200059028460BF0BF
:101F100095FD83460BF0DEFD049028460BF08EFD08
:101F200083460BF069FD039028460BF0DBFD074666
:101F300028460BF0E3FD8046032E13D1B9F1000FC4
:101F400006D0208A384407B2608A40440FFA80F8ED
:101F5000E089404402B2A089384401B228460BF01F
:101F60005DFF1FE006F0010060B1B9F1000F02D083
:101F7000208A384407B2A089384401B228460CF0C0
:101F800000F80FE006F0020060B1B9F1000F03D0D5
:101F9000608A40440FFA80F8E089404401B2284644
:101FA0000BF0FCFF94F82400C0F34000A8B92B48C4
:101FB000EB690D21026828469847204600F09CFFF7
:101FC00000B144E700220821284607F03BFE2046E6
:101FD00000F092FF08B13AE73DE094F8240020F0C9
:101FE0000200801C84F82400B5F910100698814284
:101FF00030D1B5F91210059881422BD194F8240004
:1020000020F0020184F8241028460BF017FD8346C7
:102010000BF060FD029028460BF010FD83460BF09C
:10202000EBFC019004990298884212D1039901981F
:1020300088420ED109490968C86803F07AFE8346D0
:10204000ABEB0A0291B2054A1268D06803F06CFF4C
:1020500000BF00BF00BF00BFF9E60000D8000020AD
:102060002DE9FF41044694F82400C0F3400008B96C
:10207000BDE8FF81E56903E028460BF0DFFC05467B
:1020800028460BF0A7FC08B1002DF5D105B9EFE704
:1020900028460BF0A5FCD8B994F8240020F00201E2
:1020A00084F824105948EB690E21026828469847A5
:1020B00000220921284607F0C5FD204600F01CFF3C
:1020C00000B1D5E700220921284607F0BBFDCFE784
:1020D00028460BF079FC0646A08A4C490968497DE0
:1020E000C1F1640110FB01F0642190FBF1F001B239
:1020F000A182E08A45490968497DC1F1640110FB6C
:1021000001F0642190FBF1F001B2E182A08A10B9E4
:10211000E08A00285DD002A928460BF0E9FB28469A
:102120000BF0E0FCA18A08440FFA80F828460BF077
:10213000E5FC0146E08A084407B2032E05D13A4681
:10214000414628460BF06AFE0EE006F0010020B181
:10215000414628460BF015FF06E006F0020018B1D4
:10216000394628460BF01AFF694628460BF0C0FB9B
:10217000BDF90800BDF90010884201D0A08A38BB23
:10218000BDF90A00BDF90210884201D0E08AF8B911
:1021900094F8240020F0020184F824100021A18189
:1021A000E181A182E1821948EB690E21026828468B
:1021B0009847204600F0A0FE00B159E7002209210F
:1021C000284607F03FFD204600F096FE00B14FE79D
:1021D0001AE094F8240020F0020184F824100B483F
:1021E000EB690E21026828469847204600F084FEDD
:1021F00000B13DE700220921284607F023FD2046D3
:1022000000F07AFE00B133E700BF31E7D8000020CC
:102210002DE9F84304460D46A87B012806D194F821
:102220004C00C0F3C00008B1BDE8F88394F84C003E
:10223000C0F3C00080B194F84C0020F0080184F88D
:102240004C100021616494F84C0020F0010184F8E6
:102250004C1000212020015594F82080A97B2020DB
:10226000015569686162676D07B9DDE7384607F0B7
:102270000BFFC54908600846006800B9D4E7A87B91
:10228000002843D1384607F0F6FE00B3B5F90C003C
:1022900000280CDA002604E01421384607F08EFFEF
:1022A000761CB5F90C004042B042F5DC0EE0B5F901
:1022B0000C0000280ADD002604E01321384607F050
:1022C0007DFF761CB5F90C00B042F6DC1EE0B5F9D6
:1022D0000C0000280BDA002603E0384607F0B6FEB3
:1022E000761CB5F90C004042B042F6DC0DE0B5F9C1
:1022F0000C00002809DD002603E0384607F03CFE0C
:10230000761CB5F90C00B042F7DC00BF384607F088
:10231000BBFE9D4908600846006800B984E7A87BB9
:10232000012831D1B8F1000F2ED10020009096483D
:1023300000686A461221C3699348006898470EF006
:102340002FFA6064384607F096FE10B99DF8000039
:10235000C8B98D48006800220721C3698A4800680F
:10236000984704F11C0000F0C7FD00B15CE70022B3
:1023700011468548006807F065FC04F11C0000F078
:10238000BBFD00B150E7F9E0A87B01284BD1B8F1C3
:10239000010F48D194F84C0000F001000028F2D160
:1023A000606C0EF0EFF9E18A8842ECD900200090D1
:1023B000754800686A461221C369734800689847E7
:1023C0009DF8000068B138460AF05EF818BB384640
:1023D00007F051FE80F001063146384607F00DFF48
:1023E00019E06948006800220B21C369664800684B
:1023F000984704F11C0000F07FFD00B114E70022B3
:1024000004216148006807F01DFC04F11C0000F085
:1024100073FD00B108E794F84C0020F00100401C67
:1024200084F84C00AAE0A87B0028ACD1B8F1010FD9
:10243000A9D10090544800686A461221C3695248E5
:10244000006898479DF80000B0BB4F480068002224
:102450000A21C3694C480068984704F11C0000F049
:102460004BFD00B1E0E694F84C0000F0010028B903
:10247000002203214448006807F0E4FB04F11C003B
:1024800000F03AFD00B1CFE6002206213E48006888
:1024900007F0D8FB04F11C0000F02EFD00B1C3E6EC
:1024A000002207213848006807F0CCFB04F11C002B
:1024B00000F022FDA8B3B7E6FFE797F85800C0F395
:1024C000400078B394F84C0000F0010018B1384691
:1024D00009F0DAFF28B32C48006800220A21C369FA
:1024E00029480068984704F11C0000F005FD00B180
:1024F0009AE6002203212448006807F0A3FB04F1B8
:102500001C0000F0F9FC00B18EE6002206211E48F6
:10251000006807F097FB04F11C0000F0EDFC10B11F
:1025200082E622E010E0002207211748006807F049
:1025300089FB04F11C0000F0DFFC00B174E60A2105
:10254000384607F03BFE10E09DF8000068B197F8B0
:102550005800C0F3400040B994F84C0000F001006E
:1025600018B90121384607F048FE0021616494F84B
:102570004C0020F0010184F84C1000BF00200249FB
:10258000086000BF50E60000DC0000202DE9F041AB
:1025900004460D46A87B012806D194F84C00C0F3F0
:1025A000C00008B1BDE8F08194F84C00C0F3C00051
:1025B00080B194F84C0020F0080184F84C10002100
:1025C000616494F84C0020F0010184F84C10002163
:1025D00020200155676D07B9E4E7384607F054FD40
:1025E000A84908600846006800B9DBE7D4F82480F1
:1025F000696861622020065DA97B0155A87B0128DE
:1026000061D1002E5FD10EF0CBF8606468680A28B3
:102610001ED10A21384607F0D1FD9A4800680022F1
:102620000721C36997480068984704F11C0000F02F
:1026300063FC00B1B6E7002211469248006807F03B
:1026400001FB04F11C0000F057FC00283AD0A9E778
:1026500068681B2810D11B21384607F0AFFD002207
:1026600012218848006807F0EDFA04F11C0000F020
:1026700043FC0028EAD095E7686809280DD10021BD
:10268000384607F0BAFD384607F076FC04F11C0026
:1026900000F032FC0028D9D084E768680B280DD1FF
:1026A0000021384607F0A9FD384607F0CFFC04F1B9
:1026B0001C0000F021FC0028C8D073E73846696888
:1026C00007F07CFDD9E0A87B012872D1012EFCD156
:1026D00094F84C0000F0010068BB606C0EF052F8FA
:1026E000E18A884227D994F84C0020F00100401C70
:1026F00084F84C0068680A28E4D10EF051F8A06410
:102700006048006800220B21C3695E480068984752
:1027100004F11C0000F0F0FB00B143E700220421AB
:102720005848006807F08EFA04F11C0000F0E4FB42
:102730000028C7D036E794F84C0000F001000028CC
:10274000C0D0A06C0EF01EF8218B8842BAD90EF0D2
:1027500027F8A06468680A281AD14A48006800224D
:102760000C21C36947480068984704F11C0000F039
:10277000C3FB00B116E7002205214248006807F0BC
:1027800061FA04F11C0000F0B7FB002875D009E7DE
:10279000686809280ED10021384607F02EFD38461A
:1027A00007F0EAFB04F11C0000F0A6FB002864D04F
:1027B000F8E619E068680B280CD10021384607F0CC
:1027C0001CFD384607F042FC04F11C0000F094FBAD
:1027D00090B3E7E63846696807F0F0FC04F11C00A6
:1027E00000F08AFB40B3DDE6A87B28BB012E44D174
:1027F000C5F8048068680A2837D12248006800229A
:102800000A21C3691F480068984704F11C0000F0C2
:1028100073FB00B1C6E694F84C0000F0010060B90B
:10282000002203211748006807F00CFA04F11C008D
:1028300000F062FB08B1B5E61FE000220621114856
:10284000006807F0FFF904F11C0000F055FB00B12F
:10285000A8E6002207210B48006807F0F3F904F10D
:102860001C0000F049FB00B19CE60021616494F873
:102870004C0020F0010184F84C1000200149086050
:1028800000BF8FE6DC00002070B504460D46206DC9
:1028900090B1B4F92400B5F90010884205D1B4F91B
:1028A0002600B5F90210884206D0B5F90220B5F924
:1028B0000010206D0BF0B2FA2988218469886184A8
:1028C000207F012804D104F11C0000F00BF803E084
:1028D00004F11C0000F0B6F9218CA184618CE18424
:1028E00070BD00002DE9F0410446D449A06908609C
:1028F00094F83000C0F3C00008B1BDE8F081D048C2
:102900000068C668CD48006820BB304603F018FA5E
:1029100005462946204600F0FFFAC84908600846E7
:10292000006848B9304603F04DFA0546294620466E
:1029300000F0F2FAC1490860C0480068C8BB3046E0
:1029400003F082FA05462946204600F0E5FABB4925
:1029500008602EE094F82400C0F3400048BB10212A
:10296000B64800680BF04AF918BB304603F0E8F9A6
:1029700005462946204600F0CFFAB04908600846CF
:10298000006848B9304603F01DFA0546294620463E
:1029900000F0C2FAA9490860A848006848B9304662
:1029A00003F052FA05462946204600F0B5FAA3493D
:1029B0000860A249A069096888426CD0A188218179
:1029C000E1886181A069B0B1A5699D48EB690921E1
:1029D000026828469847204600F08EFA00B18CE73E
:1029E00000220221284607F02DF9204600F084FA43
:1029F00000B182E700BF91480168A1610168E1610F
:102A00000068002847D00DF0CBFEA06294F830009B
:102A100020F0010084F8300094F8240020F0010137
:102A200084F8241094F8240020F0020184F8241083
:102A3000002121826182A181E1818048056800270F
:102A400009E095F83000C0F3401000B12F46284649
:102A50000AF0F4FF0546002DF3D117B138460BF00C
:102A6000D6F876480068C36975480721026873483C
:102A700000689847204600F03FFA00B13DE7002289
:102A800011466E48006807F0DDF8204600F034FA81
:102A900000B132E700BFA1882089081A01B2A181E4
:102AA000E1886089081A01B2E181B4F9140000EBF1
:102AB0008000C010A082B4F9160000EB8000C110A5
:102AC000E182B4F91400002804DAA08A401C01B2A3
:102AD000A18207E0B4F91400002803DDA08A401E9B
:102AE00001B2A182B4F91600002804DAE08A401C81
:102AF00001B2E18207E0B4F91600002803DDE08AA4
:102B0000401E01B2E182A18AB4F90C00800001EB01
:102B1000E00001B2A182E18AB4F90E00800001EB6D
:102B2000E00001B2E18245480068002875D04348C2
:102B30000068C36942480821026840480068984715
:102B4000204600F0D9F900B1D7E6002201213B4828
:102B5000006807F077F8204600F0CEF900B1CCE627
:102B60002046FFF761F9204600F0C6F900B1C4E63F
:102B700094F82400C0F3400078BB94F8300000F0D3
:102B8000010050BBA06A0DF0FDFD2D490968C98AFE
:102B9000884222D929480068C36929480B21026864
:102BA000264800689847204600F0A6F900B1A4E640
:102BB000002204212148006807F044F8204600F074
:102BC0009BF900B199E694F8300020F00100401C18
:102BD00084F830000DF0E4FDE06294F82400C0F3C6
:102BE0004000D0B994F8300000F00100A8B1E06ACC
:102BF0000DF0C8FD12490968098B88421CD90F489D
:102C00000068C3690E480C2102680C4800689847A8
:102C1000204600F071F908B16FE60DE000220521B1
:102C20000648006807F00EF8204600F065F900B18C
:102C300063E60DF0B5FDE06200BF5EE6DC0000205B
:102C4000D80000202DE9F041044694F83000C0F38C
:102C5000C00058B10021A161E1610020A062E062E2
:102C600094F8300020F0080084F830008949A06909
:102C700008600846006800286FD010218548006869
:102C80000AF0BCFF002839D082480068C369824836
:102C90000A2102687F4800689847204600F02CF916
:102CA00008B1BDE8F08194F82400C0F34000D0B929
:102CB00094F8300000F0010050B90022032175485B
:102CC000006806F0BFFF204600F016F900B1E8E703
:102CD000002206216F48006806F0B4FF204600F08D
:102CE0000BF900B1DDE7002207216A48006806F011
:102CF000A9FF204600F000F970B3D2E765480068EC
:102D0000C36965480A2102686248006898472046FE
:102D100000F0F2F800B1C4E794F8300000F00100D0
:102D200078B994F82400C0F3400050B90022032180
:102D30005848006806F086FF204600F0DDF800B134
:102D4000AFE7002206215348006806F07BFF2046CB
:102D500000F0D2F810B1A4E70BE08AE000220721CE
:102D60004C48006806F06EFF204600F0C5F800B140
:102D700097E7204600F0C0F800B192E74FF0000856
:102D8000444800680AF035FE0546202141480068A5
:102D90000AF034FF10BB3F48076810E038460AF0DD
:102DA0004DFE074607B90CE0202138460AF026FF01
:102DB00008B1002705E038460AF01BFE0546002D45
:102DC000ECD000BF4DB147B1284607F04BF920B118
:102DD0004FF00108384607F0DBF800BF2D49206AA4
:102DE0000968884219D0B8F1000F16D100220D21D0
:102DF000206A06F027FF204600F07EF800B150E779
:102E000000220C21A06906F01DFF204600F074F896
:102E100000B146E71F4801682162204600F06CF8C7
:102E200000B13EE71B48066803E030460AF006FEA4
:102E3000064630460AF0CEFD08B1002EF5D196B117
:102E400030460AF0CDFD70B194F82400C0F3400084
:102E500048B100220A21304606F0F4FE204600F078
:102E60004BF800B11DE70021A1610020A062E062E3
:102E700000BFE06960B194F83000C0F3400038B999
:102E80002046FFF7EDF8204600F036F800B108E7DD
:102E900000BF06E7DC000020D800002090F84C10AE
:102EA000C1F3400129B3002242638263C26390F8F8
:102EB000401021F0010280F8402090F8401021F0ED
:102EC000020280F8402090F84C1021F0010280F8B6
:102ED0004C200022426482648285C285028642863A
:102EE00090F84C1021F0020280F84C200021014A99
:102EF00011607047DC000020014691F83000C0F3FB
:102F0000400010B10020034A106091F83000C0F377
:102F100040007047DC0000202DE9F04107460C46D8
:102F20000025391D04F1100001F093FE00282BD07C
:102F3000201D09F003FA80460BE041463846FFF7B2
:102F4000EBFF054605B107E04146201D09F0FBF9FE
:102F50008046B8F1000FF0D100BFA5B920460AF0B5
:102F6000C1FC80B1264608E030460AF04DFD00B1B4
:102F700005E030460AF062FD0646002EF4D100BF9F
:102F800006B9254600BF00BF2846BDE8F08130B530
:102F9000024614460B4620881D88A84203D020888C
:102FA0001D88401B30BD60885D88401BFAE730B546
:102FB000024614460B4620781D78A84203D020789C
:102FC0001D78401B30BD60785D78401BFAE700003B
:102FD00010B510211A48FDF7CCFC78B1082118482B
:102FE000FDF7C7FC50B104211548FDF7C2FC28B11C
:102FF00001211448FDF7BDFC01281FD10A20FEF76E
:103000009FFB10210E48FDF7B4FC08B9012010BD4C
:1030100008210B48FDF7ADFC08B90220F7E70421B1
:103020000748FDF7A6FC08B90320F0E70121054891
:10303000FDF79FFC012801D10420E8E70020E6E726
:1030400000100240000002401CB501211120FDF7D4
:10305000BBFE1C20009000208DF8040003208DF89A
:10306000050001208DF8070069460648FDF716FCAB
:103070000120009002208DF8070069460248FDF704
:103080000DFC1CBD001002400000024070B5064659
:103090000C46FFF79DFF0546B5B10120A073012D39
:1030A00006D0022D06D0032D06D0042D08D105E050
:1030B000132505E0122503E0142501E0112500BFCA
:1030C00000BF0548056001E00020A07302480068C9
:1030D0006060002070BD0000641A00202DE9F04FF0
:1030E00085B00446894615461E46E88E401E07B246
:1030F0004FEA670807F0010AFF2E02D13820405D31
:1031000003E03820405D7043001283462088ADF80C
:103110000C00A088ADF810006088A0EB0800A0EBC0
:103120000A0000B2ADF80E00E088404400B2ADF8ED
:103130001200BDF90C00BDF91010884202DABDF989
:103140000C0001E0BDF91000ADF80400BDF90C0061
:10315000BDF91010884202DDBDF90C0001E0BDF997
:103160001000ADF80800BDF90E00BDF9121088423C
:1031700002DABDF90E0001E0BDF91200ADF806005B
:10318000BDF90E00BDF91210884202DDBDF90E0036
:1031900001E0BDF91200ADF80A0095F834005B4675
:1031A00002464946009001A803F016F805B0BDE8B4
:1031B000F08F0FB59BB02098FF2803D11E9890F890
:1031C000380005E01E9890F8380020994843001216
:1031D0001A900CF0F7FB099002F081FD19901B98F2
:1031E00081880088081A00B2ADF860001B98C18879
:1031F0004088081A00B2ADF862001B98007EF0B15A
:103200001B98B0F90210B0F906201C9810448142B6
:103210000ADABDF86200404200B2ADF85C00BDF8C9
:103220006000ADF85E0028E0BDF86200ADF85C001B
:10323000BDF86000404200B2ADF85E001DE01B9892
:10324000B0F90010B0F904201C98104481420ADA49
:10325000BDF86200ADF85C00BDF86000404200B20D
:10326000ADF85E0009E0BDF86200404200B2ADF882
:103270005C00BDF86000ADF85E00BDF85C000001C8
:1032800000B2ADF85C00BDF85E00000100B2ADF820
:103290005E001E98B0F9360016901698C00009908E
:1032A00002F0FAFF159000201490169800283BD0E9
:1032B0000020029017AA02A903A800F011FF169897
:1032C000404301900020149029E0BDF81420DDE96E
:1032D000141020F82120BDF81620DDE9141000EBB1
:1032E00081004280BDF8140010FB00F1BDF81620EB
:1032F00012FB02100090DDE90001884208D3149807
:103300001690199818B11698401E00B2169009E050
:1033100003A800F04FFF1498401C00B214901498BA
:103320000428D2DB00BF00BF16981290199828B16C
:10333000169808B9012012900020139000201190D7
:1033400010901698B0B11698401E159931F92000CA
:10335000099000EBD070401011901698401E1599FE
:1033600001EB8000B0F90200099000EBD070401032
:10337000109023E01B98007E70B11B98B0F90210EA
:10338000B0F906201C981044814205DB159840884E
:10339000401E01B2159841801B98007E70B91B98A1
:1033A000B0F90010B0F904201C981044814205DBEC
:1033B00015980088401E01B21598018000201490D5
:1033C0007FE1DDE9141030F821101198081A02B2DB
:1033D000DDE9141020F82120DDE9141000EB810054
:1033E00041881098081A02B2DDE9141000EB810040
:1033F0004280199800287ED014980028FBD01B9892
:10340000007E002878D01498401E159931F92020AC
:103410000846149930F921008242ECD0DDE91410FD
:1034200000EB810042881399159800EB81004088D9
:10343000101A00B209901B98B0F91200002849DA5E
:103440001A9801901E9890F834008DF800001B988F
:1034500042881399159800EB81004088111809984B
:103460000844401C00B208901B98028813991598D4
:1034700030F821001044401E00B207901D9BDDE98A
:10348000081202F059FE1A9801901E9890F8340024
:103490008DF800001B98C2881399159800EB8100E5
:1034A0004088111809980844401C00B208901B98E5
:1034B00082881399159830F821001044401C00B2FE
:1034C00007900998404202B21D9BDDE9070102F016
:1034D00033FE43E01A9801901E9890F834008DF85E
:1034E00000001B9842881399159800EB81004088D2
:1034F000104400B201E0C2E033E008901B9802885B
:10350000159830F821001044401E00B207901D9B12
:10351000DDE9081202F010FE1A9801901E9890F84A
:1035200034008DF800001B98C2881399159800EBA1
:1035300081004088104400B208901B98828815983A
:1035400030F821001044401C00B207900998404216
:1035500002B21D9BDDE9070102F0EEFD1498139005
:10356000ABE01498401E159901EB8000B0F90220E1
:103570000846149900EB8100B0F9020082427ED027
:10358000DDE9141030F82120139930F82100101AC9
:1035900000B209901B98B0F90E00002847DA1A987B
:1035A00001901E9890F834008DF800001B98428816
:1035B0001399159800EB810040881044401E00B21A
:1035C00008901B980288159830F821001118099866
:1035D0000844401C00B207901D9BDDE9081202F070
:1035E0007DFD1A9801901E9890F834008DF8000027
:1035F0001B98C2881399159800EB810040881044ED
:10360000401C00B208901B988288159830F8210061
:10361000111809980844401C00B2079009984042CC
:1036200002B21D9BDDE9070102F058FD42E01A9845
:1036300001901E9890F834008DF800001B98428885
:103640001399159800EB810040881044401E00B289
:1036500008901B980288159830F82100104400B299
:1036600007901D9BDDE9081202F038FD1A980190C1
:103670001E9890F834008DF800001B9800E01CE0C4
:10368000C2881399159800EB810040881044401CB3
:1036900000B208901B988288159830F821001044D9
:1036A00000B207900998404202B21D9BDDE9070174
:1036B00002F014FD1498139000BF1498401C00B23F
:1036C0001490169914988842FFF67BAE169800283D
:1036D0007DD019980028FBD01B98007E002877D059
:1036E0001298401E159901EB8000428808461399F4
:1036F00000EB81004088101A00B209901B98B0F9C5
:103700001200002853DA1A9801901E9890F834009D
:103710008DF800001B9842881399159800EB8100E2
:10372000408811180998084400B207901B98028835
:103730001399159830F821001044401E00B20690ED
:103740001B98418A0998084400B2089002461D9BC4
:10375000DDE9060102F0F0FC1A9801901E9890F83D
:1037600034008DF800001B98C2881399159800EB5F
:103770008100408811180998084400B207901B98EE
:1037800082881399159830F821001044401C00B22B
:1037900006901B98418A09980844404200B208905C
:1037A00002461D9BDDE9060102F0C6FC4FE01A98B7
:1037B00001901E9890F834008DF800001B98428804
:1037C0001399159800EB81004088104401E0F0E067
:1037D0003EE000B207901B980288159830F821004F
:1037E0001044401E00B206901B98418A0998084474
:1037F00000B2089002461D9BDDE9060102F09CFC28
:103800001A9801901E9890F834008DF800001B98CB
:10381000C2881399159800EB81004088104400B2CB
:1038200007901B988288159830F821001044401C9E
:1038300000B206901B98418A09980844404200B2A1
:10384000089002461D9BDDE9060102F075FCB0E020
:103850001298401E159931F820200846139930F827
:103860002100101A00B209901B98B0F90E00002830
:1038700051DA1A9801901E9890F834008DF80000E3
:103880001B9842881399159800EB810040881044DA
:10389000401E00B207901B980288159830F821004E
:1038A00011180998084400B206901B98C18909981C
:1038B000084400B2089002461D9BDDE9060102F0B3
:1038C0000DFC1A9801901E9890F834008DF80000B5
:1038D0001B98C2881399159800EB8100408810440A
:1038E000401C00B207901B988288159830F8210080
:1038F00011180998084400B206901B98C1890998CC
:103900000844404200B2089002461D9BDDE90601D2
:1039100002F0E4FB4CE01A9801901E9890F83400F5
:103920008DF800001B9842881399159800EB8100D0
:1039300040881044401E00B207901B9802881598DA
:1039400030F82100104400B206901B98C1890998F4
:10395000084400B2089002461D9BDDE9060102F012
:10396000BDFB1A9801901E9890F834008DF8000065
:103970001B98C2881399159800EB81004088104469
:10398000401C00B207901B988288159830F82100DF
:10399000104400B206901B98C1890998084440421F
:1039A00000B2089002461D9BDDE9060102F096FB7D
:1039B00000BF00200F900E90199840B31B98007E16
:1039C000B8B91B98B0F90E00002809DA4FF0FF30A3
:1039D0000F90169808B9002000E00F980E901FE095
:1039E00001200E90169808B9002000E00E980F9064
:1039F00016E01B98B0F91200002809DA4FF0FF30EA
:103A00000F90169808B9002000E00F980E9007E07C
:103A100001200E90169808B9002000E00E980F9033
:103A20001B980088ADF834001B984088ADF836002C
:103A300001200A901B98007E00287ED0B9E000206B
:103A4000149055E0BDF83420DDE9141030F8210061
:103A5000104400B2ADF82C00BDF83620DDE914109A
:103A600000EB81004088104400B2ADF82E00BDF894
:103A70002C101B9800890844BDF83410401A401ED1
:103A800000B2ADF83000BDF82E00ADF832001E983F
:103A900090F83400099002460BA81A9B1D9902F079
:103AA0009BFB149800B3DDE9141030F92120481E67
:103AB000159931F92000824216D00A98A0B91A98B7
:103AC0000090BDF82E101B98408A081A00B208908A
:103AD0001E9890F834000990BDF92C000790DDE99C
:103AE00008131D9A03F00FFA1498401C00B21490AA
:103AF000169914988842A5DB1998F0B31A9801908A
:103B00001E9890F834008DF80000BDF834101B9812
:103B10000089081A00B20990BDF83610159840883F
:103B200001440F98081A00B20890BDF83410159897
:103B30000088084400B2079000E0EFE01D9BDDE93B
:103B4000081202F0CBFA1A9801901E9890F83400EF
:103B50008DF800001B980089BDF83410401A00B29F
:103B60000990BDF836201298401E159901EB80008F
:103B7000408811180E98084400E010E000B2089048
:103B8000BDF834201298401E159931F820001044D9
:103B900000B207901D9BDDE9081202F09FFA002099
:103BA0000A901B980089ADF834001B984089ADF845
:103BB00036001B9800F043FB00287FF440AF1490C0
:103BC00054E0BDF83420DDE9141030F82100104431
:103BD00000B2ADF82C00BDF83620DDE9141000EB82
:103BE00081004088104400B2ADF82E00BDF82C10C2
:103BF0001B9800890144BDF83400081A00B2ADF8E2
:103C00003000BDF82E00ADF832001E9890F8340058
:103C1000099002460BA81A9B1D9902F0DDFA149830
:103C200000B3DDE9141030F92120481E159931F94F
:103C30002000824216D00A98A0B91A980090BDF8C8
:103C40002E101B98408A081A00B208901E9890F80F
:103C500034000990BDF92C000790DDE908131D9A86
:103C600003F051F91498401C00B21490169914985E
:103C70008842A6DB199800284FD01A9801901E9808
:103C800090F834008DF800001B980089BDF83410BE
:103C9000401A401C404200B20990BDF836101598F9
:103CA000408801440F98081A00B20890BDF83410FB
:103CB00015980088084400B207901D9BDDE90812A2
:103CC00002F00CFA1A9801901E9890F834008DF8C2
:103CD00000001B980089BDF83410401A401C00B247
:103CE0000990BDF836201298401E159901EB80000E
:103CF000408811180E98084400B20890BDF834208E
:103D00001298401E159931F82000104400B2079017
:103D10001D9BDDE9081202F0E1F975E1BBE000202E
:103D200014905AE0BDF83420DDE9141030F8210079
:103D3000104400B2ADF82C00BDF83620DDE91401C6
:103D400001EB80004088104400B2ADF82E00BDF8B1
:103D50002C00ADF83000BDF82E101B9840890844A7
:103D6000BDF83610401A401E00B2ADF832001E9861
:103D700090F83400099002460BA81A9B1D9902F096
:103D80002BFA149828B3DDE9141000EB8100B0F988
:103D90000220481E159901EB8000B0F90200824212
:103DA00017D00A98A8B91A980090BDF82C101B9843
:103DB000C089081A00B207901E9890F83400099044
:103DC000BDF92E0008900146099B1D9A079803F043
:103DD0009AF81498401C00B21490169914988842CE
:103DE000A0DB1998E0B31A9801901E9890F834005F
:103DF0008DF80000BDF836101B984089081A00B2F3
:103E00000990BDF8361015984088084400B2089013
:103E1000BDF834101598008801440F98081A00B2B4
:103E200007901D9BDDE9081202F086F91A980190AF
:103E30001E9890F834008DF800001B984089BDF85A
:103E40003610401A00B20990BDF836201298401E74
:103E5000159901EB80004088104400B2089000E002
:103E60000FE0BDF834201298401E31F820001118E0
:103E70000E98084400B207901D9BDDE9081202F07D
:103E80005BF900200A901B980089ADF834001B985C
:103E90004089ADF836001B9800F0C0F900287FF487
:103EA0003EAF149059E0BDF83420DDE9141030F82D
:103EB0002100104400B2ADF82C00BDF83620DDE939
:103EC000141000EB81004088104400B2ADF82E00C1
:103ED000BDF82C00ADF83000BDF82E101B984089BD
:103EE0000844BDF83610401A00B2ADF832001E98F2
:103EF00090F83400099002460BA81A9B1D9902F015
:103F00006BF9149828B3DDE9141000EB8100B0F9C7
:103F10000220481E159901EB8000B0F90200824290
:103F200017D00A98A8B91A980090BDF82C101B98C1
:103F3000C089081A00B207901E9890F834000990C2
:103F4000BDF92E0008900146099B1D9A079802F0C2
:103F5000DAFF1498401C00B2149016991498884205
:103F6000A1DB1998E8B31A9801901E9890F83400D4
:103F70008DF800001B984089BDF83610401A401C8F
:103F8000404200B20990BDF83610159840880844A8
:103F900000B20890BDF834101598008801440F98BD
:103FA000081A00B207901D9BDDE9081202F0C4F860
:103FB0001A9801901E9890F834008DF800001B9814
:103FC0004189BDF83600081A401C00B20990BDF8BE
:103FD00036201298401E159901EB8000408810444D
:103FE00000E011E000B20890BDF834201298401EA5
:103FF00031F8200011180E98084400B207901D9B5C
:10400000DDE9081202F098F81FB000BD2DE9F04F6D
:1040100085B00446894615461E46E88E401E07B206
:104020004FEA670807F0010AFF2E02D13820405DF1
:1040300003E03820405D7043001283462088A0EBE7
:10404000080000B2ADF80C00A0884044504400B213
:10405000ADF810006088ADF80E00E088ADF81200F1
:10406000BDF90C00BDF91010884202DABDF90C0050
:1040700001E0BDF91000ADF80400BDF90C00BDF978
:104080001010884202DDBDF90C0001E0BDF91000FE
:10409000ADF80800BDF90E00BDF91210884202DA31
:1040A000BDF90E0001E0BDF91200ADF80600BDF942
:1040B0000E00BDF91210884202DDBDF90E0001E0CC
:1040C000BDF91200ADF80A0095F834005B460246CF
:1040D0004946009001A802F07FF805B0BDE8F08FD6
:1040E00030B50B8803804B884380138883805488C5
:1040F000C480B0F90430B0F900401B1B002B05DD73
:10410000B0F90430B0F900401B1B04E0B0F90030F6
:10411000B0F904401B1B1BB28381B0F90030B0F929
:104120000440A34201DA012301E04FF0FF33C381D1
:10413000B0F90630B0F902401B1B002B05DDB0F9C9
:104140000630B0F902401B1B04E0B0F90240B0F9A0
:104150000630E31A1BB20382B0F90240B0F9063010
:104160009C4201DA012301E04FF0FF334382B0F9B2
:104170000C40B0F91050AC4202DDB0F90C4002E046
:10418000B0F910406442234604EBD374641024B2A7
:1041900084820023C382B0F90C30B0F91040A342EE
:1041A00001DD012300E000230376038803814488B6
:1041B000448130BD0146B1F90800B1F904209042B4
:1041C00007D1B1F90A20B1F90600824201D10020DD
:1041D0007047888AC882B1F91600B1F90C205242A2
:1041E000904209DD888A0A8A801A00B2888208898A
:1041F000CA89104400B20881B1F91600B1F9102043
:10420000904209DA888A8A89104400B288824889F3
:104210004A8A104402B24A810120D9E770B50446A7
:10422000B4F9085000BF2046FFF7C4FF08B90020CA
:1042300070BDB4F90800A842F5D00120F8E770B5C8
:104240000446B4F90A5000BF2046FFF7B3FF08B98F
:10425000002070BDB4F90A00A842F5D00120F8E7AB
:10426000F8B5FE49FE480BF09DFDFC49FD480BF0FA
:1042700099FDFA49FC480BF095FDF849FB480BF015
:1042800091FDF649FA480BF08DFDF449F9480BF021
:1042900089FDF249F8480BF085FD05F013FEF7495A
:1042A000086008460168F648006806F046FF0021ED
:1042B000F448006809F0B4FEF34908600846016854
:1042C000EE48006805F0A8FDF049EC48006805F0EC
:1042D000C2FFEF49EC48006809F017FD0021EA48E9
:1042E000006800F0DDFDEB4908600021E948006846
:1042F00000F0D6FDE84908600021E748006806F0B4
:10430000E7FFE649086008460168E348006806F0F0
:10431000DFFFE3490860E1480168DF48006806F014
:10432000D7FFE0490860DC480168DA48006800F01F
:10433000B7FDDD490860D9480168DB48006806F030
:10434000C7FFDA490860D5480168D748006806F019
:10435000BFFFD7490860D1480168D348006806F01C
:10436000B7FFD4490860CD480168CF48006806F01F
:10437000AFFFD1490860C9480168CB48006806F022
:10438000A7FFCE490860C4480168BF48006800F034
:1043900087FDCB4908600021C948006800F080FD16
:1043A000C84908600021C748006806F091FFC64967
:1043B000086008460168C348006806F089FFC349E1
:1043C0000860C0480168BE48006800F069FDC04947
:1043D0000860BD480168BE48006806F079FFBD4925
:1043E0000860B9480168BA48006806F071FFBA4928
:1043F0000860B4480168B248006800F051FDB74950
:104400000860B1480168B548006806F061FFB4492A
:104410000860AD480168B148006806F059FFB1492D
:104420000860B148B0F90020B048B0F900109648D3
:10443000006809F04CFD8A4A0021934800680AF0A0
:104440005EFF00218748C18281820183418381838D
:10445000024601218C4800680AF051FF8A4806256F
:10446000046820460AF0DFF90646294601F0E6FA1C
:1044700000BF9F497E48416202229E499E480078C3
:104480000CF0DCFF9B498548006807F007FE784A7E
:1044900000218248006807F0EEFD98A1804800687E
:1044A00007F0FCFD724A00217D48006807F0E3FD3B
:1044B00002229349934800780CF0C0FF9049794854
:1044C000006807F0EBFD6A4A00217648006807F0B3
:1044D000D2FD8648B0F900004000032190FBF1F0C6
:1044E000001F05B28048B0F9000000EB4004E0175F
:1044F00004EB907080100A3802B2294666480068C2
:1045000009F0E5FC6448006809F0E4FA06466348EF
:10451000006809F0DFFA05466148006809F0DAFA38
:1045200005446048006809F0D5FA2844341A04EBC1
:10453000D470401001B24C48018302460021564815
:10454000006801F093FA06215348006801F076FAFA
:1045500004226D496D4800880CF070FF6A49534889
:10456000006807F09BFD6AA15148006807F096FDBE
:1045700002226849684800780CF060FF65494D48A0
:10458000006807F08BFD62A14B48006807F086FDCC
:1045900002226249624800780CF050FF5F494748A8
:1045A000006807F07BFD5148B0F90000400003218E
:1045B00090FBF1F0001F05B24B48B0F90040E01746
:1045C00004EB90708010C21C29463748006809F03F
:1045D0007EFC3548006809F07DFA054633480068DE
:1045E00009F078FA06463348006809F073FA06EBDA
:1045F00040062F48006809F06DFA06EB40002C1ABF
:1046000004EBD470401001B2184801830246002127
:104610002548006801F02AFA06212348006801F0C5
:104620000DFA012003460246002100901948006857
:1046300001F0C8F90B4A00211648006801F016FA8B
:1046400001211448006801F0F9F936490A4841622D
:1046500035A11D48006807F021FD69E09021002088
:10466000841E0020C01E0020FC1E0020381F0020D9
:10467000741F0020B01F0020EC1F0020000000204D
:10468000601A00201400002018000020691301089F
:10469000591901081C0000202000002024000020DF
:1046A0002C000020280000203000002034000020D2
:1046B0004000002038000020440000203C00002082
:1046C000480000204C000020500000205400002032
:1046D000580000205C0000206000002064000020E2
:1046E000680000206C00002004000020060000206C
:1046F000101900207F000020850000203A000000F3
:104700008200002086000020880000209400002005
:104710002F0000008D000020960000209000002057
:104720009700002040010020EE99A33A000000000D
:10473000584A00215848006807F09DFC0322574959
:10474000574800780CF07AFE54495648006807F044
:10475000A5FC554A00215548006801F087F95448E6
:10476000B0F90000032190FBF1F0401E04B2514863
:10477000B0F9000090FBF1F005B2224629464B4803
:10478000006809F0A4FB06214848006801F056F9CA
:1047900049494A4841624AA14B48006807F07EFCFB
:1047A000464A00214848006807F065FC0322474953
:1047B000474800780CF042FE44494648006807F03C
:1047C0006DFC394A00214448006801F04FF938482F
:1047D000B0F90000032190FBF1F0401E04B235480F
:1047E000B0F9000090FBF1F005B2224629463A48A4
:1047F000006809F06CFB06213748006801F01EF9DB
:1048000036A13848006807F049FC2C4A0021354899
:10481000006807F030FC03223349344800780CF07C
:104820000DFE31493248006807F038FC1E4A00216D
:104830003048006801F01AF91D48B0F90000032162
:1048400090FBF1F0401E04B21A48B0F9000090FB52
:10485000F1F005B2224629462648006809F037FBE8
:1048600006212448006801F0E9F8012003460022EF
:10487000014600902048006801F0A4F80A4A00218F
:104880001D48006801F0F2F801211B48006801F0A2
:10489000D5F8F8BDEC1F002050000020700000206B
:1048A0007C00002054000020C01E00204C0000208E
:1048B000040000200600002078010020B01F002026
:1048C000EE98A83A000000005C0000207400002070
:1048D0007D0000206000002058000020EEA29B3ADE
:1048E0000000000068000020780000207E0000200A
:1048F0006C000020640000204800002010B5242136
:10490000064807F03AFD0BF04BFF0549086000230D
:1049100003220A2103480BF023FD10BDE8230020E9
:104920002C1900200115000870B50546686818B1FB
:10493000D5E9000100F044F8124807F029FD0446CB
:104940003CB911A35C2214A1032008F08DF800BF2C
:10495000FEE704B970BD95F8200020F0040085F84A
:104960002000242229462046FBF742FE606820B141
:10497000238A19B2D4E90002904701200F49087038
:1049800000BFE7E7E82300204F7574206F66206DB5
:10499000656D6F72792100002E2E5C4C56474C5F7E
:1049A0004755495C7372635C6C765F6D6973635CD9
:1049B0006C765F616E696D2E630000003019002017
:1049C0002DE9F04107460D464FF00008104807F06A
:1049D000B5FC044617E021460D4807F0B4FC064636
:1049E0002068B8420ED16068A84200D055B921466F
:1049F000074807F08AFD204608F0A4F80120054981
:104A0000087080463446002CE5D14046BDE8F08170
:104A1000E82300203019002010B50146088BB1F9B9
:104A20001A40A04202D14FF4806205E0B1F91A00A9
:104A300080020C8B90FBF4F2D1E90440001B00FBD8
:104A400002F39B120869034418B210BD30B5044646
:104A50000B46981A002801DD981A00E0D01A054686
:104A60004FF47A70684390FBF4F1B1F5803F01D3C5
:104A70004FF6FF7101B9491C88B230BD0A68026067
:104A80004A68426070470A6802604A68426070473C
:104A90000A6802604A68426070470A6802604A68B1
:104AA000426070470A6802604A6842607047014687
:104AB000C8884A88801A401C00B270470146C888DE
:104AC0004A88801A401C00B270470146C8884A884C
:104AD000801A401C00B270470146C8884A88801A74
:104AE000401C00B2704710B50146B1F90420B1F97D
:104AF0000030D21A521CB1F90630B1F902401B1B2A
:104B00005B1C02FB03F010BD014688880A88801AEE
:104B1000401C00B27047014688880A88801A401CF1
:104B200000B27047014688880A88801A401C00B28B
:104B30007047014688880A88801A401C00B2704776
:104B4000014688880A88801A401C00B270470146D6
:104B500088880A88801A401C00B2704730B5034626
:104B6000B1F90040B2F90050AC4202DDB1F90040A9
:104B700001E0B2F900401C80B1F90240B2F90250E4
:104B8000AC4202DDB1F9024001E0B2F902405C80C2
:104B9000B1F90440B2F90450AC4202DAB1F9044070
:104BA00001E0B2F904409C80B1F90640B2F9065028
:104BB000AC4202DAB1F9064001E0B2F90640DC800D
:104BC0000120B3F90040B3F90450AC4205DCB3F95D
:104BD0000240B3F90650AC4200DD002030BD10B5F4
:104BE00002460020B2F90030B1F90040A34212DBC6
:104BF000B2F90230B1F90240A3420CDBB2F9043041
:104C0000B1F90440A34206DCB2F90630B1F906401E
:104C1000A34200DC012010BD0246B2F90000B1F948
:104C20000430984213DCB2F90400B1F90030984224
:104C30000DDBB2F90200B1F90630984207DCB2F997
:104C40000600B1F90230984201DB012070470020D4
:104C5000FCE710B502460020B1F90030B2F900407F
:104C6000A34212DBB1F90030B2F90440A3420CDCDC
:104C7000B1F90230B2F90240A34206DBB1F90230C9
:104C8000B2F90640A34200DC012010BD10B5B1F915
:104C90000030B2F90040A34202DAB1F9003001E07D
:104CA000B2F900300380B1F90230B2F90240A342F8
:104CB00002DAB1F9023001E0B2F902304380B1F911
:104CC0000430B2F90440A34202DDB1F9043001E03E
:104CD000B2F904308380B1F90630B2F90640A3423C
:104CE00002DDB1F9063001E0B2F90630C38010BD33
:104CF00010B5029C018042808380C48010BD428830
:104D00000A44521E12B2C2807047F0B503460C46E8
:104D1000154600BF98881988401A401C00B2064604
:104D200000BFD8885988401A401C00B207461C8032
:104D30005D803146184600F005F839461846FFF701
:104D4000DEFFF0BD02880A44521E12B28280704714
:104D50002DE9F04106460F46082007F0A7FE04465D
:104D600014B90020BDE8F08123460522002109483E
:104D70000BF0F6FA054625B9204607F0E3FE0020C1
:104D8000F0E726606760EC6028460BF0A9FC012084
:104D9000E8E70000994D000870B50546EC68D4E9D5
:104DA00000108847204607F0CDFE70BD0146B1F9DE
:104DB0000200B1F90020904201DC01207047002080
:104DC000FCE7028000234380C2F101031BB20B8089
:104DD00070474288521C12B24280B1F90020002A6A
:104DE00007DC0B8842885200521C1A4412B20A8017
:104DF0000CE00288521E12B2028042880388D21A46
:104E00005200521C0B881A4412B20A80704718B51F
:104E10000346D01140EAE11040EAE310C0B200902E
:104E20009DF80040204618BD07B581B07F2A04DDFB
:104E30009DF8040000F0010003E09DF8080000F078
:104E40000100C0B200909DF80010084604B000BDFB
:104E500007B581B07F2A04DD9DF8040000F0010051
:104E600003E09DF8080000F00100C0B200909DF83A
:104E70000010084604B000BD07B581B07F2A04DDEC
:104E80009DF8040000F0010003E09DF8080000F028
:104E90000100C0B200909DF80010084604B000BDAB
:104EA0002DE9F04180460E463146404608F06EFA44
:104EB00007463FB93CA346223FA1032007F0D4FD9B
:104EC00000BFFEE717B90020BDE8F0814348006845
:104ED00020B9384608F0C2FD404908600221384632
:104EE00008F041FA384608F081FD04460CB900206C
:104EF000EAE73CB92CA34F222FA1032007F0B4FD11
:104F000000BFFEE7207820F030002070207820F0ED
:104F1000C0002070607820F003006070607820F09E
:104F20000C006070207820F00F0020702C4938466B
:104F300008F0CBFF96B9B8F1000F33D00BF016FC98
:104F400005462DB100213846EA6800F098FD04E0DE
:104F5000244A0021384600F092FD23E0304608F054
:104F600045FD054628780109207861F30510207079
:104F700028788109207861F387102070687861783B
:104F800060F30101617068788108607861F38300E3
:104F900060702878217860F303012170384608F0AA
:104FA00081FE00BF38468FE74F7574206F66206D15
:104FB000656D6F72792100002E2E5C4C56474C5F58
:104FC0004755495C7372635C6C765F6F626A785CAC
:104FD0006C765F636F6E742E63000000481A0020C9
:104FE000915A00080822002070B50446204608F0B7
:104FF000FDFC05462878C0F3011070BD70B504466D
:10500000204608F0F3FC0546687800F0030070BD08
:1050100070B50446204608F0E9FC0546287800F003
:105020000F0070BD2DE9F84F0446204608F01AFD28
:1050300007464FF000090026201D07F07FF90546BE
:1050400019E0284608F0E0FC20B90421284608F0C1
:10505000D5FD00B10AE0284608F0CEFC0146B88B29
:105060000844304406B209F1010900BF2946201D59
:1050700007F069F90546002DE3D1B9F1000F01D120
:10508000BDE8F88FB88B301A06B20121204608F02F
:1050900016FF304606EBD071491049420FFA81F8ED
:1050A000201D07F065F905462AE0284608F0ACFC0B
:1050B00020B90421284608F0A1FD00B11BE02846D4
:1050C00008F09AFC824600EBDA7008EB60000FFAF9
:1050D00080FB00231A4621462846CDF800B007F091
:1050E000EDFD284608F088FC0146B88B0844404492
:1050F0000FFA80F800BF2946201D07F02FF905465A
:10510000002DD2D10121204608F037F900BFB7E7C2
:105110002DE9F84F06463046FFF77AFF82463046C3
:1051200008F0A0FC8046BAF1020F06D0BAF1030FD6
:1051300007D0BAF1040F0DD106E0B8F918500124D8
:105140000BE00025022408E0B8F81A00404205B23E
:10515000032402E00025012400BF00BF01213046E6
:1051600008F0ADFEB8F91490301D07F001F90746BC
:1051700021E0384608F048FC20B90421384608F000
:105180003DFD00B112E02B46224631463846CDF8AF
:10519000009007F093FD384608F02EFC0146B8F861
:1051A0001C00084448440FFA80F900BF3946301DFE
:1051B00007F0D4F80746002FDBD10121304608F074
:1051C000DCF8BDE8F88F2DE9F04F85B082465046F7
:1051D00008F048FC0446504608F07CFC804600215C
:1051E000504608F06EFB009008F074FC0546002164
:1051F000504608F066FB009008F0FEFB0490B4F9FE
:105200001800A8EB0001B4F91A00091AB4F91C003F
:10521000284491FBF0F086B2012E0FDDB4F918009E
:10522000A8EB0001B4F91A00081A284406FB15017E
:10523000701E91FBF0F00FFA80F90AE0414608EB8E
:10524000D1725210284605EBD073A2EB63020FFA1D
:1052500082F9A18B0498084400B2039001215046C2
:1052600008F02DFEB4F918B0B4F914000290002033
:1052700001900AF1040007F07BF8074631E0384658
:1052800008F0C2FB20B90421384608F0B7FC00B191
:1052900021E0012E09DD59463846029A08F0BEFD8C
:1052A0000BEB09000FFA80FB04E049463846029AEE
:1052B00008F0B4FD0198401C80B201900198B04202
:1052C00008DB00200190B4F918B0DDE902010844C0
:1052D00000B2029000BF39460AF1040007F03EF820
:1052E0000746002FCBD10121504608F046F805B003
:1052F000BDE8F08F2DE9F04F89B00546284608F04B
:10530000B1FB8046284608F0E5FB0790B8F91490F9
:10531000281D07F02DF8064616B909B0BDE8F08F34
:105320000121284608F0CBFD3446FBE04FF0000A8F
:10533000B8F81810B8F81A00084400B20690002710
:1053400000BF204608F060FB88BB0421204608F01F
:1053500055FC60BB204608F0BDFB06990144079848
:10536000814207DD2CB127B12146281D06F0EBFF55
:10537000044626E0204608F0ADFB0146B8F81C00C4
:1053800001440698084400B20690204608F034FB19
:10539000504501DA504602E0204608F02DFB8246D7
:1053A0007F1C0821204608F029FC00B109E0FFE736
:1053B0002146281D06F0D2FF044607B92646002CD8
:1053C000BFD100BF77B9002C0BD0002302222946A1
:1053D0002046CDF8009007F071FC204608F00CFB49
:1053E000824690E0012F08D1002302222946304650
:1053F000CDF8009007F062FC85E0022F3ED10596C3
:105400003146281D06F0AAFF0490059808F062FBBB
:105410008346049808F05EFB584400B20690DDE92C
:105420000610401A032190FBF1F000B2039005989A
:1054300008F0E2FAAAEB000B0BEBDB7009EB600063
:1054400000B20290009001222946039B059807F0C4
:1054500035FC049808F0D0FAAAEB000B0BEBDB70DC
:1054600009EB600000B2029000900398404203B242
:1054700003222946049807F021FC44E0B8F91C10E7
:10548000069801FB170000B20690DDE90610411AEC
:10549000781EB1FBF0F000B20590B8F918B008968C
:1054A0002CE0089808F0B0FAF8B90421089808F040
:1054B000A5FBD0B9089808F09FFAAAEB0000049069
:1054C00000EBD07009EB600000B203905B46012254
:1054D00029460090089807F0F1FB089808F0FAFABE
:1054E0000599084458440FFA80FB0898A04200D15F
:1054F00007E0281D089906F031FF08900898002859
:10550000CFD100BF00BF04B90FE0B8F81C00504471
:1055100048440FFA80F92146281D06F01FFF064671
:10552000344600BF002E7FF401AF00BF01212846A2
:1055300007F023FF00BFF0E62DE9F84F064630469E
:10554000FFF766FD8246304608F08CFA8046BAF1D5
:10555000050F06D0BAF1060F07D0BAF1070F0DD12B
:1055600006E0B8F9145001240BE00025072408E0F8
:10557000B8F81600404205B2042402E000250124D8
:1055800000BF00BF0121304608F099FCB8F918901F
:10559000301D06F0EDFE074620E0384608F034FAEC
:1055A00020B90421384608F029FB00B111E04B4630
:1055B000224631463846009507F080FB384608F011
:1055C00089FA0146B8F81C00084448440FFA80F9EB
:1055D00000BF3946301D06F0C1FE0746002FDCD162
:1055E0000121304607F0C9FEBDE8F88F2DE9F047EC
:1055F00088B00546284608F0F9F906463078C0F329
:10560000011068B93078800950B9707800F0030053
:1056100030B97078C0F3810010B908B0BDE8F087E8
:10562000284608F01FFA8046284608F007FA824606
:10563000504608F017FA81460AF1100102A8FFF758
:105640002CFABDF80810B9F81800084400B2ADF8FB
:105650000800BDF80C10B9F81A00081A00B2ADF82D
:105660000C00BDF80A10B9F81400084400B2ADF8F7
:105670000A00BDF80E10B9F81600081A00B2ADF80D
:105680000E0004A9284608F033F906A9284608F0B8
:105690002FF9281D06F0F8FE80F00107002F71D0C9
:1056A00047F61840ADF81800ADF81A0048F2E83097
:1056B000ADF81C00ADF81E00281D06F03FFE0446A4
:1056C0003EE0204608F0A0F900B134E0BDF9180032
:1056D000B4F91010884202DABDF9180001E0B4F9FB
:1056E0001000ADF81800BDF91A10B4F9120081428B
:1056F00002DABDF91A0001E0B4F91200ADF81A009F
:10570000BDF91C10B4F91400814202DDBDF91C0082
:1057100001E0B4F91400ADF81C00BDF91E10B4F995
:105720001600814202DDBDF91E0001E0B4F9160049
:10573000ADF81E0000BF2146281D06F004FE0446F9
:10574000002CBED1BDF81810B8F81800081A00B225
:10575000ADF81800BDF81C10B8F81A00084400B2E3
:10576000ADF81C00BDF81A10B8F81400081A00B201
:10577000ADF81A00BDF81E10B8F81600084400B2C3
:10578000ADF81E0004A96846FFF787F93078C0F32A
:105790000110012804D0022807D003281CD109E0F9
:1057A000BDF81800ADF8000017E0BDF80800ADF82E
:1057B000000012E05FB1BDF91800BDF90810884281
:1057C00002DABDF9180004E0BDF9080001E0BDF9F6
:1057D0000800ADF8000000E000BF00BF307880098D
:1057E000012804D0022807D003281CD109E0BDF805
:1057F0001C00ADF8040017E0BDF80C00ADF8040083
:1058000012E05FB1BDF91C00BDF90C10884202DD49
:10581000BDF91C0004E0BDF90C0001E0BDF90C006D
:10582000ADF8040000E000BF00BF707800F0030096
:10583000012804D0022807D003281CD109E0BDF8B4
:105840001A00ADF8020017E0BDF80A00ADF802003A
:1058500012E05FB1BDF91A00BDF90A10884202DA00
:10586000BDF91A0004E0BDF90A0001E0BDF90A0023
:10587000ADF8020000E000BF00BF7078C0F3810007
:10588000012804D0022807D003281CD109E0BDF864
:105890001E00ADF8060017E0BDF80E00ADF80600DA
:1058A00012E05FB1BDF91E00BDF90E10884202DDA5
:1058B000BDF91E0004E0BDF90E0001E0BDF90E00C7
:1058C000ADF8060000E000BF00BFB5F91000BDF95B
:1058D0000010884211D1B5F91200BDF902108842BA
:1058E0000BD1B5F91400BDF90410884205D1B5F902
:1058F0001600BDF9061088422DD0284608F00AF996
:10590000694605F11000FFF7C8F8284608F002F9CB
:1059100004AA02212846EB6998472A4601215046ED
:10592000DAF81C309847284607F0C5FF10B1284622
:1059300008F08CF9281D06F001FD044609E000225C
:1059400003212046E36998472146281D06F0FBFC09
:105950000446002CF3D100BF5FE670B5054628462B
:10596000FFF756FB04460021284607F0AAFF00B9BE
:1059700070BD04B9FCE7012C03D12846FFF752FBA8
:105980001EE0022C03D0032C01D0042C03D12846A6
:10599000FFF7BEFB14E0052C03D0062C01D0072C2A
:1059A00003D12846FFF7C8FD0AE0082C03D128469A
:1059B000FFF7A0FC04E0092C02D12846FFF703FC06
:1059C00000BFD5E72DE9F04780460D4616461F4635
:1059D000DDF82090404608F09DF8404608F006F8B3
:1059E00004462078C0F30110A8420FD12078B6EB0E
:1059F000901F0BD1607800F00300B84206D16078A8
:105A0000C0F38100484501D1BDE8F087207865F3F7
:105A100005102070207866F387102070607867F397
:105A200001006070607869F38300607000220121DA
:105A30004046D8F81C30984700BFE5E770B50646E9
:105A40000C46304607F0D2FF0546287800F00F00DC
:105A5000A04200D170BD287864F3030028700022B2
:105A600001213046F369984700BFF3E770B505465A
:105A70000E4614462146284608F078FA70BD70B5E7
:105A800005460E4614462146284608F06FFA70BDBA
:105A90002DE9F04107460C4615462A462146384670
:105AA000284B1B6898470646012E02D03046BDE8B9
:105AB000F081042C06D13846FFF74FFF3846FFF738
:105AC00095FD3DE0012C06D13846FFF746FF3846EC
:105AD000FFF78CFD34E0022C1AD1384607F0FAFFAC
