:020000040800F2
:1000000098A5002081020008450C00088509000819
:10001000410C000897080008EB14000800000000DD
:100020000000000000000000000000001D1000089B
:100030009B08000800000000D10E000835110008E0
:100040009B0200089B0200089B0200089B0200081C
:100050009B0200089B0200089B0200089B0200080C
:100060009B0200089B0200089B0200089B020008FC
:100070009B0200089B0200089B0200089B020008EC
:100080009B0200089B0200089B0200089B020008DC
:100090009B0200089B0200089B0200089B020008CC
:1000A0009B0200089B0200089B0200089B020008BC
:1000B0009B020008A11100089B0200089B02000897
:1000C0009B0200089B0200089B0200089B0200089C
:1000D0009B020008CD1200089B0200089B0200084A
:1000E0009B0200089B0200089B0200089B0200087C
:1000F0009B0200089B0200089B0200089B0200086C
:100100009B0200089B0200089B0200089B0200085B
:100110009B0200089B0200089B0200089B0200084B
:100120009B0200089B0200089B0200089B0200083B
:100130009B0200089B0200089B0200089B0200082B
:100140009B0200089B0200089B0200089B0200081B
:100150009B0200089B0200089B0200089B0200080B
:100160009B0200089B0200089B0200089B020008FB
:100170009B0200089B0200089B0200089B020008EB
:100180009B0200089B02000800F002F800F068F8EB
:100190000AA090E8000C82448344AAF10107DA45E2
:1001A00001D100F05DF8AFF2090EBAE80F0013F0CC
:1001B000010F18BFFB1A43F001031847D87D010057
:1001C000F87D010010F8013B0A4413F0030408BF56
:1001D00010F8014B1D1108BF10F8015B641E05D01B
:1001E00010F8016B641E01F8016BF9D1002D15D0D8
:1001F00010F8014B03F00C030C2BA1EB04040ABF15
:1002000010F8013BA4EB8314A4EB032405F10103D4
:1002100014F8016B5B1E01F8016BF9D5914238BFF0
:1002200010F8013BD1D3704700230024002500269D
:10023000103A28BF78C1FBD8520728BF30C148BF49
:100240000B607047642900F07380732900F0DA8234
:10025000002070471FB50FF090FF1FBD10B510BDF7
:1002600000F0EEFA1146FFF7F5FF0FF0ABFA00F0E1
:100270000CFB03B4FFF7F2FF03BC01F06BF90000C5
:100280000948804709480047FEE7FEE7FEE7FEE72A
:10029000FEE7FEE7FEE7FEE7FEE7FEE70448054966
:1002A000054A064B70470000391100088901000813
:1002B000989F002098A5002098A1002098A10020D8
:1002C000704700000FB4044910B503AA029800F06B
:1002D0009DFA10BC5DF814FB641A002070B50C4642
:1002E0000546012A05D02878800600D5EA69002352
:1002F00002E0012305E05B1C934202D2E05C00288F
:10030000F9D1A869E618C01AA861286A18442862B9
:100310002846AFF3008004E0D5E9012114F8010B71
:100320009047B442F8D32846AFF3008070BD000078
:100330002DE9F0410646002410687529314616A5BE
:1003400010D0AFF30080002802DA404213A507E086
:1003500031688A0701D512A502E0490704D511A525
:10036000012401E0AFF3008000210A2206F12407F6
:1003700009E0B0FBF2FCB0FBF2F302FB1C003030F2
:1003800078541846491C0028F3D123462A463046A3
:10039000BDE8F04100F0B3B9000000002D000000FE
:1003A0002B000000200000002DE9F05F8946044684
:1003B0004FF0000ADFF824B1FB44C0F820A020462B
:1003C000E168884700287DD0252806D0D4E901219E
:1003D0009047206A401C2062F1E700255F462046D6
:1003E000E16888472028064607DB312E05D2B81978
:1003F00010F8200C08B10543F1E7A80701D525F056
:100400000405C4F81CA00027C4F818A02A2E09D09F
:10041000304601F098F838B304EB8708303EC8F84E
:10042000186019E059F8041B204604EB870291611B
:10043000E1688847012F064618D1E069002820DAD4
:1004400025F020051DE0D8F8180000EB800006EB31
:1004500040003038C8F818002046E1688847064652
:1004600001F071F80028EED1012F0AD02E2E08D10C
:100470002046E16888477F1C0646022F45F020058C
:10048000C4DBA069002803DA404245F00105A06101
:10049000E80701D025F01005A6B1A6F14100192802
:1004A00002D8203645F400654A463146204625608C
:1004B0004D46FFF7C7FE60B1012807D0ED1D25F0BE
:1004C000070000E007E000F1080978E705F10409FA
:1004D00075E730467AE7206ABDE8F09FCD790100E4
:1004E00040EA0103024630B59B0710D14FF00134BA
:1004F00000E008C208C91D1B9D4315EAC41FF8D0BF
:1005000013F0FF0102F8011B0DD01B0AF8E711F8E8
:10051000013B002B02F8013B05D011F8013B002BF9
:1005200002F8013BF3D130BD10B5431C02E010F8D6
:10053000011B71B18107FAD14FF0013202C88C1A48
:100540008C4314EAC211F9D0C01A0A0603D0C01EA7
:1005500010BDC01A10BD0A0401D0801E10BD0902D2
:10056000FCD0401E10BD032A40F2308010F0030C76
:1005700000F0158011F8013BBCF1020F624498BFF6
:1005800011F801CB00F8013B38BF11F8013BA2F193
:10059000040298BF00F801CB38BF00F8013B11F00E
:1005A000030300F02580083AC0F0088051F8043BAE
:1005B000083A51F804CBA0E80810F5E7121D5CBF1B
:1005C00051F8043B40F8043BAFF30080D20724BF4E
:1005D00011F8013B11F801CB48BF11F8012B24BFE2
:1005E00000F8013B00F801CB48BF00F8012B704731
:1005F00010B5203AC0F00B80B1E81850203AA0E8BE
:100600001850B1E81850A0E81850BFF4F5AF5FEAF1
:10061000027C24BFB1E81850A0E8185044BF18C9A4
:1006200018C0BDE810405FEA827C24BF51F8043B4B
:1006300040F8043B08BF7047D20728BF31F8023B9F
:1006400048BF11F8012B28BF20F8023B48BF00F833
:10065000012B704702F0FF0343EA032242EA024201
:1006600000F002B84FF000020429C0F0128010F030
:10067000030C00F01B80CCF1040CBCF1020F18BF7E
:1006800000F8012BA8BF20F8022BA1EB0C0100F011
:100690000DB85FEAC17C24BF00F8012B00F8012BE4
:1006A00048BF00F8012B70474FF0000200B5134619
:1006B00094469646203922BFA0E80C50A0E80C5082
:1006C000B1F12001BFF4F7AF090728BFA0E80C5033
:1006D00048BF0CC05DF804EB890028BF40F8042B2C
:1006E00008BF704748BF20F8022B11F0804F18BF99
:1006F00000F8012B704770477047704770472DE92D
:10070000F0470D4699469246044600F124080168D8
:10071000880604D5E06921F01001216000E0012085
:10072000A84201DD471B00E00027A1697A1902EB0E
:100730000900081AA0612078C00602D42046AFF351
:100740000080002608E0D4E901211AF8060090474D
:10075000206A401C761C20624E45F4DB2078C006DF
:100760000AD52046AFF3008006E0D4E9012130200D
:100770009047206A401C2062381EA7F10107F4DC74
:1007800007E0D4E9012118F805009047206A401CD1
:100790002062281EA5F10105F3DC2046AFF300809E
:1007A0002078000602D50220BDE8F0870120FBE793
:1007B00001694A1C02610878704700B58FB0CDE925
:1007C00001310021059105497944CDE90310114615
:1007D0006846FFF7E9FD0FB000BD0000E5FFFFFF31
:1007E00010B5436913B1AFF3008001E0FFF776FD68
:1007F000012010BD127800F124010A7000224A7015
:100800000122EDE711684FF0FF32E9E7074B70B5C1
:100810000D467B44FFF7D1FF0446284600F00CF854
:1008200010B14FF0FF3070BD204670BD3B1400008A
:1008300000487047349F0020007B00F08000704724
:100840007546FFF7F5FFAE4605006946534620F0B2
:100850000700854618B020B5FFF720FDBDE8204011
:100860004FF000064FF000074FF000084FF0000B6C
:1008700021F00701AC46ACE8C009ACE8C009ACE81F
:10088000C009ACE8C0098D4670470446AFF300804C
:100890002046FFF7EEFC00BFFEE77047F0B50A46C2
:1008A00000210023002400BF3DE0012505FA01F3EB
:1008B000156805EA03049C4234D105684F000326FD
:1008C000BE40B543056015794E00B5400668354316
:1008D00005601579012D02D01579022D16D1856894
:1008E0004F000326BE40B543856055794E00B540A4
:1008F000866835438560456801268E40B54345606E
:10090000456896798E40B6B235434560C5684F005C
:100910000326BE40B543C560D5794E00B540C668D4
:100920003543C560491C1029BFD3F0BDF0B5002385
:1009300000244D07ED0E02FA05F3CE1000F120055C
:1009400055F826504E07F70E0F26BE40B543CF1080
:1009500000F1200646F82750CE1000F1200555F88A
:10096000265045EA0304CE1000F1200545F8264044
:10097000F0BD0246002013690B400BB1012000E0DE
:100980000020704700BFFEE71CB50121022000F0E7
:10099000A1FA4FF44070009001208DF8040000206F
:1009A0008DF8060003208DF8050001208DF8070062
:1009B00069460548FFF772FF0120044908600449B1
:1009C000C1F8A4021CBD000000040240A082404205
:1009D0000080404270B504461548006820F440206D
:1009E000134908600846006840F480200860002031
:1009F00010490860002517E0E0090E49091D08604C
:100A00006006040E022000F067FF01200A49C1F8C9
:100A1000A002022000F060FF0020064908600220CA
:100A200000F05AFF681CC5B2082DE5DB70BD000060
:100A300000040240A08240420080404210B50F48AE
:100A4000006820F440200D4908600846006840F422
:100A50008020086001200A4908600A49C1F8A00204
:100A6000042000F039FF002005490860042000F050
:100A700033FF00200349C1F8A00210BD000402406A
:100A8000A48240420080404210B50F48006820F424
:100A900040200D4908600846006840F48020086046
:100AA00000200A4908600A49C1F8A402042000F0A5
:100AB00013FF0120054908600549C1F8A40204207C
:100AC00000F00AFF10BD000000040240A082404276
:100AD0000080404210B500241348006820F44020F4
:100AE0001149086008460068086001200F49086045
:100AF00000F0F2FE01200E49C1F8A00200F0ECFE69
:100B000007E0601CC4B2FA2C03DDFFF7BDFF012033
:100B100010BD0648803800680028F2D10349091F3B
:100B2000086000BFF4E7000000040240A4824042D5
:100B3000008040421CB50121112000F0CBF91C209F
:100B4000009000208DF8040003208DF8050001209E
:100B50008DF8070069460648FFF7A0FE01200090C7
:100B600002208DF8070069460248FFF797FE1CBD7A
:100B7000001002400000024010B5044614B10120EC
:100B80002C4908702B480078002837D010212A48BB
:100B9000FFF7EFFE78B108212748FFF7EAFE50B1D2
:100BA00004212548FFF7E5FE28B101212348FFF77E
:100BB000E0FE012822D10A2000F072FE00201D492B
:100BC000087010211C48FFF7D4FE08B9012010BDA1
:100BD00008211948FFF7CDFE08B90220F7E70421E4
:100BE0001548FFF7C6FE08B90320F0E701211348B6
:100BF000FFF7BFFE01281BD10420E8E710210E48B3
:100C0000FFF7B7FE012813D108210B48FFF7B1FE0B
:100C100001280DD104210848FFF7ABFE012807D1B8
:100C200001210648FFF7A5FE10B90120014908700F
:100C30000020CCE70000002000100240000002402D
:100C400000BFFEE77047000070B5002100230F22AF
:100C5000C4781CB3174C246804F4E064C4F5E06461
:100C6000C4F30721C1F10404E3B20A4144789C4073
:100C7000E1B28478144021430C07210E0E4C057814
:100C80006155047804F01F050124AC4005786D110E
:100C9000AD0005F1E025C5F8004109E0047804F055
:100CA0001F050124AC40054D0678761145F8264015
:100CB00070BD00000CED00E000E400E080E100E029
:100CC00002490143024A1160704700000000FA0522
:100CD0000CED00E0F0B5144600267F2801DC3F292A
:100CE00000DDF0BD0B46CF1701EB5777FF10C7F1C2
:100CF0000707FAB2CF1701EB5777FF10A1EBC70731
:100D0000FDB2C5F107070123BB40DEB24CB10A4B6F
:100D100003EBC0039B5C3343074F07EBC007BB5497
:100D200008E0054B03EBC0039B5CB343024F07EBAA
:100D3000C007BB5400BFD4E77C1A00202DE9F05F48
:100D400006460F4690469946DDF828A04FF0000B66
:100D50003D4611E034460BE05846411C1FFA81FB2A
:100D60001AF8002029462046FFF7B4FF601CC4B2E1
:100D70004445F1DD681CC5B24D45EBDD00F076F869
:100D8000BDE8F09F10B5FFF7FFFD4FF4487000F08D
:100D900087FD0021AE2000F08FF80021084600F00A
:100DA0008BF80021102000F087F80021402000F08F
:100DB00083F80021B02000F07FF80021812000F0AE
:100DC0007BF80021FF2000F077F80021A12000F03F
:100DD00073F80021A72000F06FF80021A82000F090
:100DE0006BF800213F2000F067F80021C02000F0E0
:100DF00063F80021D32000F05FF80021084600F0DE
:100E00005BF80021D52000F057F80021802000F089
:100E100053F80021D82000F04FF80021052000F001
:100E20004BF80021D92000F047F80021F12000F014
:100E300043F80021DA2000F03FF80021122000F0F2
:100E40003BF80021DB2000F037F80021302000F0D3
:100E500033F800218D2000F02FF80021142000F03D
:100E60002BF80021AF2000F027F810BD70B500244A
:100E70001CE004F1B001C8B2002100F01DF800210F
:100E8000084600F019F80021102000F015F80025A0
:100E900008E0084901EBC501085D012100F00CF8EC
:100EA000681CC5B2802DF4DB601CC4B2082CE0DBEA
:100EB00070BD00007C1A002070B505460C461CB1C0
:100EC000284600F02AFB02E0284600F010FB70BD27
:100ED0007047000029B1064A12680243044B1A60A9
:100EE00004E0034A12688243014B1A607047000015
:100EF0003038024029B1064A12680243044B1A6096
:100F000004E0034A12688243014B1A6070470000F4
:100F10004038024029B1064A12680243044B1A6065
:100F200004E0034A12688243014B1A6070470000D4
:100F300044380240F0B5002100220024022500269A
:100F40000223324F3F6807F00C0121B1042905D07C
:100F5000082937D105E02E4F076036E02D4F076096
:100F600033E02A4F3F1F3F68C7F38056274F3F1F8C
:100F70003F6807F03F036EB1264FB7FBF3F7DFF88A
:100F80008CC0ACF1040CDCF800C0CCF3881C07FB6F
:100F90000CF40CE01E4FB7FBF3F7DFF870C0ACF1B8
:100FA000040CDCF800C0CCF3881C07FB0CF4174FD2
:100FB0003F1F3F68C7F301477F1C7D00B4FBF5F777
:100FC000076002E0124F076000BF00BF0F4F3F688D
:100FD00007F0F0010909104F7A5C0768D7404760B5
:100FE0000A4F3F6807F4E051890A0B4F7A5C476863
:100FF000D7408760054F3F6807F46041490B064FB3
:101000007A5C4768D740C760F0BD000008380240EE
:101010000024F40000127A006A1A002070470000D1
:101020000CB50020019000903448006840F48030F6
:101030003249086000BF3148006800F40030009079
:101040000198401C0190009818B90198B0F5A04F84
:10105000F1D12A48006800F4003010B1012000905E
:1010600001E0002000900098012846D1234840303C
:10107000006840F0805021494031086020480068F5
:1010800040F440401E4908601C48083000681B4975
:10109000083108600846006840F4004008600846CF
:1010A000006840F4A05008601648091F0860081F37
:1010B000006840F08070091F086000BF0F4800689A
:1010C00000F000700028F9D040F205700E49086069
:1010D0000A480830006820F0030008490831086019
:1010E0000846006840F00200086000BF034808306E
:1010F000006800F00C000828F8D10CBD0038024050
:101100000070004008544007003C0240042808D109
:101110004FF0E021096941F004014FF0E022116134
:1011200007E04FF0E021096921F004014FF0E022CF
:10113000116170477047000010B51548006840F411
:101140007000134908601348006840F0010011491D
:10115000086000200F49083108600E4800680E49F9
:1011600008400C4908600D48091D0860081F006808
:1011700020F48020091F0860002006490C31086017
:10118000FFF74EFF4FF0006001498039086010BD45
:1011900088ED00E000380240FFFFF6FE103000242A
:1011A00010B50648008800F0010010B101200DF0D4
:1011B00097FF4FF6FE700149088010BD10040040F3
:1011C0007FB505460C4601210220FFF793FE0295EC
:1011D000ADF804400020ADF80600ADF80C0001A900
:1011E0000D4800F031F8012211460B4800F022F8BA
:1011F0000121094800F012F81D208DF8000001209F
:101200008DF8010003208DF8020001208DF8030005
:101210006846FFF719FD7FBD0004004021B1028838
:1012200042F00102028004E002884FF6FE731A4089
:10123000028070471AB183890B43838102E083895E
:101240008B4383817047000000220288184B98422C
:101250000ED0184B98420BD0B0F1804F08D0164BEF
:10126000984205D0154B984202D0154B984204D1B4
:101270004FF68F731A404B881A43124B984207D08F
:10128000114B984204D04FF6FF431A400B891A4382
:1012900002804B68C3620B880385054B984202D0DD
:1012A000044B984201D18B7A0386012383827047D5
:1012B000000001400004014000040040000800401C
:1012C000000C0040001000400014004010B540F237
:1012D00025511D4800F04AF810B31B4800F000F9F2
:1012E000C4B21A48008800F40040C8B91748008802
:1012F00000F4804060B10A2C03D00020134908801C
:1013000020E01248008840F400401049088019E0AD
:101310000D2C06D10D48008840F480400B49088010
:1013200010E00A480088C0F30D0009490C54074832
:101330000088401C0549088008460088C72801DD50
:101340000020088010BD000000100140681A002035
:101350006C9E002021B1828942F40052828104E017
:1013600082894DF6FF731A408281704770B502463C
:10137000002400230025002040F66A16B14200D167
:1013800000BFC1F3421501F01F03012606FA03F363
:10139000012D02D19689334006E0022D02D1168A32
:1013A000334001E0968A33400C12012606FA04F419
:1013B0001688344013B10CB1012000E0002070BD4C
:1013C000F0B50346002400260025002040F66A17E9
:1013D000B94200D100BF1846C1F3421401F01F0604
:1013E000012707FA06F5012C01D10C3004E0022C8C
:1013F00001D1103000E014301AB107682F430760A4
:1014000002E00768AF430760F0BD00002DE9FF4729
:1014100005460E460024A14600BFA046B08900B193
:1014200000BF2C8A24F44054F08804432C82AC89F9
:1014300041F20C608443B0883189084371890843C4
:101440000443AC81AC8A24F44074B0890443AC8278
:101450006846FFF76FFD2048854202D01F4885424D
:1014600002D1DDF80C9001E0DDF80890A88900F4C5
:10147000004040B109EBC90000EB09103168490098
:10148000B0FBF1F707E009EBC90000EB0910316888
:101490008900B0FBF1F76420B7FBF0F004012009EC
:1014A000642101FB1078A88900F4004040B132208B
:1014B00000EBC800B0FBF1F000F00700044308E0C7
:1014C000322000EB08106421B0FBF1F000F00F00B7
:1014D00004432C81BDE8FF87001001400014014047
:1014E00001468888C0F30800704700BFFEE710B5CA
:1014F0000446FFF7A3FA7820FFF76CFAFFF7EAFA41
:101500000020FFF767FAFFF7E5FA2046FFF762FAD7
:10151000FFF7E0FAFFF7B8FA10BD10B50446FFF781
:101520008DFA7820FFF756FAFFF7D4FA4020FFF73C
:1015300051FAFFF7CFFA2046FFF74CFAFFF7CAFA45
:10154000FFF7A2FA10BD30380A2801D201207047F7
:101550000020704700BF704710B58AB0044694F869
:101560002000C0F3400020B994F8200000F00100F2
:1015700070B194F82000C0F34000F0B994F8200056
:1015800000F00100C8B194F82000C0F38000A0B1C1
:101590002422214601A8FFF72BF82146194809F01B
:1015A00058FC204609F072FF012017490870049882
:1015B00010B101A8049988471FE0E08B404200B2B7
:1015C000608394F8200000F00100B0B194F820107E
:1015D000C1F3800119B9A18B494209B2618310346A
:1015E000217C8908C943227C61F38202227420682D
:1015F000616821606060103C00BF034800780AB059
:1016000010BD0000A4230020301900202DE9F04176
:1016100007462F4809F036FB044608E0206A20F010
:101620000800206221462A4809F031FB0446002CBC
:10163000F4D1284800680DF035FD0646244809F02D
:1016400021FB04463CE000202349087094F8200068
:10165000C0F3C00038BB206A20F0080008302062C8
:10166000608B304400B26083B4F91A0000281ADBA2
:10167000B4F91A00218B884202DD208B00B260830E
:101680002046A16888470546606818B129B2D4E9A8
:1016900000029047B4F91A00218B884202DB2046F1
:1016A000FFF75AFF00BF0C48007820B1084809F046
:1016B000E9FA044604E02146054809F0E8FA044640
:1016C000002CC0D10DF0FCFC02490860BDE8F0819F
:1016D000A42300202C1900203019002030B5034627
:1016E000022B04D10E48405C5043001230BD032B46
:1016F00004D10C48405C50430012F7E7042B04D19E
:101700000948405C50430012F0E7C1EBC105581E88
:10171000B5FBF0F0C4B20548005D5043000AE5E7B0
:10172000C1010108C3010108C6010108CA0101087D
:1017300010B50D4800780A300B490870084600784B
:1017400000F164010948006809F0C3FD064801780A
:101750000748006809F0BDFD03480078642802DBF3
:1017600000200149087010BDDC000020B0000020FE
:10177000B400002010B50446012C2ED12F4800786B
:1017800020B101280FD0022825D119E000222C48D1
:1017900001682C4800680BF0A5FB28480078401C25
:1017A0002649087018E0002227480168254800688B
:1017B0000BF098FB21480078401C204908700BE092
:1017C000002222480168224800680BF08BFB0020B1
:1017D0001A49087000BF00BF2FE074BB174800789B
:1017E00020B101280DD0022825D117E0012214488C
:1017F0000168144800680BF075FB02200F4908705F
:101800001AE00122104801680E4800680BF06AFBDC
:101810000A480078401E094908700DE001220B4873
:1018200001680B4800680BF05DFB04480078401E1F
:101830000249087000BF00BF00BF10BDDD000020DE
:10184000B8000020A4000020BC000020C000002040
:10185000A000002010B5024800680AF05DFC10BD31
:10186000A000002010B504466FF00400FFF74EFC06
:10187000E11704EB5171C1F3C701074A117010461B
:10188000007800EB4001C1EBC0104FF6FF7101EA98
:10189000C0000249088010BD5E1A0020601A0020B6
:1018A00070B504464FF4077094FBF0F0C6B24FF4E5
:1018B000077094FBF0F100FB114085B205E04FF496
:1018C000077000F02FF8701EC6B2002EF7D115B1C8
:1018D000284600F027F870BD0146114A12784A43A5
:1018E0004FF0E0235A6100229A611A46126942F0D1
:1018F00001021A6100BF4FF0E022106900F00102FE
:101900001AB100F48032002AF5D04FF0E0221269BB
:1019100022F001024FF0E0231A6100229A61704721
:101920005E1A00200146114A12884A434FF0E02314
:101930005A6100229A611A46126942F001021A6144
:1019400000BF4FF0E022106900F001021AB100F46C
:101950008032002AF5D04FF0E022126922F0010215
:101960004FF0E0231A6100229A617047601A00204C
:101970002DE9F0470446201D09F084F9064620466B
:101980000AF0BDFC8046B8F1000F02D0204607F0F7
:101990001DFA08E03146201D09F079F90746304666
:1019A000FFF7E6FF3E46002EF4D100221321204629
:1019B00007F05EF8204607F04BF80021204601F0C2
:1019C0005DFF002008F012F805461BE0686BA0429E
:1019D00002D0A86BA04202D1284608F046F8E86B76
:1019E000A04201D10021E963686D404506D108F0AD
:1019F0000BF8A04202D1284608F037F8284607F035
:101A0000F5FF0546002DE1D120460AF09DFC8146F8
:101A1000214609F1040009F01CFA00221146204673
:101A2000E3699847606A10B1606A09F02FFD2046AB
:101A300009F02CFDBDE8F087F8B506460C461546C2
:101A40000095A3792279A1782078FFF777F93046BD
:101A500003F06CF8F8BD70B505460C4628460AF050
:101A60004BFC0646348428460AF0DAFC70BD70B59B
:101A7000054628680AF040FC04462820005D20F056
:101A8000020128200155005D20F0040128200155A5
:101A9000005D20F0100128200155005D20F00801B4
:101AA0002820015528680AF0BBFC70BD70B50446BB
:101AB0000D460026207800F0010068B92068B5EBDB
:101AC000500F09D82946204600F020F8206820F061
:101AD0000100401C2060261D304670BD10B5014637
:101AE000002011B9084A10680CE00A1D0B6802EBCF
:101AF0005300031D044C246804F58044A34200D322
:101B0000002000BF10BD00000C1A002030B501F00D
:101B1000030212B121F00301091D0A1D0368B2EB93
:101B2000530F01D1026851080268B1EB520F0ED079
:101B3000031D5A18146824F0010414600468C1EBF2
:101B40005404241F156864F35F05156000BF026824
:101B500061F35F02026030BD2DE9F84F044688460C
:101B6000914694F8580000F0010008B1BDE8F88FE4
:101B7000E56800264FF0010A4FF0010B00BF8DB958
:101B800094F85800C0F3001000B956B9BBF1000F2B
:101B900000D1EBE72046C04705464FF0000AD34688
:101BA00000E0E3E716B92E4606B9DFE7BAF1000F09
:101BB00006D029462046C8470546B54200D1D5E79C
:101BC0004FF0010A05B9DAE728680AF0A3FB00B96B
:101BD00000E0D4E700BFE068A84200D1C6E7E068B3
:101BE000A8B1E168086800221021C3699847E1683C
:101BF000002208680D2106F03BFF009000980128A4
:101C000000D0B3E7E16808680AF00AFC00BFE560AD
:101C1000E168086800220F21C3699847E168002243
:101C200008680C2106F024FF0746012F00D09DE72D
:101C3000E16808680EF082F8E16808680AF0F0FBD5
:101C4000A06910B12046A169884700BF8EE7000057
:101C500000BF054A128802F04002002AF9D0C2B241
:101C6000014B9A8070470000001001402DE9FC47AD
:101C700080460E4616B90020BDE8FC87D8F80C4017
:101C80006069B04201D1A069F6E70025AEE005EB3E
:101C90008501A06850F82100301A019005EB8501FC
:101CA000A06800EB810080880199884200D29BE007
:101CB000002705EB8501A06800EB8100807C00F027
:101CC000030040B905EB8501A06800EB8100C088E6
:101CD0000199471884E005EB8501A06800EB8100BD
:101CE000807C00F0030001280FD105EB8502A1687C
:101CF00001EB8201C86805EB8502A16801EB820156
:101D0000C988019A825C8F186AE005EB8501A0689A
:101D100000EB8100807C00F00300022827D13948C5
:101D2000009005EB8503A06800EB8300028A05EBB9
:101D30008503A06800EB83000223816801A80DF0F1
:101D400017FD8146B9F1000F10D005EB8502A1689F
:101D500001EB82018968A9EB0100400805EB8502CF
:101D6000A16801EB8201C9880F1800BF38E005EBBC
:101D70008501A06800EB8100807C00F0030003284F
:101D80002ED12048009005EB8503A06800EB83006E
:101D9000028A05EB8503A06800EB830002238168BB
:101DA00001A80DF0E5FC8146B9F1000F17D005EB55
:101DB0008503A26802EB83029268A9EB0200400847
:101DC00005EB8503A26802EB8302D16805EB85036E
:101DD000A26802EB8302D2880B5CD71800BF00BF59
:101DE0006661A761384647E7681C85B2608AC0F320
:101DF0000900A8423FF74BAF66610020A06100BF19
:101E00003AE70000710101082DE9FC5F80460D46AC
:101E10001646D8F80C704FF0000A788AC0F34030AC
:101E2000002841D1FC68A068C0F30160D8B9D4F89B
:101E3000009005EB062080B2019027480090A06832
:101E400020F07F420223494601A80DF091FC834611
:101E5000BBF1000F06D0ABEB09004008616811F937
:101E600000A000BF1FE0A068C0F3016001281AD1E4
:101E7000D4F8009005EB0620019018480090A06867
:101E800020F07F420423494601A80DF071FC8346EF
:101E9000BBF1000F06D0ABEB09000009616811F936
:101EA00000A000BF00BF13E0F8684368595D4368B5
:101EB0009A5D00290BDD002A09DD531E4C1E90F8A7
:101EC0000DC004FB0C330468E35C4FFA83FA00BFD7
:101ED0005046BDE8FC9F0000511F0008311F00085C
:101EE00001460020302905DB392903DCA1F130024D
:101EF000D0B21CE0612902DBA1F12002D1B2A1F134
:101F00004102062A10D2DFE802F0030507090B0D93
:101F10000A200BE00B2009E00C2007E00D2005E073
:101F20000E2003E00F2001E0002000BF00BF70473B
:101F300030B5024614460B4620881D88A84203D0BF
:101F400020881D88401B30BD60885D88401BFAE7F3
:101F500030B5024614460B4620781D78A84203D0BF
:101F600020781D78401B30BD60785D78401BFAE713
:101F700010B50020FEF700FE022804D1C820FFF7AC
:101F80008FFCFFF7D5FB0020FEF7F6FD032802D1FA
:101F90000020FFF7EFFB0020FEF7EEFD012801D146
:101FA000FFF7E8FB0020FEF7E7FD042817D10C48F7
:101FB000007850B90DF05EFC01210A4800680AF073
:101FC00039FB01200649087009E000210548006836
:101FD0000AF030FBFFF73EFC00200149087010BDFD
:101FE0009C0000201C0000202DE9F04F85B0044625
:101FF000894615461E46E88E401E07B24FEA67081E
:1020000007F0010AFF2E02D13820405D03E038209E
:10201000405D7043001283462088ADF80C00A08814
:10202000ADF810006088A0EB0800A0EB0A0000B239
:10203000ADF80E00E088404400B2ADF81200BDF9E2
:102040000C00BDF91010884202DABDF90C0001E065
:10205000BDF91000ADF80400BDF90C00BDF9101079
:10206000884202DDBDF90C0001E0BDF91000ADF8B9
:102070000800BDF90E00BDF91210884202DABDF960
:102080000E0001E0BDF91200ADF80600BDF90E002A
:10209000BDF91210884202DDBDF90E0001E0BDF964
:1020A0001200ADF80A0095F834005B460246494636
:1020B000009001A802F0A6FF05B0BDE8F08F0FB5B3
:1020C0009BB02098FF2803D11E9890F8380005E0B7
:1020D0001E9890F838002099484300121A900CF08E
:1020E00001F9099002F029FD19901B988188008858
:1020F000081A00B2ADF860001B98C1884088081A21
:1021000000B2ADF862001B98007EF0B11B98B0F9E8
:102110000210B0F906201C98104481420ADABDF87A
:102120006200404200B2ADF85C00BDF86000ADF85E
:102130005E0028E0BDF86200ADF85C00BDF860000C
:10214000404200B2ADF85E001DE01B98B0F90010EF
:10215000B0F904201C98104481420ADABDF86200EC
:10216000ADF85C00BDF86000404200B2ADF85E0022
:1021700009E0BDF86200404200B2ADF85C00BDF875
:102180006000ADF85E00BDF85C00000100B2ADF883
:102190005C00BDF85E00000100B2ADF85E001E9864
:1021A000B0F9360016901698C000099002F08AFF28
:1021B000159000201490169800283BD00020029023
:1021C00017AA02A903A800F011FF16984043019036
:1021D0000020149029E0BDF81420DDE9141020F847
:1021E0002120BDF81620DDE9141000EB81004280AB
:1021F000BDF8140010FB00F1BDF8162012FB021010
:102200000090DDE90001884208D3149816901998CF
:1022100018B11698401E00B2169009E003A800F00D
:102220004FFF1498401C00B2149014980428D2DB7D
:1022300000BF00BF16981290199828B1169808B9D7
:1022400001201290002013900020119010901698F9
:10225000B0B11698401E159931F92000099000EB95
:10226000D070401011901698401E159901EB800017
:10227000B0F90200099000EBD0704010109023E0FC
:102280001B98007E70B11B98B0F90210B0F90620BF
:102290001C981044814205DB15984088401E01B20D
:1022A000159841801B98007E70B91B98B0F90010FA
:1022B000B0F904201C981044814205DB1598008871
:1022C000401E01B215980180002014907FE1DDE9E5
:1022D000141030F821101198081A02B2DDE9141018
:1022E00020F82120DDE9141000EB810041881098CE
:1022F000081A02B2DDE9141000EB8100428019983F
:1023000000287ED014980028FBD01B98007E00285F
:1023100078D01498401E159931F920200846149958
:1023200030F921008242ECD0DDE9141000EB81008D
:1023300042881399159800EB81004088101A00B26A
:1023400009901B98B0F91200002849DA1A980190F8
:102350001E9890F834008DF800001B98428813995D
:10236000159800EB81004088111809980844401C1A
:1023700000B208901B9802881399159830F8210034
:102380001044401E00B207901D9BDDE9081202F0C8
:10239000E9FD1A9801901E9890F834008DF800001D
:1023A0001B98C2881399159800EB8100408811187A
:1023B00009980844401C00B208901B988288139921
:1023C000159830F821001044401C00B2079009987D
:1023D000404202B21D9BDDE9070102F0C3FD43E06C
:1023E0001A9801901E9890F834008DF800001B9800
:1023F00042881399159800EB81004088104400B280
:1024000001E0C2E033E008901B980288159830F88C
:1024100021001044401E00B207901D9BDDE9081208
:1024200002F0A0FD1A9801901E9890F834008DF8E3
:1024300000001B98C2881399159800EB8100408812
:10244000104400B208901B988288159830F821003B
:102450001044401C00B207900998404202B21D9BF4
:10246000DDE9070102F07EFD14981390ABE01498AB
:10247000401E159901EB8000B0F90220084614991E
:1024800000EB8100B0F9020082427ED0DDE9141039
:1024900030F82120139930F82100101A00B2099069
:1024A0001B98B0F90E00002847DA1A9801901E9880
:1024B00090F834008DF800001B9842881399159805
:1024C00000EB810040881044401E00B208901B9829
:1024D0000288159830F82100111809980844401C0A
:1024E00000B207901D9BDDE9081202F00DFD1A985D
:1024F00001901E9890F834008DF800001B98C28857
:102500001399159800EB810040881044401C00B2DC
:1025100008901B988288159830F8210011180998A6
:102520000844401C00B207900998404202B21D9B2B
:10253000DDE9070102F0E8FC42E01A9801901E98DC
:1025400090F834008DF800001B9842881399159874
:1025500000EB810040881044401E00B208901B9898
:102560000288159830F82100104400B207901D9B96
:10257000DDE9081202F0C8FC1A9801901E9890F844
:1025800034008DF800001B9800E01CE0C28813990D
:10259000159800EB810040881044401C00B2089060
:1025A0001B988288159830F82100104400B20790DB
:1025B0000998404202B21D9BDDE9070102F0A4FC2C
:1025C0001498139000BF1498401C00B214901699F0
:1025D00014988842FFF67BAE169800287DD0199893
:1025E0000028FBD01B98007E002877D01298401E50
:1025F000159901EB800042880846139900EB810091
:102600004088101A00B209901B98B0F912000028F7
:1026100053DA1A9801901E9890F834008DF8000053
:102620001B9842881399159800EB81004088111877
:102630000998084400B207901B98028813991598CE
:1026400030F821001044401E00B206901B98418AC9
:102650000998084400B2089002461D9BDDE9060176
:1026600002F080FC1A9801901E9890F834008DF8C2
:1026700000001B98C2881399159800EB81004088D0
:1026800011180998084400B207901B988288139982
:10269000159830F821001044401C00B206901B9899
:1026A000418A09980844404200B2089002461D9BA6
:1026B000DDE9060102F056FC4FE01A9801901E98E1
:1026C00090F834008DF800001B98428813991598F3
:1026D00000EB81004088104401E0F0E03EE000B2F1
:1026E00007901B980288159830F821001044401E6E
:1026F00000B206901B98418A0998084400B20890DD
:1027000002461D9BDDE9060102F02CFC1A9801909F
:102710001E9890F834008DF800001B98C288139919
:10272000159800EB81004088104400B207901B9878
:102730008288159830F821001044401C00B20690A1
:102740001B98418A09980844404200B2089002460A
:102750001D9BDDE9060102F005FCB0E01298401E69
:10276000159931F820200846139930F82100101AE5
:1027700000B209901B98B0F90E00002851DA1A989F
:1027800001901E9890F834008DF800001B98428844
:102790001399159800EB810040881044401E00B248
:1027A00007901B980288159830F821001118099895
:1027B000084400B206901B98C1890998084400B2E9
:1027C000089002461D9BDDE9060102F09DFB1A9868
:1027D00001901E9890F834008DF800001B98C28874
:1027E0001399159800EB810040881044401C00B2FA
:1027F00007901B988288159830F8210011180998C5
:10280000084400B206901B98C189099808444042C8
:1028100000B2089002461D9BDDE9060102F074FB40
:102820004CE01A9801901E9890F834008DF8000042
:102830001B9842881399159800EB8100408810443A
:10284000401E00B207901B980288159830F82100AE
:10285000104400B206901B98C1890998084400B240
:10286000089002461D9BDDE9060102F04DFB1A9817
:1028700001901E9890F834008DF800001B98C288D3
:102880001399159800EB810040881044401C00B259
:1028900007901B988288159830F82100104400B2E8
:1028A00006901B98C18909980844404200B20890DC
:1028B00002461D9BDDE9060102F026FB00BF002059
:1028C0000F900E90199840B31B98007EB8B91B98D2
:1028D000B0F90E00002809DA4FF0FF300F9016987B
:1028E00008B9002000E00F980E901FE001200E9024
:1028F000169808B9002000E00E980F9016E01B987B
:10290000B0F91200002809DA4FF0FF300F90169846
:1029100008B9002000E00F980E9007E001200E900B
:10292000169808B9002000E00E980F901B980088B8
:10293000ADF834001B984088ADF8360001200A90AD
:102940001B98007E00287ED0B9E00020149055E04E
:10295000BDF83420DDE9141030F82100104400B235
:10296000ADF82C00BDF83620DDE9141000EB810035
:102970004088104400B2ADF82E00BDF82C101B9812
:1029800000890844BDF83410401A401E00B2ADF86A
:102990003000BDF82E00ADF832001E9890F83400DB
:1029A000099002460BA81A9B1D9902F02BFB149864
:1029B00000B3DDE9141030F92120481E159931F9D2
:1029C0002000824216D00A98A0B91A980090BDF84B
:1029D0002E101B98408A081A00B208901E9890F892
:1029E00034000990BDF92C000790DDE908131D9A09
:1029F00003F09FF91498401C00B214901699149893
:102A00008842A5DB1998F0B31A9801901E9890F8A7
:102A100034008DF80000BDF834101B980089081AA6
:102A200000B20990BDF836101598408801440F98FF
:102A3000081A00B20890BDF83410159800880844B0
:102A400000B2079000E0EFE01D9BDDE9081202F004
:102A50005BFA1A9801901E9890F834008DF80000E7
:102A60001B980089BDF83410401A00B20990BDF8D7
:102A700036201298401E159901EB800040881118ED
:102A80000E98084400E010E000B20890BDF8342031
:102A90001298401E159931F82000104400B207909A
:102AA0001D9BDDE9081202F02FFA00200A901B9806
:102AB0000089ADF834001B984089ADF836001B98AA
:102AC00000F043FB00287FF440AF149054E0BDF8C1
:102AD0003420DDE9141030F82100104400B2ADF8C4
:102AE0002C00BDF83620DDE9141000EB8100408891
:102AF000104400B2ADF82E00BDF82C101B980089D0
:102B00000144BDF83400081A00B2ADF83000BDF839
:102B10002E00ADF832001E9890F83400099002465D
:102B20000BA81A9B1D9902F06DFA149800B3DDE909
:102B3000141030F92120481E159931F920008242E5
:102B400016D00A98A0B91A980090BDF82E101B98BC
:102B5000408A081A00B208901E9890F83400099034
:102B6000BDF92C000790DDE908131D9A03F0E1F888
:102B70001498401C00B21490169914988842A6DB51
:102B8000199800284FD01A9801901E9890F8340098
:102B90008DF800001B980089BDF83410401A401CC5
:102BA000404200B20990BDF83610159840880144A3
:102BB0000F98081A00B20890BDF8341015980088D4
:102BC000084400B207901D9BDDE9081202F09CF951
:102BD0001A9801901E9890F834008DF800001B9808
:102BE0000089BDF83410401A401C00B20990BDF8AD
:102BF00036201298401E159901EB8000408811186C
:102C00000E98084400B20890BDF834201298401E77
:102C1000159931F82000104400B207901D9BDDE9A2
:102C2000081202F071F975E1BBE0002014905AE03F
:102C3000BDF83420DDE9141030F82100104400B252
:102C4000ADF82C00BDF83620DDE9140101EB800061
:102C50004088104400B2ADF82E00BDF82C00ADF84D
:102C60003000BDF82E101B9840890844BDF836107E
:102C7000401A401E00B2ADF832001E9890F83400A1
:102C8000099002460BA81A9B1D9902F0BBF91498F3
:102C900028B3DDE9141000EB8100B0F90220481ED2
:102CA000159901EB8000B0F90200824217D00A9812
:102CB000A8B91A980090BDF82C101B98C089081A62
:102CC00000B207901E9890F834000990BDF92E00CC
:102CD00008900146099B1D9A079803F02AF814985A
:102CE000401C00B21490169914988842A0DB1998E1
:102CF000E0B31A9801901E9890F834008DF8000007
:102D0000BDF836101B984089081A00B20990BDF82A
:102D1000361015984088084400B20890BDF8341069
:102D20001598008801440F98081A00B207901D9B5F
:102D3000DDE9081202F016F91A9801901E9890F831
:102D400034008DF800001B984089BDF83610401AF9
:102D500000B20990BDF836201298401E159901EB7B
:102D600080004088104400B2089000E00FE0BDF8F9
:102D700034201298401E31F8200011180E98084493
:102D800000B207901D9BDDE9081202F0EBF800206D
:102D90000A901B980089ADF834001B984089ADF863
:102DA00036001B9800F0C0F900287FF43EAF149065
:102DB00059E0BDF83420DDE9141030F8210010444A
:102DC00000B2ADF82C00BDF83620DDE9141000EBA0
:102DD00081004088104400B2ADF82E00BDF82C00F0
:102DE000ADF83000BDF82E101B9840890844BDF89E
:102DF0003610401A00B2ADF832001E9890F8340038
:102E0000099002460BA81A9B1D9902F0FBF8149832
:102E100028B3DDE9141000EB8100B0F90220481E50
:102E2000159901EB8000B0F90200824217D00A9890
:102E3000A8B91A980090BDF82C101B98C089081AE0
:102E400000B207901E9890F834000990BDF92E004A
:102E500008900146099B1D9A079802F06AFF149892
:102E6000401C00B21490169914988842A1DB19985E
:102E7000E8B31A9801901E9890F834008DF800007D
:102E80001B984089BDF83610401A401C404200B2E1
:102E90000990BDF8361015984088084400B2089093
:102EA000BDF834101598008801440F98081A00B234
:102EB00007901D9BDDE9081202F054F81A98019062
:102EC0001E9890F834008DF800001B984189BDF8D9
:102ED0003600081A401C00B20990BDF8362012983E
:102EE000401E159901EB80004088104400E011E07D
:102EF00000B20890BDF834201298401E31F820002E
:102F000011180E98084400B207901D9BDDE90812C5
:102F100002F028F81FB000BD2DE9F04F85B004463F
:102F2000894615461E46E88E401E07B24FEA6708DE
:102F300007F0010AFF2E02D13820405D03E038205F
:102F4000405D7043001283462088A0EB080000B269
:102F5000ADF80C00A0884044504400B2ADF8100019
:102F60006088ADF80E00E088ADF81200BDF90C00E5
:102F7000BDF91010884202DABDF90C0001E0BDF97C
:102F80001000ADF80400BDF90C00BDF91010884226
:102F900002DDBDF90C0001E0BDF91000ADF808003C
:102FA000BDF90E00BDF91210884202DABDF90E001B
:102FB00001E0BDF91200ADF80600BDF90E00BDF943
:102FC0001210884202DDBDF90E0001E0BDF91200C9
:102FD000ADF80A0095F834005B4602464946009079
:102FE00001A802F00FF805B0BDE8F08F30B50B88EE
:102FF00003804B884380138883805488C480B0F951
:103000000430B0F900401B1B002B05DDB0F9043083
:10301000B0F900401B1B04E0B0F90030B0F90440E7
:103020001B1B1BB28381B0F90030B0F90440A342EE
:1030300001DA012301E04FF0FF33C381B0F906301C
:10304000B0F902401B1B002B05DDB0F90630B0F9CA
:1030500002401B1B04E0B0F90240B0F90630E31A4D
:103060001BB20382B0F90240B0F906309C4201DA8B
:10307000012301E04FF0FF334382B0F90C40B0F977
:103080001050AC4202DDB0F90C4002E0B0F9104043
:103090006442234604EBD374641024B28482002378
:1030A000C382B0F90C30B0F91040A34201DD012316
:1030B00000E000230376038803814488448130BD07
:1030C0000146B1F90800B1F90420904207D1B1F9E5
:1030D0000A20B1F90600824201D100207047888A97
:1030E000C882B1F91600B1F90C205242904209DDB4
:1030F000888A0A8A801A00B288820889CA8910449C
:1031000000B20881B1F91600B1F91020904209DA35
:10311000888A8A89104400B2888248894A8A104481
:1031200002B24A810120D9E770B50446B4F90850CB
:1031300000BF2046FFF7C4FF08B9002070BDB4F9F6
:103140000800A842F5D00120F8E770B50446B4F9AC
:103150000A5000BF2046FFF7B3FF08B9002070BD3A
:10316000B4F90A00A842F5D00120F8E7F8B5FE4905
:10317000FE480BF0A7FAFC49FD480BF0A3FAFA4908
:10318000FC480BF09FFAF849FB480BF09BFAF64914
:10319000FA480BF097FAF449F9480BF093FAF24920
:1031A000F8480BF08FFA0021F748006809F0E0FBBF
:1031B000F64908600021F548006800F09FFDF449D9
:1031C00008600021F248006800F098FDF1490860AD
:1031D0000021F048006806F029FDEF490860084624
:1031E0000168EC48006806F021FDEC490860EA48F7
:1031F0000168E848006806F019FDE9490860E548FB
:103200000168E348006800F079FDE6490860E2489B
:103210000168E448006806F009FDE3490860DE48FB
:103220000168E048006806F001FDE0490860DA48FE
:103230000168DC48006806F0F9FCDD490860D64802
:103240000168D848006806F0F1FCDA490860D24805
:103250000168D448006806F0E9FCD7490860CD4809
:103260000168CA48006800F049FDD449086000219F
:10327000D248006800F042FDD14908600021D048E2
:10328000006806F0D3FCCF49086008460168CC48C6
:10329000006806F0CBFCCC490860C9480168C74803
:1032A000006800F02BFDC9490860C6480168C7489E
:1032B000006806F0BBFCC6490860C2480168C34804
:1032C000006806F0B3FCC3490860BD480168BB480C
:1032D000006800F013FDC0490860BA480168BE48A4
:1032E000006806F0A3FCBD490860B6480168BA480A
:1032F000006806F09BFCBA490860BA48B0F90020A3
:10330000B948B0F90010A148006809F088FA974A56
:1033100000219E4800680AF09AFC00219448C1826E
:10332000818201834183818302460121974800689D
:103330000AF08DFC954806250468204609F01BFF1D
:103340000646294601F0A8FA00BFA8498B48416209
:103350000222A749A74800780CF0AFFCA4498E4888
:10336000006807F03FFB854A00218B48006807F0A2
:1033700030FBA1A18948006807F034FB7F4A002197
:103380008648006807F025FB02229C499C4800788B
:103390000CF093FC99498248006807F023FB774AB8
:1033A00000217F48006807F014FB8F48B0F9000047
:1033B0004000032190FBF1F0001F05B28948B0F9ED
:1033C000000000EB4004E01704EB907080100A3816
:1033D00002B229466F48006809F021FA6D4800687A
:1033E00008F0FEFF05466C48006808F0F9FF064645
:1033F0006A48006808F0F4FF06446948006808F06D
:10340000EFFF30442C1A04EBD470401001B259483D
:103410000183024600215F48006801F055FA062149
:103420005C48006801F038FA042276497648008842
:103430000CF043FC73495C48006807F0D3FA73A1B1
:103440005A48006807F0CEFA0222714971480078A4
:103450000CF033FC6E495648006807F0C3FA6BA1C4
:103460005448006807F0BEFA02226B496B480078A6
:103470000CF023FC68495048006807F0B3FA5A483A
:10348000B0F900004000032190FBF1F0001F05B2ED
:103490005448B0F90040E01704EB90708010C21C53
:1034A00029464048006809F0BAF93E48006808F02B
:1034B00097FF05463C48006808F092FF06463C48E6
:1034C000006808F08DFF06EB40063848006808F0F9
:1034D00087FF06EB40002C1A04EBD470401001B2B9
:1034E00025480183024600212E48006801F0ECF9CE
:1034F00006212C48006801F0CFF90120034602465E
:10350000002100902248006801F08AF9184A002141
:103510001F48006801F0D8F901211D48006801F03A
:10352000BBF93F49174841623EA12648006807F0B1
:1035300059FA144A00212348006807F04AFA032286
:103540003A493B4800780CF0B8FB38491E480068FF
:1035500007F048FA064A00211948006801F0B4F95A
:103560002048B0F9000065E04C2100207C1E0020BE
:10357000B81E0020F41E0020301F00206C1F002009
:10358000A81F0020E41F0020180000201C000020BD
:10359000200000202400002028000020300000200F
:1035A0002C000020340000203800002044000020BF
:1035B0003C00002048000020400000204C0000207B
:1035C0005000002054000020580000205C00002023
:1035D0006000002064000020680000206C000020D3
:1035E00070000020040000200600002010190020B8
:1035F00083000020890000203A000000860000209F
:103600008A0000208C000020980000202F0000007D
:10361000910000209A000020940000209B000020D0
:1036200048010020EE99A33A000000007400002039
:1036300080000020032190FBF1F0401E04B24948B5
:10364000B0F9000090FBF1F005B222462946464849
:10365000006809F0E4F806214348006801F01CF90D
:1036600042494348416243A14448006807F0BAF91F
:103670003F4A00214148006807F0ABF90322404966
:10368000404800780CF019FB3D493F48006807F0BE
:10369000A9F93E4A00213E48006801F015F93D486D
:1036A000B0F90000032190FBF1F0401E04B22D4858
:1036B000B0F9000090FBF1F005B2224629463448EB
:1036C000006809F0ACF806213148006801F0E4F820
:1036D00031A13348006807F085F9254A00213048B8
:1036E000006807F076F903222E492F4800780CF085
:1036F000E4FA2C492D48006807F074F9234A0021A8
:103700002B48006801F0E0F82248B0F900000321DE
:1037100090FBF1F0401E04B21248B0F9000090FB9B
:10372000F1F005B2224629462148006809F077F8F1
:1037300006211F48006801F0AFF80120034600226F
:10374000014600901B48006801F06AF80F4A00210A
:103750001848006801F0B8F801211648006801F027
:103760009BF8F8BD060000205000002078010020E2
:10377000A81F0020EE98A83A00000000600000207A
:10378000780000208100002064000020B81E002086
:103790005C00002004000020EEA29B3A0000000024
:1037A0006C0000207C0000208200002070000020BF
:1037B000680000204C00002010B52421064807F0C6
:1037C00080FA0BF07DFC05490860002303221E21CE
:1037D00003480BF055FA10BDA42300202C1900203B
:1037E0000D16000870B50546686818B1D5E90001E6
:1037F00000F044F8124807F06FFA04463CB911A3F0
:103800005C2214A1032007F0D3FD00BFFEE704B93A
:1038100070BD95F8200020F0040085F820002422D7
:1038200029462046FCF7E4FE606820B1238A19B2DD
:10383000D4E90002904701200F49087000BFE7E774
:10384000A42300204F7574206F66206D656D6F7224
:10385000792100002E2E5C4C56474C5F4755495C41
:103860007372635C6C765F6D6973635C6C765F61C9
:103870006E696D2E63000000301900202DE9F041C3
:1038800007460D464FF00008104807F0FBF90446C4
:1038900017E021460D4807F0FAF906462068B842BD
:1038A0000ED16068A84200D055B92146074807F0FC
:1038B000D0FA204607F0EAFD01200549087080464D
:1038C0003446002CE5D14046BDE8F081A423002019
:1038D0003019002010B50146088BB1F91A40A042FA
:1038E00002D14FF4806205E0B1F91A0080020C8B1E
:1038F00090FBF4F2D1E90440001B00FB02F39B12A1
:103900000869034418B210BD30B504460B46981A36
:10391000002801DD981A00E0D01A05464FF47A70AD
:10392000684390FBF4F1B1F5803F01D34FF6FF718E
:1039300001B9491C88B230BD0A6802604A68426019
:1039400070470A6802604A68426070470A6802600D
:103950004A68426070470A6802604A68426070477D
:103960000A6802604A68426070470146C8884A880F
:10397000801A401C00B270470146C8884A88801AE5
:10398000401C00B270470146C8884A88801A401C13
:1039900000B270470146C8884A88801A401C00B2AD
:1039A000704710B50146B1F90420B1F90030D21AC0
:1039B000521CB1F90630B1F902401B1B5B1C02FB23
:1039C00003F010BD014688880A88801A401C00B2A6
:1039D0007047014688880A88801A401C00B27047E8
:1039E000014688880A88801A401C00B27047014648
:1039F00088880A88801A401C00B27047014688886F
:103A00000A88801A401C00B27047014688880A88DC
:103A1000801A401C00B2704730B50346B1F900402F
:103A2000B2F90050AC4202DDB1F9004001E0B2F958
:103A300000401C80B1F90240B2F90250AC4202DDF4
:103A4000B1F9024001E0B2F902405C80B1F90440F2
:103A5000B2F90450AC4202DAB1F9044001E0B2F923
:103A600004409C80B1F90640B2F90650AC4202DA3B
:103A7000B1F9064001E0B2F90640DC800120B3F95B
:103A80000040B3F90450AC4205DCB3F90240B3F98D
:103A90000650AC4200DD002030BD10B502460020CB
:103AA000B2F90030B1F90040A34212DBB2F90230A2
:103AB000B1F90240A3420CDBB2F90430B1F9044081
:103AC000A34206DCB2F90630B1F90640A34200DC9D
:103AD000012010BD0246B2F90000B1F9043098424D
:103AE00013DCB2F90400B1F9003098420DDBB2F9F1
:103AF0000200B1F90630984207DCB2F90600B1F9CC
:103B00000230984201DB012070470020FCE710B52D
:103B1000B1F90030B2F90040A34202DAB1F9003045
:103B200001E0B2F900300380B1F90230B2F902408D
:103B3000A34202DAB1F9023001E0B2F90230438067
:103B4000B1F90430B2F90440A34202DDB1F9043006
:103B500001E0B2F904308380B1F90630B2F90640D1
:103B6000A34202DDB1F9063001E0B2F90630C380AC
:103B700010BD10B5029C018042808380C48010BDBE
:103B800042880A44521E12B2C2807047F0B5034602
:103B90000C46154600BF98881988401A401C00B290
:103BA000064600BFD8885988401A401C00B2074614
:103BB0001C805D803146184600F005F839461846ED
:103BC000FFF7DEFFF0BD02880A44521E12B2828067
:103BD000704700002DE9F04106460F46082007F027
:103BE00009FC044614B90020BDE8F08123460522F3
:103BF000002109480BF044F8054625B9204607F096
:103C000045FC0020F0E726606760EC6028460BF07A
:103C1000F7F90120E8E700001D3C000870B50546F3
:103C2000EC68D4E900108847204607F02FFC70BDEF
:103C30000146B1F90200B1F90020904201DC0120F7
:103C400070470020FCE7028000234380C2F101039B
:103C50001BB20B8070474288521C12B24280B1F9ED
:103C60000020002A07DC0B8842885200521C1A44AC
:103C700012B20A800CE00288521E12B20280428800
:103C80000388D21A5200521C0B881A4412B20A80BE
:103C9000704718B50346D01140EAE11040EAE3103E
:103CA000C0B200909DF80040204618BD07B581B015
:103CB0007F2A04DD9DF8040000F0010003E09DF878
:103CC000080000F00100C0B200909DF80010084606
:103CD00004B000BD07B581B07F2A04DD9DF8040063
:103CE00000F0010003E09DF8080000F00100C0B200
:103CF00000909DF80010084604B000BD2DE9F04189
:103D000080460E463146404607F0E4FF07463FB97D
:103D10003CA346223FA1032007F04AFB00BFFEE779
:103D200017B90020BDE8F0814348006820B9384643
:103D300008F01AFB404908600221384607F0B7FF37
:103D4000384608F0D9FA04460CB90020EAE73CB935
:103D50002CA34F222FA1032007F02AFB00BFFEE770
:103D6000207820F030002070207820F0C0002070F3
:103D7000607820F003006070607820F00C006070C4
:103D8000207820F00F0020702C49384608F045FDBF
:103D900096B9B8F1000F33D00BF078F905462DB184
:103DA00000213846EA6800F098FD04E0244A00212A
:103DB000384600F092FD23E0304608F09DFA0546B3
:103DC00028780109207861F305102070287881098E
:103DD000207861F3871020706878617860F30101C2
:103DE000617068788108607861F38300607028787A
:103DF000217860F303012170384608F0D9FB00BF39
:103E000038468FE74F7574206F66206D656D6F7251
:103E1000792100002E2E5C4C56474C5F4755495C7B
:103E20007372635C6C765F6F626A785C6C765F63FA
:103E30006F6E742E63000000481A0020ED480008E1
:103E4000C421002070B50446204608F055FA054606
:103E50002878C0F3011070BD70B50446204608F004
:103E60004BFA0546687800F0030070BD70B5044653
:103E7000204608F041FA0546287800F00F0070BD92
:103E80002DE9F84F0446204608F072FA07464FF035
:103E900000090026201D06F0F5FE054619E028461B
:103EA00008F038FA20B90421284608F02DFB00B1AB
:103EB0000AE0284608F026FA0146B88B0844304448
:103EC00006B209F1010900BF2946201D06F0DFFEF8
:103ED0000546002DE3D1B9F1000F01D1BDE8F88FFF
:103EE000B88B301A06B20121204608F090FC30460B
:103EF00006EBD071491049420FFA81F8201D06F0F7
:103F0000DBFE05462AE0284608F004FA20B9042121
:103F1000284608F0F9FA00B11BE0284608F0F2F94B
:103F2000824600EBDA7008EB60000FFA80FB00239A
:103F30001A4621462846CDF800B007F063FB284614
:103F400008F0E0F90146B88B084440440FFA80F8C5
:103F500000BF2946201D06F0A5FE0546002DD2D142
:103F60000121204607F0ADFE00BFB7E72DE9F84F6D
:103F700006463046FFF77AFF8246304608F0F8F9E9
:103F80008046BAF1020F06D0BAF1030F07D0BAF19A
:103F9000040F0DD106E0B8F9185001240BE00025FC
:103FA000022408E0B8F81A00404205B2032402E0F7
:103FB0000025012400BF00BF0121304608F027FC86
:103FC000B8F91490301D06F077FE074621E0384618
:103FD00008F0A0F920B90421384608F095FA00B19C
:103FE00012E02B46224631463846CDF8009007F0C5
:103FF00009FB384608F086F90146B8F81C00084469
:1040000048440FFA80F900BF3946301D06F04AFED9
:104010000746002FDBD10121304607F052FEBDE8F4
:10402000F88F2DE9F04F85B08246504608F0A0F990
:104030000446504608F0D4F980460021504608F066
:10404000E4F8009008F0CCF905460021504608F04D
:10405000DCF8009008F056F90490B4F91800A8EBC9
:104060000001B4F91A00091AB4F91C00284491FBA4
:10407000F0F086B2012E0FDDB4F91800A8EB0001B4
:10408000B4F91A00081A284406FB1501701E91FBAA
:10409000F0F00FFA80F90AE0414608EBD1725210B5
:1040A000284605EBD073A2EB63020FFA82F9A18BCD
:1040B0000498084400B203900121504608F0A7FB81
:1040C000B4F918B0B4F914000290002001900AF17C
:1040D000040006F0F1FD074631E0384608F01AF911
:1040E00020B90421384608F00FFA00B121E0012E72
:1040F00009DD59463846029A08F038FB0BEB0900F7
:104100000FFA80FB04E049463846029A08F02EFB7D
:104110000198401C80B201900198B04208DB002059
:104120000190B4F918B0DDE90201084400B2029030
:1041300000BF39460AF1040006F0B4FD0746002F1F
:10414000CBD10121504607F0BCFD05B0BDE8F08F92
:104150002DE9F04F89B00546284608F009F9804658
:10416000284608F03DF90790B8F91490281D06F08C
:10417000A3FD064616B909B0BDE8F08F0121284617
:1041800008F045FB3446FBE04FF0000AB8F8181081
:10419000B8F81A00084400B20690002700BF204675
:1041A00008F0B8F888BB0421204608F0ADF960BBE0
:1041B000204608F015F9069901440798814207DD69
:1041C0002CB127B12146281D06F061FD044626E0EA
:1041D000204608F005F90146B8F81C00014406988D
:1041E000084400B20690204608F08CF8504501DAE9
:1041F000504602E0204608F085F882467F1C0821E0
:10420000204608F081F900B109E0FFE72146281DAA
:1042100006F048FD044607B92646002CBFD100BF72
:1042200077B9002C0BD00023022229462046CDF876
:10423000009007F0E7F9204608F064F8824690E025
:10424000012F08D10023022229463046CDF80090E4
:1042500007F0D8F985E0022F3ED105963146281D9A
:1042600006F020FD0490059808F0BAF883460498FB
:1042700008F0B6F8584400B20690DDE90610401A7E
:10428000032190FBF1F000B20390059808F03AF892
:10429000AAEB000B0BEBDB7009EB600000B20290A5
:1042A000009001222946039B059807F0ABF904987A
:1042B00008F028F8AAEB000B0BEBDB7009EB6000B1
:1042C00000B2029000900398404203B203222946B4
:1042D000049807F097F944E0B8F91C10069801FB20
:1042E000170000B20690DDE90610411A781EB1FBF6
:1042F000F0F000B20590B8F918B008962CE00898D4
:1043000008F008F8F8B90421089808F0FDF8D0B9C9
:10431000089807F0F7FFAAEB0000049000EBD070BC
:1043200009EB600000B203905B4601222946009031
:10433000089807F067F9089808F052F805990844BA
:1043400058440FFA80FB0898A04200D107E0281DCE
:10435000089906F0A7FC089008980028CFD100BF64
:1043600000BF04B90FE0B8F81C00504448440FFAED
:1043700080F92146281D06F095FC0646344600BF0C
:10438000002E7FF401AF00BF0121284607F099FC01
:1043900000BFF0E62DE9F84F06463046FFF766FD10
:1043A0008246304607F0E4FF8046BAF1050F06D09A
:1043B000BAF1060F07D0BAF1070F0DD106E0B8F930
:1043C000145001240BE00025072408E0B8F816007B
:1043D000404205B2042402E00025012400BF00BFD2
:1043E0000121304608F013FAB8F91890301D06F094
:1043F00063FC074620E0384607F08CFF20B9042113
:10440000384608F081F800B111E04B4622463146AB
:104410003846009507F0F6F8384607F0E1FF014608
:10442000B8F81C00084448440FFA80F900BF394628
:10443000301D06F037FC0746002FDCD10121304645
:1044400007F03FFCBDE8F88F2DE9F04788B005463E
:10445000284607F051FF06463078C0F3011068B9CE
:104460003078800950B9707800F0030030B9707866
:10447000C0F3810010B908B0BDE8F087284607F006
:1044800077FF8046284607F05FFF8246504607F0D8
:104490006FFF81460AF1100102A8FFF75CFABDF830
:1044A0000810B9F81800084400B2ADF80800BDF8CB
:1044B0000C10B9F81A00081A00B2ADF80C00BDF8DB
:1044C0000A10B9F81400084400B2ADF80A00BDF8AB
:1044D0000E10B9F81600081A00B2ADF80E0004A9C3
:1044E000284607F0A3FE06A9284607F09FFE281DD0
:1044F00006F06EFC80F00107002F71D047F61840DF
:10450000ADF81800ADF81A0048F2E830ADF81C001C
:10451000ADF81E00281D06F0B5FB04463EE020461F
:1045200007F0F8FE00B134E0BDF91800B4F910103E
:10453000884202DABDF9180001E0B4F91000ADF8C4
:104540001800BDF91A10B4F91200814202DABDF95F
:104550001A0001E0B4F91200ADF81A00BDF91C1000
:10456000B4F91400814202DDBDF91C0001E0B4F988
:104570001400ADF81C00BDF91E10B4F916008142FC
:1045800002DDBDF91E0001E0B4F91600ADF81E0011
:1045900000BF2146281D06F07AFB0446002CBED140
:1045A000BDF81810B8F81800081A00B2ADF81800D5
:1045B000BDF81C10B8F81A00084400B2ADF81C0091
:1045C000BDF81A10B8F81400081A00B2ADF81A00B5
:1045D000BDF81E10B8F81600084400B2ADF81E0071
:1045E00004A96846FFF7B7F93078C0F30110012835
:1045F00004D0022807D003281CD109E0BDF8180018
:10460000ADF8000017E0BDF80800ADF8000012E0BA
:104610005FB1BDF91800BDF90810884202DABDF992
:10462000180004E0BDF9080001E0BDF90800ADF88C
:10463000000000E000BF00BF30788009012804D0EE
:10464000022807D003281CD109E0BDF81C00ADF8F2
:10465000040017E0BDF80C00ADF8040012E05FB1F3
:10466000BDF91C00BDF90C10884202DDBDF91C002B
:1046700004E0BDF90C0001E0BDF90C00ADF8040048
:1046800000E000BF00BF707800F00300012804D0F4
:10469000022807D003281CD109E0BDF81A00ADF8A4
:1046A000020017E0BDF80A00ADF8020012E05FB1A9
:1046B000BDF91A00BDF90A10884202DABDF91A00E4
:1046C00004E0BDF90A0001E0BDF90A00ADF80200FE
:1046D00000E000BF00BF7078C0F38100012804D063
:1046E000022807D003281CD109E0BDF81E00ADF850
:1046F000060017E0BDF80E00ADF8060012E05FB14D
:10470000BDF91E00BDF90E10884202DDBDF91E0084
:1047100004E0BDF90E0001E0BDF90E00ADF80600A1
:1047200000E000BF00BFB5F91000BDF900108842DD
:1047300011D1B5F91200BDF9021088420BD1B5F9BB
:104740001400BDF90410884205D1B5F91600BDF971
:10475000061088422DD0284607F062FE694605F112
:104760001000FFF7F8F8284607F05AFE04AA0221C5
:104770002846EB6998472A4601215046DAF81C3052
:104780009847284607F03BFD10B1284607F0E4FEA5
:10479000281D06F077FA044609E00022032120468E
:1047A000E36998472146281D06F071FA0446002C5B
:1047B000F3D100BF5FE670B505462846FFF756FB0C
:1047C00004460021284607F020FD00B970BD04B959
:1047D000FCE7012C03D12846FFF752FB1EE0022C18
:1047E00003D0032C01D0042C03D12846FFF7BEFBD5
:1047F00014E0052C03D0062C01D0072C03D1284649
:10480000FFF7C8FD0AE0082C03D12846FFF7A0FCFB
:1048100004E0092C02D12846FFF703FC00BFD5E7CE
:104820002DE9F04780460D4616461F46DDF82090DC
:10483000404607F0F5FD404607F05EFD044620784F
:10484000C0F30110A8420FD12078B6EB901F0BD116
:10485000607800F00300B84206D16078C0F38100B0
:10486000484501D1BDE8F087207865F30510207038
:10487000207866F387102070607867F3010060701D
:10488000607869F383006070002201214046D8F807
:104890001C30984700BFE5E770B506460C46304629
:1048A00007F02AFD0546287800F00F00A04200D14D
:1048B00070BD287864F3030028700022012130467F
:1048C000F369984700BFF3E770B505460E461446F6
:1048D0002146284607F0F2FF70BD70B505460E462A
:1048E00014462146284607F0E9FF70BD2DE9F04146
:1048F00007460C4615462A4621463846284B1B6873
:1049000098470646012E02D03046BDE8F081042CBF
:1049100006D13846FFF74FFF3846FFF795FD3DE0DB
:10492000012C06D13846FFF746FF3846FFF78CFDCD
:1049300034E0022C1AD1384607F052FDA9882A88A3
:10494000891A491C09B2884209D1384607F0DAFCB5
:10495000E9886A88891A491C09B288421ED03846FB
:10496000FFF729FF3846FFF76FFD17E0032C03D14F
:104970003846FFF769FD11E0062C0FD129460020CB
:1049800005E051F8202002B903E0421CD0B207280C
:10499000F7DB00BF03A241F8202000BF3046B4E798
:1049A000481A00206C765F636F6E74002DE9F04149
:1049B00004460F4615461E461C212046FBF774FE92
:1049C000276065602068A060E660BDE8F0810000B7
:1049D00038B5044620212046FBF766FE0020E06043
:1049E000802020804020608000206060A06820F04F
:1049F0000200A0600648006800909DF80000207743
:104A0000A06820F00100401CA0600020606138BD5B
:104A1000887D010870B50546324806F05DF9044608
:104A200054B93CB930A3792233A1032006F0C0FC6D
:104A300000BFFEE7002070BD202229462046FBF77C
:104A4000D7FD202104F59E70FBF72EFE4FF48071F8
:104A500004F13C00FBF706FE442104F1240006F0BB
:104A600030F92F48006808B92D4804602C480668C2
:104A700004600020C4F85C010021084607F02AF910
:104A800020630021084607F025F9606300210846ED
:104A900007F020F9A0632349606B07F00FFF21495D
:104AA000A06B07F00BFF206B07F0BAFC1C480660F8
:104AB000234603221E211C480AF0E2F82062206AE5
:104AC00038B909A396220CA1032006F071FC00BF9F
:104AD000FEE7206A08B90020ADE7206A0AF096FADE
:104AE0002046A8E7742300204F7574206F66206D60
:104AF000656D6F72792100002E2E5C4C56474C5F1D
:104B00004755495C7372635C6C765F68616C5C6C82
:104B1000765F68616C5F646973702E6300000000EB
:104B20002019002098200020794D000841688969EB
:104B300021F0010142689161704700B5014611B949
:104B400000F00CF8014609B9002000BD087A00F019
:104B50000100FAE701464868704700000148006814
:104B6000704700002019002000B5014611B9FFF779
:104B7000F5FF014609B9802000BD087AC0F3400066
:104B800010B9B1F90000F7E7B1F90200F4E700004D
:104B900010B5044614B9FFF7E1FF04463CB905A37C
:104BA0005C2213A1022006F003FC002010BDA06BC4
:104BB000FCE700006C765F6C617965725F737973F6
:104BC0003A206E6F20646973706C6179207265673A
:104BD0006973746572656420746F206765742069F9
:104BE000747320746F70206C61796572000000002E
:104BF0002E2E5C4C56474C5F4755495C7372635C84
:104C00006C765F636F72655C6C765F646973702E3F
:104C10006300000010B5044614B9FFF79FFF044677
:104C20003CB905A34B2213A1022006F0C1FB0020D2
:104C300010BD606BFCE700006C765F6C617965729B
:104C40005F746F703A206E6F20646973706C617965
:104C5000207265676973746572656420746F20677C
:104C600065742069747320746F70206C617965724B
:104C7000000000002E2E5C4C56474C5F4755495CA7
:104C80007372635C6C765F636F72655C6C765F6495
:104C90006973702E6300000010B5044614B9FFF765
:104CA0005DFF04463CB905A32E2212A1022006F0A6
:104CB0007FFB002010BD206BFCE700006C765F736B
:104CC00063725F6163743A206E6F20646973706C05
:104CD0006179207265676973746572656420746FA9
:104CE000206765742069747320746F70206C61791B
:104CF000657200002E2E5C4C56474C5F4755495C50
:104D00007372635C6C765F636F72655C6C765F6414
:104D10006973702E6300000000B5014611B9FFF7FA
:104D20001DFF014609B9402000BD087AC0F34000CC
:104D300010B9B1F90200F7E7B1F90000F4E7014654
:104D40004868006820B14868406808B10120704791
:104D50000020FCE700B502461088518810FB01F3E3
:104D60001046FFF7ECFF28B15068C068984201D1A7
:104D7000012000BD0020FCE72DE9FC5F80460AF021
:104D80009FF901905149D8F80C00086009F0F0FA39
:104D900009F076FA4D480068B0F85C01C0F30900EC
:104DA00000287DD049480068FFF7D4FF002862D072
:104DB00046480068FFF7CEFE054609F0FDFB00BF40
:104DC000A86900F001000028FAD1D5F808902968F8
:104DD000A868884201D1686800E0286800903B48D4
:104DE0000068FFF7C1FE064600243BE03748006834
:104DF00000F59E70005D98BB344800683C3030F987
:104E00003410324800683C3000EBC400B0F90200B6
:104E100006FB00172D4909683C3101EBC400FEF781
:104E2000D1FD8346294800683C3000EBC400B0F94E
:104E300002A00BE0009AD11909EB07005A46FBF7D4
:104E400092FB37440AF101000FFA80FA1F4800680C
:104E50003C3000EBC400B0F906005045EADA00BF70
:104E6000601C84B219480068B0F85C01C0F3090006
:104E7000A042BBDC00BF4FF48071144800683C3096
:104E8000FBF7F0FB20211148006800F59E70FBF74E
:104E90000BFC00200D490968C1F85C010B4800E0DB
:104EA0000FE00068806960B101980AF0FBF80446E1
:104EB000064800688369064821460268034800687E
:104EC000984700F0EDF8BDE8FC9F0000F8000020D6
:104ED000F400002010B503460BB9002010BD082BCC
:104EE00007DA581E074C54F82000405C5043000A73
:104EF000F4E7012000EB410050435C0090FBF4F02C
:104F0000C0B2EBE7000100202DE9F84F06468A46C3
:104F100014461F46DDF82C804FF0000B002C03DAFE
:104F20004FF0010B604204B2002517E042462946CB
:104F30002046FFF7CFFF8146BBF1000F03D0A8EB5F
:104F4000090000F0FF09711908B2CDF800903A4647
:104F500051460A9B00F0EDFE681C05B2A542E5DB58
:104F6000BDE8F88F2DE9F84F82460E4614461F46DD
:104F7000DDF82C804FF0000B002C03DA4FF0010B12
:104F8000604204B2002517E0424629462046FFF75A
:104F9000A1FF8146BBF1000F03D0A8EB090000F090
:104FA000FF09701901B2CDF800903A4650460A9BAD
:104FB00000F0BFFE681C05B2A542E5DBBDE8F88F36
:104FC0002DE9F04104460D46164609F08BF980465E
:104FD000FFF7B3FD0746B4EB650F04DBC5F34F04E1
:104FE0000CB1601E84B2B4EB660F04DBC6F34F0451
:104FF0000CB1601E84B2002C01DDE01B84B220469F
:10500000BDE8F0812DE9FF4F85B0804689461D46F9
:10501000102D02DA09B0BDE8F08FFB2D00DDFF2571
:105020004A46414603A8FEF7F7FC074607B9F1E7F1
:1050300009F058F983465846FFF78CFD0446BDF841
:105040000C00218A401A00B2ADF80400BDF80E1021
:10505000608A081A00B2ADF80600BDF81000218A77
:10506000401A00B2ADF80800BDF81210608A081AA4
:1050700000B2ADF80A00D4F808A004F11000FEF761
:10508000A8FC0646BDF8060016FB00AA0095A0681D
:1050900001AA3146079B0AF0DFFE00BFBAE7000015
:1050A00010B50648006840B10448006806F0EEF903
:1050B0000020024908600249086010BD3C19002028
:1050C000FC00002010B5044619480068844202D84C
:1050D0001848006810BD164804601648006890B96A
:1050E000204606F087F9134908600846006838B979
:1050F00011A33F2214A1032006F05AF900BFFEE7D6
:105100000C480068E6E721460A48006806F01CFAE9
:10511000084908600846006838B907A344220AA174
:10512000032006F045F900BFFEE702480068D1E71A
:10513000FC0000203C1900204F7574206F66206D24
:10514000656D6F72792100002E2E5C4C56474C5FC6
:105150004755495C7372635C6C765F647261775C1F
:105160006C765F647261772E630000002DE9FF4F5B
:10517000A7B082461446DDF8E480DDE93476606A43
:10518000269006F0020020B95046FEF729FC259033
:1051900010E047F61841B4F92A008DE84300B4F94D
:1051A0002830394609A8626A0AF070F8BDF924006F
:1051B000259000BF00BF2698007A618D084400B298
:1051C000249000202390BAF80000ADF88800BAF8C7
:1051D0000200ADF88A00002021902090369870B12E
:1051E0003698B0F9000021903698B0F9020020906E
:1051F000BDF88A102098084400B2ADF88A00002556
:10520000681E1F90B8F1000F20D02098F0B9BAF9AD
:105210000210D8F80800401A002805DDBAF902107B
:10522000D8F80800401A04E0BAF90200D8F80810CB
:10523000401A24994900C1F58061884203DD4FF08E
:10524000FF30C8F80000D8F800001F90B8F1000F38
:105250000BD01F98002808DB1F9DBDF88A00B8F806
:105260000410084400B2ADF88A000096B4F9282072
:105270007819DDE9253109F079FF00EB05092EE009
:105280004D460096B4F928207819DDE9253109F05A
:105290006DFF8144BDF88A102498084400B2ADF82F
:1052A0008A00B8F1000F15D0BDF98A0010F5806FA3
:1052B00010DBD8F8000000280CDAC8F80050BDF95F
:1052C0008A00BAF90210401AC8F80400BAF90200BC
:1052D000C8F80800785D10B92BB0BDE8F08FBDF9B3
:1052E0008A10249801442898B0F902008142C7DB53
:1052F00006F00400D0B10096B4F92830A9EB0502FD
:1053000091B27819269A0AF027F823905046FEF7B2
:1053100067FB2399A0EB010B0BEBDB70BDF888104A
:1053200001EB600000B2ADF8880018E006F008005C
:10533000A8B10096B4F92830A9EB050291B278190A
:10534000269A0AF009F823905046FEF749FB239964
:10535000401ABDF88810084400B2ADF888002A98B9
:10536000FF2802D12C20005D04E02C20005D2A994A
:10537000484300121E9000201D901B90A7490AA8C8
:1053800009F0A0F92120005D8DF82A000AA89DF8F7
:105390002A10C1703BE1369830B1BDF888102198D1
:1053A000084400B2ADF8880000201D901C95D5E09F
:1053B0001CA938469A4A1268904709901C99781897
:1053C0000021974A12689047089006F001000028D3
:1053D00067D094A001780998814213D11D9828B90B
:1053E0001C9880B21B9001201D90B7E01D980128E9
:1053F00002D100201D9005E01D98022802D1002056
:105400001D90ABE01D9801284BD10998202847D169
:10541000DDE91B01081A07283BD11B9838440168B5
:1054200005918088ADF8180000208DF81A009DF8CD
:105430001500FCF755FD83469DF81400FCF750FD60
:105440000BEB001004909DF81700FCF749FD834614
:105450009DF81600FCF744FD0BEB001003909DF83F
:105460001900FCF73DFD83469DF81800FCF738FD58
:105470000BEB00100290DDE902210498D31143EAFE
:10548000E11343EAE01301939DF804C063461A93C5
:1054900004E094F8200000F001001A9002201D9012
:1054A0005CE0206A07901D98022801D11A980790A5
:1054B000DDE90821269803F0AEFB00B219904FF603
:1054C000FF713798884230D0389888422DD03846BE
:1054D000554A1C991268904783463798834523DDC7
:1054E0003898834520DCBDF88800ADF81400BDF87D
:1054F0008A00ADF81600BDF8881019980144208D77
:105500000844401E00B2ADF81800BDF88A10249877
:105510000844401E00B2ADF81A000AAA05A81E9B56
:10552000289900F070FC00BF00BF1E9801909DF804
:105530001C008DF8000022A8099B269A289900F0EB
:1055400075F81998002808DDBDF88810228D199883
:105550001044084400B2ADF8880000BF1C984845CC
:10556000FFF426AF4D460096B4F928207819DDE9FE
:10557000253109F0FBFD8144BAF80000ADF8880040
:1055800006F00400D0B10096B4F92830A9EB05026A
:1055900091B27819269A09F0DFFE23905046FEF763
:1055A0001FFA2399A0EB010B0BEBDB70BDF8881001
:1055B00001EB600000B2ADF8880018E006F00800CA
:1055C000A8B10096B4F92830A9EB050291B2781978
:1055D000269A09F0C1FE23905046FEF701FA23995E
:1055E000401ABDF88810084400B2ADF88800BDF834
:1055F0008A102498084400B2ADF88A00BDF98A10D8
:105600002898B0F90600814200DD65E600BF785DAC
:1056100000287FF4C0AE00BF5EE6000088210020B5
:10562000341A002023000000401A00202DE9FF4F0B
:105630009DB00C46D7A000681C90D7A000681B90B6
:10564000D6A3D3E90020D3E9021318AD0BC51792F6
:105650002B98102802DA21B0BDE8F08F2B98FB2898
:1056600001DDFF202B901F9830B9D0A3F722D8A1DD
:10567000022005F09DFEEEE7002315A9DDE91F02DB
:1056800003F078FA1490149800B9E4E71D980088A4
:105690009DF95810084405B21F98017A407A091AFA
:1056A0001D98408808449DF85710401A9DF95910DC
:1056B000401A06B29DF85A00012806D0022809D0E7
:1056C00004280CD0082814D10EE00DF1700B8020B6
:1056D00013900FE00DF16C0BC02013900AE00DF158
:1056E0005C0BF020139005E04FF0000BFF201390AF
:1056F00000E0B0E700BFDDE91F0103F033FA8246A6
:10570000BAF1000F00D1A6E79DF856002844B4F97D
:10571000001088420EDBB4F90400A8420ADB9DF8B1
:1057200057003044B4F90210884203DBB4F9060094
:10573000B04200DA8FE708F0D5FD11901198FFF71D
:1057400009FA804608F11000FEF743F91090D8F8E6
:1057500008709DF85600C0100D909DF8560000F09E
:10576000070018B10D98401CC0B20D909DF856006E
:105770009DF85A1010FB01F00C90B4F90000A842FB
:1057800001DC002002E0B4F90000401B00B20B90E5
:105790009DF856002844B4F90410884202DC9DF8B4
:1057A000560003E0B4F90400401B401C00B20A900C
:1057B000B4F90200B04201DC002002E0B4F90200BA
:1057C000801B00B209909DF857003044B4F90610D0
:1057D000884202DC9DF8570003E0B4F90600801B04
:1057E000401C00B20890B8F91200311A109801FB61
:1057F0000050B8F91010401A07440B9A10990998F4
:1058000000FB012007440C99099848439DF85A2051
:105810000B9901FB0200079007980AEBD00A079842
:1058200000F007090020049009980E90AAE0139850
:1058300040FA09F012900B980F9084E0C9F108002B
:105840009DF85A10421A9AF8000012990840104127
:1058500006900698D0B32B98FF280AD19DF85A00DD
:10586000082801D1069802E006981BF80000059070
:105870000FE09DF85A00082804D12B990698484358
:10588000001205E006981BF800002B99484300120F
:10589000059011984069D0B1059802909DF8A80034
:1058A0008DF804000E988119B8F81200081A00B299
:1058B00000900F982844B8F81020801A03B2D8F846
:1058C00008101198D0F814C0109AE0471FE03878FB
:1058D00000F001009DF8A81001F00101884216D0E7
:1058E0000598FB2803DD9DF8A80038700FE00598A7
:1058F00010280CDD049850B9387802900146059ABA
:105900002A98FEF7D3F903909DF80C0038707F1C9D
:105910009DF85A00C0F1080048450ADD9DF85A007C
:1059200048441FFA80F99DF85A10129808411290C5
:1059300005E04FF00009139812900AF1010A0F9840
:10594000401C00B20F900A990F988842FFF676AF7C
:105950009DF856100A98091A0B9808449DF85A1099
:1059600000FB01901FFA80F90AEBE90A09F0070928
:10597000DDE90A01411A1098401A07440E98401CAC
:1059800000B20E9008990E988842FFF650AF00BF03
:1059900061E6000000FF00000055AAFF001122335D
:1059A000445566778899AABBCCDDEEFF466F6E74CE
:1059B0003A2063686172616374657227732062695B
:1059C000746D6170206E6F7420666F756E64000078
:1059D0002E2E5C4C56474C5F4755495C7372635C96
:1059E0006C765F647261775C6C765F647261775F1E
:1059F00062617369632E63002DE9F04F8BB004463A
:105A00000D4617461E46DDF85080F08E10B90BB0DB
:105A1000BDE8F08FB4F90000B5F90010884206D156
:105A2000B4F90200B5F90210884200D1EFE7B7F9E6
:105A30000010B6F93600081AB4F90010884209DDE2
:105A4000B7F90010B6F93600081AB5F90010884207
:105A500000DDDCE7B7F90410B6F936000844B4F904
:105A60000010884209DAB7F90410B6F93600084484
:105A7000B5F90010884200DAC9E7B7F90210B6F9A3
:105A80003600081AB4F90210884209DDB7F902108D
:105A9000B6F93600081AB5F90210884200DDB6E7FB
:105AA000B7F90610B6F936000844B4F90210884276
:105AB00009DAB7F90610B6F936000844B5F902104C
:105AC000884200DAA3E7B4F90000B5F90010401AE3
:105AD000002805DDB4F90000B5F90010401A04E013
