:020000040800F2
:100000005807002031020008514D0008BD060008C5
:100010004D4D0008C5040008D7540008000000003A
:10002000000000000000000000000000ED4F00088C
:10003000C904000800000000814E000805510008B6
:100040004B0200084B0200084B0200084B0200085C
:100050004B0200084B0200084B0200084B0200084C
:100060004B0200084B0200084B0200084B0200083C
:100070004B0200084B0200084B0200084B0200082C
:100080004B0200084B0200084B0200084B0200081C
:100090004B0200084B0200084B0200084B0200080C
:1000A0004B0200084B0200084B0200084B020008FC
:1000B0004B0200084B0200084B0200084B020008EC
:1000C0004B0200084B0200084B0200084B020008DC
:1000D0004B020008B95200084B0200084B0200080E
:1000E0004B0200084B0200084B0200084B020008BC
:1000F0004B0200084B0200084B0200084B020008AC
:100100004B0200084B0200084B0200084B0200089B
:100110004B0200084B0200084B0200084B0200088B
:100120004B0200084B0200084B0200084B0200087B
:100130004B0200084B0200084B0200084B0200086B
:100140004B0200084B0200084B0200084B0200085B
:100150004B0200084B0200084B0200084B0200084B
:100160004B0200084B0200084B0200084B0200083B
:100170004B0200084B0200084B0200084B0200082B
:100180004B0200084B02000800F002F800F041F8B2
:100190000AA090E8000C82448344AAF10107DA45E2
:1001A00001D100F036F8AFF2090EBAE80F0013F0F3
:1001B000010F18BFFB1A43F001031847B470000089
:1001C000D4700000103A24BF78C878C1FAD852071A
:1001D00024BF30C830C144BF04680C6070470000C1
:1001E0000023002400250026103A28BF78C1FBD840
:1001F000520728BF30C148BF0B607047782900F014
:100200007980002070471FB505F038FC1FBD10B580
:1002100010BD00F027F91146FFF7F5FF05F0F4F9DE
:1002200000F045F903B4FFF7F2FF03BC05F055F900
:100230000948804709480047FEE7FEE7FEE7FEE77A
:10024000FEE7FEE7FEE7FEE7FEE7FEE704480549B6
:10025000054A064B70470000095100088901000853
:1002600058010020580700205803002058030020A0
:10027000704700000FB4044910B503AA029800F0BB
:10028000C3F810BC5DF814FB140000202DE9F04108
:100290000E460446002020622046E168884730B3BD
:1002A000252805D0D4E901219047206A401CF2E7B7
:1002B000E168204600278847050018D0A5F14100D5
:1002C000192802D820354FF40067324629462046C7
:1002D0002760FFF793FF40B1012804D0F61D26F0F8
:1002E00007060836D8E7361DD6E72846DAE7206A3B
:1002F000BDE8F08170B504460D4621461068AFF3A5
:1003000000802188090502D50F4A7A4402E00E4A8E
:100310007A440E32002104F1240305E000F00F06B8
:100320000009965D5E54491C0028F7D1207800230F
:10033000000704D5702D02D009B1022311322046E6
:10034000BDE8704000F006B8386F00007047704795
:10035000704770472DE9F0470D469946924604468E
:1003600000F124080168880604D5E06921F0100135
:10037000216000E00120A84201DD471B00E00027CA
:10038000A1697A1902EB0900081AA0612078C00659
:1003900002D42046AFF30080002608E0D4E9012112
:1003A0001AF806009047206A401C761C20624E45D1
:1003B000F4DB2078C0060AD52046AFF3008006E0C3
:1003C000D4E9012130209047206A401C2062381E69
:1003D000A7F10107F4DC07E0D4E9012118F80500D2
:1003E0009047206A401C2062281EA5F10105F3DC1D
:1003F0002046AFF300802078000602D50220BDE839
:10040000F0870120FBE70000074B70B50D467B44E9
:1004100000F011F80446284600F020F810B14FF023
:10042000FF3070BD204670BDDB51000001694A1CE1
:1004300002610878704700B58FB0CDE90131002125
:10044000059105497944CDE9031011466846FFF747
:100450001DFF0FB000BD0000E5FFFFFF007B00F0B7
:1004600080007047754600F029F8AE4605006946E1
:10047000534620F00700854618B020B5FFF7E6FE8A
:10048000BDE820404FF000064FF000074FF0000895
:100490004FF0000B21F00701AC46ACE8C009ACE816
:1004A000C009ACE8C009ACE8C0098D4670470446F5
:1004B000AFF300802046FFF7B5FE0000004870470C
:1004C000F800002000BFFEE77047000051B1820035
:1004D000A2F1C042126842F001038200A2F1C042C0
:1004E000136009E08200A2F1C0421268034B1A4077
:1004F0008300A3F1C0431A6070470000FEFF0F00A5
:10050000D0E901121143C2681143026911434269E3
:10051000114382691143C2691143026A1143426A5D
:100520001143826A1143C26A1143026B114302688C
:100530009200A2F1C0421160816808290BD10168C4
:100540008900A1F1C041096841F0400201688900B9
:10055000A1F1C0410A60416B0968426B526841EAEF
:100560000211426B926841EA0221426B928941EA90
:100570000241426B128A41EA0251426B127D41EA0A
:100580000261426B926911430268521C9200A2F10F
:10059000C0421160C16AB1F5804F1BD1816B0968FF
:1005A000826B526841EA0211826B926841EA022131
:1005B000826B128A41EA0251826B127D41EA02612A
:1005C000826B9269114302689200A2F1C042C2F8A4
:1005D000041107E06FF0704201688900A1F1C04189
:1005E000C1F804217047F0B50A4600210023002419
:1005F00000BF3DE0012505FA01F3156805EA030493
:100600009C4234D105684F000326BE40B5430560C7
:1006100015794E00B5400668354305601579012D02
:1006200002D01579022D16D185684F000326BE40F1
:10063000B543856055794E00B54086683543856081
:10064000456801268E40B5434560456896798E40E1
:10065000B6B235434560C5684F000326BE40B5437A
:10066000C560D5794E00B540C6683543C560491CA4
:100670001029BFD3F0BDF0B5002300244D07ED0EC7
:1006800002FA05F3CE1000F1200555F826504E076A
:10069000F70E0F26BE40B543CF1000F1200646F8F6
:1006A0002750CE1000F1200555F8265045EA0304E6
:1006B000CE1000F1200545F82640F0BD00BFFEE752
:1006C00070B50446002617480588408845431548FC
:1006D000808846F60401884216D1124880790128A4
:1006E00012D100200F4988712A2048812B2088814F
:1006F0000021084604F012F901200A4988712B20D4
:1007000048812A20888103E00021084604F006F988
:1007100004F008FB002602E003480480761CAE4289
:10072000FAD370BDE80000208000006C10B50446CC
:10073000002C73D179498871F02008804FF4A070A3
:1007400048800846808849F24131884211D0734878
:10075000808846F6040188420BD07048808845F2B4
:100760001031884205D06D48808849F28141884225
:1007700020D12C20694908812A2048812B2088819A
:100780000846808846F6040188420BD0634880887A
:1007900045F21031884205D06048808849F2814195
:1007A000884206D14FF4A0705C4908804FF4F07085
:1007B0004880AEE05948808845F21051884210D1F7
:1007C0004FF43050554908814FF4285048814FF478
:1007D0002C5088814FF4F07008804FF448704880A6
:1007E00097E04E48808841F6631188420DD12C2055
:1007F0004A4908812B2048812A2088814FF4F070D3
:1008000008804FF44870488083E0222043490881E3
:1008100020204881212088817BE0FFE701203F499B
:1008200088714FF4A0700880F020488008468088C6
:1008300049F2413188420BD03848808845F2103166
:10084000884205D03548808849F28141884207D1E5
:100850002C20324908812A2048812B2088813FE0C2
:100860002E48808846F60401884207D12C202B4967
:1008700008812B2048812A20888131E02748808800
:1008800045F21051884210D14FF43050234908816D
:100890004FF4285048814FF42C5088814FF4487011
:1008A00008804FF4F07048801AE01C48808841F6B8
:1008B000631188420DD12C20184908812A204881D3
:1008C0002B2088814FF4487008804FF4F0704880E6
:1008D00006E02220114908812120488120208881BA
:1008E0000E48808846F6040188420BD00B48808869
:1008F00045F21031884205D00848808849F281418C
:10090000884206D14FF4F070044908804FF4A0707B
:100910004880002003F080FE10BD0000E8000020A9
:1009200070B504460D4616465E48808849F241314E
:1009300088420BD05B48808845F21031884205D050
:100940005848808849F28141884214D155494889E4
:1009500004F0DCF9201204F0CDF9E0B204F0CAF999
:100960005049888904F0D2F9281204F0C3F9E8B29A
:1009700004F0C0F98CE04B48808845F21051884261
:1009800020D14849488904F0C1F9201204F0B2F995
:1009900044494989491C88B204F0B8F9E0B204F02E
:1009A000A9F94049888904F0B1F9281204F0A2F9A4
:1009B0003C498989491C88B204F0A8F9E8B204F0DE
:1009C00099F965E03748808841F66311884228D15B
:1009D0003448807920B933480088401E001B84B217
:1009E0003049488904F092F9201204F083F9E0B20A
:1009F00004F080F9201204F07DF9E0B204F07AF9F5
:100A00002849888904F082F9281204F073F9E8B2C1
:100A100004F070F9281204F06DF9E8B204F06AF9F4
:100A200036E02048808846F6040188421DD11D48E2
:100A30008079012804D11B480088401E001B84B225
:100A40001849488904F062F9201204F053F9E0B221
:100A500004F050F91349888904F058F9281204F079
:100A600049F9E8B204F046F912E00E48807901280D
:100A700004D10C480088401E001B84B209494889F3
:100A8000214604F059F907498889294604F054F9A8
:100A900004480089044908804FF0D840A0F88060DD
:100AA00070BD0000E80000207E00006C00B5A1B021
:100AB0000020209001217A2004F0E4F90121084669
:100AC00004F0F0F94FF400401E9001208DF87C00F6
:100AD00000208DF87E0002208DF87D0001208DF829
:100AE0007F001EA9FE48FFF77EFD4CF233701E907A
:100AF00002208DF87C0000208DF87E0003208DF808
:100B00007D0001208DF87F001EA9F648FFF76BFDE0
:100B10004FF680701E9002208DF87C0000208DF82A
:100B20007E0003208DF87D0001208DF87F001EA936
:100B3000ED48FFF758FD4FF480501E9002208DF8CD
:100B40007C0000208DF87E0003208DF87D000120C0
:100B50008DF87F001EA9E548FFF745FD4FF4805052
:100B60001E9002208DF87C0000208DF87E0003206E
:100B70008DF87D0001208DF87F001EA9DC48FFF76D
:100B800032FD0C220021D748FFF775FD0C22012110
:100B9000D448FFF770FD0C220421D248FFF76BFD0B
:100BA0000C220521CF48FFF766FD0C220821CD4815
:100BB000FFF761FD0C220921CA48FFF75CFD0C22FA
:100BC0000A21C848FFF757FD0C220E21C548FFF740
:100BD00052FD0C220F21C348FFF74DFD0C220721C7
:100BE000C148FFF748FD0C220821BF48FFF743FD2D
:100BF0000C220921BC48FFF73EFD0C220A21BA480D
:100C0000FFF739FD0C220B21B748FFF734FD0C220A
:100C10001146B548FFF72FFD0C220D21B248FFF712
:100C20002AFD0C220E21B048FFF725FD0C220F21D2
:100C3000AD48FFF720FD0C221146AC48FFF71BFD25
:100C40000C221146AA48FFF716FD0F20089000203D
:100C500009903C200A9000200B900C900D900E9073
:100C600009200190002002900820039000200490A9
:100C700005900690079006200F900020109011908C
:100C80001020129000201390159014901690179039
:100C90004FF480501890002019904FF480401A9023
:100CA00000201B9008A81C9001A81D900FA8FFF71A
:100CB00027FC01210620FFF709FC322004F02EFC5E
:100CC0000121002004F038F8322004F027FC002035
:100CD00003F066FC8749888008468088FF280ADB85
:100CE000084680884FF6FF71884204D0814880888A
:100CF000B0F5134F7ED1D32004F008F803F046FC82
:100D00007C49888003F042FC7A49888003F03EFCED
:100D100078498880084680884FF6FF7101EA0020F4
:100D20007449888003F032FC72498988084371490C
:100D300088800846808849F2413188425AD0BF20D5
:100D400003F0E4FF03F022FC6A49888003F01EFCF4
:100D50006849888003F01AFC6649888003F016FC15
:100D600064498880084680884FF6FF7101EA0020B8
:100D70006049888003F00AFC5E49898808435D4920
:100D800088800846808846F60401884232D0594857
:100D9000808849F2814188427AD0D42003F0B6FF9E
:100DA00003F0F4FB5349888003F0F0FB514988803D
:100DB00003F0ECFB4F498880084680884FF6FF71AE
:100DC00001EA00204B49888003F0E0FB494989880B
:100DD0000843484988800846808845F21031884297
:100DE00056D04FF45A4003F091FF03F0CFFB414936
:100DF000888000E04CE04FF45B4003F087FF03F095
:100E0000C5FB3C498880084680884FF6FF7101EA9F
:100E10000020384988804FF45C4003F077FF03F0EE
:100E2000B5FB344989880843324988800846808860
:100E3000B0F5004F02D145F2105088802D488088CF
:100E400045F21051884223D0A12003F05FFF03F048
:100E50009DFB2849888003F099FB26498880084635
:100E600080884FF6FF7101EA00202249888003F054
:100E70008DFB2049898808431E4988800846808860
:100E800045F26171884203D141F6631019498880A7
:100E90001848808849F24131884211D0154880882D
:100EA00045F2103188420BD01248808845F210512B
:100EB000884205D00F48808841F6631188422CD1C2
:100EC0000D48006820F00F004FF02041C1F81C01D0
:100ED0000846D0F81C0120F47060C1F81C010DE038
:100EE00000040240000C02400010024000140240C6
:100EF00000180240E80000201C0100A00846D0F8BD
:100F00001C0140F00300C1F81C010846D0F81C0188
:100F100040F40070C1F81C0128E0FE48808846F6C5
:100F20000401884205D0FB4880884CF20551884274
:100F30001CD1F948006820F00F004FF02041C1F8A3
:100F40001C010846D0F81C0120F47060C1F81C0197
:100F50000846D0F81C0140F00A00C1F81C01084600
:100F6000D0F81C0140F44060C1F81C01E9488188B8
:100F7000EAA0FFF77FF9E748808849F241318842CB
:100F80007ED1CF2003F0C2FE002003F0B3FEC120CB
:100F900003F0B0FE302003F0ADFEED2003F0B6FE0E
:100FA000642003F0A7FE032003F0A4FE122003F048
:100FB000A1FE812003F09EFEE82003F0A7FE85201D
:100FC00003F098FE102003F095FE7A2003F092FEC5
:100FD000CB2003F09BFE392003F08CFE2C2003F085
:100FE00089FE002003F086FE342003F083FE0220F9
:100FF00003F080FEF72003F089FE202003F07AFE44
:10100000EA2003F083FE002003F074FE002003F0CA
:1010100071FEC02003F07AFE1B2003F06BFEC1209E
:1010200003F074FE012003F065FEC52003F06EFEA0
:10103000302003F05FFE302003F05CFEC72003F099
:1010400065FEB72003F056FE362003F05FFE482011
:1010500003F050FE3A2003F059FE552003F04AFEFB
:10106000B12003F053FE002003F044FE1A2003F0E9
:1010700041FEB62003F04AFE0A2003F03BFE00E0EA
:1010800097E0A22003F036FEF22003F03FFE00209E
:1010900003F030FE262003F039FE012003F02AFE83
:1010A000E02003F033FE0F2003F024FE2A2003F09B
:1010B00021FE282003F01EFE082003F01BFE0E2058
:1010C00003F018FE082003F015FE542003F012FE72
:1010D000A92003F00FFE432003F00CFE0A2003F0CA
:1010E00009FE0F2003F006FE002003F003FE00209F
:1010F00003F000FE002003F0FDFD002003F0FAFDE8
:10110000E12003F003FE002003F0F4FD152003F0BE
:10111000F1FD172003F0EEFD072003F0EBFD112099
:1011200003F0E8FD062003F0E5FD2B2003F0E2FDCF
:10113000562003F0DFFD3C2003F0DCFD052003F02A
:10114000D9FD102003F0D6FD0F2003F0D3FD3F2082
:1011500003F0D0FD3F2003F0CDFD0F2003F0CAFDCA
:101160002B2003F0D3FD002003F0C4FD002003F08A
:10117000C1FD012003F0BEFD3F2003F0BBFD2A208E
:1011800003F0C4FD002003F0B5FD002003F0B2FD24
:10119000002003F0AFFDEF2003F0ACFD112003F0C1
:1011A000B5FD782004F0BAF9292003F0AFFD03F073
:1011B000D1B95848808846F6040188427ED1112072
:1011C00003F0A4FD142004F0A9F9D02003F09EFD43
:1011D000072003F08FFD422003F08CFD1D2003F05B
:1011E00089FDD12003F092FD002003F083FD1A2039
:1011F00003F080FD092003F07DFDD22003F086FD81
:10120000012003F077FD222003F074FDC02003F0DD
:101210007DFD102003F06EFD3B2003F06BFD0020F0
:1012200003F068FD022003F065FD112003F062FD6C
:10123000C52003F06BFD032003F05CFDC82003F024
:1012400065FD002003F056FD252003F053FD21200D
:1012500003F050FD052003F04DFD002003F04AFD92
:101260000A2003F047FD652003F044FD252003F02C
:1012700041FD772003F03EFD502003F03BFD0F20A1
:1012800003F038FD002003F035FDF82003F03EFDAB
:10129000012003F02FFDFE2003F038FD002003F0B5
:1012A00029FD022003F026FD202003F02FFD36202B
:1012B00003F02CFD082003F01DFD00E036E03A208D
:1012C00003F024FD552003F015FD2B2003F01EFD37
:1012D000002003F00FFD002003F00CFD012003F0BF
:1012E00009FD3F2003F006FD2A2003F00FFD00203A
:1012F00003F000FD002003F0FDFC012003F0FAFCE8
:10130000DF2003F0F7FC782004F008F9292003F02F
:10131000FDFC4CE7E80000201C0100A0204C4344E9
:101320002049443A25780D0A00000000FE488088D4
:1013300049F2814188427CD1112003F0E7FC14205E
:1013400004F0ECF8D02003F0E1FC072003F0D2FC1D
:10135000422003F0CFFC1B2003F0CCFCD12003F093
:10136000D5FC002003F0C6FC1E2003F0C3FC1220B5
:1013700003F0C0FCD22003F0C9FC012003F0BAFC4A
:10138000112003F0B7FCC02003F0C0FC102003F0D4
:10139000B1FC3B2003F0AEFC002003F0ABFC1220BC
:1013A00003F0A8FC012003F0A5FCC52003F0AEFC6F
:1013B000022003F09FFCC82003F0A8FC022003F0E9
:1013C00099FC462003F096FC142003F093FC312096
:1013D00003F090FC0A2003F08DFC042003F08AFC4B
:1013E000372003F087FC242003F084FC572003F00F
:1013F00081FC132003F07EFC062003F07BFC0C2014
:1014000003F078FC202003F081FC362003F07EFC02
:101410000A2003F06FFC3A2003F078FC052003F06B
:1014200069FC2A2003F072FC002003F063FC00201A
:1014300000E01DE003F05EFC012003F05BFC3F20B8
:1014400003F058FC2B2003F061FC002003F052FC59
:10145000002003F04FFC012003F04CFCDF2003F0E0
:1014600049FC782004F05AF8292003F04FFC9EE64E
:10147000AD48808845F21031884240F07C87ED20ED
:1014800003F044FC012003F035FCFE2003F032FCA5
:10149000EE2003F03BFCDE2003F02CFC212003F0C7
:1014A00029FCF12003F032FC012003F023FCDF20B3
:1014B00003F02CFC102003F01DFCC42003F026FCDC
:1014C0008F2003F017FCC62003F020FC002003F05F
:1014D00011FCE22003F00EFCE22003F00BFCE22002
:1014E00003F008FCBF2003F011FCAA2003F002FC6B
:1014F000B02003F00BFC0D2003F0FCFB002003F0F8
:10150000F9FB0D2003F0F6FB002003F0F3FB1120A4
:1015100003F0F0FB002003F0EDFB192003F0EAFBE1
:10152000002003F0E7FB212003F0E4FB002003F0A0
:10153000E1FB2D2003F0DEFB002003F0DBFB3D2070
:1015400003F0D8FB002003F0D5FB5D2003F0D2FBB5
:10155000002003F0CFFB5D2003F0CCFB002003F064
:10156000C9FBB12003F0D2FB802003F0C3FB0020B5
:1015700003F0C0FB8B2003F0BDFB002003F0BAFB9F
:10158000962003F0B7FB002003F0B4FBB22003F079
:10159000BDFB002003F0AEFB002003F0ABFB0220FC
:1015A00003F0A8FB002003F0A5FB032003F0A2FB3F
:1015B000002003F09FFBB32003F0A8FB002003F002
:1015C00099FB002003F096FB002003F093FB002022
:1015D00003F090FB002003F08DFB002003F08AFB5A
:1015E000002003F087FB002003F084FB002003F0C1
:1015F00081FB002003F07EFB002003F07BFB00203A
:1016000003F078FB002003F075FB002003F072FB71
:10161000002003F06FFB002003F06CFB002003F0C0
:1016200069FB002003F066FB002003F063FB002051
:1016300003F060FB002003F05DFB002003F05AFB89
:10164000002003F057FB002003F054FBB42003F00C
:101650005DFB8B2003F04EFB002003F04BFB96203C
:1016600003F048FB002003F045FBA12003F042FB00
:10167000002003F03FFBB52003F048FB022003F0FD
:1016800039FB002003F036FB032003F033FB00207E
:1016900003F030FB042003F02DFB002003F02AFBB5
:1016A000B62003F033FB002003F024FB002003F0FE
:1016B00021FBB72003F02AFB002003F01BFB0020D6
:1016C00003F018FB3F2003F015FB002003F012FB92
:1016D0005E2003F00FFB002003F00CFB642003F0FE
:1016E00009FB002003F006FB8C2003F003FB002025
:1016F00003F000FBAC2003F0FDFA002003F0FAFA3F
:10170000DC2003F0F7FA002003F0F4FA702003F075
:10171000F1FA002003F0EEFA902003F0EBFA00203B
:1017200003F0E8FAEB2001E0E800002003F0E2FA21
:10173000002003F0DFFADC2003F0DCFA002003F0E5
:10174000D9FAB82003F0E2FA002003F0D3FA00201F
:1017500003F0D0FA002003F0CDFA002003F0CAFA1B
:10176000002003F0C7FA002003F0C4FA002003F0C1
:10177000C1FA002003F0BEFABA2003F0C7FA242011
:1017800003F0B8FA002003F0B5FA002003F0B2FA33
:10179000002003F0AFFAC12003F0B8FA202003F0D4
:1017A000A9FA002003F0A6FA542003F0A3FA0020BF
:1017B00003F0A0FAFF2003F09DFA002003F09AFA4C
:1017C000C22003F0A3FA0A2003F094FA002003F0E9
:1017D00091FA042003F08EFA002003F08BFAC32064
:1017E00003F094FA3C2003F085FA002003F082FA1B
:1017F0003A2003F07FFA002003F07CFA392003F04E
:1018000079FA002003F076FA372003F073FA00200B
:1018100003F070FA3C2003F06DFA002003F06AFA3E
:10182000362003F067FA002003F064FA322003F058
:1018300061FA002003F05EFA2F2003F05BFA00202B
:1018400003F058FA2C2003F055FA002003F052FA66
:10185000292003F04FFA002003F04CFA262003F071
:1018600049FA002003F046FA242003F043FA00204E
:1018700003F040FA242003F03DFA002003F03AFA86
:10188000232003F037FA002003F034FA3C2003F061
:1018900031FA002003F02EFA362003F02BFA002054
:1018A00003F028FA322003F025FA002003F022FA90
:1018B0002F2003F01FFA002003F01CFA2C2003F065
:1018C00019FA002003F016FA292003F013FA002079
:1018D00003F010FA262003F00DFA002003F00AFAB4
:1018E000242003F007FA002003F004FA242003F078
:1018F00001FA002003F0FEF9232003F0FBF9002099
:1019000003F0F8F9C42003F001FA622003F0F2F9C1
:10191000002003F0EFF9052003F0ECF9002003F0BC
:10192000E9F9842003F0E6F9002003F0E3F9F02060
:1019300003F0E0F9002003F0DDF9182003F0DAF9F4
:10194000002003F0D7F9A42003F0D4F9002003F01D
:10195000D1F9182003F0CEF9002003F0CBF9502084
:1019600003F0C8F9002003F0C5F90C2003F0C2F918
:10197000002003F0BFF9172003F0BCF9002003F0AA
:10198000B9F9952003F0B6F9002003F0B3F9F3207C
:1019900003F0B0F9002003F0ADF9E62003F0AAF956
:1019A000002003F0A7F9C52003F0B0F9322003F0BE
:1019B000A1F9002003F09EF9442003F09BF90020D8
:1019C00003F098F9652003F095F9002003F092F9EF
:1019D000762003F08FF9002003F08CF9882003F0C3
:1019E00089F9002003F086F9C62003F08FF9202042
:1019F00003F080F9002003F07DF9172003F07AF955
:101A0000002003F077F9012003F074F9002003F0BF
:101A100071F9C72003F07AF9002003F06BF9002078
:101A200003F068F9002003F065F9002003F062F983
:101A3000C82003F06BF9002003F05CF9002003F0EC
:101A400059F9002003F056F9002003F053F9C9209A
:101A500003F05CF9002003F04DF9002003F04AF98F
:101A6000002003F047F9002003F044F9002003F0C0
:101A700041F9002003F03EF9002003F03BF900207B
:101A800003F038F9002003F035F9002003F032F9B3
:101A9000002003F02FF9002003F02CF9002003F0C0
:101AA00029F9002003F026F9002003F023F9002093
:101AB00003F020F9E02003F029F9162003F01AF9C9
:101AC000002003F017F91C2003F014F9002003F0A4
:101AD00011F9212003F00EF9002003F00BF9362054
:101AE00003F008F9002003F005F9462003F002F99D
:101AF000002003F0FFF8522003F0FCF8002003F070
:101B0000F9F8642003F0F6F8002003F0F3F87A20E7
:101B100003F0F0F8002003F0EDF88B2003F0EAF872
:101B2000002003F0E7F8992003F0E4F8002003F028
:101B3000E1F8A82003F0DEF8002003F0DBF8B9207C
:101B400003F0D8F8002003F0D5F8C42003F0D2F851
:101B5000002003F0CFF8CA2003F0CCF8002003F0F7
:101B6000C9F8D22003F0C6F8002003F0C3F8D9204A
:101B700003F0C0F8002003F0BDF8E02003F0BAF84D
:101B8000002003F0B7F8F32003F0B4F8002003F0CE
:101B9000B1F8E12003F0BAF8162003F0ABF800200A
:101BA00003F0A8F81C2003F0A5F8002003F0A2F829
:101BB000222003F09FF8002003F09CF8362003F069
:101BC00099F8002003F096F8452003F093F80020E0
:101BD00003F090F8522003F08DF8002003F08AF80B
:101BE000642003F087F8002003F084F87A2003F0E3
:101BF00081F8002003F07EF88B2003F07BF80020B2
:101C000003F078F8992003F075F8002003F072F8DB
:101C1000A82003F06FF8002003F06CF8B92003F05F
:101C200069F8002003F066F8C42003F063F8002090
:101C300003F060F8CA2003F05DF8002003F05AF8C2
:101C4000D22003F057F8002003F054F8D82003F016
:101C500051F8002003F04EF8E02003F04BF800208C
:101C600003F048F8F32003F045F8002003F042F8B1
:101C7000E22003F04BF8052003F03CF8002003F0CD
:101C800039F80B2003F036F8002003F033F81B205E
:101C900003F030F8002003F02DF8342003F02AF888
:101CA000002003F027F8442003F024F8002003F07C
:101CB00021F84F2003F01EF8002003F01BF86120EC
:101CC00003F018F8002003F015F8792003F012F85B
:101CD000002003F00FF8882003F00CF8002003F038
:101CE00009F8972003F006F8002003F003F8A62077
:101CF00003F000F8002002F0FDFFB72002F0FAFF29
:101D0000002002F0F7FFC22002F0F4FF002002F0F2
:101D1000F1FFC72002F0EEFF002002F0EBFFD12020
:101D200002F0E8FF002002F0E5FFD62002F0E2FF1B
:101D3000002002F0DFFFDD2002F0DCFF002002F0D7
:101D4000D9FFF32002F0D6FF002002F0D3FFE320FA
:101D500002F0DCFF052002F0CDFF002002F0CAFFF8
:101D60000A2002F0C7FF002002F0C4FF1C2002F08E
:101D7000C1FF002002F0BEFF332002F0BBFF0020B5
:101D800002F0B8FF442002F0B5FF002002F0B2FFDD
:101D9000502002F0AFFF002002F0ACFF622002F002
:101DA000A9FF002002F0A6FF782002F0A3FF002088
:101DB00002F0A0FF882002F09DFF002002F09AFFB1
:101DC000972002F097FF002002F094FFA62002F077
:101DD00091FF002002F08EFFB72002F08BFF002061
:101DE00002F088FFC22002F085FF002002F082FF8F
:101DF000C72002F07FFF002002F07CFFD12002F01C
:101E000079FF002002F076FFD52002F073FF00205A
:101E100002F070FFDD2002F06DFF002002F06AFF8B
:101E2000F32002F067FF002002F064FFE42002F0DC
:101E30006DFF012002F05EFF002002F05BFF012039
:101E400002F058FF002002F055FF022002F052FF7E
:101E5000002002F04FFF2A2002F04CFF002002F089
:101E600049FF3C2002F046FF002002F043FF4B20D8
:101E700002F040FF002002F03DFF5D2002F03AFF3B
:101E8000002002F037FF742002F034FF002002F03F
:101E900031FF842002F02EFF002002F02BFF932060
:101EA00002F028FF002002F025FFA22002F022FF0E
:101EB000002002F01FFFB32002F01CFF002002F000
:101EC00019FFBE2002F016FF002002F013FFC4200D
:101ED00002F010FF002002F00DFFCD2002F00AFFFB
:101EE000002002F007FFD32002F004FF002002F0E0
:101EF00001FFDD2002F0FEFE002002F0FBFEF320D9
:101F000002F0F8FE002002F0F5FEE52002F0FEFEF1
:101F1000002002F0EFFE002002F0ECFE002002F0B4
:101F2000E9FE002002F0E6FE022002F0E3FE0020BF
:101F300002F0E0FE292002F0DDFE002002F0DAFED1
:101F40003C2002F0D7FE002002F0D4FE4B2002F02D
:101F5000D1FE002002F0CEFE5D2002F0CBFE00207C
:101F600002F0C8FE742002F0C5FE002002F0C2FE9E
:101F7000842002F0BFFE002002F0BCFE932002F09D
:101F8000B9FE002002F0B6FEA22002F0B3FE00204F
:101F900002F0B0FEB32002F0ADFE002002F0AAFE77
:101FA000BE2002F0A7FE002002F0A4FEC42002F032
:101FB000A1FE002002F09EFECD2002F09BFE00203C
:101FC00002F098FED32002F095FE002002F092FE6F
:101FD000DC2002F08FFE002002F08CFEF32002F0E5
:101FE00089FE002002F086FEE62002F08FFE11201E
:101FF00002F080FE002002F07DFE342002F07AFE26
:10200000002002F077FE562002F074FE002002F05D
:1020100071FE762002F06EFE002002F06BFE77204B
:1020200002F068FE002002F065FE662002F062FE0B
:10203000002002F05FFE882002F05CFE002002F02B
:1020400059FE992002F056FE002002F053FEBB20FC
:1020500002F050FE002002F04DFE992002F04AFEF0
:10206000002002F047FE662002F044FE002002F04D
:1020700041FE552002F03EFE002002F03BFE5520BE
:1020800002F038FE002002F035FE452002F032FE5C
:10209000002002F02FFE432002F02CFE002002F070
:1020A00029FE442002F026FE002002F023FEE72055
:1020B00002F02CFE322002F01DFE002002F01AFE7B
:1020C000552002F017FE002002F014FE762002F0E8
:1020D00011FE002002F00EFE662002F00BFE002032
:1020E00002F008FE672002F005FE002002F002FE6A
:1020F000672002F0FFFD002002F0FCFD872002F0C7
:10210000F9FD002002F0F6FD992002F0F3FD002019
:1021100002F0F0FDBB2002F0EDFD002002F0EAFD30
:10212000992002F0E7FD002002F0E4FD772002F0A4
:10213000E1FD002002F0DEFD442002F0DBFD002086
:1021400002F0D8FD562002F0D5FD002002F0D2FDAD
:10215000232002F0CFFD002002F0CCFD332002F05E
:10216000C9FD002002F0C6FD452002F0C3FD00209D
:1021700002F0C0FDE82002F0C9FD002002F0BAFD27
:10218000002002F0B7FD992002F0B4FD002002F01B
:10219000B1FD872002F0AEFD002002F0ABFD8820EB
:1021A00002F0A8FD002002F0A5FD772002F0A2FDBC
:1021B000002002F09FFD662002F09CFD002002F04E
:1021C00099FD882002F096FD002002F093FDAA20E0
:1021D00002F090FD002002F08DFDBB2002F08AFD90
:1021E000002002F087FD992002F084FD002002F01B
:1021F00081FD662002F07EFD002002F07BFD55206F
:1022000002F078FD002002F075FD552002F072FD0D
:10221000002002F06FFD442002F06CFD002002F06F
:1022200069FD442002F066FD002002F063FD5520A8
:1022300002F060FD002002F05DFDE92002F066FD85
:10224000AA2002F057FD002002F054FD002002F009
:1022500051FD002002F04EFD002002F057FDAA20A3
:1022600002F048FDCF2002F051FD002002F042FDB7
:10227000002002F03FFD002002F03CFD002002F0B3
:1022800039FD002002F036FD002002F033FD002071
:1022900002F030FD002002F02DFD002002F02AFDAA
:1022A000002002F027FD002002F024FD002002F0B3
:1022B00021FD002002F01EFD002002F01BFD002089
:1022C00002F018FD002002F015FD002002F012FDC2
:1022D000F02002F01BFD002002F00CFD502002F067
:1022E00009FD002002F006FD002002F003FD0020A1
:1022F00002F000FDF32002F009FD002002F0FAFCDC
:10230000F92002F003FD062002F0F4FC102002F098
:10231000F1FC292002F0EEFC002002F0EBFC3A2058
:1023200002F0F4FC552002F0E5FC112002F0EEFC76
:10233000642003F0F3F8292002F0E8FC352002F0D5
:10234000E5FC002002F0D6FC512002F0DFFCFF206B
:1023500002F0D0FC532002F0D9FC2C2002F0CAFC81
:10236000552002F0D3FC822002F0C4FC2C2002F0A5
:10237000CDFC02F0EFB8FE48808845F2105188424B
:102380007ED155214FF4704002F0D6FCAA214FF2C5
:10239000010002F0D1FC52214FF2020002F0CCFC0D
:1023A00008214FF2030002F0C7FC01214FF20400A4
:1023B00002F0C2FC0D214FF4304002F0BDFC0D21B3
:1023C0004BF2010002F0B8FC0D214BF2020002F0CA
:1023D000B3FC34214FF4364002F0AEFC34214BF212
:1023E000016002F0A9FC34214BF2026002F0A4FC6F
:1023F0000D214FF4314002F09FFC0D214BF20110F2
:1024000002F09AFC0D214BF2021002F095FC3421EF
:102410004FF4374002F090FC34214BF2017002F08F
:102420008BFC34214BF2027002F086FC00214FF449
:10243000324002F081FC00214BF2012002F07CFCD2
:1024400000214BF2022002F077FC24214FF43840A7
:1024500002F072FC24214BF6010002F06DFC2421F5
:102460004BF6020002F068FC01214FF43F4002F0FD
:1024700063FC0F214FF4334002F05EFC0F2100E0BB
:10248000FEE34BF2013002F057FC0F214BF2023019
:1024900002F052FC34214FF4394002F04DFC34215B
:1024A0004BF6011002F048FC34214BF6021002F00A
:1024B00043FC08214FF4354002F03EFC08214BF26A
:1024C000015002F039FC08214BF2025002F034FCBA
:1024D00003214FF4424002F02FFC24214FF43A40F4
:1024E00002F02AFC24214BF6012002F025FC2421D5
:1024F0004BF6022002F020FC00214FF43C4002F099
:102500001BFC78214BF6014002F016FC00214BF633
:10251000024002F011FC00214FF43D4002F00CFC9F
:1025200078214BF6015002F007FC00214BF60250D7
:1025300002F002FC00214FF43E4002F0FDFB64215A
:102540004BF6016002F0F8FB00214FF4514002F01D
:10255000F3FB33214DF2011002F0EEFB00214DF2AE
:10256000021002F0E9FB34214DF2031002F0E4FB0B
:1025700000214DF2041002F0DFFB3A214DF205106C
:1025800002F0DAFB00214DF2061002F0D5FB4A21E1
:102590004DF2071002F0D0FB00214DF2081002F0BE
:1025A000CBFB5C214DF2091002F0C6FB00214DF27D
:1025B0000A1002F0C1FB81214DF20B1002F0BCFBAE
:1025C00000214DF20C1002F0B7FBA6214DF20D10C8
:1025D00002F0B2FB00214DF20E1002F0ADFBE5213E
:1025E0004DF20F1002F0A8FB01214DF2101002F085
:1025F000A3FB13214DF2111002F09EFB01214DF2BD
:10260000121002F099FB54214DF2131002F094FBCA
:1026100001214DF2141002F08FFB82214DF21510B2
:1026200002F08AFB01214DF2161002F085FBCA214F
:102630004DF2171002F080FB02214DF2181002F04B
:102640007BFB00214DF2191002F076FB02214DF2C6
:102650001A1002F071FB01214DF21B1002F06CFB0D
:1026600002214DF21C1002F067FB34214DF21D10C7
:1026700002F062FB02214DF21E1002F05DFB6721A9
:102680004DF21F1002F058FB02214DF2201002F013
:1026900053FB84214DF2211002F04EFB02214DF23A
:1026A000221002F049FBA4214DF2231002F044FB5A
:1026B00002214DF2241002F03FFBB7214DF225100C
:1026C00002F03AFB02214DF2261002F035FBCF2139
:1026D0004DF2271002F030FB02214DF2281002F0DB
:1026E0002BFBDE214DF2291002F026FB02214DF2D8
:1026F0002A1002F021FBF2214DF22B1002F01CFBFC
:1027000002214DF22C1002F017FBFE214DF22D108C
:1027100002F012FB03214DF22E1002F00DFB1021EE
:102720004DF22F1002F008FB03214DF2301002F0A1
:1027300003FB33214DF2311002F0FEFA03214DF27A
:10274000321002F0F9FA6D214DF2331002F0F4FA72
:1027500000214FF4524002F0EFFA33214DF20120F4
:1027600002F0EAFA00214DF2022002F0E5FA01E05F
:10277000E800002034214DF2032002F0DDFA0021B0
:102780004DF2042002F0D8FA3A214DF2052002F071
:10279000D3FA00214DF2062002F0CEFA4A214DF282
:1027A000072002F0C9FA00214DF2082002F0C4FA15
:1027B0005C214DF2092002F0BFFA00214DF20A20FF
:1027C00002F0BAFA81214DF20B2002F0B5FA002195
:1027D0004DF20C2002F0B0FAA6214DF20D2002F0CD
:1027E000ABFA00214DF20E2002F0A6FAE5214DF2DF
:1027F0000F2002F0A1FA01214DF2102002F09CFA04
:1028000013214DF2112002F097FA01214DF212200E
:1028100002F092FA54214DF2132002F08DFA0121B8
:102820004DF2142002F088FA82214DF2152002F0B8
:1028300083FA01214DF2162002F07EFACA214DF2F0
:10284000172002F079FA02214DF2182002F074FAF2
:1028500000214DF2192002F06FFA02214DF21A20E8
:1028600002F06AFA01214DF21B2002F065FA022102
:102870004DF21C2002F060FA34214DF21D2002F0CE
:102880005BFA02214DF21E2002F056FA67214DF24A
:102890001F2002F051FA02214DF2202002F04CFAE2
:1028A00084214DF2212002F047FA02214DF222202C
:1028B00002F042FAA4214DF2232002F03DFA022157
:1028C0004DF2242002F038FAB7214DF2252002F013
:1028D00033FA02214DF2262002F02EFACF214DF2DA
:1028E000272002F029FA02214DF2282002F024FAD2
:1028F000DE214DF2292002F01FFA02214DF22A209A
:1029000002F01AFAF2214DF22B2002F015FA022100
:102910004DF22C2002F010FAFE214DF22D2002F093
:102920000BFA03214DF22E2002F006FA10214DF28F
:102930002F2002F001FA03214DF2302002F0FCF9C1
:1029400033214DF2312002F0F7F903214DF232200C
:1029500002F0F2F96D214DF2332002F0EDF9002181
:102960004FF4534002F0E8F933214DF2013002F008
:10297000E3F900214DF2023002F0DEF934214DF28C
:10298000033002F0D9F900214DF2043002F0D4F9FD
:102990003A214DF2053002F0CFF900214DF2063018
:1029A00002F0CAF94A214DF2073002F0C5F90021C0
:1029B0004DF2083002F0C0F95C214DF2093002F00E
:1029C000BBF900214DF20A3002F0B6F981214DF237
:1029D0000B3002F0B1F900214DF20C3002F0ACF9ED
:1029E000A6214DF20D3002F0A7F900214DF20E3074
:1029F00002F0A2F9E5214DF20F3002F09DF901211C
:102A00004DF2103002F098F913214DF2113002F01E
:102A100093F901214DF2123002F08EF954214DF25A
:102A2000133002F089F901214DF2143002F084F9DB
:102A300082214DF2153002F07FF901214DF216305E
:102A400002F07AF9CA214DF2173002F075F902212D
:102A50004DF2183002F070F900214DF2193002F0F9
:102A60006BF902214DF21A3002F066F901214DF2A4
:102A70001B3002F061F902214DF21C3002F05CF9CA
:102A800034214DF21D3002F057F902214DF21E3073
:102A900002F052F967214DF21F3002F04DF9022188
:102AA0004DF2203002F048F984214DF2213002F03D
:102AB00043F902214DF2223002F03EF9A4214DF2F9
:102AC000233002F039F902214DF2243002F034F9BA
:102AD000B7214DF2253002F02FF902214DF22630B8
:102AE00002F02AF9CF214DF2273002F025F9022118
:102AF0004DF2283002F020F9DE214DF2293002F0AB
:102B00001BF902214DF22A3002F016F9F2214DF2A2
:102B10002B3002F011F902214DF22C3002F00CF9A9
:102B2000FE214DF22D3002F007F903214DF22E3037
:102B300002F002F910214DF22F3002F0FDF80321CE
:102B40004DF2303002F0F8F833214DF2313002F01E
:102B5000F3F803214DF2323002F0EEF86D214DF220
:102B6000333002F0E9F800214FF4544002F0E4F869
:102B700033214DF2014002F0DFF800214DF2024016
:102B800002F0DAF834214DF2034002F0D5F80021CA
:102B90004DF2044002F0D0F83A214DF2054002F027
:102BA000CBF800214DF2064002F0C6F84A214DF262
:102BB000074002F0C1F800214DF2084002F0BCF8D5
:102BC0005C214DF2094002F0B7F800214DF20A40B5
:102BD00002F0B2F881214DF20B4002F0ADF8002175
:102BE0004DF20C4002F0A8F8A6214DF20D4002F083
:102BF000A3F800214DF20E4002F09EF8E5214DF2BF
:102C00000F4002F099F801214DF2104002F094F8C3
:102C100013214DF2114002F08FF801214DF21240C4
:102C200002F08AF854214DF2134002F085F8012198
:102C30004DF2144002F080F882214DF2154002F06E
:102C40007BF801214DF2164002F076F8CA214DF2D0
:102C5000174002F071F802214DF2184002F06CF8B2
:102C600000214DF2194002F067F802214DF21A409E
:102C700002F062F801214DF21B4002F05DF800E025
:102C800004E302214DF21C4002F056F834214DF2CB
:102C90001D4002F051F802214DF21E4002F04CF8A6
:102CA00067214DF21F4002F047F802214DF220400B
:102CB00002F042F884214DF2214002F03DF8022159
:102CC0004DF2224002F038F8A4214DF2234002F0E8
:102CD00033F802214DF2244002F02EF8B7214DF2D4
:102CE000254002F029F802214DF2264002F024F896
:102CF000CF214DF2274002F01FF802214DF228406B
:102D000002F01AF8DE214DF2294002F015F80221F6
:102D10004DF22A4002F010F8F2214DF22B4002F061
:102D20000BF802214DF22C4002F006F8FE214DF284
:102D30002D4002F001F803214DF22E4001F0FCFF7E
:102D400010214DF22F4001F0F7FF03214DF23040EA
:102D500001F0F2FF33214DF2314001F0EDFF03218C
:102D60004DF2324001F0E8FF6D214DF2334001F0A9
:102D7000E3FF00214FF4554001F0DEFF33214DF217
:102D8000015001F0D9FF00214DF2025001F0D4FFB3
:102D900034214DF2035001F0CFFF00214DF20450D9
:102DA00001F0CAFF3A214DF2055001F0C5FF0021A4
:102DB0004DF2065001F0C0FF4A214DF2075001F0DC
:102DC000BBFF00214DF2085001F0B6FF5C214DF22F
:102DD000095001F0B1FF00214DF20A5001F0ACFFA3
:102DE00081214DF20B5001F0A7FF00214DF20C5054
:102DF00001F0A2FFA6214DF20D5001F09DFF002130
:102E00004DF20E5001F098FFE5214DF20F5001F008
:102E100093FF01214DF2105001F08EFF13214DF26E
:102E2000115001F089FF01214DF2125001F084FF91
:102E300054214DF2135001F07FFF01214DF2145047
:102E400001F07AFF82214DF2155001F075FF01214A
:102E50004DF2165001F070FFCA214DF2175001F0EB
:102E60006BFF02214DF2185001F066FF00214DF278
:102E7000195001F061FF02214DF21A5001F05CFF80
:102E800001214DF21B5001F057FF02214DF21C5061
:102E900001F052FF34214DF21D5001F04DFF02218F
:102EA0004DF21E5001F048FF67214DF21F5001F016
:102EB00043FF02214DF2205001F03EFF84214DF2EC
:102EC000215001F039FF02214DF2225001F034FF70
:102ED000A4214DF2235001F02FFF02214DF2245086
:102EE00001F02AFFB7214DF2255001F025FF022104
:102EF0004DF2265001F020FFCF214DF2275001F076
:102F00001BFF02214DF2285001F016FFDE214DF289
:102F1000295001F011FF02214DF22A5001F00CFF5F
:102F2000F2214DF22B5001F007FF02214DF22C50FF
:102F300001F002FFFE214DF22D5001F0FDFE0321B4
:102F40004DF22E5001F0F8FE10214DF22F5001F0FD
:102F5000F3FE03214DF2305001F0EEFE33214DF22D
:102F6000315001F0E9FE03214DF2325001F0E4FE50
:102F70006D214DF2335001F0DFFE00214FF4564039
:102F800001F0DAFE33214DF2016001F0D5FE00219F
:102F90004DF2026001F0D0FE34214DF2036001F0E9
:102FA000CBFE00214DF2046001F0C6FE3A214DF245
:102FB000056001F0C1FE00214DF2066001F0BCFE8B
:102FC0004A214DF2076001F0B7FE00214DF2086082
:102FD00001F0B2FE5C214DF2096001F0ADFE00216E
:102FE0004DF20A6001F0A8FE81214DF20B6001F064
:102FF000A3FE00214DF20C6001F09EFEA6214DF2D1
:103000000D6001F099FE00214DF20E6001F094FE7A
:10301000E5214DF20F6001F08FFE01214DF21060AD
:1030200001F08AFE13214DF2116001F085FE0121AD
:103030004DF2126001F080FE54214DF2136001F058
:103040007BFE01214DF2146001F076FE82214DF2EB
:10305000156001F071FE01214DF2166001F06CFE69
:10306000CA214DF2176001F067FE02214DF218608F
:1030700001F062FE00214DF2196001F05DFE0221B7
:103080004DF21A6001F058FE01214DF21B6001F073
:1030900053FE02214DF21C6001F04EFE34214DF230
:1030A0001D6001F049FE02214DF21E6001F044FE58
:1030B00067214DF21F6001F03FFE02214DF22060BA
:1030C00001F03AFE84214DF2216001F035FE02212B
:1030D0004DF2226001F030FEA4214DF2236001F098
:1030E0002BFE02214DF2246001F026FEB7214DF2A5
:1030F000256001F021FE02214DF2266001F01CFE48
:10310000CF214DF2276001F017FE02214DF2286019
:1031100001F012FEDE214DF2296001F00DFE0221C8
:103120004DF22A6001F008FEF2214DF22B6001F011
:1031300003FE02214DF22C6001F0FEFDFE214DF256
:103140002D6001F0F9FD03214DF22E6001F0F4FD38
:1031500010214DF22F6001F0EFFD03214DF23060A0
:1031600001F0EAFD33214DF2316001F0E5FD03216C
:103170004DF2326001F0E0FD6D214DF2336001F05F
:10318000DBFD55214FF4704001F0D6FDAA214FF22E
:10319000010001F0D1FD52214FF2020001F0CCFDFF
:1031A00008214FF2030001F0C7FD00214FF2040097
:1031B00001F0C2FDCC214FF4314001F0BDFD0021F2
:1031C0004BF2011001F0B8FD05214FF4364001F03B
:1031D000B3FD70214FF4374001F0AEFD70214BF28A
:1031E000017001F0A9FD01214FF4384001F0A4FD68
:1031F00003214BF6010001F09FFD03214BF6020075
:1032000001F09AFD03214BF6030001F095FD022128
:103210004FF43C4001F090FD00214BF6014001F0DD
:103220008BFD00214BF6024001F086FDD0214FF4CA
:10323000494001F081FD02214CF6011001F07CFDB6
:1032400050214CF6021001F077FD50214CF603108E
:1032500001F072FD50214CF6041001F06DFD0021CB
:103260004FF4545001F068FD55214FF4685001F0BF
:1032700063FD4FF4885001F049FD782002F06AF9AF
:103280004FF4245001F042FD01F064B9FE488088FB
:1032900049F2253188427DD147F6F001E52001F061
:1032A0004BFD4FF48071012001F046FD4FF4E061C9
:1032B000022001F041FD41F23001032001F03CFD0C
:1032C0000021042001F038FD40F20221082001F025
:1032D00033FD0021092001F02FFD00210A2001F01B
:1032E0002BFD00210C2001F027FD00210D2001F015
:1032F00023FD00210F2001F01FFD0021102001F00F
:103300001BFD0721112001F017FD0021122001F003
:1033100013FD0021132001F00FFD0021072001F013
:103320000BFD41F29061102001F006FD40F22721D3
:10333000112001F001FD9D21122001F0FDFC4FF450
:10334000C851132001F0F8FC2521292001F0F4FCDC
:103350000D212B2001F0F0FC0721302001F0ECFCC6
:1033600040F20331312001F0E7FC0321322001F06B
:10337000E3FC40F20621352001F0DEFC0821362076
:1033800001F0DAFC40F20641372001F0D5FC4FF4A1
:10339000417100E058E0382001F0CEFC07213920CF
:1033A00001F0CAFC40F202613C2001F0C5FC08219A
:1033B0003D2001F0C1FC0021502001F0BDFCEF21B7
:1033C000512001F0B9FC0021522001F0B5FC40F27F
:1033D0003F11532001F0B0FC4FF42741602001F071
:1033E000ABFC0121612001F0A7FC00216A2001F063
:1033F000A3FC0021802001F09FFC0021812001F02E
:103400009BFC0021822001F097FC0021832001F029
:1034100093FC0021842001F08FFC0021852001F025
:103420008BFC1021902001F087FC4FF4C0619220AA
:1034300001F082FC40F23311072001F07DFC2221D3
:10344000002001F079FC1FE78F48808849F228317D
:1034500088427DD141F28F01EC2001F06DFC41F2F8
:103460003421EF2001F068FC4FF48071012001F05D
:1034700063FC4FF4E061022001F05EFC41F2300198
:10348000032001F059FC0021042001F055FC40F21A
:103490000221082001F050FC0021092001F04CFC21
:1034A00000210A2001F048FC01210C2001F044FC1D
:1034B00000210D2001F040FC00210F2001F03CFC18
:1034C0000021102001F038FC0721112001F034FC0C
:1034D0000021122001F030FC0021132001F02CFC0F
:1034E0000121072001F028FC322002F017F841F2F8
:1034F0009041102001F020FC40F22721112001F022
:103500001BFC322002F00AF88A21122001F014FC80
:10351000322002F003F84FF4D051132001F00CFCDC
:103520000621292001F008FC0D212B2001F004FCCC
:10353000322001F0F3FF0021202001F0FDFB0021EB
:10354000212001F0F9FB322001F0E8FF002100E02A
:1035500075E0302001F0F0FB40F20461312001F011
:10356000EBFB40F20531322001F0E6FB0021352073
:1035700001F0E2FB40F60941362001F0DDFB4FF49B
:103580000171372001F0D8FB40F20131382001F001
:10359000D3FB40F20771392001F0CEFB00213C2023
:1035A00001F0CAFB40F60A213D2001F0C5FB3220A4
:1035B00001F0B4FF0021502001F0BEFBEF215120AB
:1035C00001F0BAFB0021522001F0B6FB40F23F119E
:1035D000532001F0B1FB4FF42741602001F0ACFB18
:1035E0000121612001F0A8FB00216A2001F0A4FB69
:1035F0000021802001F0A0FB0021812001F09CFB34
:103600000021822001F098FB0021832001F094FB2F
:103610000021842001F090FB0021852001F08CFB2B
:103620001021902001F088FB4FF4C061922001F03E
:1036300083FB40F23311072001F07EFB24E61248A1
:10364000808849F2203188427ED10021084601F06D
:1036500073FB4FF48071012001F06EFB4FF4E061C9
:10366000022001F069FB41F23001032001F064FB0C
:103670000021042001F060FB40F20221082001F04B
:103680005BFB0021092001E0E800002001F054FB71
:1036900000210A2001F050FB01210C2001F04CFB1D
:1036A00000210D2001F048FB00210F2001F044FB18
:1036B000322001F033FF40F20111072001F03CFB02
:1036C000322001F02BFF4FF48651102001F034FB23
:1036D0000721112001F030FB4FF48871122001F016
:1036E0002BFB4FF43061132001F026FB0021292031
:1036F00001F022FB44F210012B2001F01DFB002100
:10370000502001F019FBEF21512001F015FB0021A1
:10371000522001F011FB40F23F11532001F00CFB4D
:103720004FF41C51602001F007FB0121612001F0E2
:1037300003FB00216A2001F0FFFA0021802001F044
:10374000FBFA0021812000E030E001F0F5FA0021D1
:10375000822001F0F1FA0021832001F0EDFA00212E
:10376000842001F0E9FA0021852001F0E5FA10211A
:10377000902001F0E1FA0021922001F0DDFA012110
:10378000932001F0D9FA4FF48871952001F0D4FA12
:103790000021972001F0D0FA0021982001F0CCFA06
:1037A00040F27311072001F0C7FA6DE5FE488088EA
:1037B00049F2313188427DD141F21401E72001F014
:1037C000BBFA4FF48071012001F0B6FA4FF400719A
:1037D000022001F0B1FA41F23801032001F0ACFA05
:1037E00040F20221082001F0A7FA0021092001F08F
:1037F000A3FA00210A2001F09FFA00210C2001F019
:103800009BFA00210D2001F097FA00210F2001F012
:1038100093FA0021102001F08FFA0721112001F006
:103820008BFA0021122001F087FA0021132001F009
:1038300083FAC82001F072FE41F29061102001F07D
:103840007BFA40F22721112001F076FA322001F0B4
:1038500065FE0C21122001F06FFA322001F05EFEAD
:103860004FF40061132001F067FA1121292001F0C3
:1038700063FA0B212B2001F05FFA322001F04EFE9B
:103880000021202001F058FA40F23F11212001F0E0
:1038900053FA0021302001F04FFA4FF483713120A8
:1038A00001F04AFA0021322001F046FA4FF401718A
:1038B000352000E064E001F03FFA41F20A61362071
:1038C00001F03AFA40F20771372001F035FA4FF46F
:1038D0008371382001F030FA40F20771392001F08D
:1038E0002BFA40F202413C2001F026FA40F60F414B
:1038F0003D2001F021FA0021502001F01DFAEF21B6
:10390000512001F019FA0021522001F015FA40F27D
:103910003F11532001F010FA4FF41C51602001F0C8
:103920000BFA0121612001F007FA00216A2001F061
:1039300003FA0021802001F0FFF90021812001F02D
:10394000FBF90021822001F0F7F90021832001F02A
:10395000F3F90021842001F0EFF90021852001F026
:10396000EBF91021902001F0E7F94FF4C0619220AB
:1039700001F0E2F940F23311072001F0DDF983E4B0
:103980008948808845F2084188427DD14FF4807192
:10399000012001F0D1F94FF4E061022001F0CCF9EF
:1039A00041F23001032001F0C7F90021042001F0A9
:1039B000C3F940F20721082001F0BEF900210920D7
:1039C00001F0BAF900210A2001F0B6F900210C201B
:1039D00001F0B2F900210D2001F0AEF900210F2015
:1039E00001F0AAF9142001F099FD41F2B061102014
:1039F00001F0A2F90121112001F09EF90121172007
:103A000001F09AF94FF49C71122001F095F94FF4EE
:103A10000061132001F090F90921292001F08CF9AF
:103A200009212A2001F088F90021A42001F084F95D
:103A30000021502001F080F9EF21512001F07CF9A4
:103A40000021522001F078F940F23F11532001F09B
:103A500073F94FF41C51602001F06EF901216120CF
:103A600001F06AF900216A2001F066F90021802046
:103A700001F062F90021812001F05EF9002182202D
:103A800001F05AF9002100E024E0832001F054F90C
:103A90000021842001F050F90021852001F04CF92B
:103AA0001321902001F048F90021922001F044F9FF
:103AB0000321932001F040F94FF48871952001F023
:103AC0003BF940F27311072001F036F9322001F082
:103AD00025FDB8E43448808841F2055188427DD103
:103AE0000021072001F028F9322001F017FD4FF4E2
:103AF0008E71122001F020F90121A42001F01CF99F
:103B00000F21082001F018F908210A2001F014F90A
:103B100008210D2001F010F940F20771302001F06A
:103B20000BF90721312001F007F940F2036132203F
:103B300001F002F94FF4E061332001F0FDF840F2AA
:103B40000221342001F0F8F80221352001F0F4F8C8
:103B500041F60F71362001F0EFF840F2077137207F
:103B600001F0EAF80021382001F0E6F800213920C0
:103B700001F0E2F840F207713A2001F0DDF800218F
:103B80003B2001F0D9F807213C2001F0D5F80021B5
:103B90003D2001F0D1F8322001F0C0FC01210720C6
:103BA00001F0CAF8012101E0E8000020172001F02F
:103BB000C3F8322001F0B2FC4FF4BD51102001F0E7
:103BC000BBF840F21721112001F0B6F84FF48F71C5
:103BD000122001F0B1F84FF4706100E098E013207A
:103BE00001F0AAF800212A2001F0A6F80A212920D4
:103BF00001F0A2F84FF49F71122001F09DF800210E
:103C0000502001F099F8EF21512001F095F80021A2
:103C1000522001F091F840F23F11532001F08CF84E
:103C20004FF41C51602001F087F80121612001F060
:103C300083F800216A2001F07FF80021802001F044
:103C40007BF80021812001F077F80021822001F02B
:103C500073F80021832001F06FF80021842001F027
:103C60006BF80021852001F067F81321902001F006
:103C700063F84FF44071922001F05EF80521932023
:103C800001F05AF80021952001F056F80021972004
:103C900001F052F80021982001F04EF84FF48071A5
:103CA000012001F049F84FF4E061022001F044F8EE
:103CB00041F23801032001F03FF80021042001F017
:103CC0003BF800210C2001F037F800210F2001F013
:103CD00033F80021202001F02FF80021212001F0ED
:103CE0002BF82121072001F027F8142001F016FC01
:103CF0006121072001F020F8142001F00FFC40F2B0
:103D00007311072001F018F8142001F007FC95E466
:103D1000FE4880884BF2055188427CD1002108463C
:103D200001F00AF80021084601F006F800210846D3
:103D300001F002F80021084600F0FEFF0121A42056
:103D400000F0FAFF142001F0E9FB4FF41C51602051
:103D500000F0F2FF40F20221082000F0EDFF4FF4E6
:103D60000571302000F0E8FF43F21571312000F0BA
:103D7000E3FF40F20461322000F0DEFF40F61661FE
:103D8000332000F0D9FF42F21121342000F0D4FF9B
:103D90004FF4A851352000F0CFFF48F207513620EC
:103DA00000F0CAFF41F20741372000F0C5FF41F2A1
:103DB0000341382000F0C0FF2021392000F0BCFF73
:103DC0001A21902000F0B8FF0021102000F0B4FF6D
:103DD0000721112000F0B0FF0021122000F0ACFFFD
:103DE0000021132000F0A8FF142001F097FB4FF4EE
:103DF000E661102000F0A0FF40F23711112000F022
:103E00009BFF142001F08AFB4FF4DC71122000F0BC
:103E100093FF142000E085E001F080FB4FF4706117
:103E2000132000F089FF80212A2000F085FF48211F
:103E3000292000F081FF142001F070FB4FF4807105
:103E4000012000F079FF4FF4E061022000F074FFE0
:103E500041F23801032000F06FFF40F202210820F8
:103E600000F06AFF00210A2000F066FF00210C200C
:103E700000F062FF00210D2000F05EFF30210E20D7
:103E800000F05AFF0021502000F056FFEF21512092
:103E900000F052FF0021522000F04EFF40F23F118F
:103EA000532000F049FF4FF41C51602000F044FF04
:103EB0000121612000F040FF00216A2000F03CFF5A
:103EC0001121902000F038FF4FF4C061922000F0E3
:103ED00033FF40F20241932000F02EFF0221942094
:103EE00000F02AFF142001F019FB0121072000F047
:103EF00023FF142001F012FB6121072000F01CFFBA
:103F000040F27311072000F017FF0021202000F07D
:103F100013FF0021212000F00FFF2221002000F0DC
:103F20000BFF17E3794880884CF2055188427CD119
:103F30000021084600F000FF0021084600F0FCFECA
:103F4000142001F0EBFA0021084600F0F5FE0021F4
:103F5000084600F0F1FE0021084600F0EDFE0021C9
:103F6000084600F0E9FE0121A42000F0E5FE14203F
:103F700001F0D4FA4FF41C51602000F0DDFE40F651
:103F80000601082000F0D8FE40F20371302000F056
:103F9000D3FE0121312000F0CFFE0421322000F0B9
:103FA000CBFE4FF48171332000F0C6FE4FF4407118
:103FB000342000F0C1FE40F20311352000F0BCFEB9
:103FC0001F21362000F0B8FE40F20371372000F0C8
:103FD000B3FE0121382000F0AFFE0421392000F0AB
:103FE000ABFE1521902000F0A7FE4FF48261102057
:103FF00000F0A2FE40F24721112000F09DFE4FF498
:10400000DE71122000F098FE4FF46061132000F082
:1040100093FE782001F082FA4FF48071012000F0C5
:104020008BFE4FF40071022000E052E000F084FEAD
:1040300041F23001032000F07FFE08210A2000F049
:104040007BFE00210C2000F077FE20210E2000F0E6
:1040500073FE00210F2000F06FFE0021202000F0F1
:104060006BFE0021212000F067FE3D212A2000F098
:1040700063FE142001F052FA2D21292000F05CFE8D
:104080000021502000F058FE4DF2EF01512000F0C9
:1040900053FE0021522000F04FFE40F23F1153200A
:1040A00000F04AFE0021612000F046FE00216A2057
:1040B00000F042FE4FF44071922000F03DFE0521D9
:1040C000932000F039FE4FF48071072000F034FE99
:1040D00040E20E48808844F2315188427ED101216D
:1040E000002000F029FE0A2001F018FA41F22861B0
:1040F000102000F021FE0E21122000F01DFE40F6DF
:104100003921132000F018FE0A2001E0E800002009
:1041100001F004FA4021112000F00EFE502115207C
:1041200000F00AFE0A2001F0F9F91E21122000F029
:1041300003FE0A2001F0F2F94FF4B151102000F013
:10414000FBFD42F63921132000F0F6FD0A2001F0B4
:10415000E5F94FF48071012000F0EEFD4FF440715D
:10416000022000F0E9FD41F23801032000F0E4FDF7
:1041700040F20221082000F0DFFD08210A2000F0B3
:10418000DBFD0021302000F0D7FD40F2024131205C
:1041900000F0D2FD4FF48371322000F0CDFD40F2EB
:1041A0000351332000F0C8FD4FF48271342000F039
:1041B000C3FD40F20131352000F0BEFD40F2077131
:1041C000362000F0B9FD40F20531372000F0B4FD93
:1041D0004FF40271382000F0AFFD00E03EE040F601
:1041E0000B71392000F0A8FD0221412000F0A4FD50
:1041F0004FF41C51602000F09FFD0121612000F070
:104200009BFD4FF40471902000F096FD4FF48571F2
:10421000922000F091FD0421932000F08DFD4FF4D9
:104220008071A02000F088FD0121072000F084FDAE
:104230002121072000F080FD2321072000F07CFDD4
:104240003321072000F078FD40F23311072000F001
:1042500073FD0021A02000F06FFD7BE1C348808842
:1042600044F2355188427CD13021152000F064FDA4
:1042700010219A2000F060FD2021112000F05CFD4B
:1042800043F22841102000F057FD0221122000F0D7
:1042900053FD41F23801132000F04EFD282001F0BB
:1042A0003DF91221084600F047FD282001F036F9BB
:1042B00043F22041102000F03FFD43F2380113206B
:1042C00000F03AFD462001F029F90021302000F0ED
:1042D00033FD40F20241312000F02EFD40F2073163
:1042E000322000F029FD4FF44171332000F024FD0D
:1042F0000421342000F020FD40F20141352000F07F
:104300001BFD40F20771362000F016FD40F205312A
:10431000372000F011FD4FF4C261382000F00CFD91
:104320004FF4C261392000F007FD4FF48071012085
:1043300000F002FD4FF44071022000F0FDFC41F25C
:104340003001032000F0F8FC40F60801082000F0DE
:10435000F3FC08210A2000F0EFFC4FF41C51602010
:1043600000E033E000F0E8FC0121612000F0E4FC13
:104370004FF49F71902000F0DFFC4FF48071922089
:1043800000F0DAFC4FF48071932000F0D5FC4FF47C
:104390004051A02000F0D0FC1021A32000F0CCFC64
:1043A0000121072000F0C8FC2121072000F0C4FCF7
:1043B0002321072000F0C0FC3321072000F0BCFCC3
:1043C00040F23311072000F0B7FCC3E06748808853
:1043D00041F6631188427DD1E22000F097FC1D2058
:1043E00000F088FC022000F085FC042000F082FC34
:1043F000642001F0AFF8E02000F088FC012000F01C
:1044000079FC0A2001F08AF8E02000F07FFC03200C
:1044100000F070FC0C2001F081F8012000F076FC27
:104420000A2001F07BF8E62000F070FC2F2000F05D
:1044300061FCFF2000F05EFCFF2000F05BFCB02080
:1044400000F064FC202000F055FC002000F052FC3D
:10445000032000F04FFC40F21F3000F04BFC012025
:1044600000F048FC40F2DF1000F044FC002000F0B7
:1044700041FCB42000F04AFC042000F03BFC40F278
:104480001F4000F037FC002000F034FC2E2000F02C
:1044900031FC002000F02EFC002000F02BFC00205E
:1044A00000F028FC002000F025FCB62000F02EFCD7
:1044B000022000F01FFC4FF4037000F01BFC0020F2
:1044C00000F018FC172000F015FC152000F012FC7D
:1044D000002000E03BE000F00DFC002000F00AFCB2
:1044E000F02000F013FC032000F004FC292000F071
:1044F0000DFCD02000F00AFC002000F0FBFBBE20E9
:1045000000F004FC052000F0F5FBFE2000F0F2FBBB
:10451000012000F0EFFB002000F0ECFB002000F099
:10452000E9FB002000F0E6FBB82000F0EFFB0320E1
:1045300000F0E0FB012000F0DDFBBA2000F0E6FB1C
:10454000012000F0D7FB642000F036F802E00020E4
:10455000064988800020FCF7E9F80120044908603A
:104560004FF6FF70FCF7ACF821B000BDE80000206A
:10457000BC82404210B50246012000E050430B00CF
:10458000A1F10104E1B2F9D110BD000008B5034862
:1045900000880090BDF8000008BD00008000006C9D
:1045A00010B50446204600F0B1FB052000F0D2FF14
:1045B000FFF7ECFF10BD000070B52DED048B044635
:1045C000BE2000F0A3FB052000F094FB204601F084
:1045D00044F941EC190B9FED0E0B53EC102B01F03D
:1045E0004FF941EC180B01F00BF985B2284600F0A9
:1045F00081FB012000F07EFBFF2000F07BFB002010
:1046000000F078FB002000F075FBBDEC048B70BD62
:104610006666666666660440F0B5054600240027B7
:10462000BD48807901280BD1BB48808846F604013B
:10463000884205D0B848808841F66311884208D185
:10464000B5488079F0B9B448808841F66311884252
:1046500018D1082D15D2DFE805F00406080A0C0E63
:10466000101206250DE007250BE0042509E00525BD
:1046700007E0012505E0002503E0032501E0022510
:1046800000BF00BFA448808849F2413188421DD054
:10469000A148808846F60401884217D09E48808849
:1046A00045F21031884211D09B48808845F2105164
:1046B00088420BD09848808841F66311884205D023
:1046C0009548808849F2814188427CD1082D1CD2CE
:1046D000DFE805F00406090C0F12151800BF14E0FE
:1046E00044F0800411E044F040040EE044F0C004C3
:1046F0000BE044F0200408E044F0600405E044F0DE
:10470000A00402E044F0E00400BF00BF82488088BB
:1047100045F21051884202D14FF4585700E0362735
:104720007D48808845F2103188420DD07A488088D3
:1047300045F21051884207D07748808841F66311CE
:10474000884201D044F008047348808846F604018A
:10475000884205D07048808849F28141884201D161
:1047600044F002042146384600F0E6FA6A488088A0
:1047700041F6631188421DD004F0200068B16648FC
:10478000008865494988884214DA63480688408869
:1047900061490880084646800CE05F4800885E4911
:1047A0004988884206DD5C48068840885A49088066
:1047B000084646805848808845F21051884254D1B6
:1047C0005549488900E07FE000F0A0FA002000F0A1
:1047D00091FA51494989491C88B200F097FA0020A2
:1047E00000F088FA4C494989891C88B200F08EFA99
:1047F00049490988491EC1F30F2000F07BFA464958
:104800004989C91C88B200F081FA43490978491ED8
:10481000C8B200F06FFA4049888900F077FA0020AA
:1048200000F068FA3C498989491C88B200F06EFAA8
:10483000002000F05FFA38498989891C88B200F0AD
:1048400065FA35494988491EC1F30F2000F052FA34
:1048500031498989C91C88B200F058FA2E498978F3
:10486000491EC8B200F046FA55E02B49488900F0CD
:104870004DFA002000F03EFA002000F03BFA2649F5
:104880000988491EC1F30F2000F034FA2249097843
:10489000491EC8B200F02EFA1F49888900F036FA86
:1048A000002000F027FA002000F024FA1A49498875
:1048B000491EC1F30F2000F01DFA17498978491EDF
:1048C000C8B200F017FA26E0082D1CD2DFE805F088
:1048D00004070A0D0F12151844F0300413E044F0D9
:1048E000100410E044F020040DE000BF0BE044F0A1
:1048F000380408E044F0280405E044F0180402E01D
:1049000044F0080400BF00BF032744F4805421464C
:10491000384600F011FAF0BDE800002030B504463A
:104920000D466A48808849F24131884205D067487F
:10493000808845F21031884214D16449488900F0DA
:10494000E5F9201200F0D6F9E0B200F0D3F95F49A2
:10495000888900F0DBF9281200F0CCF9E8B200F009
:10496000C9F9B1E05948808846F60401884205D06B
:104970005648808849F2814188421DD15348807948
:10498000012804D151480088401E001B84B24F49C1
:10499000488900F0BBF9201200F0ACF9E0B200F059
:1049A000A9F94A49888900F0B1F9281200F0A2F962
:1049B000E8B200F09FF987E04448808841F663112F
:1049C000884247D141488079A8B940480088401EB4
:1049D000001B84B23D49488900F098F9002000F09E
:1049E00089F9002000F086F9201200F083F9E0B286
:1049F00000F080F916E03549488900F087F9201267
:104A000000F078F9E0B200F075F930490988491EE4
:104A1000C1F30F2000F06EF92C490978491EC8B285
:104A200000F068F92949888900F070F9281200F02F
:104A300061F9E8B200F05EF924494988491EC1F3E2
:104A40000F2000F057F921498978491EC8B200F0BB
:104A500051F939E01D48808845F21051884220D133
:104A60001A49488900F052F9201200F043F9174919
:104A70004989491C88B200F049F9E0B200F03AF9DE
:104A80001249888900F042F9281200F033F90F49E1
:104A90008989491C88B200F039F9E8B200F02AF996
:104AA00012E00A488079012804D108480088401E95
:104AB000001B84B205494889214600F03DF90349AD
:104AC0008889294600F038F930BD0000E800002050
:104AD0002DE9F84F80460E4617461C46B346204641
:104AE000E31704EB5373DB1021464FEAE47C04EB3D
:104AF0005C7C4FEAEC0CA4EBCC0CBCF1000F02D0B8
:104B00004FF0010C01E04FF0000C6344224604EB2F
:104B1000D27C4FEA6C0C03FB0CF3DBB20093A7F1E1
:104B20002000C7B2002556E00C2C07D107EB470048
:104B30002B4901EB800010F8059013E0102C05D1F3
:104B4000284800EB071010F805900BE0182C07D14F
:104B500007EBC700244901EB800010F8059001E045
:104B6000BDE8F88F4FF0000A2FE009F0800030B167
:104B70001E48028831464046FBF7D2FE07E00A98FD
:104B800028B91B48028831464046FBF7C9FE4FEA68
:104B900049604FEA1069701C86B216484088B042DE
:104BA00000DCDDE7A6EB0B00A0420AD15E4608F16F
:104BB00001001FFA80F80F480088404500DCCFE76D
:104BC00006E00AF1010000F0FF0ABAF1080FCCDBA1
:104BD00000BF681CC5B200988542A5DB00BFBFE7D7
:104BE000865A0008FA5E0008EA6400081A000020ED
:104BF0001C000020E80000202DE9FF4F81B007468F
:104C000091461E460E9D4FF0000A002439E0301BED
:104C1000401EC1B20A20FFF7ADFCB9FBF0F00A213B
:104C2000B0FBF1F201FB1208BAF1000F16D1701EB1
:104C3000A04213DDB8F1000F0ED10020AB4605EB0A
:104C4000DB71491001FB0471009088B22B462022D1
:104C50000299FFF73DFF12E04FF0010A0020AB463A
:104C600005EBDB71491001FB0471009088B208F17B
:104C70003001CAB22B460299FFF72AFF00BF601C21
:104C8000C4B2B442C3DB05B0BDE8F08F2DE9F847EC
:104C900004460D4690469946DDE9096704F0FF0A8F
:104CA00008EB04001FFA80F809EB05001FFA80F9F1
:104CB00016E0444502DB5446A81985B24D4500DB99
:104CC00014E0002000903A78334629462046FFF74A
:104CD000FFFE304606EBD07104EB61018CB27F1C05
:104CE00038787E2802DC38782028E2DA00BFBDE878
:104CF000F887000001B5BDF800000090BDF8000085
:104D00000149088008BD00008000006C01B5BDF8B5
:104D100000000090BDF800000149088008BD0000B7
:104D20007E00006C0248008902490880704700003C
:104D3000E80000207E00006C034A10804FF0D8424B
:104D4000A2F88010704700007E00006C00BFFEE7F4
:104D50007047000070B5002100230F22C4781CB3F7
:104D6000174C246804F4E064C4F5E064C4F307213C
:104D7000C1F10404E3B20A4144789C40E1B2847872
:104D8000144021430C07210E0E4C05786155047820
:104D900004F01F050124AC4005786D11AD0005F14C
:104DA000E025C5F8004109E0047804F01F0501245E
:104DB000AC40054D0678761145F8264070BD0000E0
:104DC0000CED00E000E400E080E100E00249014376
:104DD000024A1160704700000000FA050CED00E087
:104DE00030B58BB005460C460121080200F06AF888
:104DF0000121202000F046F8092211461E48FBF749
:104E00003AFC02208DF8280000208DF82A004FF48B
:104E10000070099001208DF82B0002208DF82900E8
:104E200009A91548FBF7DFFB0020ADF82000ADF81D
:104E30001A000795A0B2ADF8180006A90F4800F0B7
:104E4000F9F96020ADF804000220ADF8100001204F
:104E5000ADF8060001A9094800F0A2F908210748A9
:104E600000F0DCF90121054800F082F90121034836
:104E700000F08AF90BB030BD001402400020004061
:104E80007047000029B1064A12680243044B1A60B9
:104E900004E0034A12688243014B1A607047000025
:104EA0003038024029B1064A12680243044B1A60A6
:104EB00004E0034A12688243014B1A607047000005
:104EC0003838024029B1064A12680243044B1A607E
:104ED00004E0034A12688243014B1A6070470000E5
:104EE0004038024029B1064A12680243044B1A6056
:104EF00004E0034A12688243014B1A6070470000C5
:104F000044380240F0B5002100220024022500268A
:104F10000223324F3F6807F00C0121B1042905D06C
:104F2000082937D105E02E4F076036E02D4F076086
:104F300033E02A4F3F1F3F68C7F38056274F3F1F7C
:104F40003F6807F03F036EB1264FB7FBF3F7DFF87A
:104F50008CC0ACF1040CDCF800C0CCF3881C07FB5F
:104F60000CF40CE01E4FB7FBF3F7DFF870C0ACF1A8
:104F7000040CDCF800C0CCF3881C07FB0CF4174FC2
:104F80003F1F3F68C7F301477F1C7D00B4FBF5F767
:104F9000076002E0124F076000BF00BF0F4F3F687D
:104FA00007F0F0010909104F7A5C0768D7404760A5
:104FB0000A4F3F6807F4E051890A0B4F7A5C476853
:104FC000D7408760054F3F6807F46041490B064FA3
:104FD0007A5C4768D740C760F0BD000008380240DF
:104FE0000024F40000127A00040000207047000042
:104FF0000CB50020019000903448006840F48030E7
:105000003249086000BF3148006800F40030009069
:105010000198401C0190009818B90198B0F5A04F74
:10502000F1D12A48006800F4003010B1012000904E
:1050300001E0002000900098012846D1234840302C
:10504000006840F0805021494031086020480068E5
:1050500040F440401E4908601C48083000681B4965
:10506000083108600846006840F4004008600846BF
:10507000006840F4A05008601648091F0860081F27
:10508000006840F08070091F086000BF0F4800688A
:1050900000F000700028F9D040F205700E49086059
:1050A0000A480830006820F0030008490831086009
:1050B0000846006840F00200086000BF034808305E
:1050C000006800F00C000828F8D10CBD0038024040
:1050D0000070004008544007003C0240042808D1FA
:1050E0004FF0E021096941F004014FF0E022116125
:1050F00007E04FF0E021096921F004014FF0E022C0
:10510000116170477047000010B51548006840F401
:105110007000134908601348006840F0010011490D
:10512000086000200F49083108600E4800680E49E9
:1051300008400C4908600D48091D0860081F0068F8
:1051400020F48020091F0860002006490C31086007
:10515000FFF74EFF4FF0006001498039086010BD35
:1051600088ED00E000380240FFFFF6FE103000241A
:1051700021B1028842F08002028004E002884FF6EA
:105180007F731A400280704721B1028842F0010209
:10519000028004E002884FF6FE731A4002807047D6
:1051A00070B5002400220023058C4FF6FE763540B2
:1051B0000584028C8388048B4FF68F752C40B51EB6
:1051C0002C400D882C43751E2A408D892A434D881A
:1051D0002A43104DA84202D00F4DA84213D14FF6DA
:1051E000F7752A40CD892A434FF6FB752A408D88F2
:1051F0002A434FF6FF652B404FF6FF552B400D8A93
:105200002B434D8A2B43838004838D68456302843E
:1052100070BD000000000140000401400A4600216A
:10522000018B4FF6F77319401143018370474163B7
:105230007047000000220288184B98420ED0184B8D
:1052400098420BD0B0F1804F08D0164B984205D051
:10525000154B984202D0154B984204D14FF68F73EC
:105260001A404B881A43124B984207D0114B984270
:1052700004D04FF6FF431A400B891A4302804B6853
:10528000C3620B880385054B984202D0044B9842B9
:1052900001D18B7A0386012383827047000001408D
:1052A000000401400004004000080040000C0040E1
:1052B000001000400014004010B540F225511D4878
:1052C00000F04AF810B31B4800F000F9C4B21A48C5
:1052D000008800F40040C8B91748008800F48040F6
:1052E00060B10A2C03D000201349088020E0124846
:1052F000008840F400401049088019E00D2C06D1C8
:105300000D48008840F480400B49088010E00A48AE
:105310000088C0F30D0009490C5407480088401C60
:105320000549088008460088C72801DD002008805C
:1053300010BD0000001001401800002020000020D7
:1053400021B1828942F40052828104E082894DF6C3
:10535000FF731A408281704770B502460024002313
:105360000025002040F66A16B14200D100BFC1F30B
:10537000421501F01F03012606FA03F3012D02D1A5
:105380009689334006E0022D02D1168A334001E0AF
:10539000968A33400C12012606FA04F4168834402B
:1053A00013B10CB1012000E0002070BDF0B5034640
:1053B000002400260025002040F66A17B94200D1DB
:1053C00000BF1846C1F3421401F01F06012707FA77
:1053D00006F5012C01D10C3004E0022C01D1103073
:1053E00000E014301AB107682F43076002E0076835
:1053F000AF430760F0BD00002DE9FF4705460E46AC
:105400000024A14600BFA046B08900B100BF2C8A8D
:1054100024F44054F08804432C82AC8941F20C609F
:105420008443B08831890843718908430443AC81BF
:10543000AC8A24F44074B0890443AC826846FFF718
:1054400061FD2048854202D01F48854202D1DDF827
:105450000C9001E0DDF80890A88900F4004040B10C
:1054600009EBC90000EB091031684900B0FBF1F706
:1054700007E009EBC90000EB091031688900B0FBB7
:10548000F1F76420B7FBF0F004012009642101FB6F
:105490001078A88900F4004040B1322000EBC80029
:1054A000B0FBF1F000F00700044308E0322000EB0D
:1054B00008106421B0FBF1F000F00F0004432C81D0
:1054C000BDE8FF87001001400014014001468888B4
:1054D000C0F30800704700BFFEE700BF7047000040
:1054E00010B504466FF00400FFF7F8FDE11704EB78
:1054F0005171C1F3C701074A11701046007800EBE3
:105500004001C1EBC0104FF6FF7101EAC000024933
:10551000088010BD000000200200002070B5044685
:105520004FF4077094FBF0F0C6B24FF4077094FB91
:10553000F0F100FB114085B205E04FF4077000F078
:105540002FF8701EC6B2002EF7D115B1284600F014
:1055500027F870BD0146114A12784A434FF0E02304
:105560005A6100229A611A46126942F001021A61D8
:1055700000BF4FF0E022106900F001021AB100F400
:105580008032002AF5D04FF0E022126922F00102A9
:105590004FF0E0231A6100229A617047000000205A
:1055A0000146114A12884A434FF0E0235A61002213
:1055B0009A611A46126942F001021A6100BF4FF067
:1055C000E022106900F001021AB100F48032002AD2
:1055D000F5D04FF0E022126922F001024FF0E023F3
:1055E0001A6100229A6170470200002000BF054A3C
:1055F000128802F04002002AF9D0C2B2014B9A8010
:1056000070470000001001401CB546274FF001080C
:1056100096244FF4A060FFF7D9FBA820FFF760FFA6
:10562000A00100F097F8FBF741FA532140F2F31084
:10563000FFF7D6FB4FF6FF70FBF742F80020394921
:10564000088039A010210B466422CDE900101E21EC
:105650000846FFF71BFB63E03548008800F4004074
:1056600000285AD032480678012517E031A01021D1
:105670000B463222CDE9001039461E20FFF706FB0B
:10568000102000902D48425D042339464620FFF744
:10569000B3FA07F11400C7B2681CC5B2B542E5DB26
:1056A0002648C0783C2803DD2448C078642821DBE4
:1056B00023A010210B465022CDE900101E218C2082
:1056C000FFF7E4FAB8F1000F08D004F1140084B237
:1056D000B4F5967F09DB4FF0000806E0A4F1140052
:1056E00084B2962C01DC4FF0010821461648FFF7E2
:1056F0009EFD0EE015A010210B465022CDE90010B2
:105700001E218C20FFF7C2FA4FF4FA710E48FFF702
:105710008EFD46270020064908806420FFF7FEFE24
:105720009AE700001A0000207469746C650000009C
:10573000180000206E616D653A0000002000002016
:10574000776172696E670000002000402066696E14
:105750006520000010B588B0044601210846FFF717
:1057600091FB01211020FFF7BDFB072209212248F0
:10577000FAF781FF07220A211F48FAF77CFF4FF44E
:10578000C060069002208DF81C008DF81D000020DE
:105790008DF81E0001208DF81F0006A91648FAF7A3
:1057A00022FF02940020ADF80C00ADF80E00ADF819
:1057B0001000ADF814000C20ADF8120002A90F483B
:1057C000FFF71AFE01210D48FFF7BAFD012240F252
:1057D00025510A48FFF7EAFD25208DF80400032033
:1057E0008DF805008DF8060001208DF8070001A84E
:1057F000FFF7B0FA08B010BD0000024000100140F1
:105800004FEA1153A3F58063D3F11E03A8BFD3F170
:10581000200C08DB4FF0004242EAC12252EA50520B
:1058200032FA03F0704709420BD4102BC4BF00209A
:10583000704703F5787CBCF1FF3F05D04FF0FF3097
:1058400070474FF00000704770B500F0C3F800BF1C
:105850004992248000207047F0E7B0FA80F310FAF4
:1058600003F10AD0C3F11D0303F580634FEA4150F1
:105870004FEA035202EBD12170474FF0000070470E
:10588000DFF848C170B51CEA111E1EBF1CEA1315D3
:105890009EEA0C0F95EA0C0F00F06F8081EA03047A
:1058A00023EA4C134EEAD47E21EA4C1141F48011D4
:1058B00043F48013AE44A1FB024CA0FB0365AEF1A0
:1058C0007F7E361955EB0C05A1FB034C4CF1000310
:1058D000A0FB021C16EB0C06654153F100030942C4
:1058E00018BF46F0010613F4007F0BD14FEA0331D5
:1058F0004FEA0530340341EA155140EA16506FF083
:1059000003020AE04FEAC3214FEAC520F40241EA4C
:10591000555140EA56506FF0020202EB2E4201EB65
:10592000025585EACE710AD05FEA440C18BF24F014
:10593000004450F1000041F1000120EAD47040F22F
:10594000FE7C624500D270BDA84214BF4FF0804477
:105950004FF04044002E08BF0024BEF1806FA8BF66
:10596000A1F1C041BDE8704080F282804FF000009C
:1059700001F1C04101F0004170479EEA0C0F0CEAB2
:10598000131518BF95EA0C0F06D04FF0000081EAFE
:10599000030E0EF0004170BD00F01CF88900013EBE
:1059A00000F007B800F009B84FEA430C5FEA5C5C0E
:1059B00008D081EA030100F05BB84FEA410C5FEACE
:1059C0005C5CF6D14FF00000014970470000FF0712
:1059D0000000F87F0EF1020E2EF0030E5EF8046B4D
:1059E000364205D4012A43EB030515F5001F12D8F2
:1059F000012841EB010C1CF5001F0CD80ED14FEA19
:105A0000D17C15F5001F0CEB4C0C0CF1020C08BFFF
:105A10004CEBD37C04E04FF0080C01E04FEAD37C60
:105A20000CEB4C0526FA05F606F00706B6F1040C59
:105A300006D20EEB860CBDE870404CF0010C6047BE
:105A4000DFE80CF0090B02024FF000414FF00000BC
:105A5000A1F5002170BD19461046012851EB010443
:105A600018BFD4F5001484BF002001F0004170BDC0
:105A70000808A0F500114FEA310170474FF040705F
:105A8000E1EE100A70470000000000000000000076
:105A90000000000000003F40000000000000000087
:105AA0003000400030004000000009000BC03D0005
:105AB0000BC03D00090018C024407FE02240318027
:105AC0000000180024C01B000D80324001800380BC
:105AD0001C4027401C800740004010006000000070
