:020000040800F2
:1000000030A4002081020008150A00085F080008DB
:10001000110A0008C90700087B1000080000000052
:10002000000000000000000000000000E50C0008D7
:10003000CD07000800000000A10C0008FD0D00081D
:100040009B0200089B0200089B0200089B0200081C
:100050009B0200089B0200089B0200089B0200080C
:100060009B0200089B0200089B0200089B020008FC
:100070009B0200089B0200089B0200089B020008EC
:100080009B0200089B0200089B0200089B020008DC
:100090009B0200089B0200089B0200089B020008CC
:1000A0009B0200089B0200089B0200089B020008BC
:1000B0009B020008690E00089B0200089B020008D2
:1000C0009B0200089B0200089B0200089B0200089C
:1000D0009B020008950F00089B0200089B02000885
:1000E0009B0200089B0200089B0200089B0200087C
:1000F0009B0200089B0200089B0200089B0200086C
:100100009B0200089B0200089B0200089B0200085B
:100110009B0200089B0200089B0200089B0200084B
:100120009B0200089B0200089B0200089B0200083B
:100130009B0200089B0200089B0200089B0200082B
:100140009B0200089B0200089B0200089B0200081B
:100150009B0200089B0200089B0200089B0200080B
:100160009B0200089B0200089B0200089B020008FB
:100170009B0200089B0200089B0200089B020008EB
:100180009B0200089B02000800F002F800F068F8EB
:100190000AA090E8000C82448344AAF10107DA45E2
:1001A00001D100F05DF8AFF2090EBAE80F0013F0CC
:1001B000010F18BFFB1A43F0010318470851010053
:1001C0002851010010F8013B0A4413F0030408BF52
:1001D00010F8014B1D1108BF10F8015B641E05D01B
:1001E00010F8016B641E01F8016BF9D1002D15D0D8
:1001F00010F8014B03F00C030C2BA1EB04040ABF15
:1002000010F8013BA4EB8314A4EB032405F10103D4
:1002100014F8016B5B1E01F8016BF9D5914238BFF0
:1002200010F8013BD1D3704700230024002500269D
:10023000103A28BF78C1FBD8520728BF30C148BF49
:100240000B607047642900F0A780732900F05A8280
:10025000002070471FB50DF032F91FBD10B510BD5D
:1002600000F082FA1146FFF7F5FF0CF02FFC00F0CA
:10027000A0FA03B4FFF7F2FF03BC00F02CFF00006C
:100280000948804709480047FEE7FEE7FEE7FEE72A
:10029000FEE7FEE7FEE7FEE7FEE7FEE70448054966
:1002A000054A064B70470000010E0008890100084E
:1002B000309E002030A4002030A0002030A000207C
:1002C000704700000FB4044910B503AA029800F06B
:1002D0001DFA10BC5DF814FB481900202DE9F0410F
:1002E0000E460446002020622046E168884730B36D
:1002F000252805D0D4E901219047206A401CF2E767
:10030000E168204600278847050018D0A5F1410084
:10031000192802D820354FF4006732462946204676
:100320002760FFF78FFF40B1012804D0F61D26F0AB
:1003300007060836D8E7361DD6E72846DAE7206AEA
:10034000BDE8F08170B50C460546012A05D0287835
:10035000800600D5EA69002302E0012305E05B1C6A
:10036000934202D2E05C0028F9D1A869E618C01ACD
:10037000A861286A184428622846AFF3008004E088
:10038000D5E9012114F8010B9047B442F8D328466F
:10039000AFF3008070BD00002DE9F0410646002457
:1003A00010687529314616A510D0AFF300800028DB
:1003B00002DA404213A507E031688A0701D512A589
:1003C00002E0490704D511A5012401E0AFF3008044
:1003D00000210A2206F1240709E0B0FBF2FCB0FB81
:1003E000F2F302FB1C00303078541846491C0028F8
:1003F000F3D123462A463046BDE8F04100F017B954
:10040000000000002D0000002B0000002000000074
:1004100040EA0103024630B59B0710D14FF001348A
:1004200000E008C208C91D1B9D4315EAC41FF8D08F
:1004300013F0FF0102F8011B0DD01B0AF8E711F8B9
:10044000013B002B02F8013B05D011F8013B002BCA
:1004500002F8013BF3D130BD10B5431C02E010F8A7
:10046000011B71B18107FAD14FF0013202C88C1A19
:100470008C4314EAC211F9D0C01A0A0603D0C01E78
:1004800010BDC01A10BD0A0401D0801E10BD0902A3
:10049000FCD0401E10BD032A40F2308010F0030C47
:1004A00000F0158011F8013BBCF1020F624498BFC7
:1004B00011F801CB00F8013B38BF11F8013BA2F164
:1004C000040298BF00F801CB38BF00F8013B11F0DF
:1004D000030300F02580083AC0F0088051F8043B7F
:1004E000083A51F804CBA0E80810F5E7121D5CBFEC
:1004F00051F8043B40F8043BAFF30080D20724BF1F
:1005000011F8013B11F801CB48BF11F8012B24BFB2
:1005100000F8013B00F801CB48BF00F8012B704701
:1005200010B5203AC0F00B80B1E81850203AA0E88E
:100530001850B1E81850A0E81850BFF4F5AF5FEAC2
:10054000027C24BFB1E81850A0E8185044BF18C975
:1005500018C0BDE810405FEA827C24BF51F8043B1C
:1005600040F8043B08BF7047D20728BF31F8023B70
:1005700048BF11F8012B28BF20F8023B48BF00F804
:10058000012B704702F0FF0343EA032242EA0242D2
:1005900000F002B84FF000020429C0F0128010F001
:1005A000030C00F01B80CCF1040CBCF1020F18BF4F
:1005B00000F8012BA8BF20F8022BA1EB0C0100F0E2
:1005C0000DB85FEAC17C24BF00F8012B00F8012BB5
:1005D00048BF00F8012B70474FF0000200B51346EA
:1005E00094469646203922BFA0E80C50A0E80C5053
:1005F000B1F12001BFF4F7AF090728BFA0E80C5004
:1006000048BF0CC05DF804EB890028BF40F8042BFC
:1006100008BF704748BF20F8022B11F0804F18BF69
:1006200000F8012B704770477047704770472DE9FD
:10063000F0470D4699469246044600F124080168A9
:10064000880604D5E06921F01001216000E0012056
:10065000A84201DD471B00E00027A1697A1902EBDF
:100660000900081AA0612078C00602D42046AFF322
:100670000080002608E0D4E901211AF8060090471E
:10068000206A401C761C20624E45F4DB2078C006B0
:100690000AD52046AFF3008006E0D4E901213020DE
:1006A0009047206A401C2062381EA7F10107F4DC45
:1006B00007E0D4E9012118F805009047206A401CA2
:1006C0002062281EA5F10105F3DC2046AFF300806F
:1006D0002078000602D50220BDE8F0870120FBE764
:1006E00010B5436913B1AFF3008001E0FFF72AFEB4
:1006F000012010BD127800F124010A7000224A7016
:100700000122EDE711684FF0FF32E9E7074B70B5C2
:100710000D467B4400F011F80446284600F020F80E
:1007200010B14FF0FF3070BD204670BDC30E000009
:1007300001694A1C02610878704700B58FB0CDE9A5
:1007400001310021059105497944CDE90310114695
:100750006846FFF7C3FD0FB000BD0000E5FFFFFFD7
:10076000007B00F080007047754600F029F8AE4627
:1007700005006946534620F00700854618B020B5AD
:10078000FFF78CFDBDE820404FF000064FF000075A
:100790004FF000084FF0000B21F00701AC46ACE829
:1007A000C009ACE8C009ACE8C009ACE8C0098D4696
:1007B00070470446AFF300802046FFF75AFD000063
:1007C00000487047CC9D002000BFFEE77047F0B5A1
:1007D0000A4600210023002400BF3DE0012505FA60
:1007E00001F3156805EA03049C4234D105684F0003
:1007F0000326BE40B543056015794E00B540066836
:10080000354305601579012D02D01579022D16D1D9
:1008100085684F000326BE40B543856055794E007C
:10082000B540866835438560456801268E40B543EE
:100830004560456896798E40B6B235434560C568D7
:100840004F000326BE40B543C560D5794E00B54084
:10085000C6683543C560491C1029BFD3F0BD00BF31
:10086000FEE700001CB50121022000F01BFA4FF446
:100870004070009001208DF8040000208DF80600E3
:1008800003208DF8050001208DF807006946054812
:10089000FFF79DFF0120044908600449C1F8A40244
:1008A0001CBD000000040240A08240420080404283
:1008B00070B504461548006820F4402013490860CC
:1008C0000846006840F48020086000201049086055
:1008D000002517E0E0090E49091D08606006040EB6
:1008E000022000F021FD01200A49C1F8A0020220E7
:1008F00000F01AFD002006490860022000F014FDF7
:10090000681CC5B2082DE5DB70BD00000004024084
:10091000A08240420080404210B50F48006820F499
:1009200040200D4908600846006840F480200860B7
:1009300001200A4908600A49C1F8A002042000F019
:10094000F3FC002005490860042000F0EDFC0020C5
:100950000349C1F8A00210BD00040240A482404235
:100960000080404210B50F48006820F440200D4937
:1009700008600846006840F48020086000200A49AA
:1009800008600A49C1F8A402042000F0CDFC01204F
:10099000054908600549C1F8A402042000F0C4FC20
:1009A00010BD000000040240A0824042008040428E
:1009B00010B500241348006820F440201149086055
:1009C00008460068086001200F49086000F0ACFC90
:1009D00001200E49C1F8A00200F0A6FC07E0601C4F
:1009E000C4B2FA2C03DDFFF7BDFF012010BD06489D
:1009F000803800680028F2D10349091F086000BF51
:100A0000F4E7000000040240A4824042008040421B
:100A100000BFFEE77047000070B5002100230F22E1
:100A2000C4781CB3174C246804F4E064C4F5E06493
:100A3000C4F30721C1F10404E3B20A4144789C40A5
:100A4000E1B28478144021430C07210E0E4C057846
:100A50006155047804F01F050124AC4005786D1140
:100A6000AD0005F1E025C5F8004109E0047804F087
:100A70001F050124AC40054D0678761145F8264047
:100A800070BD00000CED00E000E400E080E100E05B
:100A900002490143024A1160704700000000FA0554
:100AA0000CED00E0F0B5144600267F2801DC3F295C
:100AB00000DDF0BD0B46CF1701EB5777FF10C7F1F4
:100AC0000707FAB2CF1701EB5777FF10A1EBC70763
:100AD000FDB2C5F107070123BB40DEB24CB10A4BA2
:100AE00003EBC0039B5C3343074F07EBC007BB54CA
:100AF00008E0054B03EBC0039B5CB343024F07EBDD
:100B0000C007BB5400BFD4E7501900202DE9F05FA7
:100B100006460F4690469946DDF828A04FF0000B98
:100B20003D4611E034460BE05846411C1FFA81FB5C
:100B30001AF8002029462046FFF7B4FF601CC4B213
:100B40004445F1DD681CC5B24D45EBDD00F076F89B
:100B5000BDE8F09F10B5FFF785FE4FF4487000F038
:100B6000C7FB0021AE2000F08FF80021084600F0FE
:100B70008BF80021102000F087F80021402000F0C1
:100B800083F80021B02000F07FF80021812000F0E0
:100B90007BF80021FF2000F077F80021A12000F071
:100BA00073F80021A72000F06FF80021A82000F0C2
:100BB0006BF800213F2000F067F80021C02000F012
:100BC00063F80021D32000F05FF80021084600F010
:100BD0005BF80021D52000F057F80021802000F0BC
:100BE00053F80021D82000F04FF80021052000F034
:100BF0004BF80021D92000F047F80021F12000F047
:100C000043F80021DA2000F03FF80021122000F024
:100C10003BF80021DB2000F037F80021302000F005
:100C200033F800218D2000F02FF80021142000F06F
:100C30002BF80021AF2000F027F810BD70B500247C
:100C40001CE004F1B001C8B2002100F01DF8002141
:100C5000084600F019F80021102000F015F80025D2
:100C600008E0084901EBC501085D012100F00CF81E
:100C7000681CC5B2802DF4DB601CC4B2082CE0DB1C
:100C800070BD00005019002070B505460C461CB11F
:100C9000284600F00AFA02E0284600F0F0F970BD9C
:100CA0007047000029B1064A12680243044B1A60DB
:100CB00004E0034A12688243014B1A607047000047
:100CC0003038024029B1064A12680243044B1A60C8
:100CD00004E0034A12688243014B1A607047000027
:100CE00040380240704700000CB500200190009091
:100CF0003448006840F480303249086000BF314811
:100D0000006800F4003000900198401C01900098A9
:100D100018B90198B0F5A04FF1D12A48006800F445
:100D2000003010B10120009001E0002000900098F8
:100D3000012846D123484030006840F080502149C6
:100D4000403108602048006840F440401E49086077
:100D50001C48083000681B490831086008460068D4
:100D600040F4004008600846006840F4A050086065
:100D70001648091F0860081F006840F08070091FAE
:100D8000086000BF0F48006800F000700028F9D02C
:100D900040F205700E4908600A480830006820F0EB
:100DA00003000849083108600846006840F0020066
:100DB000086000BF03480830006800F00C000828F5
:100DC000F8D10CBD003802400070004008544007C4
:100DD000003C0240042808D14FF0E021096941F0AD
:100DE00004014FF0E022116107E04FF0E0210969B2
:100DF00021F004014FF0E0221161704770470000BC
:100E000010B51548006840F4700013490860134895
:100E1000006840F001001149086000200F490831C6
:100E200008600E4800680E4908400C4908600D48EB
:100E3000091D0860081F006820F48020091F086051
:100E4000002006490C310860FFF74EFF4FF00060AC
:100E500001498039086010BD88ED00E0003802408B
:100E6000FFFFF6FE1030002410B50648008800F0A1
:100E7000010010B101200BF0EFFA4FF6FE700149AE
:100E8000088010BD100400407FB505460C460121C6
:100E90000220FFF717FF0295ADF804400020ADF8DF
:100EA0000600ADF80C0001A90D4800F031F8012250
:100EB00011460B4800F022F80121094800F012F811
:100EC0001D208DF8000001208DF8010003208DF811
:100ED000020001208DF803006846FFF79DFD7FBDED
:100EE0000004004021B1028842F00102028004E0C7
:100EF00002884FF6FE731A40028070471AB1838948
:100F00000B43838102E083898B4383817047000018
:100F100000220288184B98420ED0184B98420BD0F2
:100F2000B0F1804F08D0164B984205D0154B98422F
:100F300002D0154B984204D14FF68F731A404B885C
:100F40001A43124B984207D0114B984204D04FF6E7
:100F5000FF431A400B891A4302804B68C3620B8817
:100F60000385054B984202D0044B984201D18B7AFD
:100F70000386012383827047000001400004014082
:100F80000004004000080040000C00400010004039
:100F90000014004010B540F225511D4800F03EF805
:100FA00010B31B4800F064F8C4B21A48008800F47B
:100FB0000040C8B91748008800F4804060B10A2C8E
:100FC00003D000201349088020E01248008840F434
:100FD00000401049088019E00D2C06D10D4800880A
:100FE00040F480400B49088010E00A480088C0F3B4
:100FF0000D0009490C5407480088401C0549088029
:1010000008460088C72801DD0020088010BD0000C8
:10101000001001404C190020049D002070B50246CC
:10102000002400230025002040F66A16B14200D1BA
:1010300000BFC1F3421501F01F03012606FA03F3B6
:10104000012D02D19689334006E0022D02D1168A85
:10105000334001E0968A33400C12012606FA04F46C
:101060001688344013B10CB1012000E0002070BD9F
:1010700001468888C0F30800704700BFFEE710B53E
:101080000446FFF749FC7820FFF712FCFFF790FCBD
:101090000020FFF70DFCFFF78BFC2046FFF708FC54
:1010A000FFF786FCFFF75EFC10BD10B50446FFF7A6
:1010B00033FC7820FFF7FCFBFFF77AFC4020FFF7BA
:1010C000F7FBFFF775FC2046FFF7F2FBFFF770FC1C
:1010D000FFF748FC10BD00BF7047000010B58AB094
:1010E000044694F82000C0F3400020B994F8200092
:1010F00000F0010070B194F82000C0F34000F0B996
:1011000094F8200000F00100C8B194F82000C0F36A
:101110008000A0B12422214601A8FFF701FA214650
:10112000194807F0B6FC204607F066FD0120174974
:101130000870049810B101A8049988471FE0E08B5B
:10114000404200B2608394F8200000F00100B0B18A
:1011500094F82010C1F3800119B9A18B494209B25A
:1011600061831034217C8908C943227C61F38202A7
:1011700022742068616821606060103C00BF0348F1
:1011800000780AB010BD00003C220020D0180020DA
:101190002DE9F04107462F4807F094FB044608E08C
:1011A000206A20F00800206221462A4807F08FFBC1
:1011B0000446002CF4D1284800680BF02FF90646AD
:1011C000244807F07FFB04463CE0002023490870D8
:1011D00094F82000C0F3C00038BB206A20F008005B
:1011E00008302062608B304400B26083B4F91A008A
:1011F00000281ADBB4F91A00218B884202DD208B0B
:1012000000B260832046A16888470546606818B12F
:1012100029B2D4E900029047B4F91A00218B884220
:1012200002DB2046FFF75AFF00BF0C48007820B1D0
:10123000084807F047FB044604E02146054807F04C
:1012400046FB0446002CC0D10BF0F6F802490860BA
:10125000BDE8F0813C220020CC180020D0180020EE
:1012600030B50346022B04D10E48405C50430012B7
:1012700030BD032B04D10C48405C50430012F7E70B
:10128000042B04D10948405C50430012F0E7C1EB45
:10129000C105581EB5FBF0F0C4B20548005D5043CF
:1012A000000AE5E701D5000803D5000806D50008C7
:1012B0000AD5000810B504466FF00400FFF78AFD58
:1012C000E11704EB5171C1F3C701074A11701046D1
:1012D000007800EB4001C1EBC0104FF6FF7101EA4E
:1012E000C0000249088010BD4219002044190020A6
:1012F00070B504464FF4077094FBF0F0C6B24FF49B
:10130000077094FBF0F100FB114085B205E04FF44B
:10131000077000F02FF8701EC6B2002EF7D115B17D
:10132000284600F027F870BD0146114A12784A435A
:101330004FF0E0235A6100229A611A46126942F086
:1013400001021A6100BF4FF0E022106900F00102B3
:101350001AB100F48032002AF5D04FF0E022126971
:1013600022F001024FF0E0231A6100229A617047D7
:10137000421900200146114A12884A434FF0E023E7
:101380005A6100229A611A46126942F001021A61FA
:1013900000BF4FF0E022106900F001021AB100F422
:1013A0008032002AF5D04FF0E022126922F00102CB
:1013B0004FF0E0231A6100229A617047441900201F
:1013C000F8B506460C4615460095A3792279A17812
:1013D0002078FFF79BFB304601F01AFCF8BD70B592
:1013E00005460C46284608F0B5FA064634842846D9
:1013F00008F044FB70BD70B50546286808F0AAFAED
:1014000004462820005D20F0020128200155005DDF
:1014100020F0040128200155005D20F01001282053
:101420000155005D20F0080128200155286808F0CA
:1014300025FB70BD70B504460D460026207800F0EF
:10144000010068B92068B5EB500F09D8294620463D
:1014500000F020F8206820F00100401C2060261DCC
:10146000304670BD10B50146002011B9084A106819
:101470000CE00A1D0B6802EB5300031D044C2468AA
:1014800004F58044A34200D3002000BF10BD00003B
:10149000F418002030B501F0030212B121F003016D
:1014A000091D0A1D0368B2EB530F01D102685108F0
:1014B0000268B1EB520F0ED0031D5A18146824F0C5
:1014C000010414600468C1EB5404241F156864F31C
:1014D0005F05156000BF026861F35F02026030BD06
:1014E0002DE9F84F04468846914694F8580000F0DC
:1014F000010008B1BDE8F88FE56800264FF0010A49
:101500004FF0010B00BF8DB994F85800C0F30010E4
:1015100000B956B9BBF1000F00D1EBE72046C04738
:1015200005464FF0000AD34600E0E3E716B92E4621
:1015300006B9DFE7BAF1000F06D029462046C847B2
:101540000546B54200D1D5E74FF0010A05B9DAE703
:10155000286808F00DFA00B900E0D4E700BFE068A1
:10156000A84200D1C6E7E068A8B1E1680868002297
:101570001021C3699847E168002208680D2105F031
:10158000E1F800900098012800D0B3E7E16808680E
:1015900008F074FA00BFE560E168086800220F21D6
:1015A000C3699847E168002208680C2105F0CAF871
:1015B0000746012F00D09DE7E16808680BF009FE9F
:1015C000E168086808F05AFAA06910B12046A169DC
:1015D000884700BF8EE7000000BF054A128802F06E
:1015E0004002002AF9D0C2B2014B9A807047000035
:1015F000001001402DE9FC4780460E4616B9002038
:10160000BDE8FC87D8F80C406069B04201D1A06900
:10161000F6E70025AEE005EB8501A06850F8210053
:10162000301A019005EB8501A06800EB81008088ED
:101630000199884200D29BE0002705EB8501A06854
:1016400000EB8100807C00F0030040B905EB8501D0
:10165000A06800EB8100C0880199471884E005EB81
:101660008501A06800EB8100807C00F00300012868
:101670000FD105EB8502A16801EB8201C86805EB7B
:101680008502A16801EB8201C988019A825C8F18EA
:101690006AE005EB8501A06800EB8100807C00F02A
:1016A0000300022827D13948009005EB8503A06884
:1016B00000EB8300028A05EB8503A06800EB830042
:1016C0000223816801A80BF0D7F98146B9F1000F18
:1016D00010D005EB8502A16801EB82018968A9EBB6
:1016E0000100400805EB8502A16801EB8201C98871
:1016F0000F1800BF38E005EB8501A06800EB810002
:10170000807C00F0030003282ED12048009005EBD8
:101710008503A06800EB8300028A05EB8503A068BF
:1017200000EB83000223816801A80BF0A5F9814634
:10173000B9F1000F17D005EB8503A26802EB830215
:101740009268A9EB0200400805EB8503A26802EB52
:101750008302D16805EB8503A26802EB8302D2887D
:101760000B5CD71800BF00BF6661A761384647E72A
:10177000681C85B2608AC0F30900A8423FF74BAFEE
:1017800066610020A06100BF3AE70000B5D4000800
:101790002DE9FC5F80460D461646D8F80C704FF0D8
:1017A000000A788AC0F34030002841D1FC68A06864
:1017B000C0F30160D8B9D4F8009005EB062080B2E0
:1017C000019027480090A06820F07F4202234946FC
:1017D00001A80BF051F98346BBF1000F06D0ABEB2B
:1017E00009004008616811F900A000BF1FE0A0686F
:1017F000C0F3016001281AD1D4F8009005EB06204F
:10180000019018480090A06820F07F4204234946C8
:1018100001A80BF031F98346BBF1000F06D0ABEB0A
:1018200009000009616811F900A000BF00BF13E0C2
:10183000F8684368595D43689A5D00290BDD002A0A
:1018400009DD531E4C1E90F80DC004FB0C330468D8
:10185000E35C4FFA83FA00BF5046BDE8FC9F0000EE
:10186000D9180008B918000801460020302905DB06
:10187000392903DCA1F13002D0B21CE0612902DB7E
:10188000A1F12002D1B2A1F14102062A10D2DFE873
:1018900002F0030507090B0D0A200BE00B2009E0FD
:1018A0000C2007E00D2005E00E2003E00F2001E0F2
:1018B000002000BF00BF704730B5024614460B46FB
:1018C00020881D88A84203D020881D88401B30BD79
:1018D00060885D88401BFAE730B5024614460B4627
:1018E00020781D78A84203D020781D78401B30BD99
:1018F00060785D78401BFAE710B52421064807F0B0
:1019000000F80AF099FD05490860002303221E2112
:1019100003480AF077FB10BD3C220020CC180020C1
:101920009111000870B50546686818B1D5E9000145
:1019300000F044F8124806F0EFFF04463CB911A34A
:101940005C2214A1032007F0E9F800BFFEE704B908
:1019500070BD95F8200020F0040085F820002422B6
:1019600029462046FEF7DCFD606820B1238A19B2C3
:10197000D4E90002904701200F49087000BFE7E753
:101980003C2200204F7574206F66206D656D6F726C
:10199000792100002E2E5C4C56474C5F4755495C20
:1019A0007372635C6C765F6D6973635C6C765F61A8
:1019B0006E696D2E63000000D01800202DE9F04103
:1019C00007460D464FF00008104806F07BFF04461E
:1019D00017E021460D4806F07AFF06462068B84217
:1019E0000ED16068A84200D055B92146074807F0DB
:1019F00050F8204607F000F901200549087080469C
:101A00003446002CE5D14046BDE8F0813C22002060
:101A1000D018002010B50146088BB1F91A40A04239
:101A200002D14FF4806205E0B1F91A0080020C8BFC
:101A300090FBF4F2D1E90440001B00FB02F39B127F
:101A40000869034418B210BD30B504460B46981A15
:101A5000002801DD981A00E0D01A05464FF47A708C
:101A6000684390FBF4F1B1F5803F01D34FF6FF716D
:101A700001B9491C88B230BD0A6802604A684260F8
:101A800070470A6802604A68426070470A680260EC
:101A90004A68426070470A6802604A68426070475C
:101AA0000A6802604A68426070470146C8884A88EE
:101AB000801A401C00B270470146C8884A88801AC4
:101AC000401C00B270470146C8884A88801A401CF2
:101AD00000B270470146C8884A88801A401C00B28C
:101AE000704710B50146B1F90420B1F90030D21A9F
:101AF000521CB1F90630B1F902401B1B5B1C02FB02
:101B000003F010BD014688880A88801A401C00B284
:101B10007047014688880A88801A401C00B27047C6
:101B2000014688880A88801A401C00B27047014626
:101B300088880A88801A401C00B27047014688884D
:101B40000A88801A401C00B27047014688880A88BB
:101B5000801A401C00B2704730B50346B1F900400E
:101B6000B2F90050AC4202DDB1F9004001E0B2F937
:101B700000401C80B1F90240B2F90250AC4202DDD3
:101B8000B1F9024001E0B2F902405C80B1F90440D1
:101B9000B2F90450AC4202DAB1F9044001E0B2F902
:101BA00004409C80B1F90640B2F90650AC4202DA1A
:101BB000B1F9064001E0B2F90640DC800120B3F93A
:101BC0000040B3F90450AC4205DCB3F90240B3F96C
:101BD0000650AC4200DD002030BD10B502460020AA
:101BE000B2F90030B1F90040A34212DBB2F9023081
:101BF000B1F90240A3420CDBB2F90430B1F9044060
:101C0000A34206DCB2F90630B1F90640A34200DC7B
:101C1000012010BD0246B2F90000B1F9043098422B
:101C200013DCB2F90400B1F9003098420DDBB2F9CF
:101C30000200B1F90630984207DCB2F90600B1F9AA
:101C40000230984201DB012070470020FCE710B50C
:101C5000B1F90030B2F90040A34202DAB1F9003024
:101C600001E0B2F900300380B1F90230B2F902406C
:101C7000A34202DAB1F9023001E0B2F90230438046
:101C8000B1F90430B2F90440A34202DDB1F90430E5
:101C900001E0B2F904308380B1F90630B2F90640B0
:101CA000A34202DDB1F9063001E0B2F90630C3808B
:101CB00010BD10B5029C018042808380C48010BD9D
:101CC00042880A44521E12B2C2807047F0B50346E1
:101CD0000C46154600BF98881988401A401C00B26F
:101CE000064600BFD8885988401A401C00B20746F3
:101CF0001C805D803146184600F005F839461846CC
:101D0000FFF7DEFFF0BD02880A44521E12B2828045
:101D100070470146B1F90200B1F90020904201DCA0
:101D2000012070470020FCE7028000234380C2F1BD
:101D300001031BB20B8070474288521C12B24280D2
:101D4000B1F90020002A07DC0B8842885200521C9F
:101D50001A4412B20A800CE00288521E12B20280AB
:101D600042880388D21A5200521C0B881A4412B2BD
:101D70000A80704718B50346D01140EAE11040EAE6
:101D8000E310C0B200909DF80040204618BD07B592
:101D900081B07F2A04DD9DF8040000F0010003E01B
:101DA0009DF8080000F00100C0B200909DF80010FE
:101DB000084604B000BD07B581B07F2A04DD9DF858
:101DC000040000F0010003E09DF8080000F00100AD
:101DD000C0B200909DF80010084604B000BD00009D
:101DE0002DE9F04180460E463146404607F028FB7B
:101DF00007463FB93CA346223FA1032006F08EFED2
:101E000000BFFEE717B90020BDE8F0814348006835
:101E100020B9384607F0D6FD40490860022138460F
:101E200007F0FBFA384607F095FD04460CB9002090
:101E3000EAE73CB92CA34F222FA1032006F06EFE47
:101E400000BFFEE7207820F030002070207820F0DE
:101E5000C0002070607820F003006070607820F08F
:101E60000C006070207820F00F0020702C4938465C
:101E700007F0DFFF96B9B8F1000F33D00AF0C2FACD
:101E800005462DB100213846EA6800F098FD04E0CF
:101E9000244A0021384600F092FD23E0304607F046
:101EA00059FD054628780109207861F30510207056
:101EB00028788109207861F387102070687861782C
:101EC00060F30101617068788108607861F38300D4
:101ED00060702878217860F303012170384607F09C
:101EE00095FE00BF38468FE74F7574206F66206DF2
:101EF000656D6F72792100002E2E5C4C56474C5F49
:101F00004755495C7372635C6C765F6F626A785C9C
:101F10006C765F636F6E742E6300000030190020D2
:101F2000D12900085C20002070B50446204607F047
:101F300011FD05462878C0F3011070BD70B5044648
:101F4000204607F007FD0546687800F0030070BDE5
:101F500070B50446204607F0FDFC0546287800F0E1
:101F60000F0070BD2DE9F84F0446204607F02EFD06
:101F700007464FF000090026201D06F0A3FC054689
:101F800019E0284607F0F4FC20B90421284607F0A0
:101F9000E9FD00B10AE0284607F0E2FC0146B88BF3
:101FA0000844304406B209F1010900BF2946201D4A
:101FB00006F08DFC0546002DE3D1B9F1000F01D1EB
:101FC000BDE8F88FB88B301A06B20121204607F021
:101FD0002AFF304606EBD071491049420FFA81F8CA
:101FE000201D06F089FC05462AE0284607F0C0FCC3
:101FF00020B90421284607F0B5FD00B11BE02846B2
:1020000007F0AEFC824600EBDA7008EB60000FFAD6
:1020100080FB00231A4621462846CDF800B006F082
:10202000A7FE284607F09CFC0146B88B08444044B4
:102030000FFA80F800BF2946201D06F053FC054624
:10204000002DD2D10121204607F0F1F900BFB7E7FA
:102050002DE9F84F06463046FFF77AFF82463046B4
:1020600007F0B4FC8046BAF1020F06D0BAF1030FB4
:1020700007D0BAF1040F0DD106E0B8F918500124C9
:102080000BE00025022408E0B8F81A00404205B22F
:10209000032402E00025012400BF00BF01213046D7
:1020A00007F0C1FEB8F91490301D06F025FC074674
:1020B00021E0384607F05CFC20B90421384607F0DF
:1020C00051FD00B112E02B46224631463846CDF88C
:1020D000009006F04DFE384607F042FC0146B8F885
:1020E0001C00084448440FFA80F900BF3946301DEF
:1020F00006F0F8FB0746002FDBD10121304607F040
:1021000096F9BDE8F88F2DE9F04F85B0824650462C
:1021100007F05CFC0446504607F090FC8046002126
:10212000504607F0A0FB009007F088FC0546002110
:10213000504607F098FB009007F012FC0490B4F9A9
:102140001800A8EB0001B4F91A00091AB4F91C0030
:10215000284491FBF0F086B2012E0FDDB4F918008F
:10216000A8EB0001B4F91A00081A284406FB15016F
:10217000701E91FBF0F00FFA80F90AE0414608EB7F
:10218000D1725210284605EBD073A2EB63020FFA0E
:1021900082F9A18B0498084400B2039001215046B3
:1021A00007F041FEB4F918B0B4F914000290002011
:1021B00001900AF1040006F09FFB074631E0384623
:1021C00007F0D6FB20B90421384607F0CBFC00B15C
:1021D00021E0012E09DD59463846029A07F0D2FD6A
:1021E0000BEB09000FFA80FB04E049463846029ADF
:1021F00007F0C8FD0198401C80B201900198B042E0
:1022000008DB00200190B4F918B0DDE902010844B0
:1022100000B2029000BF39460AF1040006F062FBEA
:102220000746002FCBD10121504607F000F905B039
:10223000BDE8F08F2DE9F04F89B00546284607F03C
:10224000C5FB8046284607F0F9FB0790B8F91490C3
:10225000281D06F051FB064616B909B0BDE8F08FFF
:102260000121284607F0DFFD3446FBE04FF0000A6D
:10227000B8F81810B8F81A00084400B20690002701
:1022800000BF204607F074FB88BB0421204607F0FE
:1022900069FC60BB204607F0D1FB06990144079812
:1022A000814207DD2CB127B12146281D06F00FFB26
:1022B000044626E0204607F0C1FB0146B8F81C00A2
:1022C00001440698084400B20690204607F048FBF7
:1022D000504501DA504602E0204607F041FB8246B5
:1022E0007F1C0821204607F03DFC00B109E0FFE714
:1022F0002146281D06F0F6FA044607B92646002CAA
:10230000BFD100BF77B9002C0BD000230222294691
:102310002046CDF8009006F02BFD204607F020FB6C
:10232000824690E0012F08D1002302222946304640
:10233000CDF8009006F01CFD85E0022F3ED10596F9
:102340003146281D06F0CEFA0490059807F076FB7A
:102350008346049807F072FB584400B20690DDE90A
:102360000610401A032190FBF1F000B2039005988B
:1023700007F0F6FAAAEB000B0BEBDB7009EB600041
:1023800000B20290009001222946039B059806F0B6
:10239000EFFC049807F0E4FAAAEB000B0BEBDB7000
:1023A00009EB600000B2029000900398404203B233
:1023B00003222946049806F0DBFC44E0B8F91C101F
:1023C000069801FB170000B20690DDE90610411ADD
:1023D000781EB1FBF0F000B20590B8F918B008967D
:1023E0002CE0089807F0C4FAF8B90421089807F01F
:1023F000B9FBD0B9089807F0B3FAAAEB0000049033
:1024000000EBD07009EB600000B203905B46012244
:1024100029460090089806F0ABFC089807F00EFBE0
:102420000599084458440FFA80FB0898A04200D14F
:1024300007E0281D089906F055FA0890089800282A
:10244000CFD100BF00BF04B90FE0B8F81C00504462
:1024500048440FFA80F92146281D06F043FA064643
:10246000344600BF002E7FF401AF00BF0121284693
:1024700006F0DDFF00BFF0E62DE9F84F06463046D6
:10248000FFF766FD8246304607F0A0FA8046BAF1B3
:10249000050F06D0BAF1060F07D0BAF1070F0DD11C
:1024A00006E0B8F9145001240BE00025072408E0E9
:1024B000B8F81600404205B2042402E000250124C9
:1024C00000BF00BF0121304607F0ADFCB8F91890FD
:1024D000301D06F011FA074620E0384607F048FAAA
:1024E00020B90421384607F03DFB00B111E04B460E
:1024F000224631463846009506F03AFC384607F049
:102500009DFA0146B8F81C00084448440FFA80F9C7
:1025100000BF3946301D06F0E5F90746002FDCD133
:102520000121304606F083FFBDE8F88F2DE9F04722
:1025300088B00546284607F00DFA06463078C0F305
:10254000011068B93078800950B9707800F0030044
:1025500030B97078C0F3810010B908B0BDE8F087D9
:10256000284607F033FA8046284607F01BFA8246D1
:10257000504607F02BFA81460AF1100102A8FFF736
:102580008AFABDF80810B9F81800084400B2ADF88E
:102590000800BDF80C10B9F81A00081A00B2ADF81E
:1025A0000C00BDF80A10B9F81400084400B2ADF8E8
:1025B0000A00BDF80E10B9F81600081A00B2ADF8FE
:1025C0000E0004A9284607F05FF906A9284607F07F
:1025D0005BF9281D06F01CFA80F00107002F71D06E
:1025E00047F61840ADF81800ADF81A0048F2E83088
:1025F000ADF81C00ADF81E00281D06F063F9044676
:102600003EE0204607F0B4F900B134E0BDF918000F
:10261000B4F91010884202DABDF9180001E0B4F9EB
:102620001000ADF81800BDF91A10B4F9120081427B
:1026300002DABDF91A0001E0B4F91200ADF81A008F
:10264000BDF91C10B4F91400814202DDBDF91C0073
:1026500001E0B4F91400ADF81C00BDF91E10B4F986
:102660001600814202DDBDF91E0001E0B4F916003A
:10267000ADF81E0000BF2146281D06F028F90446CB
:10268000002CBED1BDF81810B8F81800081A00B216
:10269000ADF81800BDF81C10B8F81A00084400B2D4
:1026A000ADF81C00BDF81A10B8F81400081A00B2F2
:1026B000ADF81A00BDF81E10B8F81600084400B2B4
:1026C000ADF81E0004A96846FFF7E5F93078C0F3BD
:1026D0000110012804D0022807D003281CD109E0EA
:1026E000BDF81800ADF8000017E0BDF80800ADF81F
:1026F000000012E05FB1BDF91800BDF90810884272
:1027000002DABDF9180004E0BDF9080001E0BDF9E6
:102710000800ADF8000000E000BF00BF307880097D
:10272000012804D0022807D003281CD109E0BDF8F5
:102730001C00ADF8040017E0BDF80C00ADF8040073
:1027400012E05FB1BDF91C00BDF90C10884202DD3A
:10275000BDF91C0004E0BDF90C0001E0BDF90C005E
:10276000ADF8040000E000BF00BF707800F0030087
:10277000012804D0022807D003281CD109E0BDF8A5
:102780001A00ADF8020017E0BDF80A00ADF802002B
:1027900012E05FB1BDF91A00BDF90A10884202DAF1
:1027A000BDF91A0004E0BDF90A0001E0BDF90A0014
:1027B000ADF8020000E000BF00BF7078C0F38100F8
:1027C000012804D0022807D003281CD109E0BDF855
:1027D0001E00ADF8060017E0BDF80E00ADF80600CB
:1027E00012E05FB1BDF91E00BDF90E10884202DD96
:1027F000BDF91E0004E0BDF90E0001E0BDF90E00B8
:10280000ADF8060000E000BF00BFB5F91000BDF94B
:102810000010884211D1B5F91200BDF902108842AA
:102820000BD1B5F91400BDF90410884205D1B5F9F2
:102830001600BDF9061088422DD0284607F01EF973
:10284000694605F11000FFF726F9284607F016F94A
:1028500004AA02212846EB6998472A4601215046DE
:10286000DAF81C309847284606F0F7FF10B12846E2
:1028700007F0A0F9281D06F025F8044609E000221B
:1028800003212046E36998472146281D06F01FF8DA
:102890000446002CF3D100BF5FE670B5054628461C
:1028A000FFF756FB04460021284606F0DCFF00B97E
:1028B00070BD04B9FCE7012C03D12846FFF752FB99
:1028C0001EE0022C03D0032C01D0042C03D1284697
:1028D000FFF7BEFB14E0052C03D0062C01D0072C1B
:1028E00003D12846FFF7C8FD0AE0082C03D128468B
:1028F000FFF7A0FC04E0092C02D12846FFF703FCF7
:1029000000BFD5E72DE9F04780460D4616461F4625
:10291000DDF82090404607F0B1F8404607F01AF87D
:1029200004462078C0F30110A8420FD12078B6EBFE
:10293000901F0BD1607800F00300B84206D1607898
:10294000C0F38100484501D1BDE8F087207865F3E8
:1029500005102070207866F387102070607867F388
:1029600001006070607869F38300607000220121CB
:102970004046D8F81C30984700BFE5E770B50646DA
:102980000C46304606F0E6FF0546287800F00F00BA
:10299000A04200D170BD287864F3030028700022A3
:1029A00001213046F369984700BFF3E770B505464B
:1029B0000E4614462146284607F08CFA70BD70B5C5
:1029C00005460E4614462146284607F083FA70BD98
:1029D0002DE9F04107460C4615462A462146384661
:1029E000284B1B6898470646012E02D03046BDE8AA
:1029F000F081042C06D13846FFF74FFF3846FFF729
:102A000095FD3DE0012C06D13846FFF746FF3846DC
:102A1000FFF78CFD34E0022C1AD1384607F00EF88F
:102A2000A9882A88891A491C09B2884209D13846DE
:102A300006F096FFE9886A88891A491C09B288421B
:102A40001ED03846FFF729FF3846FFF76FFD17E025
:102A5000032C03D13846FFF769FD11E0062C0FD196
:102A60002946002005E051F8202002B903E0421C6D
:102A7000D0B20728F7DB00BF03A241F8202000BF37
:102A80003046B4E7301900206C765F636F6E7400D7
:102A90002DE9F04104460F4615461E461C212046EE
:102AA000FDF79AFD276065602068A060E660BDE8DC
:102AB000F081000038B5044620212046FDF78CFD4A
:102AC0000020E06080202080402060800020606046
:102AD000A06820F00200A0600648006800909DF801
:102AE00000002077A06820F00100401CA0600020BA
:102AF000606138BDC850010870B50546324805F020
:102B00000BFF044654B93CB930A3792233A103200A
:102B100006F004F800BFFEE7002070BD2022294621
:102B20002046FDF7FDFC202104F59E70FDF754FDC5
:102B30004FF4807104F13C00FDF72CFD442104F1B9
:102B4000240005F0DEFE2F48006808B92D48046017
:102B50002C48066804600020C4F85C010021084687
:102B600006F06EFC20630021084606F069FC6063F5
:102B70000021084606F064FCA0632349606B07F05F
:102B8000A9F92149A06B07F0A5F9206B06F076FFA3
:102B90001C480660234603221E211C4809F032FA15
:102BA0002062206A38B909A396220CA1032005F0FF
:102BB000B5FF00BFFEE7206A08B90020ADE7206A34
:102BC00009F0E0FB2046A8E70C2200204F75742096
:102BD0006F66206D656D6F72792100002E2E5C4C42
:102BE00056474C5F4755495C7372635C6C765F680F
:102BF000616C5C6C765F68616C5F646973702E6396
:102C000000000000C0180020301F00205D2E0008CA
:102C10004168896921F0010142689161704700B5FE
:102C2000014611B900F00CF8014609B9002000BDB9
:102C3000087A00F00100FAE7014648687047000092
:102C40000148006870470000C018002000B5014628
:102C500011B9FFF7F5FF014609B9802000BD087AD8
:102C6000C0F3400010B9B1F90000F7E7B1F9020074
:102C7000F4E7000010B5044614B9FFF7E1FF04467D
:102C80003CB905A35C2213A1022005F047FF0020F8
:102C900010BDA06BFCE700006C765F6C617965721B
:102CA0005F7379733A206E6F20646973706C617919
:102CB000207265676973746572656420746F20673C
:102CC00065742069747320746F70206C617965720B
:102CD000000000002E2E5C4C56474C5F4755495C67
:102CE0007372635C6C765F636F72655C6C765F6455
:102CF0006973702E6300000010B5044614B9FFF725
:102D00009FFF04463CB905A34B2213A1022005F006
:102D100005FF002010BD606BFCE700006C765F6C67
:102D2000617965725F746F703A206E6F20646973A9
:102D3000706C61792072656769737465726564206F
:102D4000746F206765742069747320746F70206CD1
:102D500061796572000000002E2E5C4C56474C5F76
:102D60004755495C7372635C6C765F636F72655C38
:102D70006C765F646973702E6300000010B50446C2
:102D800014B9FFF75DFF04463CB905A32E2212A13A
:102D9000022005F0C3FE002010BD206BFCE7000000
:102DA0006C765F7363725F6163743A206E6F206448
:102DB0006973706C61792072656769737465726597
:102DC0006420746F206765742069747320746F7059
:102DD000206C6179657200002E2E5C4C56474C5F6A
:102DE0004755495C7372635C6C765F636F72655CB8
:102DF0006C765F646973702E6300000000B5014655
:102E000011B9FFF71DFF014609B9402000BD087A3E
:102E1000C0F3400010B9B1F90200F7E7B1F90000C2
:102E2000F4E701464868006820B14868406808B186
:102E3000012070470020FCE700B502461088518849
:102E400010FB01F31046FFF7ECFF28B15068C06893
:102E5000984201D1012000BD0020FCE72DE9FC5F74
:102E6000804609F0E9FA01905149D8F80C00086051
:102E700008F040FC08F0C6FB4D480068B0F85C0163
:102E8000C0F3090000287DD049480068FFF7D4FF4F
:102E9000002862D046480068FFF7CEFE054608F0DD
:102EA0004DFD00BFA86900F001000028FAD1D5F857
:102EB00008902968A868884201D1686800E02868FD
:102EC00000903B480068FFF7C1FE064600243BE047
:102ED0003748006800F59E70005D98BB3448006874
:102EE0003C3030F93410324800683C3000EBC4000C
:102EF000B0F9020006FB00172D4909683C3101EBCF
:102F0000C400FEF7FFFD8346294800683C3000EB13
:102F1000C400B0F902A00BE0009AD11909EB070038
:102F20005A46FDF7B8FA37440AF101000FFA80FA61
:102F30001F4800683C3000EBC400B0F90600504563
:102F4000EADA00BF601C84B219480068B0F85C017E
:102F5000C0F30900A042BBDC00BF4FF480711448ED
:102F600000683C30FDF716FB20211148006800F591
:102F70009E70FDF731FB00200D490968C1F85C0126
:102F80000B4800E00FE00068806960B1019809F02B
:102F900045FA0446064800688369064821460268E7
:102FA00003480068984700F091F8BDE8FC9F0000D6
:102FB000980000209400002010B503460BB90020B3
:102FC00010BD082B07DA581E074C54F82000405C4F
:102FD0005043000AF4E7012000EB410050435C003D
:102FE00090FBF4F0C0B2EBE7A00000202DE9F04127
:102FF00004460D46164608F037FB8046FFF70FFEE5
:103000000746B4EB650F04DBC5F34F040CB1601E3B
:1030100084B2B4EB660F04DBC6F34F040CB1601E40
:1030200084B2002C01DDE01B84B22046BDE8F081B3
:103030002DE9FF4F85B0804689461D46102D02DAE6
:1030400009B0BDE8F08FFB2D00DDFF254A46414663
:1030500003A8FEF781FD074607B9F1E708F004FB76
:1030600083465846FFF7E8FD0446BDF80C00218A68
:10307000401A00B2ADF80400BDF80E10608A081ABC
:1030800000B2ADF80600BDF81000218A401A00B267
:10309000ADF80800BDF81210608A081A00B2ADF849
:1030A0000A00D4F808A004F11000FEF732FD06462D
:1030B000BDF8060016FB00AA0095A06801AA3146DB
:1030C000079B0AF014F900BFBAE7000010B50648E4
:1030D000006840B10448006805F08EFD00200249F8
:1030E00008600249086010BDDC1800209C00002028
:1030F00010B5044619480068844202D81848006890
:1031000010BD164804601648006890B9204605F0C6
:1031100027FD134908600846006838B911A33F220B
:1031200014A1032005F0FAFC00BFFEE70C4800687C
:10313000E6E721460A48006805F0BCFD084908603A
:103140000846006838B907A344220AA1032005F005
:10315000E5FC00BFFEE702480068D1E79C000020C4
:10316000DC1800204F7574206F66206D656D6F72DE
:10317000792100002E2E5C4C56474C5F4755495C28
:103180007372635C6C765F647261775C6C765F64AB
:103190007261772E630000002DE9FF4FA7B08246D1
:1031A0001446DDF8E480DDE93476606A269006F0A6
:1031B000020020B95046FEF7B3FC259010E047F618
:1031C0001841B4F92A008DE84300B4F92830394693
:1031D00009A8626A09F0DEF9BDF92400259000BF54
:1031E00000BF2698007A618D084400B22490002028
:1031F0002390BAF80000ADF88800BAF80200ADF8E4
:103200008A00002021902090369870B13698B0F94D
:10321000000021903698B0F902002090BDF88A1085
:103220002098084400B2ADF88A000025681E1F905F
:10323000B8F1000F20D02098F0B9BAF90210D8F8F0
:103240000800401A002805DDBAF90210D8F8080075
:10325000401A04E0BAF90200D8F80810401A24997C
:103260004900C1F58061884203DD4FF0FF30C8F8A6
:103270000000D8F800001F90B8F1000F0BD01F9885
:10328000002808DB1F9DBDF88A00B8F80410084428
:1032900000B2ADF88A000096B4F928207819DDE96B
:1032A000253109F0E7F800EB05092EE04D460096C0
:1032B000B4F928207819DDE9253109F0DBF88144DB
:1032C000BDF88A102498084400B2ADF88A00B8F11D
:1032D000000F15D0BDF98A0010F5806F10DBD8F80B
:1032E000000000280CDAC8F80050BDF98A00BAF9CD
:1032F0000210401AC8F80400BAF90200C8F8080021
:10330000785D10B92BB0BDE8F08FBDF98A10249814
:1033100001442898B0F902008142C7DB06F004009E
:10332000D0B10096B4F92830A9EB050291B2781912
:10333000269A09F095F923905046FEF7F1FB239960
:10334000A0EB010B0BEBDB70BDF8881001EB60000C
:1033500000B2ADF8880018E006F00800A8B10096A9
:10336000B4F92830A9EB050291B27819269A09F030
:1033700077F923905046FEF7D3FB2399401ABDF806
:103380008810084400B2ADF888002A98FF2802D1BE
:103390002C20005D04E02C20005D2A994843001297
:1033A0001E9000201D901B90A7490AA808F04CFB16
:1033B0002120005D8DF82A000AA89DF82A10C1700E
:1033C0003BE1369830B1BDF888102198084400B22E
:1033D000ADF8880000201D901C95D5E01CA938464A
:1033E0009A4A1268904709901C9978180021974AC8
:1033F00012689047089006F00100002867D094A05A
:1034000001780998814213D11D9828B91C9880B27F
:103410001B9001201D90B7E01D98012802D10020CB
:103420001D9005E01D98022802D100201D90ABE000
:103430001D9801284BD10998202847D1DDE91B01AF
:10344000081A07283BD11B983844016805918088E9
:10345000ADF8180000208DF81A009DF81500FEF751
:1034600003FA83469DF81400FEF7FEF90BEB0010FB
:1034700004909DF81700FEF7F7F983469DF81600B3
:10348000FEF7F2F90BEB001003909DF81900FEF720
:10349000EBF983469DF81800FEF7E6F90BEB0010F8
:1034A0000290DDE902210498D31143EAE11343EAD3
:1034B000E01301939DF804C063461A9304E094F866
:1034C000200000F001001A9002201D905CE0206AAC
:1034D00007901D98022801D11A980790DDE908216C
:1034E000269803F002FA00B219904FF6FF71379850
:1034F000884230D0389888422DD03846554A1C9999
:103500001268904783463798834523DD3898834572
:1035100020DCBDF88800ADF81400BDF88A00ADF8D5
:103520001600BDF8881019980144208D0844401EEB
:1035300000B2ADF81800BDF88A1024980844401E67
:1035400000B2ADF81A000AAA05A81E9B289900F03F
:10355000D3FA00BF00BF1E9801909DF81C008DF8A3
:10356000000022A8099B269A289900F075F819985E
:10357000002808DDBDF88810228D199810440844F1
:1035800000B2ADF8880000BF1C984845FFF426AF94
:103590004D460096B4F928207819DDE9253108F068
:1035A00069FF8144BAF80000ADF8880006F0040015
:1035B000D0B10096B4F92830A9EB050291B2781980
:1035C000269A09F04DF823905046FEF7A9FA239960
:1035D000A0EB010B0BEBDB70BDF8881001EB60007A
:1035E00000B2ADF8880018E006F00800A8B1009617
:1035F000B4F92830A9EB050291B27819269A09F09E
:103600002FF823905046FEF78BFA2399401ABDF805
:103610008810084400B2ADF88800BDF88A102498DC
:10362000084400B2ADF88A00BDF98A102898B0F9B4
:103630000600814200DD65E600BF785D00287FF46A
:10364000C0AE00BF5EE60000202000201C19002054
:1036500023000000281900202DE9FF4F9DB00C46E3
:10366000D7A000681C90D7A000681B90D6A3D3E910
:103670000020D3E9021318AD0BC517922B98102820
:1036800002DA21B0BDE8F08F2B98FB2801DDFF2086
:103690002B901F9830B9D0A3F722D8A1022005F0B3
:1036A0003DFAEEE7002315A9DDE91F0203F0CCF88F
:1036B0001490149800B9E4E71D9800889DF95810FB
:1036C000084405B21F98017A407A091A1D9840886B
:1036D00008449DF85710401A9DF95910401A06B237
:1036E0009DF85A00012806D0022809D004280CD0E1
:1036F000082814D10EE00DF1700B802013900FE01C
:103700000DF16C0BC02013900AE00DF15C0BF02062
:10371000139005E04FF0000BFF20139000E0B0E79E
:1037200000BFDDE91F0103F087F88246BAF1000F00
:1037300000D1A6E79DF856002844B4F9001088424D
:103740000EDBB4F90400A8420ADB9DF857003044B0
:10375000B4F90210884203DBB4F90600B04200DA83
:103760008FE707F081FF11901198FFF765FA804607
:1037700008F11000FEF7CDF91090D8F808709DF808
:103780005600C0100D909DF8560000F0070018B1CB
:103790000D98401CC0B20D909DF856009DF85A102F
:1037A00010FB01F00C90B4F90000A84201DC0020ED
:1037B00002E0B4F90000401B00B20B909DF85600E7
:1037C0002844B4F90410884202DC9DF8560003E056
:1037D000B4F90400401B401C00B20A90B4F9020086
:1037E000B04201DC002002E0B4F90200801B00B20C
:1037F00009909DF857003044B4F90610884202DC65
:103800009DF8570003E0B4F90600801B401C00B28D
:103810000890B8F91200311A109801FB0050B8F95D
:103820001010401A07440B9A1099099800FB0120C8
:1038300007440C99099848439DF85A200B9901FBBD
:103840000200079007980AEBD00A079800F00709D2
:103850000020049009980E90AAE0139840FA09F00D
:1038600012900B980F9084E0C9F108009DF85A104F
:10387000421A9AF8000012990840104106900698E2
:10388000D0B32B98FF280AD19DF85A00082801D1FF
:10389000069802E006981BF8000005900FE09DF8DE
:1038A0005A00082804D12B9906984843001205E0D5
:1038B00006981BF800002B994843001205901198B8
:1038C0004069D0B1059802909DF8A8008DF80400D9
:1038D0000E988119B8F81200081A00B200900F98DB
:1038E0002844B8F81020801A03B2D8F808101198AC
:1038F000D0F814C0109AE0471FE0387800F00100BB
:103900009DF8A81001F00101884216D00598FB2807
:1039100003DD9DF8A80038700FE0059810280CDD35
:10392000049850B9387802900146059A2A98FEF713
:103930002EFA03909DF80C0038707F1C9DF85A00F9
:10394000C0F1080048450ADD9DF85A0048441FFAB6
:1039500080F99DF85A1012980841129005E04FF036
:103960000009139812900AF1010A0F98401C00B246
:103970000F900A990F988842FFF676AF9DF856107F
:103980000A98091A0B9808449DF85A1000FB0190F8
:103990001FFA80F90AEBE90A09F00709DDE90A01D3
:1039A000411A1098401A07440E98401C00B20E901D
:1039B00008990E988842FFF650AF00BF61E60000FC
:1039C00000FF00000055AAFF00112233445566771E
:1039D0008899AABBCCDDEEFF466F6E743A2063680F
:1039E000617261637465722773206269746D6170BE
:1039F000206E6F7420666F756E6400002E2E5C4C16
:103A000056474C5F4755495C7372635C6C765F64E4
:103A10007261775C6C765F647261775F6261736913
:103A2000632E63002DE9FF4F83B004460D46174611
:103A3000DDF84080B8F1100F02DA07B0BDE8F08F72
:103A4000B8F1FB0F01DD4FF0FF08B7F90000A0420D
:103A50000BDCB7F90400A04207DBB7F90200A8426B
:103A600003DCB7F90600A84200DAE6E707F0FCFD40
:103A700081464846FFF7E0F8064606F11000FEF7DB
:103A800048F88246308A201A04B2708A281A05B291
:103A9000D9F8140078B1CDF808809DF818008DF899
:103AA00004000095B16823460FFA8AF24846D9F817
:103AB00014C0E0471EE000200290D6F808B005FBD5
:103AC0000A4083440298A0B9B8F1FF0F04D19DF8D1
:103AD00018008BF800000CE09BF8000042460146FD
:103AE00000900698FEF753F901909DF804008BF8BA
:103AF000000000BF00BFA0E72DE9F04105460E46DB
:103B000014461F462846FDF7D7FF012804DB284648
:103B1000FEF70DF8012801DABDE8F081208A28B10E
:103B20003B4622463146284602F0A9F9314628464E
:103B3000FEF770F800B9EFE7A07910280DDD3B46DD
:103B400022463146284602F0E4F8A08828B13B46D8
:103B500022463146284601F0A8FA608990B1207BC0
:103B600080B1607B10280DDB3B462246314628465B
:103B700001F062F8A08828B13B462246314628462B
:103B800000F002F800BFC7E70FB5A3B02598808802
:103B900080B2229007F068FD0790FFF740F821906F
:103BA0002598B0F90A0020902598007A1F90259852
:103BB000007B1E902698FF2802D12598407B04E0C8
:103BC0002598407B2699484300121D902098401E5E
:103BD00000B22090219818B12098401E00B2209089
:103BE0002398FDF7A4FF1C902398FDF765FF1B9019
:103BF000DDE91B212298FFF7F9F92290239801882B
:103C0000229801442198084400B2ADF86800239836
:103C10004188229801442198084400B2ADF86A0016
:103C200023980188229801442198084400B2ADF8F5
:103C300064002398C1882298091A2198081A00B2B2
:103C4000ADF86600239881882298091A2198081AED
:103C500000B2ADF860002398418822980144219871
:103C6000084400B2ADF86200239881882298091AAE
:103C70002198081A00B2ADF85C002398C1882298F8
:103C8000091A2198081A00B2ADF85E00229802B213
:103C900015A916A8FEF748F820992298401A00B2F4
:103CA00012901298002801DA0020129013A914A88B
:103CB000129AFEF739F800200D900C90229800B26D
:103CC0000B9000200A90099020992298401A00B287
:103CD0000890FCE3BDF95200BDF95010884209DAA2
:103CE000BDF85800BDF85010401A00B20F900F9860
:103CF0000E900AE0BDF85800BDF85A10401A00B204
:103D00000F900F98401E00B20E90219800287DD091
:103D1000BDF958100B98814279D0BDF95A000C902A
:103D2000DDE90C01401A00B207900B98ADF81800BD
:103D30000D98ADF81A000020059027E1079801289A
:103D400006DD1D9A05990798FDF78AFA049008E0A8
:103D50001D9A05990798FFF72FF91D99081AC0B207
:103D600004901E9800F00100D8B31E9800F00800DF
:103D7000B8B304980090BDF85E00BDF81A10014475
:103D80000598084400B20290BDF85C00BDF8181018
:103D90000844401C00B201902598007A0346039025
:103DA000249ADDE90101FFF73DFE04980090BDF87B
:103DB0005E00BDF818100844401C00B20290BDF827
:103DC0005C00BDF81A1001440598084400B2019047
:103DD0002598007A03460390249ADDE90101FFF754
:103DE00021FE1E9800F00100E8B31E9800F00400C8
:103DF000C8B304980090BDF86600BDF818100844D8
:103E0000401C00B20290BDF8640001E04CE1C8E043
:103E1000BDF81A10494201440598081A00B20190F1
:103E20002598007A03460390249ADDE90101FFF703
:103E3000F9FD04980090BDF86600BDF81A10014421
:103E40000598084400B20290BDF86400BDF818104F
:103E500049420844401E00B201902598007A03466A
:103E60000390249A00E003E0DDE90101FFF7DAFDA9
:103E70001E9800F00200E0B31E9800F00400C0B3EA
:103E800004980090BDF86A00BDF81A104942014438
:103E90000598081A00B20290BDF86800BDF8181025
:103EA00049420844401E00B201902598007A03461A
:103EB0000390249ADDE90101FFF7B4FD0498009016
:103EC000BDF86A00BDF8181049420844401E00B20F
:103ED0000290BDF86800BDF81A10494201440598E7
:103EE000081A00B201902598007A03460390249A9C
:103EF00000E003E0DDE90101FFF794FD1E9800F00A
:103F00000200E0B31E9800F00800C0B304980090CF
:103F1000BDF86200BDF8181049420844401E00B2C6
:103F20000290BDF86000BDF81A10014405980844DD
:103F300000B201902598007A03460390249ADDE9A7
:103F40000101FFF76FFD04980090BDF86200BDF815
:103F50001A10494201440598081A00B20290BDF8AF
:103F60006000BDF818100844401C00B2019025986C
:103F7000007A03460390249ADDE9010100E001E0A4
:103F8000FFF750FD0598401C00B205900799059871
:103F90008842FFF6D3AEBDF958000B900C980D90F7
:103FA00000BFBDF95010089881427DD0BDF95A007C
:103FB0000990DDE90901401A00B207900898ADF8B0
:103FC00018000A98ADF81A00002005904BE10798F8
:103FD000012809DD1D9A05990798FDF741F91D99FA
:103FE000081AC0B2049005E01D9A05990798FEF7DB
:103FF000E3FF04901E9800F00100F8B11E9800F055
:104000000800D8B104980090BDF85E00BDF81A1001
:1040100001440598084400B20290BDF85C00BDF868
:1040200018100844401E00B201902598007A0346FB
:104030000390249ADDE90101FFF7F4FC1E9800F0DB
:10404000010000B31E9800F00400E0B10498009055
:10405000BDF86600BDF818100844401E00B202907A
:10406000BDF86400BDF81A10494201440598081AC9
:1040700000B201902598007A03460390249ADDE966
:104080000101FFF7CFFC1E9800F0020018B31E9844
:1040900000F00400F8B104980090BDF86A00BDF883
:1040A0001A104942014400E0E8E00598081A00B2FD
:1040B0000290BDF86800BDF8181049420844401C41
:1040C00000B201902598007A03460390249ADDE916
:1040D0000101FFF7A7FC1E9800F0020000B31E9834
:1040E00000F00800E0B104980090BDF86200BDF84F
:1040F000181049420844401C00B20290BDF860000C
:10410000BDF81A1001440598084400B201902598A2
:10411000007A03460390249ADDE90101FFF782FC4F
:10412000BDF91800401EBDF91A20059911448842B6
:104130007ED01E9800F00100F8B11E9800F0080033
:10414000D8B104980090BDF85E00BDF8181008447E
:10415000401E00B20290BDF85C00BDF81A10014488
:104160000598084400B201902598007A0346039010
:10417000249ADDE90101FFF755FC1E9800F00100CB
:1041800000B31E9800F00400E0B104980090BDF860
:104190006600BDF81A1001440598084400B2029068
:1041A000BDF86400BDF8181049420844401C00B234
:1041B00001902598007A03460390249ADDE90101D5
:1041C000FFF730FC1E9800F0020008B31E9800F0C4
:1041D0000400E8B104980090BDF86A00BDF818101A
:1041E00049420844401C00B20290BDF86800BDF886
:1041F0001A10494201440598081A00B20190259806
:10420000007A03460390249ADDE90101FFF70AFCD6
:104210001E9800F0020058B11E9800F0080038B156
:1042200004980090BDF86200BDF81A10494200E001
:1042300015E001440598081A00B20290BDF860002C
:10424000BDF818100844401E00B201902598007A6D
:1042500003460390249ADDE90101FFF7E3FB05988B
:10426000401C00B20590079905988842FFF6AFAE52
:10427000BDF95000089009980A9000BF1E9800F000
:104280000100E0B31E9800F00800C0B3BDF85C0068
:10429000BDF8581001440E98081A00B2ADF840005D
:1042A000BDF85C00BDF85810084400B2ADF84400F9
:1042B000BDF85E00BDF85A10084400B2ADF84200E7
:1042C000BDF85E00BDF85A10084400B2ADF84600D3
:1042D00010A81D9B1F9A2499FEF7AAFEBDF85C004A
:1042E000BDF85A10084400B2ADF84000BDF85C00BB
:1042F000BDF85A10084400B2ADF8440000E017E0E1
:10430000BDF85E00BDF8581001440F98081A00B2BD
:10431000ADF84200BDF85E00BDF85810084400B288
:10432000ADF8460010A81D9B1F9A2499FEF780FE49
:104330001E9800F00100E8B31E9800F00400C8B316
:10434000BDF86400BDF85A104942084400B2ADF807
:104350004000BDF86400BDF85A104942084400B25C
:10436000ADF84400BDF86600BDF8581001440E9841
:10437000081A00B2ADF84200BDF86600BDF858104A
:10438000084400B2ADF8460010A81D9B1F9A24995E
:10439000FEF74EFEBDF86400BDF8581049420844CF
:1043A00000B2ADF84000BDF86400BDF858104942B5
:1043B000014400E01AE00F98084400B2ADF8440050
:1043C000BDF86600BDF85A10084400B2ADF84200CE
:1043D000BDF86600BDF85A10084400B2ADF84600BA
:1043E00010A81D9B1F9A2499FEF722FE1E9800F02C
:1043F0000200E8B31E9800F00400C8B3BDF96600DF
:10440000BDF95A100844BDF96A10BDF95A2052424C
:10441000114488422BDDBDF86800BDF858104942B0
:10442000084400B2ADF84000BDF86800BDF858106F
:10443000494201440E98084400B2ADF84400BDF86A
:104440006A00BDF85A104942084400B2ADF8420073
:10445000BDF86A00BDF85A104942084400B2ADF8F0
:10446000460010A81D9B1F9A2499FEF7E1FD00E06D
:104470002BE0BDF86800BDF85A104942084400B26C
:10448000ADF84000BDF86800BDF85A104942084434
:1044900000B2ADF84400BDF86A00BDF858104942BA
:1044A000084400B2ADF84200BDF86A00BDF85810EB
:1044B000494201440F98084400B2ADF8460010A8E4
:1044C0001D9B1F9A2499FEF7B3FD1E9800E077E02C
:1044D00000F00200E8B31E9800F00800C8B3BDF871
:1044E0006000BDF85A10084400B2ADF84000BDF8B5
:1044F0006000BDF85A10084400B2ADF84400BDF8A1
:104500006200BDF858104942084400B2ADF84200BC
:10451000BDF86200BDF85810494201440E980844A5
:1045200000B2ADF8460010A81D9B1F9A2499FEF713
:104530007FFDBDF95E00BDF95A100844BDF9621057
:10454000BDF95A205242114488422BDDBDF860006B
:1045500000E027E0BDF8581001440F98081A00B297
:10456000ADF84000BDF86000BDF85810084400B236
:10457000ADF84400BDF86200BDF85A104942084445
:1045800000B2ADF84200BDF86200BDF85A104942D1
:10459000084400B2ADF8460010A81D9B1F9A24994C
:1045A000FEF746FD15A916A8FDF7C6FBBDF952009A
:1045B000BDF95010884203DA13A914A8FDF7BCFB1B
:1045C000BDF95A00BDF9581088427FF783AB219896
:1045D00000287DD0BDF95A000C90DDE90C01401A8D
:1045E00000B207900B98ADF818000D98ADF81A00BE
:1045F000002005901CE11D9A05990798FEF7DCFC48
:104600001D99081AC0B204901E9800F00100D8B39A
:104610001E9800F00800B8B304980090BDF85E0042
:10462000BDF81A1001440598084400B20290BDF884
:104630005C00BDF818100844401C00B20190259899
:10464000007A03460390249ADDE90101FFF7EAF9B5
:1046500004980090BDF85E00BDF818100844401C96
:1046600000B20290BDF85C00BDF81A100144059834
:10467000084400B201902598007A03460390249ADA
:10468000DDE90101FFF7CEF91E9800F00100E0B36B
:104690001E9800F00400C0B304980090BDF86600B6
:1046A000BDF818100844401C00B20290BDF8640028
:1046B000BDF81A10494201440598081A00B2019049
:1046C0002598007A03460390249ADDE9010100E071
:1046D000B0E2FFF7A7F904980090BDF86600BDF8B6
:1046E0001A1001440598084400B20290BDF8640015
:1046F000BDF8181049420844401E00B201902598A8
:10470000007A03460390249A00E003E0DDE901010A
:10471000FFF788F91E9800F00200E0B31E9800F041
:104720000400C0B304980090BDF86A00BDF81A10E8
:10473000494201440598081A00B20290BDF8680089
:10474000BDF8181049420844401E00B20190259857
:10475000007A03460390249ADDE90101FFF762F92C
:1047600004980090BDF86A00BDF81810494208444A
:10477000401E00B20290BDF86800BDF81A10494210
:1047800001440598081A00B201902598007A034662
:104790000390249A00E003E0DDE90101FFF742F90C
:1047A0001E9800F00200E0B31E9800F00800C0B3AD
:1047B00004980090BDF86200BDF818104942084402
:1047C000401E00B20290BDF86000BDF81A1001440E
:1047D0000598084400B201902598007A034603909A
:1047E000249ADDE90101FFF71DF904980090BDF856
:1047F0006200BDF81A10494201440598081A00B237
:104800000290BDF86000BDF818100844401C00B2CA
:1048100001902598007A03460390249ADDE901016E
:1048200000E001E0FFF7FEF80598401C00B205909B
:10483000079905988842FFF6DEAEBDF91800BDF96C
:104840001A10401A002805DDBDF91800BDF91A102C
:10485000401A04E0BDF91A00BDF91810401A079972
:1048600088427DD10B98ADF818000B98ADF81A006E
:104870001D98401004901E9800F00100E0B11E98B1
:1048800000F00800C0B104980090BDF85E00BDF8CB
:104890001810084400B20290BDF85C00BDF81A1070
:1048A000084400B201902598007A03460390249AA8
:1048B000DDE90101FFF7B6F81E9800F00100E8B14C
:1048C0001E9800F00400C8B104980090BDF866007E
:1048D000BDF81A10084400B20290BDF86400BDF89B
:1048E00018104942084400B201902598007A034606
:1048F0000390249ADDE90101FFF794F81E9800F077
:104900000200F0B11E9800F00400D0B104980090AD
:10491000BDF86A00BDF818104942084400B2029080
:10492000BDF86800BDF81A104942084400B2019071
:104930002598007A03460390249ADDE90101FFF7E8
:1049400071F81E9800F00200F8B11E9800F00800FF
:10495000D8B104980090BDF86200BDF81A1000E0CC
:1049600014E04942084400B20290BDF86000BDF86E
:104970001810084400B201902598007A034603906D
:10498000249ADDE90101FFF74DF800BFBDF952009F
:1049900009900898ADF818000A98ADF81A00DDE9FA
:1049A0000901401A00B20790002005903CE11D9AD1
:1049B00005990798FEF700FB04901E9800F001008F
:1049C000F8B11E9800F00800D8B104980090BDF826
:1049D0005E00BDF81A1001440598084400B2029028
:1049E000BDF85C00BDF818100844401E00B20190EC
:1049F0002598007A03460390249ADDE90101FFF728
:104A000011F81E9800F0010000B31E9800F0040099
:104A1000E0B104980090BDF86600BDF81810084495
:104A2000401E00B20290BDF86400BDF81A10494261
:104A300001440598081A00B201902598007A0346AF
:104A40000390249ADDE90101FEF7ECFF1E9800F0C7
:104A5000020008B31E9800F00400E8B1049800902A
:104A6000BDF86A00BDF81A10494201440598081AB9
:104A700000B20290BDF86800BDF818104942084421
:104A8000401C00B201902598007A03460390249AB6
:104A9000DDE90101FEF7C6FF1E9800F0020000B339
:104AA0001E9800F00800E0B104980090BDF8620084
:104AB000BDF8181049420844401C00B20290BDF8ED
:104AC0006000BDF81A1001440598084400B2019036
:104AD0002598007A03460390249ADDE90101FEF748
:104AE000A1FFBDF91800401EBDF91A200599114417
:104AF00088427DD01E9800F00100F8B11E9800F0A9
:104B00000800D8B104980090BDF85E00BDF81810F8
:104B10000844401E00B20290BDF85C00BDF81A10B7
:104B200001440598084400B201902598007A034694
:104B30000390249ADDE90101FEF774FF1E9800F04E
:104B4000010000B31E9800F00400E0B1049800904A
:104B5000BDF86600BDF81A1001440598084400B27B
:104B60000290BDF86400BDF8181049420844401C8A
:104B700000B201902598007A03460390249ADDE95B
:104B80000101FEF74FFF1E9800F0020008B31E98C7
:104B900000F00400E8B104980090BDF86A00BDF888
:104BA000181049420844401C00B20290BDF8680049
:104BB000BDF81A10494201440598081A00B2019044
:104BC0002598007A03460390249ADDE90101FEF757
:104BD00029FF1E9800F0020050B11E9800F0080056
:104BE00030B104980090BDF86200BDF81A1000E0E2
:104BF00016E0494201440598081A00B20290BDF837
:104C00006000BDF818100844401E00B201902598BD
:104C1000007A03460390249ADDE90101FEF702FFC2
:104C20000598401C00B20590079905988842FFF648
:104C3000BEAE00BF27B000BD2DE9FF4F87B00446D0
:104C40009146B9F804001FFA80F806F00DFD0090B7
:104C5000FDF7E5FF07462046FCF769FF0690204672
:104C6000FCF72AFF0590B9F90A600A98FF2802D1DB
:104C700099F80D0004E099F80D000A9948430012D4
:104C8000049099F80C5099F8080003904FF0000B2D
:104C9000DA46701E06B24046DDE90521FEF7A6F9A8
:104CA0008046B04506DAA6EB0800C01B0FFA80FB71
:104CB000B24603E008EB07000FFA80FAB9F80400E7
:104CC00000287DD105F0020098B12088ADF80400DD
:104CD000A088ADF808006088ADF806006088304410
:104CE00000B2ADF80A0001A8DDE903230899FEF738
:104CF0009FF905F0080028B3A088801B00B2ADF82A
:104D00000400A088ADF80800B4F9021005F0020014
:104D100008B1701C00E00020084400B2ADF80600A5
:104D2000B4F9061005F0010008B1701C00E0002085
:104D3000081A00B2ADF80A0001A8DDE903230899BA
:104D4000FEF776F905F0040028B32088ADF80400DA
:104D50002088304400B2ADF80800B4F9021005F024
:104D6000020008B1701C00E00020084400B2ADF859
:104D70000600B4F9061005F0010008B1701C00E04F
:104D80000020081A00B2ADF80A0001A8DDE90323EB
:104D90000899FEF74DF905F00100A8B12088ADF89B
:104DA0000400A088ADF80800E088801B00B2ADF8D0
:104DB0000600E088ADF80A0001A8DDE9032300E061
:104DC00005E00899FEF734F90BB0BDE8F08F0AF161
:104DD00001000FFA80FA05F0020028B16088504403
:104DE00000B2ADF8060004E06088404400B2ADF8BF
:104DF000060005F0010030B1E088A0EB0A0000B227
:104E0000ADF80A0005E0E088A0EB080000B2ADF8BC
:104E10000A0005F0040070B12088ADF80400BDF868
:104E20000400304400B2ADF8080001A8DDE9032316
:104E30000899FEF7FDF805F0080070B1A088ADF8FC
:104E40000800BDF80800801B00B2ADF8040001A8FE
:104E5000DDE903230899FEF7EBF820885044A0EB26
:104E60000B0000B2ADF80400A088A0EB0A00584483
:104E700000B2ADF8080005F0020068B16088ADF836
:104E800006006088304400B2ADF80A0001A8DDE9F0
:104E900003230899FEF7CCF805F0010070B1E08813
:104EA000ADF80A00BDF80A00801B00B2ADF806009C
:104EB00001A8DDE903230899FEF7BAF8BBF1000F5A
:104EC0007ED005F00200E8B105F00400D0B12088E2
:104ED000ADF8040020884044384400B2ADF8080022
:104EE00060884044401C384400B2ADF80600608839
:104EF000304400B2ADF80A0001A8DDE903230899A7
:104F0000FEF796F805F00200F0B105F00800D8B100
:104F1000A088A0EB0800C01B00B2ADF80400A08878
:104F2000ADF8080060884044401C384400B2ADF839
:104F300006006088304400B2ADF80A0001A8DDE93F
:104F400003230899FEF774F805F00100F0B105F0AD
:104F50000400D8B12088ADF80400208840443844CB
:104F600000B2ADF80800E088801B00B2ADF8060082
:104F7000E088A0EB0800401EC01B00B2ADF80A009C
:104F800001A8DDE903230899FEF752F805F00100B6
:104F9000B0B105F0080098B1A088A0EB0800C01BD4
:104FA00000B2ADF80400A088ADF80800E088801BCE
:104FB00000B2ADF80600E088A0EB0800401E00E05B
:104FC00009E0C01B00B2ADF80A0001A8DDE9032327
:104FD0000899FEF72DF8B9F80400002863D105F010
:104FE0000600A8B12088ADF804002088384400B23B
:104FF000ADF808006088ADF806006088384400B25B
:10500000ADF80A0001A8DDE903230899FEF710F8BE
:1050100005F00A00A8B1A088C01B00B2ADF80400DA
:10502000A088ADF808006088ADF8060060883844B4
:1050300000B2ADF80A0001A8DDE903230899FDF7E5
:10504000F7FF05F00500A8B12088ADF8040020881E
:10505000384400B2ADF80800E088C01B00B2ADF8DB
:105060000600E088ADF80A0001A8DDE903230899ED
:10507000FDF7DEFF05F00900A8B1A088C01B00B253
:10508000ADF80400A088ADF80800E088C01B00B2AD
:10509000ADF80600E088ADF80A0001A8DDE90323B9
:1050A0000899FDF7C5FF00BF8EE60FB5A9B02B9894
:1050B000808880B2289006F0D7FA0B90FDF7AFFDFC
:1050C00027902B98807826902B98C07825902C9844
:1050D000FF2802D12B98807904E02B9880792C99B5
:1050E0004843001223902998FCF7E6FC2190299868
:1050F000FCF71DFD2090DDE920122898FDF776FFD2
:10510000289029980188289801442798084400B2DB
:10511000ADF87C00299841882898014427980844D4
:1051200000B2ADF87E00299801882898014427989C
:10513000084400B2ADF878002998C1882898091A67
:105140002798081A00B2ADF87A0029988188289823
:10515000091A2798081A00B2ADF8740029984188F6
:10516000289801442798084400B2ADF876002998A1
:1051700081882898091A2798081A00B2ADF870009B
:105180002998C1882898091A2798081A00B2ADF8FA
:105190007200289802B212A913A8FCF7C5FDBDF849
:1051A0007200BDF84E10084400B20090BDF87000C7
:1051B000BDF84C10084400B20B90BDF87A00BDF861
:1051C0004E10084400B20A90BDF87800BDF84C10AB
:1051D0004942084400B20990014616A8DDE90A23B5
:1051E000FCF767FDBDF87200BDF84C10084400B232
:1051F0000090BDF87000BDF84E10084400B20B904E
:10520000BDF87A10BDF84C00084400B20A90BDF811
:105210007800BDF84E104942084400B2099001469A
:1052200014A8DDE90A23FCF744FDBDF87600BDF8BB
:105230004E104942084400B20090BDF87400BDF819
:105240004C10084400B20B90BDF87E00BDF84E1023
:105250004942084400B20A90BDF87C00BDF84C10E9
:105260004942084400B20990014618A8DDE90A2322
:10527000FCF71FFDBDF87600BDF84C10494208440C
:1052800000B20090BDF87400BDF84E10084400B2A2
:105290000B90BDF87E00BDF84C104942084400B2A6
:1052A0000A90BDF87C00BDF84E104942084400B297
:1052B000099001461AA8DDE90A23FCF7FAFC002050
:1052C00011901090289800B20F909AE22798002829
:1052D0007DD0BDF94C100F988142F9D0BDF94E0038
:1052E0001090DDE91001401A00B207900F98ADF858
:1052F00018001198ADF81A000F992898401AC0EBC1
:1053000000212198B1FBF0F0C0B22290229ADDE991
:105310002501FCF750FD0E90229ADDE92510FCF7DF
:105320004AFD0D9000200590F8E00798012806DD61
:10533000239A05990798FBF793FF049008E0239AB6
:1053400005990798FDF738FE2399081AC0B2049012
:1053500004980090BDF87200BDF818100844401C75
:1053600000B20390BDF87000BDF81A100144059812
:10537000084400B202900D9B2A9A0399FEF752FB53
:1053800004980090BDF87A00BDF818100844401C3D
:1053900000B20390BDF87800BDF81A1049420144EC
:1053A0000598081A00B202900D9B2A9A0399FEF7FD
:1053B00039FB04980090BDF87E00BDF818104942F2
:1053C0000844401E00B20390BDF87C0000E0B0E04D
:1053D000BDF81A10494201440598081A00B202901B
:1053E0000E9B2A9A0399FEF71DFB04980090BDF8C6
:1053F0007600BDF8181049420844401E00B20390E0
:10540000BDF87410BDF81A0001440598084400B2B4
:1054100002900E9B2A9A0399FEF704FB1199289893
:10542000411A05980844C0EB00212198B1FBF0F027
:10543000C0B22290229ADDE92510FCF7BCFC0C904A
:1054400004980090BDF87210BDF81A000144059848
:10545000084400B20390BDF87010BDF8180008446D
:10546000401C00B202900C9B2A9A0399FEF7DAFACC
:1054700004980090BDF87A10BDF81A000144059810
:10548000084400B20390BDF87810BDF818004042FF
:105490000844401E00B202900C9B2A9A0399FEF722
:1054A000C1FA229ADDE92501FCF785FC0C900498ED
:1054B0000090BDF87E00BDF81A10494201440598DD
:1054C000081A00B20390BDF87C00BDF818104942DC
:1054D0000844401E00B202900C9B2A9A0399FEF7E2
:1054E000A1FA04980090BDF87610BDF81A00404269
:1054F00001440598081A00B20390BDF87400BDF885
:1055000018100844401C00B202900C9B2A9A039980
:10551000FEF788FA0598401C00B205900799059897
:105520008842FFF602AFBDF94C000F901098119021
:1055300000BF00200B900A9009900890BDF94E1012
:10554000BDF97A000144BDF95A00814201D0012021
:105550000990BDF94C10BDF97A000144BDF9520023
:10556000814201D001200890BDF94E004142BDF9B1
:105570007E000844BDF96210884201D001200A90E3
:10558000BDF94C004142BDF97E000844BDF96A10E6
:10559000884201D001200B900B9828B39DF8980009
:1055A00000F001009DF8941001F00101884202D141
:1055B0002698249012E02998B0F90600BDF96A10E7
:1055C000401AC0EB00212198B1FBF0F0C0B222904C
:1055D000229ADDE92510FCF7EEFB24901AA8DDE9FC
:1055E00023322A99FDF724FD0A9828B39DF89800E4
:1055F00000F001009DF8941001F00101884202D1F1
:105600002698249012E02998B0F90600BDF962109E
:10561000401AC0EB00212198B1FBF0F0C0B22290FB
:10562000229ADDE92510FCF7C6FB249018A8DDE9D5
:1056300023322A99FDF7FCFC099828B39DF89800BD
:1056400000F001009DF8941001F00101884202D1A0
:105650002698249012E02998B0F90600BDF95A1056
:10566000401AC0EB00212198B1FBF0F0C0B22290AB
:10567000229ADDE92510FCF79EFB249016A8DDE9AF
:1056800023322A99FDF7D4FC089828B39DF8980096
:1056900000F001009DF8941001F00101884202D150
:1056A0002698249012E02998B0F90600BDF952100E
:1056B000401AC0EB00212198B1FBF0F0C0B222905B
:1056C000229ADDE92510FCF776FB249014A8DDE989
:1056D00023322A99FDF7ACFCBDF87210BDF84E00DC
:1056E000084400B20090BDF87000BDF84C100844AA
:1056F00000B20790BDF87A10BDF84E00084400B221
:105700000690BDF87800BDF84C104942084400B23C
:105710000590014616A8DDE90623FCF7CAFABDF894
:105720007210BDF84C00084400B20090BDF8700043
:10573000BDF84E10084400B20790BDF87A10BDF8CD
:105740004C00084400B20690BDF87800BDF84E1039
:105750004942084400B20590014614A8DDE9062339
:10576000FCF7A7FABDF87610BDF84E004042084499
:1057700000B20090BDF87400BDF84C10084400B2AF
:105780000790BDF87E10BDF84E004042084400B2BC
:105790000690BDF87C00BDF84C104942084400B2A8
:1057A0000590014618A8DDE90623FCF782FABDF84A
:1057B0007610BDF84C004042084400B20090BDF89D
:1057C0007410BDF84E00084400B20790BDF87E008A
:1057D000BDF84C104942084400B20690BDF87C0068
:1057E000BDF84E104942084400B2059001461AA87F
:1057F000DDE90623FCF75DFA12A913A8FCF79CFA71
:1058000000BF13A8FCF785FA00287FF45FAD9DF870
:10581000980000F001009DF8941001F00101884209
:1058200002D12698249012E02998B0F90600BDF91B
:105830006A10401AC0EB00212198B1FBF0F0C0B211
:105840002290229ADDE92510FCF7B5FA24901AA8D7
:10585000DDE923322A99FDF7EBFBBDF96A10BDF9AA
:105860006200814225D09DF8980000F001009DF86B
:10587000941001F00101884202D12698249012E090
:105880002998B0F90600BDF96210401AC0EB00215A
:105890002198B1FBF0F0C0B22290229ADDE92510E8
:1058A000FCF789FA249018A8DDE923322A99FDF73C
:1058B000BFFB9DF8980000F001009DF8941001F0E6
:1058C0000101884202D12698249012E02998B0F96B
:1058D0000600BDF95A10401AC0EB00212198B1FB17
:1058E000F0F0C0B22290229ADDE92510FCF763FAAD
:1058F000249016A8DDE923322A99FDF799FBBDF91A
:105900005200BDF95A10884225D09DF8980000F049
:1059100001009DF8941001F00101884202D12698FF
:10592000249012E02998B0F90600BDF95210401AEF
:10593000C0EB00212198B1FBF0F0C0B22290229A76
:10594000DDE92510FCF737FA249014A8DDE92332AD
:105950002A99FDF76DFB279800287ED029980188A9
:1059600028980844801C00B2ADF868002998818806
:105970002898081A801E00B2ADF86C00299840885B
:10598000ADF86A0029984088ADF86E002B988078B1
:10599000089002461AA8239B2A99FDF749FB2998EB
:1059A000C088ADF86A002998C088ADF86E002B98C1
:1059B000C078089002461AA8239B2A99FDF738FB65
:1059C000BDF94E001090DDE91001401A00B20B90B5
:1059D0000F98ADF828001198ADF82A000F99289873
:1059E000401AC0EB00212198B1FBF0F0C0B2229028
:1059F000229ADDE92501FCF7DEF90D90229ADDE916
:105A00002510FCF7D8F90E9000200990EEE0239ABB
:105A100009990B98FDF7D0FA2399081AC0B208909B
:105A200008980090BDF87200BDF828100844401C8A
:105A300000B20790BDF87000BDF82A100144099823
:105A4000084400B206900E9B2A9A0799FDF7EAFFD8
:105A500008980090BDF87A0000E058E1BDF82810E1
:105A60000844401C00B20790BDF87800BDF82A1029
:105A7000494201440998081A00B206900E9B2A9ADE
:105A80000799FDF7CFFF08980090BDF87E00BDF89C
:105A9000281049420844401E00B20790BDF87C001F
:105AA000BDF82A10494201440998081A00B206902C
:105AB0000D9B2A9A0799FDF7B5FF08980090BDF84D
:105AC0007600BDF8281049420844401E00B20790F5
:105AD000BDF87410BDF82A0001440998084400B2CA
