:020000040800F2
:10000000E0A6002081020008290D0008750B0008F9
:10001000250D000861090008CF1500080000000048
:1000200000000000000000000000000001110008B6
:100030006509000800000000B50F0008191200084B
:100040009B0200089B0200089B0200089B0200081C
:100050009B0200089B0200089B0200089B0200080C
:100060009B0200089B0200089B0200089B020008FC
:100070009B0200089B0200089B0200089B020008EC
:100080009B0200089B0200089B0200089B020008DC
:100090009B0200089B0200089B0200089B020008CC
:1000A0009B0200089B0200089B0200089B020008BC
:1000B0009B020008851200089B0200089B020008B2
:1000C0009B0200089B0200089B0200089B0200089C
:1000D0009B020008B11300089B0200089B02000865
:1000E0009B0200089B0200089B0200089B0200087C
:1000F0009B0200089B0200089B0200089B0200086C
:100100009B0200089B0200089B0200089B0200085B
:100110009B0200089B0200089B0200089B0200084B
:100120009B0200089B0200089B0200089B0200083B
:100130009B0200089B0200089B0200089B0200082B
:100140009B0200089B0200089B0200089B0200081B
:100150009B0200089B0200089B0200089B0200080B
:100160009B0200089B0200089B0200089B020008FB
:100170009B0200089B0200089B0200089B020008EB
:100180009B0200089B02000800F002F800F068F8EB
:100190000AA090E8000C82448344AAF10107DA45E2
:1001A00001D100F05DF8AFF2090EBAE80F0013F0CC
:1001B000010F18BFFB1A43F00103184720EC0100A0
:1001C00040EC010010F8013B0A4413F0030408BF9F
:1001D00010F8014B1D1108BF10F8015B641E05D01B
:1001E00010F8016B641E01F8016BF9D1002D15D0D8
:1001F00010F8014B03F00C030C2BA1EB04040ABF15
:1002000010F8013BA4EB8314A4EB032405F10103D4
:1002100014F8016B5B1E01F8016BF9D5914238BFF0
:1002200010F8013BD1D3704700230024002500269D
:10023000103A28BF78C1FBD8520728BF30C148BF49
:100240000B607047642900F07380732900F0DA8234
:10025000002070471FB516F0C6FC1FBD10B510BDBD
:1002600000F0EEFA1146FFF7F5FF14F081FE00F002
:100270000CFB03B4FFF7F2FF03BC01F0DDF9000053
:100280000948804709480047FEE7FEE7FEE7FEE72A
:10029000FEE7FEE7FEE7FEE7FEE7FEE70448054966
:1002A000054A064B704700001D120008890100082E
:1002B000E0A00020E0A60020E0A20020E0A20020B4
:1002C000704700000FB4044910B503AA029800F06B
:1002D0009DFA10BC5DF814FB341B002070B50C4671
:1002E0000546012A05D02878800600D5EA69002352
:1002F00002E0012305E05B1C934202D2E05C00288F
:10030000F9D1A869E618C01AA861286A18442862B9
:100310002846AFF3008004E0D5E9012114F8010B71
:100320009047B442F8D32846AFF3008070BD000078
:100330002DE9F0410646002410687529314616A5BE
:1003400010D0AFF30080002802DA404213A507E086
:1003500031688A0701D512A502E0490704D511A525
:10036000012401E0AFF3008000210A2206F12407F6
:1003700009E0B0FBF2FCB0FBF2F302FB1C003030F2
:1003800078541846491C0028F3D123462A463046A3
:10039000BDE8F04100F0B3B9000000002D000000FE
:1003A0002B000000200000002DE9F05F8946044684
:1003B0004FF0000ADFF824B1FB44C0F820A020462B
:1003C000E168884700287DD0252806D0D4E901219E
:1003D0009047206A401C2062F1E700255F462046D6
:1003E000E16888472028064607DB312E05D2B81978
:1003F00010F8200C08B10543F1E7A80701D525F056
:100400000405C4F81CA00027C4F818A02A2E09D09F
:10041000304601F00AF938B304EB8708303EC8F8DB
:10042000186019E059F8041B204604EB870291611B
:10043000E1688847012F064618D1E069002820DAD4
:1004400025F020051DE0D8F8180000EB800006EB31
:1004500040003038C8F818002046E1688847064652
:1004600001F0E3F80028EED1012F0AD02E2E08D19A
:100470002046E16888477F1C0646022F45F020058C
:10048000C4DBA069002803DA404245F00105A06101
:10049000E80701D025F01005A6B1A6F14100192802
:1004A00002D8203645F400654A463146204625608C
:1004B0004D46FFF7C7FE60B1012807D0ED1D25F0BE
:1004C000070000E007E000F1080978E705F10409FA
:1004D00075E730467AE7206ABDE8F09FBDE7010086
:1004E00040EA0103024630B59B0710D14FF00134BA
:1004F00000E008C208C91D1B9D4315EAC41FF8D0BF
:1005000013F0FF0102F8011B0DD01B0AF8E711F8E8
:10051000013B002B02F8013B05D011F8013B002BF9
:1005200002F8013BF3D130BD10B5431C02E010F8D6
:10053000011B71B18107FAD14FF0013202C88C1A48
:100540008C4314EAC211F9D0C01A0A0603D0C01EA7
:1005500010BDC01A10BD0A0401D0801E10BD0902D2
:10056000FCD0401E10BD032A40F2308010F0030C76
:1005700000F0158011F8013BBCF1020F624498BFF6
:1005800011F801CB00F8013B38BF11F8013BA2F193
:10059000040298BF00F801CB38BF00F8013B11F00E
:1005A000030300F02580083AC0F0088051F8043BAE
:1005B000083A51F804CBA0E80810F5E7121D5CBF1B
:1005C00051F8043B40F8043BAFF30080D20724BF4E
:1005D00011F8013B11F801CB48BF11F8012B24BFE2
:1005E00000F8013B00F801CB48BF00F8012B704731
:1005F00010B5203AC0F00B80B1E81850203AA0E8BE
:100600001850B1E81850A0E81850BFF4F5AF5FEAF1
:10061000027C24BFB1E81850A0E8185044BF18C9A4
:1006200018C0BDE810405FEA827C24BF51F8043B4B
:1006300040F8043B08BF7047D20728BF31F8023B9F
:1006400048BF11F8012B28BF20F8023B48BF00F833
:10065000012B704702F0FF0343EA032242EA024201
:1006600000F002B84FF000020429C0F0128010F030
:10067000030C00F01B80CCF1040CBCF1020F18BF7E
:1006800000F8012BA8BF20F8022BA1EB0C0100F011
:100690000DB85FEAC17C24BF00F8012B00F8012BE4
:1006A00048BF00F8012B70474FF0000200B5134619
:1006B00094469646203922BFA0E80C50A0E80C5082
:1006C000B1F12001BFF4F7AF090728BFA0E80C5033
:1006D00048BF0CC05DF804EB890028BF40F8042B2C
:1006E00008BF704748BF20F8022B11F0804F18BF99
:1006F00000F8012B704770477047704770472DE92D
:10070000F0470D4699469246044600F124080168D8
:10071000880604D5E06921F01001216000E0012085
:10072000A84201DD471B00E00027A1697A1902EB0E
:100730000900081AA0612078C00602D42046AFF351
:100740000080002608E0D4E901211AF8060090474D
:10075000206A401C761C20624E45F4DB2078C006DF
:100760000AD52046AFF3008006E0D4E9012130200D
:100770009047206A401C2062381EA7F10107F4DC74
:1007800007E0D4E9012118F805009047206A401CD1
:100790002062281EA5F10105F3DC2046AFF300809E
:1007A0002078000602D50220BDE8F0870120FBE793
:1007B00001694A1C02610878704700B58FB0CDE925
:1007C00001310021059105497944CDE90310114615
:1007D0006846FFF7E9FD0FB000BD0000E5FFFFFF31
:1007E00010B5436913B1AFF3008001E0FFF776FD68
:1007F000012010BD127800F124010A7000224A7015
:100800000122EDE711684FF0FF32E9E7074B70B5C1
:100810000D467B44FFF7D1FF0446284600F00CF854
:1008200010B14FF0FF3070BD204670BD831700003F
:10083000004870477CA00020007B00F080007047DB
:100840007546FFF7F5FFAE4605006946534620F0B2
:100850000700854618B020B5FFF720FDBDE8204011
:100860004FF000064FF000074FF000084FF0000B6C
:1008700021F00701AC46ACE8C009ACE8C009ACE81F
:10088000C009ACE8C0098D4670470446AFF300804C
:100890002046FFF7EEFC000070B500BF07F0D0F96E
:1008A000054607F071FA0446002106F099FA254939
:1008B000086008460168244800680BF027FD2349BA
:1008C0002048006810F0ABFA402280211D480068E3
:1008D00010F087FB00211B48006805F0F5F81C4963
:1008E000086001211A48006806F03DF90021184807
:1008F000006806F049F9002211461548006806F024
:10090000D5F80123022213A11148006806F060F90E
:10091000012202210E48006806F04BF91E210C4806
:10092000006806F0DBF814F073FF3B2262210848F0
:10093000006810F056FB04210248006807F01EF81A
:1009400070BD0000FC00002000000020D5620108FE
:1009500000010020300A310A320A330A340A350015
:1009600000BFFEE77047F0B50A46002100230024CF
:1009700000BF3DE0012505FA01F3156805EA03040F
:100980009C4234D105684F000326BE40B543056044
:1009900015794E00B5400668354305601579012D7F
:1009A00002D01579022D16D185684F000326BE406E
:1009B000B543856055794E00B540866835438560FE
:1009C000456801268E40B5434560456896798E405E
:1009D000B6B235434560C5684F000326BE40B543F7
:1009E000C560D5794E00B540C6683543C560491C21
:1009F0001029BFD3F0BDF0B5002300244D07ED0E44
:100A000002FA05F3CE1000F1200555F826504E07E6
:100A1000F70E0F26BE40B543CF1000F1200646F872
:100A20002750CE1000F1200555F8265045EA030462
:100A3000CE1000F1200545F82640F0BD024600200A
:100A400013690B400BB1012000E00020704700004B
:100A500038B500BF07F0F4F8054607F095F90446ED
:100A6000002106F0BDF933490860084601683248A4
:100A700000680BF04BFC31492E48006810F0CFF9AC
:100A8000402280212B48006810F0ABFA0021294851
:100A9000006805F019F82A49086001212848006813
:100AA00006F061F8002211462548006805F0FEFFB7
:100AB0000123022223A12248006806F089F80122BE
:100AC00002211F48006806F074F80123022220A1C9
:100AD0001B48006806F09AF80022022118480068B6
:100AE00006F087F878223C211548006806F018F8CF
:100AF0001E211348006805F0F1FF00200090104807
:100B00000099006804F056FF18490860184A084622
:100B100001680B48006805F0EDFF3B2262210848A0
:100B2000006810F05EFA04210248006806F026FF13
:100B300038BD0000D800002000000020A16201089C
:100B4000DC000020300A310A320A330A340A350048
:100B50000A3132300A3131300A3130300A39300A44
:100B600038300A37300A363000000000E00000203C
:100B7000E400002000BFFEE71CB50121022000F0C8
:100B80001BFA4FF44070009001208DF80400002003
:100B90008DF8060003208DF8050001208DF8070070
:100BA00069460548FFF7DFFE012004490860044953
:100BB000C1F8A4021CBD000000040240A082404213
:100BC0000080404270B504461548006820F440207B
:100BD000134908600846006840F48020086000203F
:100BE00010490860002517E0E0090E49091D08605A
:100BF0006006040E022001F013F801200A49C1F832
:100C0000A002022001F00CF8002006490860022032
:100C100001F006F8681CC5B2082DE5DB70BD0000C8
:100C200000040240A08240420080404210B50F48BC
:100C3000006820F440200D4908600846006840F430
:100C40008020086001200A4908600A49C1F8A00212
:100C5000042000F0E5FF002005490860042000F0B2
:100C6000DFFF00200349C1F8A00210BD00040240CC
:100C7000A48240420080404210B50F48006820F432
:100C800040200D4908600846006840F48020086054
:100C900000200A4908600A49C1F8A402042000F0B3
:100CA000BFFF0120054908600549C1F8A4020420DE
:100CB00000F0B6FF10BD000000040240A0824042D8
:100CC0000080404210B500241348006820F4402002
:100CD0001149086008460068086001200F49086053
:100CE00000F09EFF01200E49C1F8A00200F098FF1D
:100CF00007E0601CC4B2FA2C03DDFFF7BDFF012042
:100D000010BD0648803800680028F2D10349091F49
:100D1000086000BFF4E7000000040240A4824042E3
:100D20000080404200BFFEE77047000070B5002120
:100D300000230F22C4781CB3174C246804F4E06429
:100D4000C4F5E064C4F30721C1F10404E3B20A412D
:100D500044789C40E1B28478144021430C07210E72
:100D60000E4C05786155047804F01F050124AC4051
:100D700005786D11AD0005F1E025C5F8004109E0E9
:100D8000047804F01F050124AC40054D0678761167
:100D900045F8264070BD00000CED00E000E400E0E6
:100DA00080E100E002490143024A116070470000FF
:100DB0000000FA050CED00E0F0B5144600267F288F
:100DC00001DC3F2900DDF0BD0B46CF1701EB577763
:100DD000FF10C7F10707FAB2CF1701EB5777FF10E3
:100DE000A1EBC707FDB2C5F107070123BB40DEB287
:100DF0004CB10A4B03EBC0039B5C3343074F07EB3B
:100E0000C007BB5408E0054B03EBC0039B5CB34336
:100E1000024F07EBC007BB5400BFD4E74C1B0020B8
:100E20002DE9F05F06460F4690469946DDF828A06A
:100E30004FF0000B3D4611E034460BE05846411C94
:100E40001FFA81FB1AF8002029462046FFF7B4FF5D
:100E5000601CC4B24445F1DD681CC5B24D45EBDDF4
:100E600000F076F8BDE8F09F10B5FFF785FE4FF46F
:100E7000487000F0B9FE0021AE2000F08FF800218C
:100E8000084600F08BF80021102000F087F80021C0
:100E9000402000F083F80021B02000F07FF800210E
:100EA000812000F07BF80021FF2000F077F800217E
:100EB000A12000F073F80021A72000F06FF80021B6
:100EC000A82000F06BF800213F2000F067F8002117
:100ED000C02000F063F80021D32000F05FF800216B
:100EE000084600F05BF80021D52000F057F80021FB
:100EF000802000F053F80021D82000F04FF80021A6
:100F0000052000F04BF80021D92000F047F800211F
:100F1000F12000F043F80021DA2000F03FF8002132
:100F2000122000F03BF80021DB2000F037F8002110
:100F3000302000F033F800218D2000F02FF8002140
:100F4000142000F02BF80021AF2000F027F810BD8E
:100F500070B500241CE004F1B001C8B2002100F01B
:100F60001DF80021084600F019F80021102000F0BB
:100F700015F8002508E0084901EBC501085D0121CD
:100F800000F00CF8681CC5B2802DF4DB601CC4B204
:100F9000082CE0DB70BD00004C1B002070B505463E
:100FA0000C461CB1284600F02AFB02E0284600F05F
:100FB00010FB70BD7047000029B1064A1268024359
:100FC000044B1A6004E0034A12688243014B1A6022
:100FD000704700003038024029B1064A12680243C7
:100FE000044B1A6004E0034A12688243014B1A6002
:100FF000704700004038024029B1064A1268024397
:10100000044B1A6004E0034A12688243014B1A60E1
:101010007047000044380240F0B50021002200244F
:10102000022500260223324F3F6807F00C0121B150
:10103000042905D0082937D105E02E4F076036E096
:101040002D4F076033E02A4F3F1F3F68C7F380569C
:10105000274F3F1F3F6807F03F036EB1264FB7FB96
:10106000F3F7DFF88CC0ACF1040CDCF800C0CCF373
:10107000881C07FB0CF40CE01E4FB7FBF3F7DFF8FE
:1010800070C0ACF1040CDCF800C0CCF3881C07FB8A
:101090000CF4174F3F1F3F68C7F301477F1C7D00CB
:1010A000B4FBF5F7076002E0124F076000BF00BF16
:1010B0000F4F3F6807F0F0010909104F7A5C07688D
:1010C000D74047600A4F3F6807F4E051890A0B4F49
:1010D0007A5C4768D7408760054F3F6807F46041F6
:1010E000490B064F7A5C4768D740C760F0BD0000E7
:1010F000083802400024F40000127A003A1B002055
:10110000704700000CB50020019000903448006842
:1011100040F480303249086000BF3148006800F474
:10112000003000900198401C0190009818B9019877
:10113000B0F5A04FF1D12A48006800F4003010B19A
:101140000120009001E0002000900098012846D185
:1011500023484030006840F0805021494031086009
:101160002048006840F440401E4908601C48083090
:1011700000681B49083108600846006840F40040D8
:1011800008600846006840F4A05008601648091F2F
:101190000860081F006840F08070091F086000BFE9
:1011A0000F48006800F000700028F9D040F2057088
:1011B0000E4908600A480830006820F0030008491A
:1011C000083108600846006840F00200086000BF6F
:1011D00003480830006800F00C000828F8D10CBD66
:1011E000003802400070004008544007003C0240B4
:1011F000042808D14FF0E021096941F004014FF0C3
:10120000E022116107E04FF0E021096921F00401BB
:101210004FF0E022116170477047000010B515488B
:10122000006840F47000134908601348006840F0FB
:1012300001001149086000200F49083108600E487C
:1012400000680E4908400C4908600D48091D0860F7
:10125000081F006820F48020091F0860002006494C
:101260000C310860FFF74EFF4FF0006001498039F4
:10127000086010BD88ED00E000380240FFFFF6FE78
:101280001030002410B50648008800F0010010B1AD
:10129000012013F0FBFA4FF6FE700149088010BDE3
:1012A000100400407FB505460C4601210220FFF7DF
:1012B00093FE0295ADF804400020ADF80600ADF8AD
:1012C0000C0001A90D4800F031F8012211460B482D
:1012D00000F022F80121094800F012F81D208DF8D5
:1012E000000001208DF8010003208DF8020001208C
:1012F0008DF803006846FFF719FD7FBD000400402C
:1013000021B1028842F00102028004E002884FF617
:10131000FE731A40028070471AB183890B438381A0
:1013200002E083898B43838170470000002202889A
:10133000184B98420ED0184B98420BD0B0F1804F0A
:1013400008D0164B984205D0154B984202D0154B49
:10135000984204D14FF68F731A404B881A43124BB0
:10136000984207D0114B984204D04FF6FF431A40E1
:101370000B891A4302804B68C3620B880385054BB7
:10138000984202D0044B984201D18B7A0386012304
:1013900083827047000001400004014000040040C7
:1013A00000080040000C0040001000400014004005
:1013B00010B540F225511D4800F04AF810B31B4803
:1013C00000F000F9C4B21A48008800F40040C8B91F
:1013D0001748008800F4804060B10A2C03D0002038
:1013E0001349088020E01248008840F4004010496A
:1013F000088019E00D2C06D10D48008840F480408B
:101400000B49088010E00A480088C0F30D00094924
:101410000C5407480088401C05490880084600888D
:10142000C72801DD0020088010BD00000010014029
:10143000381B0020B49F002021B1828942F4005261
:10144000828104E082894DF6FF731A4082817047E1
:1014500070B50246002400230025002040F66A16DD
:10146000B14200D100BFC1F3421501F01F030126B4
:1014700006FA03F3012D02D19689334006E0022DCE
:1014800002D1168A334001E0968A33400C120126BD
:1014900006FA04F41688344013B10CB1012000E0C0
:1014A000002070BDF0B50346002400260025002072
:1014B00040F66A17B94200D100BF1846C1F3421482
:1014C00001F01F06012707FA06F5012C01D10C30A7
:1014D00004E0022C01D1103000E014301AB107688A
:1014E0002F43076002E00768AF430760F0BD0000CC
:1014F0002DE9FF4705460E460024A14600BFA04641
:10150000B08900B100BF2C8A24F44054F088044311
:101510002C82AC8941F20C608443B0883189084345
:10152000718908430443AC81AC8A24F44074B089C7
:101530000443AC826846FFF76FFD2048854202D025
:101540001F48854202D1DDF80C9001E0DDF80890DB
:10155000A88900F4004040B109EBC90000EB091074
:1015600031684900B0FBF1F707E009EBC90000EB77
:10157000091031688900B0FBF1F76420B7FBF0F087
:1015800004012009642101FB1078A88900F40040BF
:1015900040B1322000EBC800B0FBF1F000F00700D2
:1015A000044308E0322000EB08106421B0FBF1F0A6
:1015B00000F00F0004432C81BDE8FF8700100140BC
:1015C0000014014001468888C0F30800704700BF3E
:1015D000FEE710B50446FFF729FB7820FFF7F2FA83
:1015E000FFF770FB0020FFF7EDFAFFF76BFB2046DB
:1015F000FFF7E8FAFFF766FBFFF73EFB10BD10B5FB
:101600000446FFF713FB7820FFF7DCFAFFF75AFBDD
:101610004020FFF7D7FAFFF755FB2046FFF7D2FA35
:10162000FFF750FBFFF728FB10BD30380A2801D226
:10163000012070470020704700BF704710B58AB086
:10164000044694F82000C0F3400020B994F820002C
:1016500000F0010070B194F82000C0F34000F0B930
:1016600094F8200000F00100C8B194F82000C0F305
:101670008000A0B12422214601A8FEF7B9FF21462F
:1016800019480DF0CCFF20460EF0E6FA012017496C
:101690000870049810B101A8049988471FE0E08BF6
:1016A000404200B2608394F8200000F00100B0B125
:1016B00094F82010C1F3800119B9A18B494209B2F5
:1016C00061831034217C8908C943227C61F3820242
:1016D00022742068616821606060103C00BF03488C
:1016E00000780AB010BD0000EC240020D8190020BA
:1016F0002DE9F04107462F480DF0AAFE044608E008
:10170000206A20F00800206221462A480DF0A5FE3C
:101710000446002CF4D12848006813F099F80646D6
:1017200024480DF095FE04463CE000202349087053
:1017300094F82000C0F3C00038BB206A20F00800F5
:1017400008302062608B304400B26083B4F91A0024
:1017500000281ADBB4F91A00218B884202DD208BA5
:1017600000B260832046A16888470546606818B1CA
:1017700029B2D4E900029047B4F91A00218B8842BB
:1017800002DB2046FFF75AFF00BF0C48007820B16B
:1017900008480DF05DFE044604E0214605480DF0C2
:1017A0005CFE0446002CC0D113F060F802490860CA
:1017B000BDE8F081EC240020D4190020D8190020C5
:1017C00030B50346022B04D10E48405C5043001252
:1017D00030BD032B04D10C48405C50430012F7E7A6
:1017E000042B04D10948405C50430012F0E7C1EBE0
:1017F000C105581EB5FBF0F0C4B20548005D50436A
:10180000000AE5E7516E0108536E0108566E0108A3
:101810005A6E010870B504460D46054800680AF086
:1018200025FE13F03BFC034800680FF05BF870BD29
:101830003C0100204001002070B504460D460F48D1
:1018400000680AF01BFF14F01BF80D480068844282
:1018500003D10C4800680FF045F80B48006884423B
:1018600003D10A4800680FF03DF809480068844237
:1018700003D1074800680FF035F870BD3C01002027
:1018800058010020540100206C0100206801002054
:101890007C01002010B5114890F90000102802DBEF
:1018A00000200E4908700D4890F90000002802DA67
:1018B0000F200A490870094991F9000000EBD07126
:1018C0004910A0EB410121B100F00AF813F0A0FF8C
:1018D00003E000F015F813F05DFF10BD38010020A3
:1018E00010B5054801680548006804F0CFF80348C2
:1018F000006805F0D5F810BD0801002000010020A7
:1019000010B5054801680548006804F0BFF80348B1
:10191000006805F0C5F810BD04010020000100209A
:101920002DE9FC5F11F080FA044600210FF002FC63
:101930008B49086040228021894800680FF051FBE4
:1019400003218748006810F064FD00218548006885
:1019500005F046FA84490860824800680FF0BAFF33
:101960008000072190FBF1F004B27E4800680FF080
:10197000CAFF8346224659467B4800680FF031FB78
:101980000021794800680CF015FD06460020082368
:1019900007220146009030460EF01AFA73A1304635
:1019A0000DF0EEFB00216E48006805F019FA714950
:1019B00008606B4800680FF08DFF8000072190FBE6
:1019C000F1F004B2664800680FF09DFF834622469E
:1019D0005946684800680FF004FB0021654800681C
:1019E0000CF0E8FC05460020082307220146009081
:1019F00028460EF0EDF960A128460DF0C1FB2946FE
:101A00005C4800680CF0D6FC07460020431F082203
:101A10000146009038460EF0DBF959A138460DF02A
:101A2000AFFB544801684E48006805F0D9F95649A3
:101A300008604B4800680FF04DFF8000072190FBC5
:101A4000F1F004B2464800680FF05DFF834622467D
:101A500059464D4800680FF0C4FA29464A480068C4
:101A60000CF0A8FC804600200823072201460090C5
:101A700040460EF0ADF945A140460DF081FB2946E8
:101A8000414800680CF096FC81460020431F082264
:101A90000146009048460EF09BF93EA148460DF0E5
:101AA0006FFB344801682E48006805F099F93A49FF
:101AB00008602B4800680FF00DFF8000072190FBA5
:101AC000F1F004B2264800680FF01DFF834622465D
:101AD0005946314800680FF084FA29462E480068BC
:101AE0000CF068FC82460020082307220146009083
:101AF00050460EF06DF929A150460DF041FB2946E4
:101B0000254800680CF056FC01900020431F082275
:101B10000146009001980EF05BF921A101980DF0AB
:101B20002FFB114801681F4800680AF0EFFB1148BD
:101B300001681C4800680AF0E9FB1348016819486D
:101B400000680AF0E3FB14480168164800680AF0D0
:101B5000DDFB1549044800680FF061F9BDE8FC9F02
:101B600068010020540100206C0100206261636B59
:101B70000000000070010020796561720000000023
:101B80003230323100000000740100206D6F6E743D
:101B900068000000303500007801002064617900A1
:101BA000323100003C0100203918000810B504460D
:101BB0006FF00400FFF71CFBE11704EB5171C1F358
:101BC000C701074A11701046007800EB4001C1EBD5
:101BD000C0104FF6FF7101EAC0000249088010BD35
:101BE000301B0020321B002070B504464FF40770F4
:101BF00094FBF0F0C6B24FF4077094FBF0F100FBD9
:101C0000114085B205E04FF4077000F02FF8701E08
:101C1000C6B2002EF7D115B1284600F027F870BDE6
:101C20000146114A12784A434FF0E0235A610022DC
:101C30009A611A46126942F001021A6100BF4FF020
:101C4000E022106900F001021AB100F48032002A8B
:101C5000F5D04FF0E022126922F001024FF0E023AC
:101C60001A6100229A617047301B00200146114A18
:101C700012884A434FF0E0235A6100229A611A46C3
:101C8000126942F001021A6100BF4FF0E0221069B0
:101C900000F001021AB100F48032002AF5D04FF0B2
:101CA000E022126922F001024FF0E0231A610022C3
:101CB0009A617047321B00202DE9F0470446201D31
:101CC0000DF0C6FB064620460EF01DFF8046B8F11B
:101CD000000F02D020460AF0F4FC08E03146201D37
:101CE0000DF0BBFB07463046FFF7E6FF3E46002EF1
:101CF000F4D10022132120460AF01EFA20460AF0F1
:101D00000BFA0021204603F0AFF800200CF048F950
:101D100005461BE0686BA04202D0A86BA04202D12E
:101D200028460CF05DFAE86BA04201D10021E9637E
:101D3000686D404506D10CF041F9A04202D1284619
:101D40000CF04EFA28460CF02BF90546002DE1D197
:101D500020460EF0FDFE8146214609F104000DF0FB
:101D60005EFC002211462046E3699847606A10B184
:101D7000606A0DF071FF20460DF06EFFBDE8F08740
:101D8000F8B506460C4615460095A3792279A17848
:101D90002078FFF745F8304605F03AFFF8BD70B5FA
:101DA00005460C4628460EF0ABFE0646348428460F
:101DB0000EF03AFF70BD70B5054628680EF0A0FE23
:101DC00004462820005D20F0020128200155005D16
:101DD00020F0040128200155005D20F0100128208A
:101DE0000155005D20F008012820015528680EF0FB
:101DF0001BFF70BD70B504460D460026207800F02C
:101E0000010068B92068B5EB500F09D82946204673
:101E100000F020F8206820F00100401C2060261D02
:101E2000304670BD10B50146002011B9084A10684F
:101E30000CE00A1D0B6802EB5300031D044C2468E0
:101E400004F58044A34200D3002000BF10BD000071
:101E5000B41A002030B501F0030212B121F00301E1
:101E6000091D0A1D0368B2EB530F01D10268510826
:101E70000268B1EB520F0ED0031D5A18146824F0FB
:101E8000010414600468C1EB5404241F156864F352
:101E90005F05156000BF026861F35F02026030BD3C
:101EA0002DE9F84F04468846914694F8580000F012
:101EB000010008B1BDE8F88FE56800264FF0010A7F
:101EC0004FF0010B00BF8DB994F85800C0F300101B
:101ED00000B956B9BBF1000F00D1EBE72046C0476F
:101EE00005464FF0000AD34600E0E3E716B92E4658
:101EF00006B9DFE7BAF1000F06D029462046C847E9
:101F00000546B54200D1D5E74FF0010A05B9DAE739
:101F100028680EF003FE00B900E0D4E700BFE068D7
:101F2000A84200D1C6E7E068A8B1E16808680022CD
:101F30001021C3699847E168002208680D210AF062
:101F4000FBF800900098012800D0B3E7E16808682A
:101F50000EF06AFE00BFE560E168086800220F210C
:101F6000C3699847E168002208680C210AF0E4F888
:101F70000746012F00D09DE7E168086813F051FB88
:101F8000E16808680EF050FEA06910B12046A16912
:101F9000884700BF8EE7000000BF054A128802F0A4
:101FA0004002002AF9D0C2B2014B9A80704700006B
:101FB000001001402DE9FC4780460E4616B900206E
:101FC000BDE8FC87D8F80C406069B04201D1A06937
:101FD000F6E70025AEE005EB8501A06850F821008A
:101FE000301A019005EB8501A06800EB8100808824
:101FF0000199884200D29BE0002705EB8501A0688B
:1020000000EB8100807C00F0030040B905EB850106
:10201000A06800EB8100C0880199471884E005EBB7
:102020008501A06800EB8100807C00F0030001289E
:102030000FD105EB8502A16801EB8201C86805EBB1
:102040008502A16801EB8201C988019A825C8F1820
:102050006AE005EB8501A06800EB8100807C00F060
:102060000300022827D13948009005EB8503A068BA
:1020700000EB8300028A05EB8503A06800EB830078
:102080000223816801A812F049FF8146B9F1000FCF
:1020900010D005EB8502A16801EB82018968A9EBEC
:1020A0000100400805EB8502A16801EB8201C988A7
:1020B0000F1800BF38E005EB8501A06800EB810038
:1020C000807C00F0030003282ED12048009005EB0F
:1020D0008503A06800EB8300028A05EB8503A068F6
:1020E00000EB83000223816801A812F017FF8146EC
:1020F000B9F1000F17D005EB8503A26802EB83024C
:102100009268A9EB0200400805EB8503A26802EB88
:102110008302D16805EB8503A26802EB8302D288B3
:102120000B5CD71800BF00BF6661A761384647E760
:10213000681C85B2608AC0F30900A8423FF74BAF24
:1021400066610020A06100BF3AE70000DD6B010876
:102150002DE9FC5F80460D461646D8F80C704FF00E
:10216000000A788AC0F34030002841D1FC68A0689A
:10217000C0F30160D8B9D4F8009005EB062080B216
:10218000019027480090A06820F07F420223494632
:1021900001A812F0C3FE8346BBF1000F06D0ABEBE3
:1021A00009004008616811F900A000BF1FE0A068A5
:1021B000C0F3016001281AD1D4F8009005EB062085
:1021C000019018480090A06820F07F4204234946FF
:1021D00001A812F0A3FE8346BBF1000F06D0ABEBC3
:1021E00009000009616811F900A000BF00BF13E0F9
:1021F000F8684368595D43689A5D00290BDD002A41
:1022000009DD531E4C1E90F80DC004FB0C3304680E
:10221000E35C4FFA83FA00BF5046BDE8FC9F000024
:10222000573400083734000801460020302905DB08
:10223000392903DCA1F13002D0B21CE0612902DBB4
:10224000A1F12002D1B2A1F14102062A10D2DFE8A9
:1022500002F0030507090B0D0A200BE00B2009E033
:102260000C2007E00D2005E00E2003E00F2001E028
:10227000002000BF00BF704770B504460D46A06D3A
:10228000A96830F821102184A06DA96800EB8100B5
:1022900041886184B4F92410B4F9200081420DD141
:1022A000B4F92610B4F92200814207D1A87B012895
:1022B00004D104F11C0000F069FD03E004F11C00EE
:1022C00000F014FF218CA184618CE18470BD0000BA
:1022D0002DE9F04F87B00446A5694FF0000903E0EF
:1022E00028460EF035FC054628460EF0FDFB08B1E9
:1022F000002DF5D115B907B0BDE8F08F28460EF0D6
:10230000E7FB00B9F7E728460EF0E8FB0646218A0E
:10231000A089084401B22182618AE089084401B29F
:10232000618294F8240000F0010060BB06F0010017
:1023300070B1B4F91000002802DDB4F9100002E019
:10234000B4F9100040426F490968097D884211DAEA
:1023500006F00200B8B1B4F91200002802DDB4F9A9
:10236000120002E0B4F91200404266490968097D92
:10237000884208DB94F8240020F00100401C84F817
:1023800024004FF0010994F8240000F00100002817
:1023900076D0A08910B9E0890028F9D05949096898
:1023A000C86805F066FC8246B5F910000690B5F9DC
:1023B0001200059028460EF0CBFB83460EF014FC6D
:1023C000049028460EF0C4FB83460EF09FFB03905A
:1023D00028460EF011FC074628460EF019FC8046F0
:1023E000032E13D1B9F1000F06D0208A384407B26A
:1023F000608A40440FFA80F8E089404402B2A08924
:10240000384401B228460EF093FD1FE006F00100AB
:1024100060B1B9F1000F02D0208A384407B2A08918
:10242000384401B228460EF036FE0FE006F00200F6
:1024300060B1B9F1000F03D0608A40440FFA80F810
:10244000E089404401B228460EF032FE94F82400A0
:10245000C0F34000A8B92B48EB690D21026828465B
:102460009847204600F09CFF00B144E70022082175
:10247000284609F061FE204600F092FF08B13AE7D5
:102480003DE094F8240020F00200801C84F8240031
:10249000B5F910100698814230D1B5F9121005989F
:1024A00081422BD194F8240020F0020184F82410FA
:1024B00028460EF04DFB83460EF096FB0290284610
:1024C0000EF046FB83460EF021FB01900499029822
:1024D000884212D10399019888420ED109490968AE
:1024E000C86805F0C6FB8346ABEB0A0291B2054A09
:1024F0001268D06805F0B8FC00BF00BF00BF00BF85
:10250000F9E60000800100202DE9FF41044694F81F
:102510002400C0F3400008B9BDE8FF81E56903E08D
:1025200028460EF015FB054628460EF0DDFA08B1E8
:10253000002DF5D105B9EFE728460EF0DBFAD8B942
:1025400094F8240020F0020184F824105948EB6923
:102550000E2102682846984700220921284609F0E2
:10256000EBFD204600F01CFF00B1D5E70022092159
:10257000284609F0E1FDCFE728460EF0AFFA0646FF
:10258000A08A4C490968497DC1F1640110FB01F042
:10259000642190FBF1F001B2A182E08A454909680B
:1025A000497DC1F1640110FB01F0642190FBF1F061
:1025B00001B2E182A08A10B9E08A00285DD002A9A8
:1025C00028460EF01FFA28460EF016FBA18A084492
:1025D0000FFA80F828460EF01BFB0146E08A0844FB
:1025E00007B2032E05D13A46414628460EF0A0FC1C
:1025F0000EE006F0010020B1414628460EF04BFDEA
:1026000006E006F0020018B1394628460EF050FDEB
:10261000694628460EF0F6F9BDF90800BDF900102C
:10262000884201D0A08A38BBBDF90A00BDF902106A
:10263000884201D0E08AF8B994F8240020F0020121
:1026400084F824100021A181E181A182E18219484E
:10265000EB690E21026828469847204600F0A0FE4C
:1026600000B159E700220921284609F065FD2046FE
:1026700000F096FE00B14FE71AE094F8240020F035
:10268000020184F824100B48EB690E2102682846E9
:102690009847204600F084FE00B13DE70022092162
:1026A000284609F049FD204600F07AFE00B133E7E4
:1026B00000BF31E7800100202DE9F84304460D46B4
:1026C000A87B012806D194F84C00C0F3C00008B1E3
:1026D000BDE8F88394F84C00C0F3C00080B194F8D2
:1026E0004C0020F0080184F84C100021616494F83B
:1026F0004C0020F0010184F84C10002120200155ED
:1027000094F82080A97B2020015569686162676D7B
:1027100007B9DDE7384609F05BFFC54908600846A0
:10272000006800B9D4E7A87B002843D1384609F0F7
:1027300046FF00B3B5F90C0000280CDA002604E0CF
:10274000142138460AF001F8761CB5F90C00404215
:10275000B042F5DC0EE0B5F90C0000280ADD0026D9
:1027600004E01321384609F0F0FF761CB5F90C009F
:10277000B042F6DC1EE0B5F90C0000280BDA0026AA
:1027800003E0384609F006FF761CB5F90C0040421C
:10279000B042F6DC0DE0B5F90C00002809DD00269A
:1027A00003E0384609F08CFE761CB5F90C00B04207
:1027B000F7DC00BF384609F00BFF9D49086008466A
:1027C000006800B984E7A87B012831D1B8F1000F77
:1027D0002ED100200090964800686A461221C369F5
:1027E00093480068984712F041F86064384609F051
:1027F000E6FE10B99DF80000C8B98D4800680022B7
:102800000721C3698A480068984704F11C0000F05A
:10281000C7FD00B15CE7002211468548006809F059
:102820008BFC04F11C0000F0BBFD00B150E7F9E0A7
:10283000A87B01284BD1B8F1010F48D194F84C0086
:1028400000F001000028F2D1606C12F001F8E18A7A
:102850008842ECD900200090754800686A46122131
:10286000C3697348006898479DF8000068B138460E
:102870000CF094FE18BB384609F0A1FE80F001066A
:102880003146384609F080FF19E0694800680022A7
:102890000B21C36966480068984704F11C0000F0EA
:1028A0007FFD00B114E7002204216148006809F0AF
:1028B00043FC04F11C0000F073FD00B108E794F83C
:1028C0004C0020F00100401C84F84C00AAE0A87BDA
:1028D0000028ACD1B8F1010FA9D10090544800688C
:1028E0006A461221C3695248006898479DF8000063
:1028F000B0BB4F48006800220A21C3694C480068F9
:10290000984704F11C0000F04BFD00B1E0E694F89C
:102910004C0000F0010028B900220321444800685F
:1029200009F00AFC04F11C0000F03AFD00B1CFE60A
:10293000002206213E48006809F0FEFB04F11C005D
:1029400000F02EFD00B1C3E60022072138480068E0
:1029500009F0F2FB04F11C0000F022FDA8B3B7E679
:10296000FFE797F85800C0F3400078B394F84C00A4
:1029700000F0010018B138460CF010FE28B32C48C6
:10298000006800220A21C36929480068984704F1B9
:102990001C0000F005FD00B19AE600220321244846
:1029A000006809F0C9FB04F11C0000F0F9FC00B15B
:1029B0008EE6002206211E48006809F0BDFB04F1E6
:1029C0001C0000F0EDFC10B182E622E010E00022D5
:1029D00007211748006809F0AFFB04F11C0000F064
:1029E000DFFC00B174E60A21384609F0AEFE10E0C3
:1029F0009DF8000068B197F85800C0F3400040B956
:102A000094F84C0000F0010018B90121384609F093
:102A1000BBFE0021616494F84C0020F0010184F8B1
:102A20004C1000BF00200249086000BF50E60000C3
:102A3000840100202DE9F04104460D46A87B0128C1
:102A400006D194F84C00C0F3C00008B1BDE8F08195
:102A500094F84C00C0F3C00080B194F84C0020F012
:102A6000080184F84C100021616494F84C0020F0B7
:102A7000010184F84C10002120200155676D07B931
:102A8000E4E7384609F0A4FDA84908600846006854
:102A900000B9DBE7D4F82480696861622020065D14
:102AA000A97B0155A87B012861D1002E5FD111F0CF
:102AB000DDFE606468680A281ED10A21384609F0E4
:102AC00044FE9A48006800220721C36997480068BD
:102AD000984704F11C0000F063FC00B1B6E7002247
:102AE00011469248006809F027FB04F11C0000F031
:102AF00057FC00283AD0A9E768681B2810D11B2191
:102B0000384609F022FE002212218848006809F0A8
:102B100013FB04F11C0000F043FC0028EAD095E709
:102B2000686809280DD10021384609F02DFE384685
:102B300009F0C6FC04F11C0000F032FC0028D9D0DA
:102B400084E768680B280DD10021384609F01CFE87
:102B5000384609F01FFD04F11C0000F021FC00289C
:102B6000C8D073E73846696809F0EFFDD9E0A87B63
:102B7000012872D1012EFCD194F84C0000F0010024
:102B800068BB606C11F064FEE18A884227D994F832
:102B90004C0020F00100401C84F84C0068680A28B2
:102BA000E4D111F063FEA0646048006800220B21AC
:102BB000C3695E480068984704F11C0000F0F0FB10
:102BC00000B143E7002204215848006809F0B4FA34
:102BD00004F11C0000F0E4FB0028C7D036E794F8AD
:102BE0004C0000F001000028C0D0A06C11F030FEB5
:102BF000218B8842BAD911F039FEA06468680A288E
:102C00001AD14A48006800220C21C369474800686D
:102C1000984704F11C0000F0C3FB00B116E7002246
:102C200005214248006809F087FA04F11C0000F011
:102C3000B7FB002875D009E7686809280ED1002184
:102C4000384609F0A1FD384609F03AFC04F11C00B1
:102C500000F0A6FB002864D0F8E619E068680B28AD
:102C60000CD10021384609F08FFD384609F092FC5E
:102C700004F11C0000F094FB90B3E7E63846696865
:102C800009F063FD04F11C0000F08AFB40B3DDE6AF
:102C9000A87B28BB012E44D1C5F8048068680A28A7
:102CA00037D12248006800220A21C3691F48006802
:102CB000984704F11C0000F073FB00B1C6E694F8DD
:102CC0004C0000F0010060B90022032117480068A1
:102CD00009F032FA04F11C0000F062FB08B1B5E61D
:102CE0001FE0002206211148006809F025FA04F1CE
:102CF0001C0000F055FB00B1A8E6002207210B489C
:102D0000006809F019FA04F11C0000F049FB00B159
:102D10009CE60021616494F84C0020F0010184F8E5
:102D20004C1000200149086000BF8FE6840100209C
:102D300070B504460D46206D90B1B4F92400B5F984
:102D40000010884205D1B4F92600B5F90210884276
:102D500006D0B5F90220B5F90010206D0EF0E8F8A4
:102D60002988218469886184207F012804D104F1A5
:102D70001C0000F00BF803E004F11C0000F0B6F9B1
:102D8000218CA184618CE18470BD00002DE9F041AB
:102D90000446D449A069086094F83000C0F3C0002C
:102DA00008B1BDE8F081D0480068C668CD48006829
:102DB00020BB304604F064FF05462946204600F05B
:102DC000FFFAC84908600846006848B9304604F070
:102DD00099FF05462946204600F0F2FAC1490860ED
:102DE000C0480068C8BB304604F0CEFF05462946FF
:102DF000204600F0E5FABB4908602EE094F8240074
:102E0000C0F3400048BB1021B64800680DF080FFB9
:102E100018BB304604F034FF05462946204600F032
:102E2000CFFAB04908600846006848B9304604F057
:102E300069FF05462946204600F0C2FAA949086004
:102E4000A848006848B9304604F09EFF0546294668
:102E5000204600F0B5FAA3490860A249A0690968B4
:102E600088426CD0A1882181E1886181A069B0B1DC
:102E7000A5699D48EB6909210268284698472046C4
:102E800000F08EFA00B18CE700220221284609F0FA
:102E900053F9204600F084FA00B182E700BF914860
:102EA0000168A1610168E1610068002847D011F064
:102EB000DDFCA06294F8300020F0010084F83000BE
:102EC00094F8240020F0010184F8241094F82400E0
:102ED00020F0020184F82410002121826182A18166
:102EE000E18180480568002709E095F83000C0F3CB
:102EF000401000B12F4628460DF02AFE0546002D51
:102F0000F3D117B138460DF00CFF76480068C3695D
:102F1000754807210268734800689847204600F00A
:102F20003FFA00B13DE7002211466E48006809F003
:102F300003F9204600F034FA00B132E700BFA1885F
:102F40002089081A01B2A181E1886089081A01B2BA
:102F5000E181B4F9140000EB8000C010A082B4F944
:102F6000160000EB8000C110E182B4F914000028C3
:102F700004DAA08A401C01B2A18207E0B4F914006F
:102F8000002803DDA08A401E01B2A182B4F9160018
:102F9000002804DAE08A401C01B2E18207E0B4F9BB
:102FA0001600002803DDE08A401E01B2E182A18AFA
:102FB000B4F90C00800001EBE00001B2A182E18ACB
:102FC000B4F90E00800001EBE00001B2E182454857
:102FD0000068002875D043480068C369424808214A
:102FE0000268404800689847204600F0D9F900B1CF
:102FF000D7E6002201213B48006809F09DF82046F1
:1030000000F0CEF900B1CCE62046FFF761F920468A
:1030100000F0C6F900B1C4E694F82400C0F3400003
:1030200078BB94F8300000F0010050BBA06A11F0AA
:103030000FFC2D490968C98A884222D929480068AD
:10304000C36929480B210268264800689847204632
:1030500000F0A6F900B1A4E600220421214800688E
:1030600009F06AF8204600F09BF900B199E694F85F
:10307000300020F00100401C84F8300011F0F6FB15
:10308000E06294F82400C0F34000D0B994F8300016
:1030900000F00100A8B1E06A11F0DAFB12490968FA
:1030A000098B88421CD90F480068C3690E480C215F
:1030B00002680C4800689847204600F071F908B192
:1030C0006FE60DE0002205210648006809F034F89B
:1030D000204600F065F900B163E611F0C7FBE0623D
:1030E00000BF5EE684010020800100202DE9F04150
:1030F000044694F83000C0F3C00058B10021A1612B
:10310000E1610020A062E06294F8300020F0080045
:1031100084F830008949A0690860084600680028E2
:103120006FD01021854800680DF0F2FD002839D0DD
:1031300082480068C36982480A2102687F480068A3
:103140009847204600F02CF908B1BDE8F08194F8CA
:103150002400C0F34000D0B994F8300000F0010022
:1031600050B9002203217548006808F0E5FF2046A9
:1031700000F016F900B1E8E7002206216F48006868
:1031800008F0DAFF204600F00BF900B1DDE700227D
:1031900007216A48006808F0CFFF204600F000F9D8
:1031A00070B3D2E765480068C36965480A210268C0
:1031B000624800689847204600F0F2F800B1C4E782
:1031C00094F8300000F0010078B994F82400C0F3BE
:1031D000400050B9002203215848006808F0ACFFB5
:1031E000204600F0DDF800B1AFE700220621534889
:1031F000006808F0A1FF204600F0D2F810B1A4E763
:103200000BE08AE0002207214C48006808F094FF98
:10321000204600F0C5F800B197E7204600F0C0F85E
:1032200000B192E74FF00008444800680DF06BFCD5
:1032300005462021414800680DF06AFD10BB3F485B
:10324000076810E038460DF083FC074607B90CE02C
:10325000202138460DF05CFD08B1002705E0384616
:103260000DF051FC0546002DECD000BF4DB147B12B
:10327000284609F09BF920B14FF00108384609F0C3
:103280002BF900BF2D49206A0968884219D0B8F18E
:10329000000F16D100220D21206A08F04DFF2046B4
:1032A00000F07EF800B150E700220C21A06908F080
:1032B00043FF204600F074F800B146E71F4801685C
:1032C0002162204600F06CF800B13EE71B4806681A
:1032D00003E030460DF03CFC064630460DF004FCA1
:1032E00008B1002EF5D196B130460DF003FC70B157
:1032F00094F82400C0F3400048B100220A2130466F
:1033000008F01AFF204600F04BF800B11DE700213D
:10331000A1610020A062E06200BFE06960B194F8A2
:103320003000C0F3400038B92046FFF7EDF82046E2
:1033300000F036F800B108E700BF06E7840100207E
:103340008001002090F84C10C1F3400129B3002205
:1033500042638263C26390F8401021F0010280F85A
:10336000402090F8401021F0020280F8402090F8B0
:103370004C1021F0010280F84C200022426482644B
:103380008285C2850286428690F84C1021F00202A6
:1033900080F84C200021014A116070478401002010
:1033A000014691F83000C0F3400010B10020034AFC
:1033B000106091F83000C0F3400070478401002095
:1033C0002DE9F04107460C460025391D04F1100097
:1033D00001F0ADFE00282BD0201D0CF039F88046FE
:1033E0000BE041463846FFF7EBFF054605B107E025
:1033F0004146201D0CF031F88046B8F1000FF0D1A5
:1034000000BFA5B920460DF0F7FA80B1264608E0C6
:1034100030460DF083FB00B105E030460DF098FB1F
:103420000646002EF4D100BF06B9254600BF00BFF6
:103430002846BDE8F08130B5024614460B46208888
:103440001D88A84203D020881D88401B30BD60889D
:103450005D88401BFAE730B5024614460B462078DB
:103460001D78A84203D020781D78401B30BD6078BD
:103470005D78401BFAE7000010B510211A48FDF7EF
:10348000DDFA78B108211848FDF7D8FA50B10421C7
:103490001548FDF7D3FA28B101211448FDF7CEFAFB
:1034A00001281FD10A20FEF79FFB10210E48FDF7CF
:1034B000C5FA08B9012010BD08210B48FDF7BEFA76
:1034C00008B90220F7E704210748FDF7B7FA08B961
:1034D0000320F0E701210548FDF7B0FA012801D1EA
:1034E0000420E8E70020E6E7001002400000024068
:1034F0001CB501211120FDF75FFD1C20009000206C
:103500008DF8040003208DF8050001208DF80700D8
:1035100069460648FDF727FA0120009002208DF841
:10352000070069460248FDF71EFA1CBD0010024064
:103530000000024070B506460C46FFF79DFF0546A9
:10354000B5B10120A073012D06D0022D06D0032DA8
:1035500006D0042D08D105E0132505E0122503E06F
:10356000142501E0112500BF00BF0548056001E0FA
:103570000020A073024800686060002070BD000059
:103580002C1B00202DE9F04F85B0044689461546D6
:103590001E46E88E401E07B24FEA670807F0010A90
:1035A000FF2E02D13820405D03E03820405D70439B
:1035B000001283462088ADF80C00A088ADF81000FA
:1035C0006088A0EB0800A0EB0A0000B2ADF80E0086
:1035D000E088404400B2ADF81200BDF90C00BDF91E
:1035E0001010884202DABDF90C0001E0BDF91000AC
:1035F000ADF80400BDF90C00BDF91010884202DDE1
:10360000BDF90C0001E0BDF91000ADF80800BDF9EE
:103610000E00BDF91210884202DABDF90E0001E079
:10362000BDF91200ADF80600BDF90E00BDF912108B
:10363000884202DDBDF90E0001E0BDF91200ADF8CF
:103640000A0095F834005B4602464946009001A8FE
:1036500004F062FD05B0BDE8F08F0FB59BB0209877
:10366000FF2803D11E9890F8380005E01E9890F8C6
:1036700038002099484300121A900FF039FA099047
:1036800004F0CDFA19901B9881880088081A00B2BE
:10369000ADF860001B98C1884088081A00B2ADF8E8
:1036A00062001B98007EF0B11B98B0F90210B0F9CF
:1036B00006201C98104481420ADABDF8620040429C
:1036C00000B2ADF85C00BDF86000ADF85E0028E027
:1036D000BDF86200ADF85C00BDF86000404200B289
:1036E000ADF85E001DE01B98B0F90010B0F90420A1
:1036F0001C98104481420ADABDF86200ADF85C0003
:10370000BDF86000404200B2ADF85E0009E0BDF8CF
:103710006200404200B2ADF85C00BDF86000ADF858
:103720005E00BDF85C00000100B2ADF85C00BDF8C1
:103730005E00000100B2ADF85E001E98B0F93600E0
:1037400016901698C000099004F046FD15900020D0
:103750001490169800283BD00020029017AA02A9C6
:1037600003A800F011FF1698404301900020149028
:1037700029E0BDF81420DDE9141020F82120BDF85F
:103780001620DDE9141000EB81004280BDF8140022
:1037900010FB00F1BDF8162012FB02100090DDE9CD
:1037A0000001884208D314981690199818B11698F9
:1037B000401E00B2169009E003A800F04FFF1498D5
:1037C000401C00B2149014980428D2DB00BF00BF44
:1037D00016981290199828B1169808B901201290DD
:1037E000002013900020119010901698B0B11698F8
:1037F000401E159931F92000099000EBD07040105F
:1038000011901698401E159901EB8000B0F9020046
:10381000099000EBD0704010109023E01B98007EC0
:1038200070B11B98B0F90210B0F906201C98104432
:10383000814205DB15984088401E01B215984180F1
:103840001B98007E70B91B98B0F90010B0F90420E5
:103850001C981044814205DB15980088401E01B277
:1038600015980180002014907FE1DDE9141030F8F4
:1038700021101198081A02B2DDE9141020F8212055
:10388000DDE9141000EB810041881098081A02B29B
:10389000DDE9141000EB81004280199800287ED0E9
:1038A00014980028FBD01B98007E002878D014982C
:1038B000401E159931F920200846149930F921004D
:1038C0008242ECD0DDE9141000EB810042881399AC
:1038D000159800EB81004088101A00B209901B98DF
:1038E000B0F91200002849DA1A9801901E9890F851
:1038F00034008DF800001B9842881399159800EB4E
:1039000081004088111809980844401C00B20890B2
:103910001B9802881399159830F821001044401E16
:1039200000B207901D9BDDE9081204F0A5FB1A9870
:1039300001901E9890F834008DF800001B98C28802
:103940001399159800EB81004088111809980844D4
:10395000401C00B208901B9882881399159830F883
:1039600021001044401C00B207900998404202B266
:103970001D9BDDE9070104F07FFB43E01A980190ED
:103980001E9890F834008DF800001B984288139917
:10399000159800EB81004088104400B201E0C2E0BD
:1039A00033E008901B980288159830F821001044E5
:1039B000401E00B207901D9BDDE9081204F05CFB7D
:1039C0001A9801901E9890F834008DF800001B980A
:1039D000C2881399159800EB81004088104400B20A
:1039E00008901B988288159830F821001044401CDC
:1039F00000B207900998404202B21D9BDDE9070121
:103A000004F03AFB14981390ABE01498401E1599FB
:103A100001EB8000B0F902200846149900EB810008
:103A2000B0F9020082427ED0DDE9141030F8212086
:103A3000139930F82100101A00B209901B98B0F9C0
:103A40000E00002847DA1A9801901E9890F834006A
:103A50008DF800001B9842881399159800EB81009F
:103A600040881044401E00B208901B9802881598A8
:103A700030F82100111809980844401C00B2079042
:103A80001D9BDDE9081204F0C9FA1A9801901E98EE
:103A900090F834008DF800001B98C288139915988F
:103AA00000EB810040881044401C00B208901B9835
:103AB0008288159830F82100111809980844401C94
:103AC00000B207900998404202B21D9BDDE9070150
:103AD00004F0A4FA42E01A9801901E9890F834007D
:103AE0008DF800001B9842881399159800EB81000F
:103AF00040881044401E00B208901B980288159818
:103B000030F82100104400B207901D9BDDE9081237
:103B100004F084FA1A9801901E9890F834008DF8F9
:103B200000001B9800E01CE0C2881399159800EB78
:103B3000810040881044401C00B208901B98828885
:103B4000159830F82100104400B2079009984042BF
:103B500002B21D9BDDE9070104F060FA149813908E
:103B600000BF1498401C00B2149016991498884213
:103B7000FFF67BAE169800287DD019980028FBD060
:103B80001B98007E002877D01298401E159901EBF3
:103B9000800042880846139900EB81004088101A83
:103BA00000B209901B98B0F91200002853DA1A9855
:103BB00001901E9890F834008DF800001B98428800
:103BC0001399159800EB8100408811180998084452
:103BD00000B207901B9802881399159830F82100BD
:103BE0001044401E00B206901B98418A0998084470
:103BF00000B2089002461D9BDDE9060104F03CFA84
:103C00001A9801901E9890F834008DF800001B98C7
:103C1000C2881399159800EB810040881118099803
:103C2000084400B207901B9882881399159830F8C1
:103C300021001044401C00B206901B98418A09984C
:103C40000844404200B2089002461D9BDDE906018F
:103C500004F012FA4FE01A9801901E9890F8340080
:103C60008DF800001B9842881399159800EB81008D
:103C70004088104401E0F0E03EE000B207901B985D
:103C80000288159830F821001044401E00B20690BA
:103C90001B98418A0998084400B2089002461D9B6F
:103CA000DDE9060104F0E8F91A9801901E9890F8F1
:103CB00034008DF800001B98C2881399159800EB0A
:103CC00081004088104400B207901B9882881598A4
:103CD00030F821001044401C00B206901B98418A25
:103CE00009980844404200B2089002461D9BDDE955
:103CF000060104F0C1F9B0E01298401E159931F8A0
:103D000020200846139930F82100101A00B20990BB
:103D10001B98B0F90E00002851DA1A9801901E98ED
:103D200090F834008DF800001B984288139915987C
:103D300000EB810040881044401E00B207901B98A1
:103D40000288159830F8210011180998084400B22B
:103D500006901B98C1890998084400B20890024651
:103D60001D9BDDE9060104F059F91A9801901E988F
:103D700090F834008DF800001B98C28813991598AC
:103D800000EB810040881044401C00B207901B9853
:103D90008288159830F8210011180998084400B25B
:103DA00006901B98C18909980844404200B20890C7
:103DB00002461D9BDDE9060104F030F94CE01A983B
:103DC00001901E9890F834008DF800001B984288EE
:103DD0001399159800EB810040881044401E00B2F2
:103DE00007901B980288159830F82100104400B203
:103DF00006901B98C1890998084400B208900246B1
:103E00001D9BDDE9060104F009F91A9801901E983E
:103E100090F834008DF800001B98C288139915980B
:103E200000EB810040881044401C00B207901B98B2
:103E30008288159830F82100104400B206901B9833
:103E4000C18909980844404200B2089002461D9B6F
:103E5000DDE9060104F0E2F800BF00200F900E90AB
:103E6000199840B31B98007EB8B91B98B0F90E00A2
:103E7000002809DA4FF0FF300F90169808B900209B
:103E800000E00F980E901FE001200E90169808B9E0
:103E9000002000E00E980F9016E01B98B0F9120079
:103EA000002809DA4FF0FF300F90169808B900206B
:103EB00000E00F980E9007E001200E90169808B9C8
:103EC000002000E00E980F901B980088ADF8340099
:103ED0001B984088ADF8360001200A901B98007EA0
:103EE00000287ED0B9E00020149055E0BDF83420C1
:103EF000DDE9141030F82100104400B2ADF82C00B8
:103F0000BDF83620DDE9141000EB81004088104434
:103F100000B2ADF82E00BDF82C101B9800890844A3
:103F2000BDF83410401A401E00B2ADF83000BDF8A4
:103F30002E00ADF832001E9890F834000990024629
:103F40000BA81A9B1D9904F0E7F8149800B3DDE95B
:103F5000141030F92120481E159931F920008242B1
:103F600016D00A98A0B91A980090BDF82E101B9888
:103F7000408A081A00B208901E9890F83400099000
:103F8000BDF92C000790DDE908131D9A05F057F9DB
:103F90001498401C00B21490169914988842A5DB1E
:103FA0001998F0B31A9801901E9890F834008DF883
:103FB0000000BDF834101B980089081A00B209905F
:103FC000BDF836101598408801440F98081A00B2C1
:103FD0000890BDF8341015980088084400B2079086
:103FE00000E0EFE01D9BDDE9081204F017F81A98D5
:103FF00001901E9890F834008DF800001B980089FD
:10400000BDF83410401A00B20990BDF8362012985D
:10401000401E159901EB8000408811180E98084445
:1040200000E010E000B20890BDF834201298401E65
:10403000159931F82000104400B207901D9BDDE96E
:10404000081203F0EBFF00200A901B980089ADF8DE
:1040500034001B984089ADF836001B9800F043FBF4
:1040600000287FF440AF149054E0BDF83420DDE91F
:10407000141030F82100104400B2ADF82C00BDF847
:104080003620DDE9141000EB81004088104400B2B6
:10409000ADF82E00BDF82C101B9800890144BDF826
:1040A0003400081A00B2ADF83000BDF82E00ADF8AB
:1040B00032001E9890F83400099002460BA81A9B13
:1040C0001D9904F029F8149800B3DDE9141030F9B3
:1040D0002120481E159931F92000824216D00A98F5
:1040E000A0B91A980090BDF82E101B98408A081AA3
:1040F00000B208901E9890F834000990BDF92C0089
:104100000790DDE908131D9A05F099F81498401CF2
:1041100000B21490169914988842A6DB19980028CA
:104120004FD01A9801901E9890F834008DF8000036
:104130001B980089BDF83410401A401C404200B260
:104140000990BDF836101598408801440F98081A58
:1041500000B20890BDF8341015980088084400B2E9
:1041600007901D9BDDE9081203F058FF1A98019093
:104170001E9890F834008DF800001B980089BDF857
:104180003410401A401C00B20990BDF83620129835
:10419000401E159901EB8000408811180E980844C4
:1041A00000B20890BDF834201298401E159931F8DD
:1041B0002000104400B207901D9BDDE9081203F0B7
:1041C0002DFF75E1BBE0002014905AE0BDF83420CB
:1041D000DDE9141030F82100104400B2ADF82C00D5
:1041E000BDF83620DDE9140101EB80004088104461
:1041F00000B2ADF82E00BDF82C00ADF83000BDF8CF
:104200002E101B9840890844BDF83610401A401EF5
:1042100000B2ADF832001E9890F8340009900246C2
:104220000BA81A9B1D9903F077FF149828B3DDE9BA
:10423000141000EB8100B0F90220481E159901EB23
:104240008000B0F90200824217D00A98A8B91A98E3
:104250000090BDF82C101B98C089081A00B2079076
:104260001E9890F834000990BDF92E000890014680
:10427000099B1D9A079804F0E2FF1498401C00B2B5
:104280001490169914988842A0DB1998E0B31A98F4
:1042900001901E9890F834008DF80000BDF836109B
:1042A0001B984089081A00B20990BDF8361015987D
:1042B0004088084400B20890BDF834101598008872
:1042C00001440F98081A00B207901D9BDDE90812FF
:1042D00003F0D2FE1A9801901E9890F834008DF8E1
:1042E00000001B984089BDF83610401A00B20990B2
:1042F000BDF836201298401E159901EB80004088C9
:10430000104400B2089000E00FE0BDF8342012988D
:10431000401E31F8200011180E98084400B2079092
:104320001D9BDDE9081203F0A7FE00200A901B98F0
:104330000089ADF834001B984089ADF836001B9811
:1043400000F0C0F900287FF43EAF149059E0BDF8AA
:104350003420DDE9141030F82100104400B2ADF82B
:104360002C00BDF83620DDE9141000EB81004088F8
:10437000104400B2ADF82E00BDF82C00ADF83000AE
:10438000BDF82E101B9840890844BDF83610401A1D
:1043900000B2ADF832001E9890F834000990024641
:1043A0000BA81A9B1D9903F0B7FE149828B3DDE9FA
:1043B000141000EB8100B0F90220481E159901EBA2
:1043C0008000B0F90200824217D00A98A8B91A9862
:1043D0000090BDF82C101B98C089081A00B20790F5
:1043E0001E9890F834000990BDF92E0008900146FF
:1043F000099B1D9A079804F022FF1498401C00B2F4
:104400001490169914988842A1DB1998E8B31A9869
:1044100001901E9890F834008DF800001B98408998
:10442000BDF83610401A401C404200B20990BDF859
:10443000361015984088084400B20890BDF8341032
:104440001598008801440F98081A00B207901D9B28
:10445000DDE9081203F010FE1A9801901E9890F8FA
:1044600034008DF800001B984189BDF83600081A09
:10447000401C00B20990BDF836201298401E1599D4
:1044800001EB80004088104400E011E000B2089089
:10449000BDF834201298401E31F8200011180E98F3
:1044A000084400B207901D9BDDE9081203F0E4FD0B
:1044B0001FB000BD2DE9F04F85B004468946154672
:1044C0001E46E88E401E07B24FEA670807F0010A51
:1044D000FF2E02D13820405D03E03820405D70435C
:1044E000001283462088A0EB080000B2ADF80C0053
:1044F000A0884044504400B2ADF810006088ADF888
:104500000E00E088ADF81200BDF90C00BDF91010E6
:10451000884202DABDF90C0001E0BDF91000ADF8E7
:104520000400BDF90C00BDF91010884202DDBDF990
:104530000C0001E0BDF91000ADF80800BDF90E0057
:10454000BDF91210884202DABDF90E0001E0BDF992
:104550001200ADF80600BDF90E00BDF91210884238
:1045600002DDBDF90E0001E0BDF91200ADF80A0050
:1045700095F834005B4602464946009001A803F0D6
:10458000CBFD05B0BDE8F08F30B50B8803804B88BC
:104590004380138883805488C480B0F90430B0F914
:1045A00000401B1B002B05DDB0F90430B0F90040C2
:1045B0001B1B04E0B0F90030B0F904401B1B1BB218
:1045C0008381B0F90030B0F90440A34201DA01233D
:1045D00001E04FF0FF33C381B0F90630B0F902407B
:1045E0001B1B002B05DDB0F90630B0F902401B1B88
:1045F00004E0B0F90240B0F90630E31A1BB20382BE
:10460000B0F90240B0F906309C4201DA012301E022
:104610004FF0FF334382B0F90C40B0F91050AC4278
:1046200002DDB0F90C4002E0B0F9104064422346CC
:1046300004EBD374641024B284820023C382B0F9E3
:104640000C30B0F91040A34201DD012300E000234B
:104650000376038803814488448130BD0146B1F963
:104660000800B1F90420904207D1B1F90A20B1F94C
:104670000600824201D100207047888AC882B1F9C1
:104680001600B1F90C205242904209DD888A0A8A4C
:10469000801A00B288820889CA89104400B2088151
:1046A000B1F91600B1F91020904209DA888A8A8996
:1046B000104400B2888248894A8A104402B24A8172
:1046C0000120D9E770B50446B4F9085000BF204670
:1046D000FFF7C4FF08B9002070BDB4F90800A84274
:1046E000F5D00120F8E770B50446B4F90A5000BFD0
:1046F0002046FFF7B3FF08B9002070BDB4F90A00E7
:10470000A842F5D00120F8E7F8B5FE49FE480FF0C1
:1047100055F9FC49FD480FF051F9FA49FC480FF0F2
:104720004DF9F849FB480FF049F9F649FA480FF0FE
:1047300045F9F449F9480FF041F9F249F8480FF00A
:104740003DF907F039FEF749086008460168F64868
:10475000006809F064FD0021F44800680CF0EAFCF0
:10476000F349086008460168EE48006807F0CEFD8E
:10477000F049EC48006808F035F8EF49EC4800686B
:104780000CF04DFB0021EA48006802F029FBEB49E0
:1047900008600021E948006802F022FBE84908604F
:1047A0000021E748006809F005FEE6490860084670
:1047B0000168E348006809F0FDFDE3490860E1484D
:1047C0000168DF48006809F0F5FDE0490860DC4851
:1047D0000168DA48006802F003FBDD490860D94847
:1047E0000168DB48006809F0E5FDDA490860D54852
:1047F0000168D748006809F0DDFDD7490860D14855
:104800000168D348006809F0D5FDD4490860CD4857
:104810000168CF48006809F0CDFDD1490860C9485A
:104820000168CB48006809F0C5FDCE490860C4485E
:104830000168BF48006802F0D3FACB490860002144
:10484000C948006802F0CCFAC84908600021C7488E
:10485000006809F0AFFDC649086008460168C34812
:10486000006809F0A7FDC3490860C0480168BE4858
:10487000006802F0B5FAC0490860BD480168BE484A
:10488000006809F097FDBD490860B9480168BA4859
:10489000006809F08FFDBA490860B4480168B24861
:1048A000006802F09DFAB7490860B1480168B54850
:1048B000006809F07FFDB4490860AD480168B1485F
:1048C000006809F077FDB1490860B148B0F90020EF
:1048D000B048B0F90010964800680CF082FB8A4A94
:1048E0000021934800680DF09FFD00218748C18298
:1048F0008182018341838183024601218C480068C3
:104900000DF092FD8A480625046820460DF015F842
:104910000646294603F032F800BF9F497E484162AF
:1049200002229E499E48007810F03AFE9B49854835
:1049300000680AF025FC784A0021824800680AF0E5
:104940000CFC98A1804800680AF01AFC724A002109
:104950007D4800680AF001FC0222934993480078E0
:1049600010F01EFE9049794800680AF009FC6A4A76
:104970000021764800680AF0F0FB8648B0F9000094
:104980004000032190FBF1F0001F05B28048B0F910
:10499000000000EB4004E01704EB907080100A3830
:1049A00002B22946664800680CF01BFB64480068A8
:1049B0000CF01AF90646634800680CF015F9054634
:1049C000614800680CF010F90544604800680CF07C
:1049D0000BF92844341A04EBD470401001B24C484F
:1049E0000183024600215648006802F0DFFF0621DD
:1049F0005348006802F0C2FF04226D496D480088E8
:104A000010F0CEFD6A49534800680AF0B9FB6AA16C
:104A1000514800680AF0B4FB0222684968480078EF
:104A200010F0BEFD65494D4800680AF0A9FB62A17F
:104A30004B4800680AF0A4FB0222624962480078F1
:104A400010F0AEFD5F49474800680AF099FB5148F5
:104A5000B0F900004000032190FBF1F0001F05B207
:104A60004B48B0F90040E01704EB90708010C21C76
:104A70002946374800680CF0B4FA354800680CF055
:104A8000B3F80546334800680CF0AEF806463348E4
:104A900000680CF0A9F806EB40062F4800680CF0FF
:104AA000A3F806EB40002C1A04EBD470401001B2BE
:104AB00018480183024600212548006802F076FF6D
:104AC00006212348006802F059FF012003460246F0
:104AD000002100901948006802F014FF0B4A0021E1
:104AE0001648006802F062FF01211448006802F0D5
:104AF00045FF36490A48416235A11D4800680AF061
:104B00003FFB69E0942200204C1F0020881F0020FA
:104B1000C41F0020002000203C200020782000201E
:104B2000B420002000000020281B002014000020DA
:104B300018000020CD540108756201081C000020F7
:104B400020000020240000202C000020280000204D
:104B500030000020340000204000002038000020F9
:104B6000440000203C000020480000204C000020B1
:104B70005000002054000020580000205C0000205D
:104B80006000002064000020680000206C0000200D
:104B90000400002006000020B81900207F0000203B
:104BA000850000203A0000008200002086000020DE
:104BB00088000020940000202F0000008D000020BD
:104BC000960000209000002097000020E8010020BF
:104BD000EE99A33A00000000584A002158480068A6
:104BE0000AF0BBFA032257495748007810F0D8FC66
:104BF0005449564800680AF0C3FA554A00215548FE
:104C0000006802F0D3FE5448B0F90000032190FB85
:104C1000F1F0401E04B25148B0F9000090FBF1F0F1
:104C200005B2224629464B4800680CF0DAF9062105
:104C30004848006802F0A2FE49494A4841624AA138
:104C40004B4800680AF09CFA464A00214848006830
:104C50000AF083FA032247494748007810F0A0FC85
:104C60004449464800680AF08BFA394A0021444812
:104C7000006802F09BFE3848B0F90000032190FB69
:104C8000F1F0401E04B23548B0F9000090FBF1F09D
:104C900005B2224629463A4800680CF0A2F90621DE
:104CA0003748006802F06AFE36A1384800680AF00A
:104CB00067FA2C4A0021354800680AF04EFA0322B0
:104CC00033493448007810F06BFC314932480068B1
:104CD0000AF056FA1E4A00213048006802F066FECB
:104CE0001D48B0F90000032190FBF1F0401E04B212
:104CF0001A48B0F9000090FBF1F005B222462946AF
:104D0000264800680CF06DF906212448006802F07E
:104D100035FE01200346002201460090204800682D
:104D200002F0F0FD0A4A00211D48006802F03EFE34
:104D300001211B48006802F021FEF8BDB4200020CC
:104D400050000020700000207C0000205400002053
:104D5000881F00204C0000200400002006000020D6
:104D60002002002078200020EE98A83A00000000E1
:104D70005C000020740000207D0000206000002006
:104D800058000020EEA29B3A0000000068000020BE
:104D9000780000207E0000206C00002064000020CD
:104DA0004800002010B5242106480AF070FB0FF0DF
:104DB0005DFD05490860002303220A2103480FF026
:104DC00035FB10BDEC240020D4190020F11600089A
:104DD00070B50546686818B1D5E9000100F044F8DF
:104DE00012480AF05FFB04463CB911A35C2214A1EF
:104DF00003200AF0C3FE00BFFEE704B970BD95F8BA
:104E0000200020F0040085F82000242229462046B6
:104E1000FBF7EEFB606820B1238A19B2D4E90002E7
:104E2000904701200F49087000BFE7E7EC240020FD
:104E30004F7574206F66206D656D6F72792100006B
:104E40002E2E5C4C56474C5F4755495C7372635C31
:104E50006C765F6D6973635C6C765F616E696D2EF5
:104E600063000000D81900202DE9F04107460D46E7
:104E70004FF0000810480AF0EBFA044617E021460C
:104E80000D480AF0EAFA06462068B8420ED160687A
:104E9000A84200D055B9214607480AF0C0FB204679
:104EA0000AF0DAFE01200549087080463446002CDD
:104EB000E5D14046BDE8F081EC240020D81900205F
:104EC00010B50146088BB1F91A40A04202D14FF447
:104ED000806205E0B1F91A0080020C8B90FBF4F2BD
:104EE000D1E90440001B00FB02F39B120869034454
:104EF00018B210BD30B504460B46981A002801DDE3
:104F0000981A00E0D01A05464FF47A70684390FB77
:104F1000F4F1B1F5803F01D34FF6FF7101B9491C9F
:104F200088B230BD0A6802604A68426070470A6809
:104F300002604A68426070470A6802604A684260DC
:104F400070470A6802604A68426070470A680260F7
:104F50004A68426070470A6802604A684260704767
:104F60000146C8884A88801A401C00B27047014632
:104F7000C8884A88801A401C00B270470146C88819
:104F80004A88801A401C00B270470146C8884A8887
:104F9000801A401C00B270470146C8884A88801AAF
:104FA000401C00B2704710B50146B1F90420B1F9B8
:104FB0000030D21A521CB1F90630B1F902401B1B65
:104FC0005B1C02FB03F010BD014688880A88801A2A
:104FD000401C00B27047014688880A88801A401C2D
:104FE00000B27047014688880A88801A401C00B2C7
:104FF0007047014688880A88801A401C00B27047B2
:10500000014688880A88801A401C00B27047014611
:1050100088880A88801A401C00B270470146888838
:105020000A88801A401C00B27047014688880A88A6
:10503000801A401C00B2704730B50346B1F90040F9
:10504000B2F90050AC4202DDB1F9004001E0B2F922
:1050500000401C80B1F90240B2F90250AC4202DDBE
:10506000B1F9024001E0B2F902405C80B1F90440BC
:10507000B2F90450AC4202DAB1F9044001E0B2F9ED
:1050800004409C80B1F90640B2F90650AC4202DA05
:10509000B1F9064001E0B2F90640DC800120B3F925
:1050A0000040B3F90450AC4205DCB3F90240B3F957
:1050B0000650AC4200DD002030BD10B50246002095
:1050C000B2F90030B1F90040A34212DBB2F902306C
:1050D000B1F90240A3420CDBB2F90430B1F904404B
:1050E000A34206DCB2F90630B1F90640A34200DC67
:1050F000012010BD0246B2F90000B1F90430984217
:1051000013DCB2F90400B1F9003098420DDBB2F9BA
:105110000200B1F90630984207DCB2F90600B1F995
:105120000230984201DB012070470020FCE710B5F7
:1051300002460020B1F90030B2F90040A34212DB70
:10514000B1F90030B2F90440A3420CDCB1F90230ED
:10515000B2F90240A34206DBB1F90230B2F90640CF
:10516000A34200DC012010BD10B5B1F90030B2F946
:105170000040A34202DAB1F9003001E0B2F9003098
:105180000380B1F90230B2F90240A34202DAB1F968
:10519000023001E0B2F902304380B1F90430B2F9D3
:1051A0000440A34202DDB1F9043001E0B2F9043059
:1051B0008380B1F90630B2F90640A34202DDB1F9AD
:1051C000063001E0B2F90630C38010BD10B5029C74
:1051D000018042808380C48010BD42880A44521EF0
:1051E00012B2C2807047F0B503460C46154600BFA8
:1051F00098881988401A401C00B2064600BFD8881B
:105200005988401A401C00B207461C805D80314618
:10521000184600F005F839461846FFF7DEFFF0BDE6
:1052200002880A44521E12B2828070472DE9F04172
:1052300006460F4608200AF0C3FC044614B90020B5
:10524000BDE8F08123460522002109480FF0EEF861
:10525000054625B920460AF0FFFC0020F0E726604D
:105260006760EC6028460FF0A1FA0120E8E7000033
:105270007552000870B50546EC68D4E900108847FF
:1052800020460AF0E9FC70BD70B505460C4628467C
:105290000BF036FC0646748128460BF0C5FC70BD49
:1052A00070B5044620680BF02BFC05464FF0FF302C
:1052B0006881B5F908100022206800F0D3FA70BDAB
:1052C0002DE9F04180460E46314640460BF0E8F8A5
:1052D00007463FB942A3402245A103200AF04EFCF5
:1052E00000BFFEE717B90020BDE8F081494800681B
:1052F00020B938460BF03CFC464908604648006837
:1053000020B938460BF087FB434908601421384622
:105310000BF0B3F804463CB931A3482234A1032072
:105320000AF02CFC00BFFEE70CB90020DCE70020EF
:1053300060806420A08000202080C820A081002000
:10534000E0802081401E60810020A07333482061EE
:10535000334938460BF043FE324938460BF043FDE3
:1053600016BB002138460BF035FD0A223C21384699
:105370000BF037FEB4F900100022384600F072FA44
:105380000FF05AFA054655B1002138466A6D00F013
:105390004FFA01213846AA6D00F04AFA03E022498B
:1053A00038460BF06DFE19E030460BF0A9FB0546C0
:1053B00068886080A888A08028882080286920616B
:1053C000A87B00F00100A07338460BF0F5FCB4F99F
:1053D00000100022384600F045FA00BF384683E747
:1053E0004F7574206F66206D656D6F7279210000B6
:1053F0002E2E5C4C56474C5F4755495C7372635C7C
:105400006C765F6F626A785C6C765F6261722E6345
:1054100000000000F41A0020F01A002048230020A9
:105420003D5900082D5400080C2300202DE9F04FB1
:105430008FB080468A469146B9F1020F08D14A469C
:1054400051464046C34B1B6898470FB0BDE8F08FEC
:10545000B9F1000F7ED140460BF066FB8346404613
:105460000BF049FC98B10021404600F087F9054651
:10547000294668460EF0A2FA0021ADF80A105B46F4
:105480006A46514608F1100003F043FF05E04A4622
:1054900051464046AF4B1B68984740460BF030FBE7
:1054A0000446B4F90010B4F90200814208D1A07B8F
:1054B00000F0010020B9B4F90600401C00287DD09E
:1054C0000121404600F05AF905460DA8D8F8101001
:1054D0000160D8F81410416000BFBDF83410288B6B
:1054E000084400B2ADF83400BDF83810688B081AD3
:1054F00000B2ADF83800BDF83610A88A084400B2F2
:10550000ADF83600BDF83A10E88A081A00B2ADF8D6
:105510003A0000BFBDF83800BDF83410401A401CF6
:1055200000B2064600BFBDF83A00BDF83610401A7A
:10553000401C00B20746BE4273DBB4F90A00401CAF
:1055400048B3B4F90620B4F90230D21A7243B4F960
:10555000043000E0DBE0B4F902C0A3EB0C0392FBE3
:10556000F3F210B2B4F90820B4F90230D21A72433F
:10557000B4F90430B4F902C0A3EB0C0392FBF3F2CC
:1055800011B20A1AB4F90A305A4300EB222212B2BD
:10559000ADF838200FE0B4F90000B4F90210401A59
:1055A0007043B4F90410B4F90220891A90FBF1F0A9
:1055B00000B2ADF83800BDF8340000E0A6E0BDF858
:1055C00038100844401E00B2ADF83800A07B00F04F
:1055D0000100002823D0B4F9020000281FDAB4F932
:1055E000040000281BDDB4F90410B4F902208A1A63
:1055F000B4F902104942714391FBF2F1BDF8342035
:10560000114408B2BDF93810814202DDADF8340012
:1056100005E0BDF83810ADF83410ADF838006EE094
:10562000FFE7B4F90A00401C38B3B4F90620B4F916
:105630000230D21A7A43B4F90430B4F902C0A3EBB1
:105640000C0392FBF3F210B2B4F90820B4F9023063
:10565000D21A7A43B4F90430B4F902C0A3EB0C03B4
:1056600092FBF3F211B20A1AB4F90A305A4300EB72
:10567000222212B2ADF836200FE0B4F90000B4F9DE
:105680000210401A7843B4F90410B4F90220891AC0
:1056900090FBF1F000B2ADF83600BDF83A00BDF86D
:1056A0003610401A401C00B2ADF83600A07B00F066
:1056B000010020B3B4F90200002820DAB4F9040094
:1056C00000281CDDB4F90410B4F902208A1AB4F9D8
:1056D00002104942794391FBF2F1BDF83A20511A88
:1056E00008B2BDF93610814202DAADF83A0005E0A1
:1056F000BDF83610ADF83A10ADF8360000BF5B4685
:105700002A4651460DA803F004FE00BF20E0B9F17F
:10571000010F1DD140460BF0EEFAC8B140460BF028
:1057200003FA04460021404600F028F805462946C1
:1057300068460EF043F900218DF80610ADF8101000
:1057400023466A46514608F1100003F0E2FD00BF0F
:1057500001207AE6F01A002070B5044620460BF0CE
:10576000CFF90546B5F9040070BD70B50446204672
:105770000BF0C6F90546B5F9020070BD2DE9F04100
:1057800005460C46002628460BF0BAF9074614B128
:10579000012C07D104E028460BF0EEF9064603E0A1
:1057A0003E6901E0002600BF00BF3046BDE8F08141
:1057B00070B5054628460BF0A3F90446B4F90A0073
:1057C000401C10B1B4F9080070BDB4F90000FBE74B
:1057D0002DE9F04107460D46164638460BF090F984
:1057E0000446B4F90200A84205D1B4F90400B0425D
:1057F00001D1BDE8F081A6806580B4F90000B04217
:1058000006DD2680B4F900100022384600F02AF8A0
:10581000B4F90000A84206DA2580B4F9001000228D
:10582000384600F01FF838460BF0FEF900BFE0E7FD
:105830002DE9F04106460D46144630460BF060F95E
:10584000074615B1012D0AD104E0214630460BF080
:1058500017FC04E03C6130460BF0A1FA00BF00BF2A
:10586000BDE8F0812DE9F0418AB007460E4690462A
:1058700038460BF045F90446B4F90000B04202D1B5
:105880000AB0BDE8F081B4F90400B04202DAB4F91C
:10589000040000E030460546B4F90200A84202DDEB
:1058A000B4F9020000E028460546B4F90000A84219
:1058B00000D1E5E7B8F1000F04D1258038460BF0A0
:1058C000B3F933E0B4F90A00401C18B92088E0802D
:1058D000258102E02089E080258101970020059044
:1058E0004FF48070069012480290124803901248BC
:1058F00004900020ADF81E00A08980B2ADF81C0015
:105900009DF8240020F001008DF824000020ADF85F
:1059100020009DF8240020F002008DF824000020D3
:10592000ADF8220001A8FFF753FA00BF00BFA7E7B8
:1059300089520008C14E0008A15200082DE9F0412B
:1059400004460D461646324629462046164B1B682D
:1059500098470746012F02D03846BDE8F081052D53
:105960000ED101212046FFF709FF8046B8F910004B
:10597000B4F93410884202DDB8F81000A08611E0B6
:10598000062D0FD13146002005E051F8202002B944
:1059900003E0421CD0B20728F7DB00BF03A241F8A6
:1059A000202000BF3846D8E7F41A00206C765F62EA
:1059B000617200002DE9F347814648460BF0A0F8DC
:1059C0000546284609F06EFD04463CB921A39F22F6
:1059D00024A103200AF0D2F800BFFEE714B900208A
:1059E000BDE8FC87DFF8A0800CB90020F8E79DF83F
:1059F00004002071698A48000AF0E2F820602068FB
:105A000038B914A3A82217A103200AF0B7F800BFE1
:105A1000FEE7206840B92146284609F000FE2046EE
:105A20000AF01AF90020DBE70020E0802768002652
:105A300004E0A7F80080BF1C701C86B2688AB042E0
:105A4000F7DC2E20405D401CC1B22E20415520467F
:105A5000C6E700004F7574206F66206D656D6F722C
:105A6000792100002E2E5C4C56474C5F4755495C0F
:105A70007372635C6C765F6F626A785C6C765F638E
:105A8000686172742E630000E883FFFF2DE9F04126
:105A900007460C4607B10CB9BDE8F08138460BF05B
:105AA0002FF8054605B9F7E7002605E048F2E8308B
:105AB000216821F81600761C688AB042F6D80020CA
:105AC000E08000BFE8E700002DE9F04180460E4687
:105AD000314640460AF0E4FC07463FB94CA34B224E
