:03000000020026D5
:0C002600787FE4F6D8FD75812002006DA3
:1001180012026012024B120281D2AFD28012000E7C
:10012800B280E4F51E7413251EF8E6FF740A251E36
:10013800F8A607051EE51EB406EB750E0D750F0A29
:100148007F011202107B007A00790A7D0612015A9B
:0201580080CB5A
:1002600053890F438910E4F58B758D4CD28ED2AB38
:01027000226B
:070003002004FD3004FD2282
:10021000A907E4FDFCE975F00AA4FFC3ED9FE5F032
:100220006480F8EC648098500A1200030DBD000150
:040230000C80E2223A
:03001B0002028B53
:09028B00758B00758D4CB2043234
:06029400FD000000000067
:02023400C18582
:10024B0075985075CDFF75CCFD75CBFF75CAFD75D7
:05025B00C834D2AC2202
:0D000E00D2057BFF7A0279947D060201BBCA
:1001BB008B198A1A891B300521E4FFEFC39D501858
:1001CB00AB19AA1AA91B8F8275830012018EF599A0
:0B01DB003099FDC2990F80E3C205229D
:030023000201E6F1
:1001E600C0E0C0D075D000C000C2982005157413B9
:1001F6002512F8A6990512E512C394064005751254
:0A02060000D205D000D0D0D0E032C5
:10023600C100C102C103C101011000011100010981
:0402460000010800AB
:0A0281005389F0438902758CA02216
:10015A008B198A1A891B8D1CD201300126E4F51DE0
:10016A00E51DC3951C501AAB19AA1AA91B851D8235
:10017A0075830012018EFF1202713003FD051D8086
:04018A00DFC20122AD
:100271008F11858C8AD2A9D28CC2A1C203D200224D
:03000B000200B23E
:1000B200C0E0C0D03000280508E508D39408500DF0
:1000C200E5111392A1E511C313F5118044E508B4BB
:1000D2000904D2A1803B750800C28CD2038032E5AC
:1000E20008700D20A006F51005088025C28C80211D
:1000F200E508D394085010E510C313F51030A0039F
:100102004310800508800A750800C28C30A002D214
:0601120002D0D0D0E03263
:10003200020118E493A3F8E493A34003F68001F2CB
:1000420008DFF48029E493A3F85407240CC8C333CF
:10005200C4540F4420C8834004F456800146F6DF9E
:10006200E4800B0102040810204080900234E47EF8
:10007200019360BCA3FF543F30E509541FFEE49393
:10008200A360010ECF54C025E060A840B8E493A35A
:10009200FAE493A3F8E493A3C8C582C8CAC583CA85
:1000A200F0A3C8C582C8CAC583CADFE9DEE780BE3D
:01024A0000B3
:10018E00BB010CE58229F582E5833AF583E0225026
:10019E0006E92582F8E622BBFE06E92582F8E22270
:0D01AE00E58229F582E5833AF583E493228A
:00000001FF
