:020000040800F2
:10000000E0750020690B0008710100087301000809
:100010007501000877010008790100080000000060
:100020000000000000000000000000007B0100084C
:100030007D010008000000007F0100088101000828
:10004000830B0008830B0008830B0008830B000858
:10005000830B0008830B0008830B0008830B000848
:10006000830B0008830B0008830B0008830B000838
:10007000830B0008830B0008830B0008830B000828
:10008000830B0008830B0008830B0008830B000818
:10009000830B0008830B0008830B0008830B000808
:1000A000830B0008830B0008830B0008830B0008F8
:1000B000830B000837030008830B0008830B00083C
:1000C000830B0008830B0008830B0008830B0008D8
:1000D000830B00081D0A0008830B0008830B00082F
:1000E000830B0008830B0008830B0008830B0008B8
:1000F000830B0008830B0008830B0008830B0008A8
:10010000830B0008830B0008830B0008830B000897
:10011000830B0008830B0008830B0008830B000887
:10012000830B0008830B0008830B0008830B000877
:10013000DFF80CD00BF006FB004800474501000833
:10014000E07500204FF4A06001F042F900F0C4FB1C
:10015000472140F2E73000F0C1F800F032FB02F036
:100160009BFC01F014FF0BF06FF808F07BF8FCE744
:100170007047FEE7FEE7FEE7FEE77047704770470F
:10018000704700000CB500224C48009201920168B3
:1001900041F4803101604FF4A063016801F4003143
:1001A00001910099491C0091019911B90099994256
:1001B000F3D10168890333D50121019140490A68CF
:1001C00042F010020A600A6822F003020A600A681C
:1001D00042F002020A604168416041684160416842
:1001E00041F480614160416821F47C1141604168C3
:1001F00041F4E8114160016841F0807101600168DB
:100200008901FCD5416821F003014160416841F05A
:10021000020141604168C1F381010229FAD10CBD9C
:1002200001920CBD254810B5016841F00101016043
:100230004168244A114041600168234A114001602D
:10024000016821F480210160416821F4FE014160D0
:100250004FF41F018160FFF795FF1C494FF00060CC
:10026000086010BD154A10B55068194B10F00C010C
:10027000184803D0042901D0082901D0036012E0F6
:100280005168536801F470114FF0020413F4803F79
:1002900004EB914102D053689B0301D50E4B00E063
:1002A0000B4B5943016051680A4AC1F30311121DF7
:1002B000515C0268CA40026010BD0000001002409C
:1002C000002002400000FFF8FFFFF6FE08ED00E00E
:1002D00000127A000000002000093D007FB50D46A5
:1002E00004460121022000F099FEADF80440ADF86B
:1002F00000500024194DADF80640ADF802406946A3
:10030000284601F055F901221146284601F00DFC5E
:100310001D218DF80C108DF80D4003208DF80E0076
:1003200001208DF80F0003A801F057F8012128469D
:1003300001F0E6FB7FBD10B5084C0121204601F01D
:1003400008FE002808D00121204601F00EFEBDE87D
:100350001040012007F068BB10BD00000004004001
:1003600010B5F84C2021204600F0D1FC8021204619
:1003700000F0CDFC8021204600F0CBFC2046BDE8FB
:100380001040202100F0C5BC10B5EE4C20212046C5
:1003900000F0BDFC8021204600F0BBFC2046BDE8FB
:1003A0001040802100F0B3BC10B5E64C202120465F
:1003B00000F0ADFC2046BDE81040202100F0A9BCB3
:1003C00070B5E04E04462021304600F0A2FC002526
:1003D00004F0800080284FF08001304610D000F0FB
:1003E00098FC6006040E2021304600F090FC20218D
:1003F000304600F08EFC6D1CEDB2082DE8D370BDC8
:1004000000F085FCEDE710B50446FFF7A9FF782062
:10041000FFF7D6FFFFF7C8FF0020FFF7D1FFFFF778
:10042000C3FF2046FFF7CCFFFFF7BEFFBDE810403B
:10043000AAE710B50446FFF793FF7820FFF7C0FF47
:10044000FFF7B2FF4020FFF7BBFFFFF7ADFF2046ED
:10045000FFF7B6FFFFF7A8FFBDE8104094E701B132
:10046000E7E7D0E770B5B84E002505F1B000C0B29F
:100470000021FFF7F4FF00210846FFF7F0FF0021FD
:100480001020FFF7ECFF002406EBC4000121405DC3
:10049000FFF7E5FF641CE4B2802CF5D36D1CEDB2D0
:1004A000082DE2D370BD10B50446B031C8B20021AA
:1004B000FFF7D5FF102040EA14100021FFF7CFFF0F
:1004C00004F00F00BDE810400021C8E710B57F28F8
:1004D00016D83F2914D80723A3EBD10301F0070155
:1004E000C1F107040121A140974CDBB204EBC0002D
:1004F000002AC25CC9B201D00A4300E08A43C25458
:1005000010BD10B500218D20FFF7A9FF0021142098
:10051000FFF7A5FF0021BDE81040AF209FE710B511
:1005200000218D20FFF79BFF00211020FFF797FF90
:100530000021BDE81040AE2091E770B50024824E46
:10054000FF2504F1B000C0B20021FFF788FF0021B1
:100550000846FFF784FF00211020FFF780FF0020EE
:1005600006EBC001401CC0B20D558028F8D3FFF740
:1005700079FF641CE4B2082CE3D370BD70B500258C
:1005800005F1B000C0B20021FFF769FF0021084665
:10059000FFF765FF00211020FFF761FF0024012114
:1005A0000020FFF75CFF641CE4B2802CF7D36D1CC5
:1005B000EDB2082DE4D370BD2DE9F041203A0024BE
:1005C0000F468046D5B27F2803D900208F1C804675
:1005D000FFB2102B394610D0FFF765FF5B4905EBE2
:1005E000450001EB40050121285DFFF738FF641C41
:1005F000E4B2062CF7D3BDE8F081FFF754FF544E68
:1006000004EB05100121305CFFF729FF641CE4B204
:10061000082CF5D37F1CF9B24046FFF744FF0024B5
:1006200004EB051030440121007AFFF718FF641C29
:10063000E4B2082CF4D3DEE72DE9F04198461746E2
:100640000E46044600250DE0434631462046FFF79E
:10065000B3FF0834E4B2782C02D90024B61CF6B2F9
:100660006D1CEDB27A5D002AEED1C4E72DE9F041B0
:1006700015460E460746FFF716FF3648002400EBE6
:1006800085150121285DFFF7EAFE641CE4B2102CF9
:10069000F7D3761CF1B23846FFF705FF002428197E
:1006A000012190F82000FFF7DAFE641CE4B2102C60
:1006B000F5D3A0E70346012000E05843491EC9B224
:1006C000FBD270472DE9F05F0027DDF828A01D461A
:1006D00091468B4680463C464FEA5A0623E0281B4B
:1006E000401EC1B20A20FFF7E5FFB9FBF0F00A2176
:1006F000B0FBF1F201FB120027B9691E8C4201DA4E
:1007000038B101273030C2B206FB0480C0B2534674
:1007100004E006FB0480C0B2534620225946FFF78E
:100720004BFF641CE4B2AC42D9D3BDE8F09F2DE985
:10073000F0471F4690460E4682460025DDF8209081
:100740001CE0000000080140181C0020E4B700086D
:100750000CBA00081400002031465046FFF7A3FEF3
:10076000544607E019F8050001216D1CFFF777FEDC
:10077000641CE4B24445F5D3761CF6B2BE42EBD31A
:10078000BDE8F0872DE9F047984617460E468146AA
:100790000025DDF820C00FE04C4609E01CF80520DC
:1007A0006D1CADB231462046FFF790FE641CE4B2EA
:1007B000BC42F3D9761CF6B24645EDD9BDE8F04708
:1007C00050E638B50121042000F01FFCA020ADF850
:1007D000000010208DF8030003203E4C8DF802002D
:1007E0006946204600F029FAA021204600F08FFA41
:1007F0004FF4487000F09EF80021AE20FFF72FFE66
:1008000000210846FFF72BFE00211020FFF727FEEE
:1008100000214020FFF723FE0021B020FFF71FFE3C
:1008200000218120FFF71BFE0021FF20FFF717FEAC
:100830000021A120FFF713FE0021A720FFF70FFEE4
:100840000021A820FFF70BFE00213F20FFF707FE45
:100850000021C020FFF703FE0021D320FFF7FFFD9A
:1008600000210846FFF7FBFD0021D520FFF7F7FD2B
:1008700000218020FFF7F3FD0021D820FFF7EFFDD6
:1008800000210520FFF7EBFD0021D920FFF7E7FD50
:100890000021F120FFF7E3FD0021DA20FFF7DFFD63
:1008A00000211220FFF7DBFD0021DB20FFF7D7FD41
:1008B00000213020FFF7D3FD00218D20FFF7CFFD71
:1008C00000211420FFF7CBFD0021AF20FFF7C7FD6B
:1008D00038BD00000008014010B56FF0040000F0C2
:1008E000BCFD204820490068B0FBF1F01F49C0B2B0
:1008F00000EB40020870C2EBC0104FF6FF7202EA34
:10090000C000488010BD1949097848434FF0E021E4
:10091000486100238B61086940F0010008610869A3
:10092000C20701D0C003FAD5086920F001000861B0
:100930008B6170470D49498848434FF0E021486179
:1009400000238B61086940F0010008610869C20753
:1009500001D0C003FAD5086920F0010008618B615D
:10096000704700000000002000127A00D40200202E
:10097000704740490A885206FCD53E4AC1B2121D52
:100980001180704770B5054686B0012144F204001D
:1009900000F03BFB4FF40070ADF8100003248DF81D
:1009A00012401820344E8DF8130004A9304600F090
:1009B00044F93015ADF8100004208DF8130004A997
:1009C000304600F03AF925208DF814008DF81540D6
:1009D0008DF8164001208DF8170005A800F0FDFCE9
:1009E0000020ADF80400ADF80600ADF80800ADF841
:1009F0000C000C201F4CADF80A00009569462046FB
:100A000000F082FB012240F22551204600F0F9FB64
:100A10000121204600F0EBFB06B070BD70B5154C0F
:100A200040F22551204600F0A3FC00280ED02046BD
:100A300000F037FC114AC1B21088030406D4440404
:100A40004FF0000306D50A2901D0138070BD40F491
:100A500000400DE00D2909D0C0F30D04084D401CE5
:100A600080B229551080C728EFD870BD40F480406F
:100A7000108070BD0038014000080140D8020020FD
:100A80001820002010B5044631B1491EC9B2FFF745
:100A9000F9FF604380B210BD012010BD2DE9F04385
:100AA0000F4616465FEA00084FF00A010FD00025F6
:100AB000B0FBF1F06D1CEDB20028F9D1AE4223D3AA
:100AC000701B10F0FF0409D00020302204E0012543
:100AD000F4E73A54401CC0B2A042FAD389460FE072
:100AE0006D1EE9B20A20FFF7CDFFB8FBF0F1B1FBB4
:100AF000F9F209FB121030303855641CE4B2ADB283
:100B0000B442EDD30020B855BDE8F08310B5002203
:100B100084074FF0640304D1B0FBF3F403FB140427
:100B20005CB9B0FBF3F403FB14033BB94FF4C87397
:100B3000B0FBF3F403FB140000B901220D2911D21C
:100B4000DFE801F010070B07090709070709070984
:100B500007001F2010BD1E2010BD0AB11D2010BDB2
:100B60001C2010BD002010BD0648804706480047E5
:100B7000FEE7FEE7FEE7FEE7FEE7FEE7FEE7FEE74D
:100B8000FEE7FEE725020008310100088F4910B595
:100B9000884206D10121042000F049FA00210420F6
:100BA0003BE08B49884206D10121082000F03FFA42
:100BB0000021082031E08749884206D10121102018
:100BC00000F035FA0021102027E08349884206D141
:100BD0000121202000F02BFA002120201DE07F4978
:100BE000884206D10121402000F021FA0021402056
:100BF00013E07B49884206D10121802000F017FADA
:100C00000021802009E0774988420AD1841501211A
:100C1000204600F00CFA00212046BDE8104000F00C
:100C200006BA10BD10B50121084600F000FA0021F7
:100C3000BDE81040012000F0FAB9F0B5CC780022F0
:100C400004F00F03E40601D58C7823430C784FF0B1
:100C50000F0C14F0FF0F4FF0010E1BD005680E882B
:100C60000EFA02F42640A64210D196000CFA06F7BE
:100C700025EA070703FA06F5CE783D43282E02D071
:100C8000482E02D002E0446100E00461521C082AB0
:100C9000E5D305600A88FF2A1CD94468002202F1C6
:100CA00008060EFA06F50E882E40AE420ED19600CA
:100CB0000CFA06F7BC4303FA06F7CE783C43282E1D
:100CC00000D14561CE78482E00D10561521C082A1A
:100CD000E5D34460F0BD4FF6FF71018002218170C1
:100CE0000421C17070470246002092680A4200D079
:100CF00001207047806880B2704702460020D268A9
:100D00000A4200D001207047C06880B2704701617C
:100D10007047416170470AB1016170474161704796
:100D2000C160704741F48032826181618261816972
:100D3000806970472C4B10B51A684FF680742240BA
:100D400042EA00100843186010BD2849C861704786
:100D5000F0B5254C002801DAE36900E06368450D31
:100D60002E0185B2C0F30157B540C0F30342032FF3
:100D700005D0C6020AD503269640B34307E023F008
:100D80007062636823F07063636002E0AB4343F01A
:100D9000706201B12A43002801DAE261F0BD6260AD
:100DA000F0BD10B58A0721F003040F49120F21444A
:100DB0000F238C6893409C438C608B689040034366
:100DC0008B6010BD0949C1F8DC0070470008014084
:100DD000000C0140001001400014014000180140C7
:100DE000001C0140002001400000014000002042A2
:100DF000A548016841F0010101604168A34A114022
:100E000041600168A24A11400160016821F480211B
:100E10000160416821F4FE0141604FF41F018160CF
:100E2000704799490A6822F480320A600A6822F4FD
:100E300080220A60B0F5803F07D0B0F5802F03D143
:100E4000086840F4A02008607047086840F48030CB
:100E5000F9E70346002059098B4A01290AD00229E3
:100E60000AD0516A03F01F02012393400B4200D0C5
:100E7000012070471168F5E7116AF3E718B5002003
:100E80004FF4A06400903120FFF7E3FF0099491C64
:100E90000091A14201D00028F5D03120FFF7D9FF01
:100EA000002800D0012018BD774A116821F0F80110
:100EB00041EAC00010607047764908607047724B85
:100EC0005A68084322F47C121043586070477149F5
:100ED000086670476C4A516821F003010143516074
:100EE00070476948406800F00C007047664A5168D6
:100EF00021F0F001014351607047634A516821F4C9
:100F0000E0610143516070475F4A516821F46051CC
:100F100041EAC000506070475B4A0029517A01D015
:100F2000014300E08143517270475A49C1F8D8002B
:100F30007047554A516821F4404101435160704760
:100F40005149002281F8202081F82020012802D078
:100F5000042802D1052081F8200070474E4908601E
:100F6000704749490A6A02430A6270474A4944394C
:100F70000860704730B5444A5168484B11F00C0185
:100F800003D0042901D0082901D0036012E0516880
:100F9000536801F470114FF0020413F4803F04EB26
:100FA000914102D053689B0301D53D4B00E03B4B80
:100FB0005943016051680F2303EA1111394B5C5CFE
:100FC0000168E14041605468072505EA14241C5D6E
:100FD00021FA04F48460546805EAD4241B5DD940E6
:100FE000C1605268032303EA92322E4B1B1F9A5CA6
:100FF000B1FBF2F1016130BD234A0029516901D0F2
:10100000014300E08143516170471F4A0029916903
:1010100001D0014300E08143916170471A4A0029E1
:10102000D16901D0014300E08143D1617047164A84
:101030000029D16801D0014300E08143D1607047AD
:10104000114A0029116901D0014300E08143116177
:10105000704711494039086070470E49C8647047AD
:101060000949C87170470848416A41F0807141627E
:101070007047054A0146002092680A4200D00120CC
:101080007047014988727047001002400000FFF865
:10109000FFFFF6FE000042428004424200127A0046
:1010A00000093D00DE020020C44910B588420AD183
:1010B00001218C032046FFF7BAFF2046BDE810400F
:1010C0000021FFF7B4BFBE49884202D101214C0480
:1010D00010E0BC49884202D101218C040AE0BA49DF
:1010E000884202D10121CC0404E0B84988420AD1E7
:1010F00001210C052046FFF7A3FF2046BDE8104064
:101100000021FFF79DBF10BD30B50446008A85B0B1
:101110000D464CF6FF710840E98801432182A08901
:101120004EF6F3110840A9882A8911436A890243BF
:101130001143A181A08A4FF6FF410840A9890143CC
:10114000A1826846FFF716FF9C48844201D10398AC
:1011500000E00298A189090400EBC00101EB001036
:10116000296801D5490000E08900B0FBF1F0642254
:10117000B0FBF2F109010B096FF018056B4300EBAE
:101180008300A3891D044FF0320306D503EBC00092
:10119000B0FBF2F000F0070005E003EB0010B0FB3D
:1011A000F2F000F00F000843208105B030BD4FF48D
:1011B0001651016000218180C18001810C22428191
:1011C0008181704710B5028A4FF2FF031A400B88E5
:1011D0004C8823438C88C9880C43234313430382E0
:1011E00010BD0021018041808180C18070470029AD
:1011F000818902D041F4005101E021F40051818144
:10120000704710B5C1F3421301F01F040121A14042
:10121000012B07D0022B07D01430002A026805D01A
:101220000A4304E00C30F8E71030F6E78A43026026
:1012300010BD002A828A01D00A4300E08A438282DC
:101240007047028A22F00F020282028A0A43028257
:101250007047828922F40062828182890A438281F6
:1012600070470029818902D041F0020101E021F09C
:10127000020181817047028A22F020020282028AE2
:101280000A43028270470029018A02D041F480415A
:1012900001E021F4804101827047C1F3080181809F
:1012A00070478088C0F308007047818941F00101D0
:1012B00081817047028BD2B20283028B42EA012104
:1012C00001837047028B02F47F420283028B0A4340
:1012D000028370470029818A02D041F0200101E099
:1012E00021F02001818270470029818A02D041F0DB
:1012F000100101E021F01001818270470029818AEC
:1013000002D041F0080101E021F00801818270471C
:101310000029818902D041F4004101E0C1F30E01AE
:10132000818170470029818A02D041F4006101E087
:1013300021F4006181827047828A22F00402828255
:10134000828A0A43828270470029818A02D041F052
:10135000020101E021F00201818270470246002073
:1013600012880A4200D001207047C94301807047AB
:1013700070B501F01F0501260024C1F3421306FADF
:1013800005F2012B0FD0022B0FD0838A4FEA1121D7
:101390000088134206FA01F600EA060001D000B107
:1013A0000124204670BD8389F0E7038AEEE70A0A2C
:1013B00001219140C943018070470000003801407D
:1013C0000044004000480040004C004000500040F5
:1013D0002849084328490860704730B50F23C27870
:1013E00001780125F2B1244A126801F1E02102F4EA
:1013F000E062C2F5E062120AC2F10404D34042780E
:10140000A24084781C401443220181F80024007813
:1014100000F01F018D404009800000F1E020C0F87D
:10142000005130BD01F01F0085404809800000F1E7
:10143000E020C0F8805130BD104A114001430E48F1
:10144000001F016070470C4A121D0029116801D06D
:10145000014300E08143116070474FF0E021042810
:10146000086903D020F004000861704740F00400D0
:10147000FAE700000000FA050CED00E080FFFF1F16
:10148000F94910B5884202D10121C41486E0B0F1B7
:10149000804F09D0F54988420DD101210220FFF784
:1014A000CFFD0021022064E001210846FFF7C8FDBE
:1014B000002101205DE0EE49884206D1012104208F
:1014C000FFF7BEFD0021042053E0EA49884206D11F
:1014D00001210820FFF7B4FD0021082049E0E6497A
:1014E000884206D101211020FFF7AAFD002110201B
:1014F0003FE0E249884206D101212020FFF7A0FD0C
:101500000021202035E0DE49884202D10121441427
:1015100044E0DC49884202D10121CC043EE0DA49B2
:10152000884202D101210C0538E0D849884202D115
:1015300001214C0532E0D649884206D101214020E4
:10154000FFF77EFD0021402013E0D249884206D1FA
:1015500001218020FFF774FD0021802009E0CE49A1
:1015600088420AD1841501212046FFF769FD002138
:101570002046BDE81040FFF763BDC849884202D14C
:1015800001210C040AE0C649884202D101214C0421
:1015900004E0C44988420AD101218C042046FFF7A7
:1015A00046FD2046BDE810400021FFF740BD10BDBC
:1015B00030B50288AC4CB24DA0420DD0A8420BD041
:1015C000B0F1804F08D0A94B984205D0A84B984263
:1015D00002D0A84B984203D122F070034A881A43E4
:1015E000A54B984206D0A54B984203D022F44073F5
:1015F000CA881A4302808A8882850A880285A042A6
:101600000AD0A84208D0A54A904205D0A44A9042E8
:1016100002D0A44A904201D1097A01860121818237
:1016200030BD30B5028C22F001020284028C838826
:10163000048B22F0020224F073050C882C430D89E0
:1016400015434A882A43884DA8420BD08C4DA842A6
:1016500008D0924DA84205D0914DA84202D0914D9C
:10166000A8420DD122F008054A8923F440732A4389
:1016700022F004058A882A438D891D43CB892B4398
:1016800083800483C9888186028430BD70B5028C52
:1016900022F010020284028C8388048B0D8824F4CB
:1016A000E6464FF6FF7404EA052535430E8922F01D
:1016B000200204EA061616434A8804EA021232435C
:1016C000694EB04202D06E4EB04215D122F0800673
:1016D0004A8923F4406304EA0212324322F04006AE
:1016E0008A8804EA021232438E8904EA86061E437F
:1016F000CB8904EA8303334383800583C988018748
:10170000028470BD70B5028C22F480720284028C57
:101710008388848B0D8824F0730425430E894FF64B
:10172000FF7422F4007204EA062616434A8804EA8B
:10173000022232434C4EB04202D0514EB04215D13B
:1017400022F400664A8923F4405304EA0222324319
:1017500022F480668A8804EA022232438E8904EAEF
:1017600006161E43CB8904EA031333438380858323
:10177000C9888187028470BD70B5028C22F48052C2
:101780000284058C8288838B0C8823F4E6464FF60E
:10179000FF7303EA0424344325F400560D8903EA59
:1017A000053535434E8803EA06362E432E4DA842B2
:1017B00002D0334DA84205D122F480458A8903EA3C
:1017C00082122A4382808483C988A0F8401006844C
:1017D00070BD828B22F440628283828B4FF6FF734E
:1017E00003EA01210A4382837047828B22F00C02B4
:1017F0008283828B0A4382837047028B22F4406289
:101800000283028B4FF6FF7303EA01210A4302832E
:101810007047F0B5048C24F010040484078B048C0A
:101820004FF6FF7527F4734705EA03333B4305EA98
:1018300002221A430C4B05EA011698420ED0104BB7
:1018400098420BD0B0F1804F08D0084B984205D099
:10185000074B984202D0074B984225D124F0200133
:10186000314341F0100124E0002C0140000400400D
:1018700000080040000C0040001000400014004030
:1018800000340140004C0140005001400054014030
:1018900000180040001C00400020004000400140B3
:1018A000004401400048014024F0A0030B4343F0F2
:1018B000100102830184F0BD028B22F00C0202832E
:1018C000028B0A430283704770B5048C24F0010434
:1018D0000484058B048C4FF6FF7606EA031313434A
:1018E00025F0F305F84A2B4390420ED0F74A904278
:1018F0000BD0B0F1804F08D0F54A904205D0F54AA0
:10190000904202D0F44A904202D124F0020201E057
:1019100024F00A020A4342F001010383018470BDEE
:101920002DE9F84F0D4604460888E74FDFF89CC3C1
:10193000DFF89C83DFF89C934988AA882B894FF0B5
:10194000804A48B304282FD04FF6FF7608289346E4
:1019500032D0208C9E4620F480502084A38B208C93
:1019600006EA0132009223F4734306EA0B221A437B
:1019700006EA0E331343BC420AD0644508D05445EE
:1019800006D0444504D04C4502D0D34A944242D1BB
:1019900020F40050009940E02046FFF795FFE988C9
:1019A0002046BDE8F84F87E72046FFF732FFE98879
:1019B0002046BDE8F84F20E7208C20F4807020847A
:1019C000B4F81CE0208C06EA031306EA01222EF08C
:1019D000F30E43EA0B0343EA0E030092BC420AD023
:1019E000644508D0544506D0444504D04C4502D047
:1019F000B94A944203D120F40070009901E020F428
:101A00002060084340F48070A3832084E988204646
:101A1000BDE8F84FE9E620F40240084340F4805066
:101A2000A3832084E9882046BDE8F84FD1E62DE95C
:101A3000F0410C46002649880746012501B90226D7
:101A4000A288012A00D1022520882389002838464F
:101A500010D0FFF7DEFEE1883846FFF7CEFE23897F
:101A60002A4631463846FFF72FFFE1883846BDE861
:101A7000F04121E7FFF728FFE1883846FFF71CFF18
:101A800023892A4631463846FFF7C3FEE1883846A7
:101A9000BDE8F041B1E610B50A884B88CC881A43FE
:101AA0008B8823431A430B891A434B8989891A432C
:101AB0000A43A0F8442010BD4FF6FF718180002139
:101AC0000180C18041800172704700210180418006
:101AD0008180C180018141818181C1817047002164
:101AE0000180418001228280C180018170470021F4
:101AF000018041808180C180018141818181704765
:101B00000029018802D041F0010101E021F001012A
:101B100001807047002930F8441F02D041F4004191
:101B200001E0C1F30E0101807047002A828901D0D3
:101B30000A4300E08A4382817047818270471143E3
:101B4000A0F848107047002A828901D00A4300E0BB
:101B50008A4382817047018921F007010181704722
:101B6000028922F070020A430281704700B50346E1
:101B7000FFF7F6FF188940F00700188100BD70B527
:101B800016460D46602904464FF0010231460AD040
:101B9000FFF79AFE29462046FFF7E2FF208940F032
:101BA0000700208170BDFFF734FEF3E730B50489EC
:101BB0004FF6FF7505EA03231343E4B20B432343B7
:101BC000038130BD10B50446FFF7F0FF208940F0D7
:101BD0007700208110BD10B50446FFF7E7FF20898C
:101BE00040F48040208110BD0185828270470288C8
:101BF00022F070020A430280704770B50589048B99
:101C0000068C25F007050D434FF6FC410C4040F2D1
:101C100001110C434FF6FF7101EA031126F0220671
:101C20001143314305810483018470BD028B22F08E
:101C300070020A4302837047028B4FF6FF7322F44F
:101C4000E04203EA0121114301837047828B22F0B5
:101C500070020A4382837047828B4FF6FF7322F42F
:101C6000E04203EA01211143818370470029018882
:101C700002D041F0800101E021F080010180704735
:101C80000029818802D041F0040101E021F0040123
:101C9000818070470029818802D041F0080101E06D
:101CA00021F00801818070470029818802D041F02D
:101CB000010101E021F0010181807047028B22F0D7
:101CC00008020A4302837047002C0140003401409F
:101CD0000004004000080040000C0040028B4FF65A
:101CE000FF7322F4006203EA012111430183EAE752
:101CF000828B22F008020A438283E4E7828B4FF64C
:101D0000FF7322F4006203EA012111438183DAE7C1
:101D1000028B22F004020A430283D4E7028B4FF6BF
:101D2000FF7322F4806203EA012111430183CAE7B1
:101D3000828B22F004020A438283C4E7828B4FF62F
:101D4000FF7322F4806203EA012111438183BAE721
:101D5000028B22F080020A430283B4E7028B4FF623
:101D6000FF73C2F30E0203EA012111430183AAE7C4
:101D7000828B22F080020A438283A4E7828B4FF693
:101D8000FF73C2F30E0203EA0121114381839AE734
:101D9000028C22F002020A43028494E7028C22F0B1
:101DA00008020A4302848EE7028C4FF6FF7322F08A
:101DB000200203EA01111143018484E7028C4FF6EB
:101DC000FF7322F0800203EA0111114301847AE7D4
:101DD000028C4FF6FF7322F4007203EA01211143D3
:101DE000018470E7028C4FF6FF7322F4006203EA6D
:101DF00001211143018466E7028C4FF6FF7322F440
:101E0000005203EA0131114301845CE710B501235C
:101E1000048C8B409C430484038C8A4013430384CA
:101E200010BD10B50423048C8B409C430484038CA8
:101E30008A401343038410BD30B50124058C00F1A2
:101E400018038C40A543058489B108290FD0091FC8
:101E5000C1F34E001844016821F4E04101600168BB
:101E60004FF6FF7303EA02221143016030BD03EB1A
:101E70005100016821F0700101600168F4E7002958
:101E8000018802D041F0020101E021F0020101804D
:101E900019E70029018802D041F0040101E021F096
:101EA000040101800FE70029818802D041F0800100
:101EB00001E021F08001818005E7028822F008021C
:101EC000028002880A430280FDE6828822F07002C6
:101ED000828082880A438280F5E6028922F0070226
:101EE000028102890A430281EDE6028922F0800222
:101EF000028102890A430281E5E68184E3E6818565
:101F0000E1E68186DFE60187DDE68187DBE6A0F892
:101F10004010D8E6028822F44072028002880A4308
:101F20000280D0E6808ECEE6008FCCE6808FCAE6B7
:101F3000B0F84000C7E6808CC5E6008DC3E60246D7
:101F40000020128A0A4200D00120BCE6C943018267
:101F5000B9E602460020138A92890B4202EA010286
:101F600002D0002A00D00120ADE6C9430182AAE6D2
:101F700038B5054600928C788B790A790878214625
:101F8000FEF700FC2846BDE8384005F0A2BC00B5CD
:101F90000D4989B04FF400530022A1F11C0005F057
:101FA000CEFB684605F0B4FB8020ADF80000402071
:101FB000ADF802000548039003481C3801906846BC
:101FC00005F0CCFB09B000BDFC200020711F00080B
:101FD00010B518B905F00FFC002800D0006B10BD3B
:101FE00010B5044600F085FD04632046BDE81040AE
:101FF00000F09FBD10B518B905F0FDFB002800D01A
:10200000406B10BD10B518B905F0F5FB002800D0E5
:10201000806B10BD70B504460D46084600F05CFDAF
:1020200000280DD1284600F064FDA04208D02A46C1
:1020300004F12401BDE870400123243005F039BFCC
:1020400070BD10B518B905F0D6FB002800D0006AA5
:1020500010BD10B518B905F0CEFB002805D0D0F89A
:102060006001BDE8104005F0EEBC10BD10B50400E5
:1020700003D105F0C0FB040003D005F0DCFCC4F87C
:10208000600110BD10B558B110F84C1F41F00201AD
:10209000017010BD90F84C1041F0020180F84C1016
:1020A00005F09CFC0028F5D110BD0020EAE790F86F
:1020B0004C20910715D5002141638163C16310F85D
:1020C000403F22F0030223F0030300F8143981613A
:1020D000C161018041808180C18080F82020FE485C
:1020E000016070472DE9FF41044690F82400800705
:1020F0000BD5E56903E0284600F0EEFC05462846CE
:1021000001F0A4FC18B1002DF5D1BDE8FF81002D30
:10211000FBD0284601F095FCEF4FE8B1284601F0CE
:102120008BFC7A680646B4F91400517DC1F1640154
:102130004843642190FBF1F000B2A08292F815C0F0
:10214000B4F91630CCF1640C03FB0CF393FBF1F102
:1021500009B2E182F0B91CE094F824000E2120F0CD
:10216000020084F82400EB6928467A689847002228
:102170000921284600F095FF204600F081FC002848
:10218000C3D104B02846BDE8F0410022092100F087
:1021900088BFE9B36946284600F03EFD284600F0B6
:1021A00080FDA18A08440FFA80F8284600F073FDEC
:1021B000E18A032E084401B206D0F0070AD0414656
:1021C000284601F0A7F80AE00A464146284600F0F2
:1021D00028FD04E0B00702D5284601F0A6F802A9C0
:1021E000284600F019FDBDF90000BDF9081088422D
:1021F00002D0A08A002888D1BDF90200BDF90A10DA
:10220000884202D0E08A0028BAD194F8240000E085
:102210001BE020F0020084F824000020A081E0816F
:10222000A082E082EB690E2128467A689847204612
:1022300000F026FC0028A3D100220921284600F046
:1022400030FF204600F01CFC5FE794F824000E21CC
:1022500020F0020084F82400EB69284698472046C5
:1022600000F00EFC0028EFD100220921284600F0E2
:1022700018FF04B02046BDE8F04100F001BC70B585
:10228000044690F830004FF00006010707D5A6611C
:10229000E661A66220F00800E66284F830008E4D08
:1022A000A0692860002874D0102100F083FD002868
:1022B00028686A684FF00A01C3690ED09847204623
:1022C00000F0DEFB00287DD194F82400800726D49E
:1022D00094F83000C0070ED017E09847204600F071
:1022E000CFFB00287DD194F83000C0070DD194F8C1
:1022F0002400800709D400220321286800F0D1FEC1
:10230000204600F0BDFB00286BD100220621286882
:1023100000F0C7FE204600F0B3FB002861D1002288
:102320000721286800F0BDFE204600F0A9FB002828
:1023300057D1204600F0A4FB002852D1206A29681A
:10234000884214D000220D2100F0ABFE204600F0A0
:1023500097FB002845D100220C21A06900F0A1FEC6
:10236000204600F08DFB00283BD1286820622046E3
:1023700000F086FB002834D12D6803E0284600F0E9
:10238000ABFB0546284601F061FB18B1002DF5D1E5
:1023900013E015E08DB1284601F053FB68B194F8C5
:1023A0002400800709D500220A21284600F079FE82
:1023B000204600F065FB002813D1A661A662E66204
:1023C000E06900E00DE000280BD094F830008007B1
:1023D00007D42046FFF786FE2046BDE8704000F097
:1023E0004FBB70BD2DE9FE4F04464FF000098569D3
:1023F00003E0284600F070FB0546284601F026FB66
:1024000018B1002DF5D1BDE8FE8F002DFBD0284678
:1024100001F00DFB0028F6D0284601F00DFB074621
:10242000208AB4F90CC02C4A604401B22182608A2F
:10243000B4F90E60304400B2608294F824305FEA50
:10244000C3781CD15FEAC77808D0002900DC494274
:10245000D2F8048098F81480414508DAB907D2D53B
:10246000002800DC40425168097D8842CBDB43F004
:10247000010084F824004FF00109C007C3D0BCF16B
:10248000000F01D1002EBED050689046C06805F004
:1024900030FA0290B5F910B0B5F912000190284653
:1024A00000F01AFB00F051FF0090284600F014FBEA
:1024B00000F045FF8246284600F0F3FB064628461A
:1024C00000F0E9FB032F11D0F90722D0B9F1000F7A
:1024D00005D0208A304401E0F002002006B2A08935
:1024E000304401B2284600F015FF20E0B9F1000F9A
:1024F00005D0218A31440EB2618A084400B2E189D4
:10250000084402B2A089304401B2284600F089FB99
:102510000DE0B9070BD5B9F1000F02D0618A08446C
:1025200000B2E189084401B2284600F0FEFE94F8AA
:102530002400800715D4EB690D212846D8F8042023
:102540009847204600F09CFA00287FF45CAF0022F8
:102550000821284600F0A5FD204600F091FA002849
:10256000F3D194F8240040F0020084F82400B5F977
:1025700010205A45E9D1B5F9122001998A42E4D1D7
:1025800020F0020084F82400284600F0A5FA00F0AC
:10259000DCFE0446284600F09FFA00F0D0FE0099C9
:1025A0008C42D2D15045D0D1D8F804004446C068FE
:1025B00005F09FF90299401A81B26068C06803B0C3
:1025C000BDE8F04F05F09AB92DE9F0410C460746F9
:1025D000011D002504F1100005F0BEFA10B3201D06
:1025E00005F0B2FB09E001463846FFF7EDFF0500B4
:1025F00018D13146201D05F0FEFB0600F3D1204620
:1026000001F00BFA70B1264609E0304600F066FA98
:1026100008B136B106E0304600F05EFA0646002EFC
:10262000F3D125462846BDE8F08170B5F84D044643
:102630008069286094F8301009077DD46968CE68F5
:1026400038B194F8241089071DD4102100F0B2FB92
:10265000C8B93046FFF7D6FC01462046FFF7B4FF65
:10266000286080B93046FFF7C5FC01462046FFF7D9
:10267000ABFF286038B93046FFF7AAFC0146204678
:10268000FFF7A2FF2860A6692868864257D0A08875
:102690002081E08860819EB1F369092130466A6833
:1026A0009847204600F0ECF9002845D1002202218D
:1026B000304600F0F6FC204600F0E2F900283BD15D
:1026C0002868A061E061C0B305F0B5F9A06294F894
:1026D000300020F0010084F8300094F8240020F04D
:1026E000030084F82400002020826082A081E08121
:1026F0000026286806E090F82C10890600D50646CA
:1027000000F0EAF90028F6D116B1304600F0C0FD1D
:10271000286807216A68C3699847204600F0B0F925
:10272000002809D100221146286800F0BAFC204692
:1027300000F0A6F9002801E080E000E07ED1A0884A
:102740002189401A02B2A281E0886189401A03B24D
:10275000E381B4F9140000EB800040F3CF01A182C3
:10276000B4F91600002900EB800040F3CF00E082AE
:1027700002DA01F1010102E002DDA1F10101A18211
:10278000002802DA00F1010002E002DDA0F1010000
:10279000E082A08A00EB6200A082E08A00EB630086
:1027A000E082286800286DD0C3694FF008016A688C
:1027B0009847204600F064F9002863D100220121E7
:1027C000286800F06EFC204600F05AF9002859D124
:1027D0002046FFF707FE204600F052F9002851D1AD
:1027E00094F8240080074DD494F83000C0072CD111
:1027F000A06A05F028F96A68D18A88421BD928683E
:102800000B21C3699847204600F03AF9002839D1D6
:1028100000220421286800F044FC204600F030F932
:1028200000282FD194F8300040F0010084F83000E7
:1028300005F001F9E06294F8240000E022E080074E
:1028400020D494F83000C0071CD0E06A05F0FBF8F3
:102850006A68118B884215D928680C21C36998478A
:10286000204600F00DF900280CD10022052128682F
:1028700000F017FC204600F003F9002802D105F013
:10288000DAF8E06270BD2DE9FF41614DC068686013
:10289000C16800295CD0FFF70AFC686890F84C001A
:1028A000400755D400266946686805F09FF807463A
:1028B0006868FFF7FCFB2E6069689DF80E000877DA
:1028C000012805D00878042808D1BDF80C0078B399
:1028D00005F0B1F86968C968C1F860016C682078D2
:1028E000012806D002282CD004282AD0032830D072
:1028F00027E0206D78B1B4F92420BDF900108A4298
:1029000005D1B4F92620BDF902309A4203D0BDF9B1
:10291000022000F086F9BDF800002084BDF8020016
:102920006084207F2DE004F11C00FFF77EFE04E0B0
:1029300007E004F11C00FFF7A2FC208CA084608C4F
:10294000E0846868FFF7B3FB002FACD16E602E60A7
:102950007AE4A06D0299022230F821002084A06D53
:10296000029902EB8101405E6084B4F92410B4F94D
:1029700020209142DDD1B4F926108142D9D19DF8B1
:102980000E000128D5D1CEE72148406870470028C5
:1029900000D00078704710B5044614F84C0F20F0B2
:1029A000010004F8080905F046F8606005F043F8F6
:1029B000206010BD002804D010F84C2F61F3820273
:1029C0000270704710B504460078012810D12165C7
:1029D000E068FFF717FB0146206D00F029FCB4F911
:1029E0002220B4F92010206DBDE8104000F019B984
:1029F00010BD0278032A00D1816570470278012A50
:102A000008D0032A06D04FF0FF30088005E0000010
:102A1000F0020020028C0A80408C488070470178C8
:102A2000022901D000207047406A7047002805D075
:102A30000178012903D0032901D00020704790F8C4
:102A40004000C0F340007047002320B10278012A03
:102A500004D0032A02D00B804B807047028D0A807D
:102A6000408D4880704710F84C1F41F008010170FC
:102A70007047002800D0006A704706480068704719
:102A800090F83000810702D5024A00211160C0F39E
:102A900040007047F002002010B5FE4C207800285E
:102AA00019D105F081FA05F0A4FB01F046FB01F015
:102AB0001DF84FF4B271F84805F0F1F85C21F748C1
:102AC00005F0EDF8FFF7F1FA04F04FFC012004F0F7
:102AD00085FB0120207010BD0068704790F82C0025
:102AE000C0F300107047014600680028FBD108467B
:102AF000704770B5016809B1FFF7F5FF0546E64874
:102B000005F022F912E004F12400064605F01CF954
:102B100006E0A94201D1204670BD304605F06BF9B0
:102B20000100F6D12146DC4805F065F90400EAD140
:102B300070BD7CB5054690F82C00C0F3001000284D
:102B400047D12846FFF7CFFF0446FFF7D2FF0646DE
:102B5000FFF73EFAA04209D03046FFF74BFAA042F9
:102B600004D03046FFF74EFAA04232D1298E2C68AD
:102B70002A6900926A690192BDF800200120521A68
:102B8000ADF80020BDF80220521AADF80220BDF8C1
:102B900004200A44ADF80420BDF806201144ADF825
:102BA00006100EE0694604F11002084604F08AFFA0
:102BB00000280ED094F82C10C1F30011002908D180
:102BC0002468002CEED1002803D06946304601F07D
:102BD0002DFA7CBD2DE9F041074615460E46001D35
:102BE00005F0B2F814E0208A2A4630442082608A38
:102BF000314628446082A08A3044A082E08A28447A
:102C0000E0822046FFF7E6FF2146381D05F0F3F885
:102C10000400E8D1BDE8F08102690A6040694860BB
:102C200070477CB505680446288A0144688A1044C8
:102C3000228A891A628A09B2801A61F30F0600B2E9
:102C400060F31F4609B9002824D02046FFF771FF22
:102C50002069009060690190208A31B20844208286
:102C6000608A321410446082A08A0844A082E08AFC
:102C70001044E0822046FFF7ADFFE3696A46022177
:102C800020469847EB69224601212846984720466E
:102C9000FFF74FFF7CBD0168408A498A401A00B2A5
:102CA00070470168008A098A401A00B2704707E03D
:102CB00090F82C10490602D590F82F007047006854
:102CC0000028F5D1FF2070470146806A002808D10E
:102CD000096839B18A6A002AFAD01278D207F7D186
:102CE000886A70470028FCD16D4870477CB50E4655
:102CF000054600F11004022A01D0DAB349E021466A
:102D0000304604F05EFF002836D02846FFF7DCFF8F
:102D10008179FB292FD3B0F90440A4F5F840183885
:102D200029D02869009068690190BDF800006946C3
:102D30002044ADF80000BDF80400001BADF804000D
:102D4000304604F03EFF002816D0286900906869DC
:102D50000190BDF8020069462044ADF80200BDF8BC
:102D60000600001BADF80600304604F02AFF0028DC
:102D700002D00EE001E000207CBD2846FFF7A4FF52
:102D800002462846FFF793FF03463146204604F0EB
:102D900035F901207CBD0162704710B50446002062
:102DA00020860246E3690521204698472046BDE873
:102DB0001040BEE690F82E00084000D00120704779
:102DC00070B514460B4606460125FFF77DFF012B23
:102DD00006D0052B0BD0042B11D0062B13D014E0FA
:102DE00001213046FFF7E6FF78B100250DE0B0F98C
:102DF0001010B6F93000814207DD318605E030461B
:102E0000FFF7CBFF01E027A02060284670BDC1611D
:102E100070472DE9F0410D4606004FF0FF084FF0D6
:102E2000000724D0301D04F069FF040072D0402157
:102E3000201D266004F033FF308A2082708A608271
:102E4000308A1E30A082708A1430E082278684F88F
:102E50003C7027876787676394F83D0020F0010086
:102E600084F83D0008F083F998B1806854E004F0DC
:102E7000C2FC00287DD0243004F040FF04002FD095
:102E80004021201D276004F00AFF2782678200206E
:102E90000CE040E0F8020020144400202044002010
:102EA000EC4100206C765F6F626A000004F0B5FCB4
:102EB000401EA082002004F0A1FC401EE082278674
:102EC00084F83C7027876787676394F83D0020F09B
:102ED000010084F83D0008F04AF910B1006801E0F3
:102EE000FEE7F848A062F848E061F848A761206270
:102EF00094F82C0084F82E7084F82F8020F0FF00C6
:102F000084F82C0094F82D0020F0FC0084F82D00AB
:102F10001AE0FFE7FEE7EE48A062EB48E061EB480D
:102F2000A761206294F82C0094F82D1020F0FE0088
:102F300041F0030184F82D1084F82E7084F82F805E
:102F400040F0010084F82C006762002D66D055F82F
:102F5000101F216169686161288C208695F82C001A
:102F600084F83C00288D2087688D6087686A6063DC
:102F700000E05DE095F82D0014F83D1F60F30001BE
:102F800004F81D19A86844F8080C297F207B61F318
:102F900000002073297F490861F341002073697F95
:102FA000627B61F301026273297F890861F3820009
:102FB0002073297FC90861F3C3002073297F0909A1
:102FC00061F304102073297F490961F345102073D0
:102FD000297FC90961F3C7102073297F890961F32B
:102FE00086102073A87FA073E87FE073A869A060B3
:102FF00055F8100D203C60B15EB12846FFF74BFE3E
:1030000002462846FFF74DFE01462046FFF709FE1F
:1030100005E0002211462046FFF703FE3EB1F369AA
:1030200022460121304698472046FFF782FD204680
:10303000F0E52DE9FE4305460020A64F00918DF8EE
:10304000040002907868984691460C4600B10290C0
:10305000C7F804D0BE68C7F80880FFF795FC18B120
:1030600082680AB14946904715B149462046A847AB
:10307000BE607868806878609DF8040060B974B1BB
:1030800094F82C0000060AD5206840B14246494613
:1030900000F007F8012802D00020BDE8FE830120DF
:1030A000FBE730B430B113460A4684690146204636
:1030B00030BCBEE730BC0120704770B50446001D2F
:1030C00004F042FE054608E02946201D04F093FE68
:1030D00006462846FFF7F1FF3546002DF4D10022C1
:1030E00013212046FFF7DDFF204600F0F1FC002011
:1030F00004F074FC0546002610E0686BA04202D084
:10310000A86BA04202D12846FEF7BCFFE86BA042A4
:1031100000D1EE63284604F061FC0546002DECD199
:1031200020682146001D04F075FE0022E369114667
:1031300020469847606A08B104F09DFF2046BDE82C
:10314000704004F098BF2DE9F0410446FFF7F1FC10
:10315000201D04F0F9FD054608E02946201D04F075
:103160004AFE06462846FFF7A8FF3546002DF4D153
:10317000002213212046FFF794FF204600F0A8FC10
:1031800026684EB12146301D04F044FE002004F0B4
:1031900025FC0546002716E02046FFF7AAFC21463D
:1031A0002430F1E7686BA04202D0A86BA04202D1A4
:1031B0002846FEF767FFE86BA04200D1EF63284680
:1031C00004F00CFC0546002DECD10022E369114609
:1031D00020469847606A08B104F04DFF204604F08D
:1031E0004AFF26B10022F3690121304698470020AA
:1031F00010E5A8E70146384804F00ABD00F10400D4
:1032000009B104F0F8BD04F09FBD70B5054600217A
:10321000FFF7F4FF044608E021462846FFF7EEFFDB
:1032200006462046FFF78FFF3446002CF4D170BDD0
:103230002DE9F041054600680C46002827D0002CF7
:1032400025D02846FFF775FC2846FFF72AFD804663
:103250002846FFF720FD2E680746301D01232A4629
:10326000211D04F026FE3A46414628462C60FFF711
:10327000D8FC0022F369012130469847E3692A46C9
:103280000121204698472846BDE8F04151E4C1E4B9
:1032900070B504680546201D04F056FDA8421DD0F7
:1032A0002046FFF746FC01232A46211D201D04F07D
:1032B00000FEE3692A460121204698472046BDE8E2
:1032C000704036E4FC400020C12D0008ED2C0008C1
:1032D00028420020F8020020F331000870BD70B5CC
:1032E00004680546201D04F08FFDA84211D0204639
:1032F000FFF71FFC00232A46211D201D04F0D9FDE5
:10330000E3692A460121204698472046BDE87040DF
:103310000FE470BD10B50B460446FFF7BCFC024637
:103320002046BDE8104019467BE410B50A46034626
:10333000FFF7B7FC0146BDE81040184671E4C18AAA
:10334000408A081A401C00B27047818A008A081A15
:10335000401C00B270472DE9F0471F4616460D4647
:103360000446DDF82090FFF79CFC02462046FFF75C
:1033700092FC05B92568152E2DD2DFE806F00B1A50
:103380001C2D363A4953555F61707E80B4BEC4C966
:10339000CED3E7002846FFF7D8FF02462046FFF7C6
:1033A000D4FF02EBD271491000EBD070A1EB6000AA
:1033B00042E000220EE02846FFF7C7FF0246204603
:1033C000FFF7C3FF02EBD271491000EBD070A1EB05
:1033D000600096E0002064E02846FFF7B6FF024652
:1033E0002046FFF7B2FF101A8BE00022B2E000B2D5
:1033F00057E02846FFF7A9FF02462046FFF7A5FF42
:1034000002EBD271491000EBD070A1EB600007E035
:103410002846FFF79AFF02462046FFF796FF101A4C
:1034200002B297E0002281E02846FFF78EFF0246B5
:103430002046FFF78AFF101A02B277E0002217E059
:103440002846FFF782FF02462046FFF77EFF02EB89
:10345000D271491000EBD070A1EB600007E0284664
:10346000FFF773FF02462046FFF76FFF101A02B204
:103470002046FFF764FF4042B9E700220EE02846ED
:10348000FFF763FF02462046FFF75FFF02EBD271B2
:10349000491000EBD070A1EB60002CE02846FFF74C
:1034A0004EFFD4F80080B5F810C06B8AB8F8101041
:1034B000BC44B8F8128062444B441844511AA0EB43
:1034C000080002B209B22046FFF7ABFB84F83C606B
:1034D0002787A4F83A9044F8345F607A20F002001D
:1034E0006072BDE8F0872846FFF72FFF02462046AE
:1034F000FFF72BFF101A02B2D0E72046FFF725FF97
:10350000404202B266E72046FFF71FFF404293E7C2
:103510002046FFF71AFF404282E72846FFF715FFD3
:10352000024657E72846FFF710FF02462846FFF7F6
:1035300006FF03462046FFF702FF014603EBD37068
:10354000401001EBD171A0EB610050E72846FFF776
:10355000FCFE02462846FFF7F2FE03462046FFF730
:10356000EEFE181A43E72DE9F047984616460D4639
:103570000446DDF82090FFF794FB03462046FFF752
:103580008AFB02462046FFF7E0FE00EBD0704FEAD0
:10359000600C2046FFF7D3FE00EBD070471005B952
:1035A0002568152E18D2DFE806F00B13353D454887
:1035B000505B5E13353D454850135B453D5E500002
:1035C0002846FFF7C2FE00EBD070CCEB60004FE066
:1035D000CCF100002BE002B220686F8AB5F810C071
:1035E000018A408A4F44C4443A446344101A591A29
:1035F00002B209B22046FFF714FB84F83C60A4F83D
:103600003880A4F83A9044F8345F607A40F00200C1
:10361000607266E72846FFF798FE00EBD070CCEBAF
:10362000600004E02846FFF790FEA0EB0C0003B218
:103630007842D0E7CCF100000CE02846FFF785FE89
:1036400000EBD070CCEB600004E02846FFF77DFE75
:10365000A0EB0C0003B22846FFF771FEC01BBAE7CF
:10366000CCF1000004E02846FFF76FFEA0EB0C0051
:1036700003B22846FFF763FE00EBD070C7EB600093
:10368000A9E738B590F83D10B0F93A408D07B0F988
:10369000383090F83C20416B009402D5FFF763FF6F
:1036A00038BDFFF758FE38BD7CB515460E460446BA
:1036B000FFF74BFEB04204D12046FFF740FEA84280
:1036C00031D02046FFF735FA2069009060690190FB
:1036D000208A761E3044A082608A6D1E2844E082D3
:1036E000E3696A46022120469847206818B1C369F9
:1036F000224601219847201D04F026FB07E0002206
:10370000EB69032198472946201D04F074FB05004E
:10371000F5D12046FFF70DFA94F83D00C00702D01E
:103720002046FFF7AEFF7CBD10B50B460446FFF701
:1037300006FE02462046BDE810401946B4E710B523
:103740000A460346FFF701FE0146BDE81040184651
:10375000AAE710F83D2F61F300020270704770472E
:1037600010B50446FFF7E5F90022E369042120467D
:1037700098472046BDE81040FFF7DBB970B5054615
:10378000002109E0A26A62B11078C00702D0204689
:10379000FFF7F4FF21462846FFF730FD0400F1D182
:1037A00070BDFFF7EBFF2046FFF7DAFFF2E710B539
:1037B00004468162FFF7E2FF2046BDE81040CFE7F4
:1037C00070B505460E46081D04F0BEFA11E0A06A69
:1037D000A84200D02DB92046FFF7D0FF2046FFF7C2
:1037E000BFFF21462846FFF7EBFF2146301D04F0BE
:1037F00002FB0400EBD170BD2DE9F041054600202D
:1038000017E006F12400074604F09EFA0EE0A06AD5
:10381000A84200D015B92046FFF7A2FF214628464E
:10382000FFF7CEFF2146384604F0E5FA0400EED15A
:10383000304604F054F80600E3D1D9E470B50446EC
:1038400090F82C000D46C00602D42046FFF771F90F
:1038500094F82C0065F3041084F82C00C00602D400
:103860002046FFF766F9206822460121C369BDE8BA
:103870007040184710F82C2F61F300020270704757
:1038800010F82C2F61F345120270704710B50C0030
:10389000034602D00121FFF7EDFF13F82C0F64F36C
:1038A0004100187010BD90F82D2061F3010280F8DE
:1038B0002D20910701D00121E8E7704710F82C2F47
:1038C00061F382020270704710F82C2F61F3C3027B
:1038D0000270704710F82C2F61F3C7120270704706
:1038E00010F82C2F61F386120270704780F82F10A9
:1038F000FFF71FB910F82E2F0A430270704710F817
:103900002E2F8A4302707047816170477648806825
:103910007047C369002B00D01847704710B50446A4
:10392000406A04F0CDFB606210BD00F1040009B1F3
:1039300004F002BA04F068BA70B505460024001D10
:1039400004F002FA04E0641CA4B2281D04F053FA47
:103950000100F8D1204670BD70B506460025001D57
:1039600004F0F2F908E06D1CFFF7F6FF284485B279
:103970002146301D04F03FFA0400F4D1284670BD02
:1039800000B50B46FFF7A0F9017B490703D519885D
:10399000428911441980017B090703D5998842891E
:1039A000891A9980017B890703D559884289114476
:1039B0005980017BC90703D0D9884089081AD8806B
:1039C00000BD00B50346FFF77FF902461846FFF732
:1039D000BCFC118B401A518B401A00B200BD00B5DF
:1039E0000346FFF771F902461846FFF7A8FC918AD3
:1039F000401AD18A401A00B200BD90F83D00C0F3D1
:103A0000000070470020704700207047002070477A
:103A100000207047B0F93000704790F82C00C0F3D8
:103A20000000704790F82C00C0F34010704790F8E9
:103A30002C00C0F34000704790F82D0000F0030008
:103A4000704790F82C00C0F38000704790F82C006D
:103A5000C0F3C000704790F82C00C009704790F880
:103A60002C00C0F38010704790F82E007047C0699A
:103A70007047006A704780697047406A704730B588
:103A80000D46044689B02021284607F040FE20213B
:103A9000684607F03CFEE3696A46062120469847DF
:103AA00000226C4654F8220018B1521CD2B2082AE7
:103AB000F8D3002308E0D01A04EB800050F8040C7F
:103AC00045F823005B1CDBB29342F4D309B030BD50
:103AD00005490122496804E00B68834200D10A715C
:103AE00089680029F8D17047F80200207047FE4825
:103AF0004068704770B5FC4D686803F0F8FE0446F6
:103B0000686803F007FF10B1A069C007FCD1A06985
:103B100040F00100A0616868C3681BB104F11001A6
:103B2000A26898472068002806D06168002903D061
:103B3000A268824201D1A16070BDA06070BD70B565
:103B4000044690F82C008AB00E46C0065FD4258E3D
:103B500069462046FFF760F8BDF800006A46401B42
:103B6000ADF80000BDF802003146401BADF8020080
:103B7000BDF804002844ADF80400BDF80600284450
:103B8000ADF8060004A803F09DFF00283FD0236A8B
:103B9000002204A92046984769462046FFF73CF8D2
:103BA0006A46314606A803F08DFF58B3201D04F085
:103BB0002BF925E002A9FFF72FF8288EBDF8081091
:103BC00002AA091AADF80810BDF80A10091AADF8D2
:103BD0000A10BDF80C100144ADF80C10BDF80E1021
:103BE0000844ADF80E0006A908A803F06BFF18B151
:103BF00008A92846FFF7A3FF2946201D04F09CF8DA
:103C00000500D7D1236A012204A9204698470AB0AB
:103C100070BD70B50E46040004D1B3484068FEF78D
:103C2000D7F904463146FFF78AFF0EE02946201DEA
:103C300004F082F8050003D03146FFF780FFF5E776
:103C4000236A012231462046984725462846FEF73A
:103C500043FF0400EAD170BD2DE9F0410C46074650
:103C60000025103103F0ADFF28B394F82C00C006F6
:103C700021D4201D04F068F809E001463846FFF71A
:103C8000EBFF050017D13146201D04F0B4F8060003
:103C9000F3D12046FFF718F88079FF280BD1236A6B
:103CA000022239462046984728B12046FEF7FFFFFA
:103CB000FF2800D125462846BDE8F0817CB58A4D15
:103CC0000646686803F013FE0446686803F022FEA7
:103CD00010B9A069C007FCD104F110023146684652
:103CE00003F0F0FE6868FEF773F901466846FFF7D7
:103CF000B3FF6946FFF78DFF6868FEF77BF96946F9
:103D0000FFF787FF6868FEF77DF96946FFF781FFD7
:103D1000686803F008FE002801D1FFF7EBFE7CBDC8
:103D20002DE9FC47704E0546706803F0FCFD4FF02E
:103D3000000A90B1706803F0DAFD0446A0F810A004
:103D40005746706803F069FD411EA1826782706862
:103D500003F054FD411EE1826EE0B146706803F04D
:103D6000C6FD0446A8882988401A401C07B2E88886
:103D70006988401A401C06B2D9F8040003F03EFDE1
:103D80000146B5F90600814205DCD9F8040003F0CC
:103D900035FD401E00B28046E068B0FBF7F7B74241
:103DA00000DD3746D9F80400006910B3ADF800A073
:103DB000781EADF804A0ADF802A006B2ADF806601A
:103DC000D9F80400694602699047BDF80600BDF8BD
:103DD0000210401A401C00B2B84205DD761E36B211
:103DE000002EEBD1BDE8FC87002EFBD0BDF906709C
:103DF0007F1C4FF00009B5F9020010E02A882282EA
:103E0000AA88A282608208B2E082404501DDA4F85F
:103E10001680B4F916902846FFF750FF30B2C61945
:103E2000711E4145EADDC845DCD029882182A98878
:103E3000A1826082A4F816802846BDE8FC473DE7D1
:103E40002DE9FC410025DFF8A08052E0284490F8DD
:103E50003C01E0BB00243FE0011991F83C11B9BBE3
:103E6000A54238D000EBC40100EBC5003C303C312A
:103E700003F08BFE60B37068B04600EBC40200EB49
:103E8000C50168463C313C3203F044FE684603F00D
:103E90000BFE0646D8F8040000EBC5003C3003F0EA
:103EA00003FE0746D8F8040000EBC4003C3003F0E2
:103EB000FBFD384486420ED2D8F80410009A01EB7C
:103EC000C5002144C263019A0264012001E00FE0B1
:103ED00001E081F83C01641CD8F804004646B0F8C3
:103EE0005C11C1F3090101E004030020A142B3D831
:103EF0006D1CD8F80400B0F85C21C2F30902AA4294
:103F0000A4D8BDE8FC812DE9F84F044603F093FDE9
:103F10000090E068864C6060FFF792FF00F0E5F8E3
:103F20006068B0F85C1189056DD0A24603F0FBFC17
:103F3000E8B35546DAF8040003F0D9FC0446FFF76D
:103F4000D9FDA069C007FCD1A168206889468142DB
:103F500000D160688046686803F05FFC0746002473
:103F6000AA462BE0021992F83C212ABB00EBC400C0
:103F70000E4630F93C1FB0F9022007FB021500F095
:103F8000AEF88346706800EBC400B0F93E6009E00B
:103F900008EB050109EB05005A4607F09FFB761C6C
:103FA0003D4436B2DAF8040000EBC40000E00EE055
:103FB000B0F94200B042EBDA641CA4B2DAF80400B3
:103FC0005146B0F85C21C2F30902A242CAD8DAF81D
:103FD00004004FF4807154463C3007F098FB606851
:103FE000202100F59E7007F092FB60680021C0F868
:103FF0005C11806938B1009803F025FD01466068C6
:10400000226883699847BDE8F84F00F0B8BB10B547
:1040100038B1006ABDE8104075E7206AFFF773FF0A
:10402000204603F05CFC0400F7D110BD7FB50D46BF
:10403000040003D103F0DFFB040021D00026EDB122
:10404000ADF80060ADF8026003F0E7FB401EADF88C
:104050000400204603F0D2FB401EADF806006A467D
:10406000294602A803F02EFD002809D022691AB1C2
:104070002F4802A94068904700250CE0C0F85C6119
:104080007FBD04EBC50102A83C3103F09AFD002876
:10409000F6D16D1CADB2B4F85C01C0F30900A842C2
:1040A000EFD8B4F85C01C0F30900202806D204EB75
:1040B000C0000299C1630399016405E0C4F85C6122
:1040C0000099E16301992164B4F85C01C0F309002F
:1040D000401CC4F85C017FBD154948607047818869
:1040E0000088081A401C00B2704770B5104D0020BF
:1040F0000446286014E0011991F83C1179B900EBED
:10410000C4003C30FFF70CFE6868816939B100EBF0
:10411000C4003C3003F0C8FC296808442860641CD3
:104120006868B0F85C11C1F30901A142E3D870BD21
:10413000040300203C2207F0D1BA2DE9F041FF4CE6
:104140000020FF272070FE48A77101250078A0708D
:10415000FB48302211460079E0700020A0802083C7
:104160006083A082E082A5832072677360810F2044
:104170002073F348007AA073A5740020208284F88D
:104180002C70104600F0DCFA84F82000D82296212A
:10419000552000F0D5FA84F82100EA48606200203A
:1041A000208502262022668584F83270114610464A
:1041B00000F0C6FA84F83000002084F83100202294
:1041C00084F838701146104600F0BAFA84F83400CA
:1041D000E686002084F83900214601F1F000FFF75F
:1041E000A9FF04F1F0000146058345838582C5825D
:1041F0003C30FFF79FFFF0221146104600F0A0FA76
:1042000004F58077F02207F84C0F1146104600F0B5
:1042100097FAF02238741146104600F091FA38757A
:10422000D8229621552000F08BFA07F81E0C07F8CB
:104230001D0C04F1F00101F17800FFF77BFF202253
:104240001146104600F07CFA04F5C074202220725A
:10425000114610464F3400F073FA202204F8370C50
:104260001146104600F06CFA04F8330CB448A4F17F
:1042700067084022007BB877B1481146007CF87788
:10428000A8F80460104600F05BFA87F82400A8F84C
:104290000A504C2188F80D10414601F13C00FFF70F
:1042A00049FFE0221146104600F04AFAE02204F8E5
:1042B0000B0C1146104600F043FAC0226071114603
:1042C000104600F03DFA6072C7229A216B2000F080
:1042D00037FA04F8290C8B2259212B2000F030FAF0
:1042E00004F8280C42222C21152000F029FA04F8A9
:1042F000230CA4F1DF01A1F1B400FFF71BFFA4F22E
:104300009310002105704181817101463C30FFF717
:1043100011FFA4F257100021018341838182C182E1
:1043200001463C30FFF706FFA4F21B1100208883F2
:104330003C3101F1F000FFF7FDFED022A2217620F2
:1043400000F0FEF9E0745D223A21192000F0F8F93E
:10435000207504F111070720BE803883788305207B
:10436000B882F8820320B883282219210B2000F09C
:10437000E7F960767D81B22078737148FF2211469B
:10438000007DE07700203882104600F0D9F9313402
:10439000FF2220701146104600F0D2F920743946F1
:1043A00001F13C00FFF7C6FE94226221332000F0A9
:1043B000C7F9A0773C222621102000F0C1F9E07750
:1043C000C622B521A42000F0BBF984F83C00C62227
:1043D000B521A42000F0B4F984F84C00C622B52120
:1043E000A42000F0ADF984F85000394601F17800BE
:1043F000FFF7A0FE222211210A2000F0A1F984F883
:104400005A0090226221372000F09AF984F85B006C
:104410000D220721012000F093F984F86000F422B6
:10442000DD21C82000F08CF984F87800F422DD2129
:10443000C82000F085F98034F4222072DD21C820E4
:1044400000F07EF92073A4F1280101F13C00FFF790
:1044500071FE27221421022000F072F9A07570224B
:104460004C212B2000F06CF9E075C622B521A42068
:1044700000F066F984F83400C622B521A42000F0CB
:104480005FF984F84400C622B521A42000F058F951
:1044900084F84800394601F1F000FFF74BFED822BE
:1044A0001146104600F04CF9D82284F8520011460B
:1044B000104600F045F9902284F85300114610464A
:1044C00000F03EF9702284F858001146104600F0C2
:1044D00037F9702284F870001146104600F030F968
:1044E0008034702220701146104600F029F92071A6
:1044F000BDE8F0812DE9F0410D46064680798979C5
:1045000014461F46884203D0091A794300EB212044
:10451000A071B6F90400B5F90410884203D0091A55
:10452000794300EB2120A080B6F90A00B5F90A1002
:1045300088420BD0091A794306E00000FC400020B5
:10454000FCBF0008500F002000EB21206081707B31
:10455000697B884203D0091A794300EB21206073FC
:10456000B6F91000B5F91010884203D0091A794342
:1045700000EB21202082B6F91800B5F91810884206
:1045800003D0091A794300EB21202083B6F91A00E1
:10459000B5F91A10884203D0091A794300EB21209B
:1045A0006083B6F91400B5F91410884203D0091AD3
:1045B000794300EB2120A082B6F91600B5F9161058
:1045C000884203D0091A794300EB2120E082B6F932
:1045D0001C00B5F91C10884203D0091A794300EB7E
:1045E0002120A083B6F92A00B5F92A10884203D009
:1045F000091A794300EB21206085B6F92800B5F946
:104600002810884203D0091A794300EB2120208525
:1046100096F82C0095F82C10884203D0091A79439B
:1046200000EB212084F82C00B6F93600B5F93610DD
:10463000884203D0091A794300EB2120E08696F8DE
:10464000380095F83810884203D0091A794300EBF6
:10465000212084F8380096F8310095F8311088420E
:1046600003D0091A794300EB212084F8310096F831
:10467000320095F83210884203D0091A794300EBD2
:10468000212084F83200B7F5807F3ED0184600F034
:10469000FF08B178A878424600F04AF8A070F17897
:1046A000E878424600F044F8E0704246B168A868F5
:1046B00000F03EF82072B17BA87B424600F038F84B
:1046C000A0734246316A286A00F032F884F820006C
:1046D0004246316B286B00F02BF884F830004246DC
:1046E000716B686B00F024F884F83400802F0ED2D0
:1046F000307B2073307800F001002070706A6062B7
:10470000B07CA07496F839000DE0FF20BFE7287B4D
:104710002073287800F001002070686A6062A87C2D
:10472000A07495F8390000F0010084F83900DFE644
:104730007F2A02D900F00100704701F001007047A4
:104740000A430243C2F3C7107047000010B5444942
:10475000444C0B682268984201D8104610BD08608E
:104760003AB10146104603F0ABFC20600028F5D1B9
:10477000FEE703F046FC20600028EFD1FEE710B50D
:10478000384C2068002805D003F075FC344900201F
:104790002060086010BD00280AD0082809DA304BD4
:1047A0001B1D03EB800050F8040C405C5043000AD2
:1047B0007047012303EB41015143400091FBF0F0AE
:1047C000C0B270472DE9F84F9946DDE90AA71500F8
:1047D000884683464FF0000602D50126504205B2B6
:1047E000002412E03A4621462846FFF7D4FF0EB1D6
:1047F000381AC0B2009008EB040001B253464A4692
:10480000584600F031F8641C24B2AC42EADBBDE843
:10481000F88F2DE9F84F9946DDE90AA715008B4678
:1048200080464FF0000602D50126504205B2002412
:1048300012E03A4621462846FFF7ADFF0EB1381A7E
:10484000C0B2009008EB040000B253464A465946F5
:1048500000F00AF8641C24B2AC42EADBD7E700009F
:104860000C030020401B00202DE9FE4399460A9DC1
:104870000E460746102D2ED3FB2D00D9FF25B2F989
:104880000000B84227DCB2F90400B84223DBB2F9D9
:104890000200B0421FDCB2F90600B0421BDBFFF79A
:1048A00026F9804603F023F80446103000F097FB09
:1048B000218A791A0BB2618A711A0AB2D8F8146087
:1048C00009F0FF014EB1009202958DF804100246E6
:1048D0004046A168B047BDE8FE83A468FF2D23448D
:1048E00002FB003406D021782A46484600F06FFBD0
:1048F0002070F0E72170EEE72DE9FF4F83B01446FA
:104900008946DDF840B0FFF7F2F882464169069823
:1049100000F0FF0801B3B4F9006016E0B4F90250EA
:104920000DE0CDF808B08DF804800095DAF8147029
:10493000504633464A460399B8476D1C2DB2B4F928
:104940000600A842EDDA761C36B2B4F90400B04293
:10495000E4DA07B0BDE8F08FB4F902200399BBF1A7
:10496000FF0F02FB09160AD04FF0000A51460F460E
:104970005A46069800F02BFBB4F9021041E0B4F956
:10498000000003E006F80080401C00B2B4F90410F7
:104990008142F7DAB4F90000A18800EB0608081A92
:1049A000401C07B260884E44401C05B209E0B4F9CF
:1049B00000003A463044414606F090FE6D1C4E44DD
:1049C0002DB2B4F90600A842F1DAC2E7B4F90050FA
:1049D0000FE0BAF1000F0AD1715DCA07B2EBC77FD1
:1049E00004D00F465A46069800F0F1FA70556D1C37
:1049F0002DB2B4F90410A942EBDA08F101014E44DA
:104A000009B2B4F9062088464245DFDAA1E770B55D
:104A100086B01D461646102B32D3FB2D00D9FF253C
:104A20000A46014603A803F04DF8002828D0FFF7F6
:104A30005EF802F05CFF0446BDF80C00218A401AC3
:104A4000ADF80400BDF80E00618A401AADF806000A
:104A5000BDF81000218A401AADF80800BDF8120018
:104A6000618A401AADF80A0004F1100000F0B7FAAC
:104A70000095A4680146334601AA2046FFF73CFF93
:104A800006B070BD2DE9F04F97B00646FBA01F465B
:104A900000681390FAA0154600681490F9A00C461F
:104AA0000FC8DDF884A00DF12408BAF1100F88E8D2
:104AB0000F006FD3BAF1FB0F01D94FF0FF0A002DA1
:104AC00068D000233A4607A9284602F0E1FC0028F6
:104AD00060D030889DF92010084400B20490287AF4
:104AE000697A401A718808449DF81F10411A9DF98F
:104AF0002100081A0FFA80FB9DF82200012809D036
:104B000002280BD0042846D0082843D10020059065
:104B1000FF2006E013A80590802002E014A805906D
:104B2000C02003903946284602F0B0FC060031D080
:104B30009DF81E1004980844B4F90010884229DB3F
:104B4000B4F904100498814224DB9DF81F1001EB96
:104B50000B00B4F9021088421CDBB4F90610594569
:104B600018DBFEF7C4FF109002F0C1FE8146103042
:104B700000F035FA0F909DF81E109DF82270B4F9E0
:104B80000000049AD9F8085001FB07F3904206DCB4
:104B9000002005E0CBE009A80590F020C1E7801ACD
:104BA00000B20E90B4F904000A44824202DD049976
:104BB000411A491C08B20690B4F90200584501DCBC
:104BC000002001E0A0EB0B009DF81F20B4F90610B7
:104BD00002EB0B0C00B28C4502DDA1EB0B02521C68
:104BE00011B21591B9F912200F99ABEB0204049A96
:104BF00004FB0122B9F91010511A0E9A29440A44F3
:104C00000F9900FB01250E9A00FB03F102FB07112F
:104C100006EBD10801F007040021CDE9110120982D
:104C2000C0B20D9011987EE0039F0E9EE7405FE0BA
:104C30009DF8220098F80020C4F108010B1A3A40B0
:104C4000DA4044D0BAF1FF0F24D0082827D00598C5
:104C5000805C00FB0AF0020A1098D0F814C0BCF186
:104C6000000F20D00D9802928DF80400119800EBEF
:104C70000B01B9F81200081A00B20090049831181C
:104C8000B9F81000081A03B2DDE90F20D9F80810AE
:104C9000E0471CE00828DFD00598825CDCE702FBD7
:104CA0000AF2120AD8E729780D9801F0010300F002
:104CB000010083420BD0FB2A01D90D9806E0102A8F
:104CC00005D9129818B9209800F081F928709DF83C
:104CD00022006D1CC0F10801A14203DD01198CB254
:104CE000C74003E0039F002408F10108761C36B298
:104CF000069886429CDB9DF81E10091A0E980844FF
:104D00009DF8221000FB014080B208EBD00800F0B3
:104D100007040E990698411A0F98401A05441198F5
:104D2000401C00B2119015998842FFF67DAF17B074
:104D300010E62DE9FF4F8BB005460E98144610285B
:104D400070D3FB2801D9FF200E900A46294605A8FA
:104D500002F0B8FE002865D0199808B1022000E0E2
:104D600001208146284600F03AF90390B5F9021077
:104D7000BDF91620914204DA501A0399484300FB0A
:104D80000944B5F90000BDF91410884202DA091A85
:104D900001FB0944FEF7ABFE834602F0A8FD804606
:104DA000BDF81410008A081AADF81400BDF81610EA
:104DB000B8F81200081AADF81600BDF81810B8F8C7
:104DC0001000081AADF81800BDF81A10B8F8120053
:104DD000081AADF81A0008F1100000F000F904906C
:104DE000BDF91620D8F8081000FB0210BDF9141008
:104DF0000D1805A800F0F3F8089000200A90DDE9EE
:104E00001801084304D10E98FF2801D11B9850B116
:104E1000DDE91A020021099100F0D9F80790BDF9E7
:104E20001600C6E028E0DBF8140098B3BDF9166060
:104E30001EE0002514E005FB09400E9900788DF86E
:104E400004000096BDF814000291284403B2DBF878
:104E500014705846D8F80810049AB8476D1C2DB243
:104E600008988542E7DB0398761C00FB094436B2BC
:104E7000BDF91A00B042DCDA0FB06BE500FF0000AC
:104E80000055AAFF00112233445566778899AABBC2
:104E9000CCDDEEFFFFE7BDF9160020E0DDF838B00D
:104EA000DDF820A0BBF1FF0F01D000260DE0524637
:104EB0002146284606F012FC09E0AF19A05D3978BA
:104EC0005A4600F084F83870761C5645F5D303989E
:104ED00000FB09440498054408F1010000B2BDF943
:104EE0001A1080464145D9DAC6E7002656E006FB8F
:104EF000094119980E9F0028087805D0497879B3A0
:104F0000FF2901D079430F0A189939B19BF81C1079
:104F100000F0010201F001018A423DD01B9901B36A
:104F20000999C907B1EBC07F06D001460990DDE9B8
:104F30001A0200F04CF80790DBF814C0BCF1000F27
:104F400002D00297079812E0FF2F05D0A91900910F
:104F500009783A46079836E0079800F00100A8550E
:104F60001AE0DBF814C0BCF1000F0ED002978DF8E8
:104F70000400CDF800A0BDF81400D8F808103044A3
:104F800003B25846049AE04706E0FF2F02D00A9980
:104F9000A9B101E0A9190870761C36B208988642BA
:104FA000A5DB039800FB0944049805440AF10100BD
:104FB00000B2BDF91A108246514596DA5CE7A9198C
:104FC000009109783A4600F002F80099E3E77F2A59
:104FD00002D900F00100704701F00100704781889C
:104FE0000088081A401C00B27047000000210C28FD
:104FF0000BD006DC022808D0052806D00B2805D1E6
:1050000003E00D2801D00E2800D101210846704789
:1050100001460020C91E082906D2DFE801F0040578
:10502000050404040404012070472DE9FF4F8BB0F0
:105030001546074602461C4606A8189E0C9902F023
:1050400041FD002830D094F83200FF2E01D070438B
:10505000000A08902146284602F026F8050024D0D0
:10506000287C00F01F00FFF7D3FF8246287C00F069
:105070001F00FFF7BBFF8046E869D0B1FF23FD4A60
:1050800038460C9901F0BAFF00204FF6FF71CDE9C8
:105090000410CDE90201E969CDE90010FF23F54ACA
:1050A00038460C9900F096FA62E000200FB0BDE897
:1050B000F08F6A6972B194F83100039094F830006F
:1050C0008DF80800CDE900A83846089B0C99FFF739
:1050D00030FE4DE0BDF81C00BDF81810401A401C11
:1050E00000B28346FFF732FB81460698049007988A
:1050F0000590012104A802F0BBFCBDF81800398816
:10510000BDF91A60401A00B209907888301A07B2C7
:105110002AE05B463A46CDF800902846099902F00D
:105120008DF9012803D0284602F09AF9BDE794F8DA
:105130003100039094F830008DF80800CDE900A804
:105140004A4604A8089B0C99FFF7F3FDBDF812002E
:105150007F1C401CADF81200BDF816003FB2401C89
:10516000761CADF8160036B2BDF91E00B042D0DA9A
:1051700001209BE7F0B587B007460C980E46002447
:105180004FF6FF75D2B100903846FFF74EFF00286A
:1051900012D1B84AFF233146384601F02FFFCDE93E
:1051A0000454B5A0CDE90004CDE90245FF23B14A7E
:1051B0003146384600F00EFA07B0F0BDFF23AD4A85
:1051C000EAE7014600200F290AD2DFE801F00909C9
:1051D00009091008100A0C0E100A0C0E10001020FD
:1051E0007047012070470220704704207047082054
:1051F0007047F0B50746006815460C460021C0F31D
:105200008A22A24201DC541E02E0002C00DA0024B3
:10521000B5EB505F04DB4FF0FF3505EB505502E076
:10522000002D00DA002500F01F00BE68042814D00D
:10523000062812D0052810D007281AD0082824D014
:1052400009282ED00A283BD00B283FD00C283DD06F
:105250000D283BD00E2839D03AE0FFF7B2FFC10845
:105260003868C0F38A2000FB054000FB016001782C
:105270002EE0E110D20802FB0511083604F0070009
:10528000715CC0F10700012216E0A007A11092088E
:10529000400F02FB05111036C0F10600715C0322BD
:1052A0000AE061105208E007400F02FB051140368A
:1052B000C0F10400715C0F2282401140C14007E040
:1052C00002FB054006F58066315C01E003B1196B15
:1052D000C8B2F0BDFFB50468C4F38A238B4201DC79
:1052E000591E02E0002900DA0021B2EB545F04DB12
:1052F0004FF0FF3202EB545202E0002A00DA0022A3
:10530000806804F01F04052C08D00B2C0DD00C2C49
:105310001DD00D2C29D00E2C3AD016E003FB021123
:1053200000EB4100407804B0F0BD01F00704C91063
:10533000DB0803FB02110122415CC4F1070082403B
:105340001140C14001D00020EDE7FF20EBE74CA465
:10535000246800948C07640F89109B0803FB0211DA
:105360000322415CC4F106000DE046A4F0CC8DE8B8
:10537000F000CC07640F49105B0803FB02110F22F9
:10538000415CC4F1040082401140C140684601E024
:1053900003FB0211405CC6E77FB51546026806466E
:1053A000846802F01F000B46042816D0062814D08B
:1053B00005281ED09DF80C10072801F0010129D006
:1053C000082835D0092846D00A2843D1C2F38A20BC
:1053D00000FB053004F580643BE0FFF7F2FEC208F5
:1053E000306803A9C0F38A2000FB053000FB0240AF
:1053F0000BE0FFF7E6FEC208306803A9C0F38A207D
:1054000000FB053000FB0240521E04B0BDE87040B6
:1054100006F064B9C2F38A22D810D20802FB050054
:1054200003F007060834C6F10702235C01250CE0EF
:105430009807460FC2F38A229810920802FB0500D3
:105440001034C6F10602235C03259540AB4391401E
:10545000194321547FBDD807460FC2F38A22581042
:10546000520802FB05004034C6F10402235C0F25FC
:10547000EBE70000EC4100204E6F0A6461746100AC
:105480000055AAFF00112233445566778899AABBBC
:10549000CCDDEEFFF0B50D4601680746846801F0EB
:1054A0001F00164605280DD00B2819D00C2825D032
:1054B0000D2836D00E2804D1C1F38A2000FB0250FB
:1054C0002354F0BDFFF77DFE3968C008C1F38A217F
:1054D00001FB065100FB0100204400F8013CF0BD37
:1054E000DA09E810C1F38A21C90801FB060005F0BA
:1054F0000707235CC7F1070101250CE0A807470F48
:105500009A09A810C1F38A21890801FB0600C7F196
:105510000601235C03258D40AB438A401A43225485
:10552000F0BDE807470F1A096810C1F38A2149083E
:1055300001FB0600C7F10401235C0F25EBE70378AC
:1055400003F01F030B2B01D1012911D80C2B01D122
:1055500003290DD80D2B01D10F2909D80E2B07D007
:10556000D20701D04FF0FF32806800EB810002606B
:105570007047032130B10078A0F120015F2903D8E2
:105580000120704708467047802801D302207047E9
:105590000020704701460020A1F13002092A01D8FD
:1055A000D0B27047612901D32039C9B241390629E7
:1055B000F7D2DFE801F0030507090B0D0A20704759
:1055C0000B2070470C2070470D2070470E2070474D
:1055D0000F2070472DE9FF4F9BB01446DDE9289856
:1055E0002D9D526A9B4614925FEA887003D41B98E3
:1055F00000F0E5F90EE0B4F92A00434647F61841F9
:105600008DE80B00B4F92830494604A802F0FBFFEE
:10561000BDF9100002901498618D2A9A007A08440E
:105620000FFA80FA1B980088ADF80C001B98B0F9AF
:1056300002100020ADF80E1004903AB1B2F900004B
:105640000490B2F902000144ADF80E100026731E5A
:10565000DDB1D0B91B98AA68B0F90210501A002821
:1056600000DC881ACAF100014FF4806202EB4101AC
:10567000884200DD2B602868002806DB0646BDF85E
:105680000E00A9880844ADF80E00CDF80080B4F9EA
:10569000282009EB0600029B149902F040FF8719AD
:1056A00029E0CDF80080B4F9282009EB0700029B1F
:1056B000149902F034FF3E46BDF80E10871901EB35
:1056C0000A0000B2ADF80E008DB110F5806F0EDB50
:1056D000286800280BDA2E601B98BDF90E10B0F96F
:1056E0000200081A68601B98B0F90200A86019F857
:1056F0000600002870D01C98BDF90E10B0F9020009
:1057000051448142CDDB5FEA487016D5CDF8008068
:10571000B81B81B2B4F9283009EB0600149A02F0E4
:10572000BEFE05461B9800F04AF9401BBDF80C1060
:1057300000EBD07001EB600015E05FEA087014D553
:10574000CDF80080B81B81B2B4F9283009EB06000F
:10575000149A02F0A4FE05461B9800F030F9BDF83B
:105760000C10401B0844ADF80C0094F82C00BBF161
:10577000FF0F02D000FB0BF0000A18904FF0000B57
:10578000924905A8FEF7D6FC94F821008DF8170081
:105790008DF816000BE12A9828B1BDF80C1004987A
:1057A0000844ADF80C0000251596AFE0884E15A909
:1057B00048463268904716901599326809EB010007
:1057C0000021904702465FEAC87012D0169823283D
:1057D00003D0012D14D00CE0EEE025B1012D07D04F
:1057E000022D0BD005E0159801251FFA80FB8DE0F6
:1057F0000025206A1990022D41D042E0002585E065
:1058000020280AD11599A1EB0B00072806D094F89F
:10581000200000F001000225179077E009EB0B0053
:10582000016800918088ADF8040000208DF8060022
:105830009DF80100FFF7AEFE05469DF80000FFF75A
:10584000A9FE05EB001116919DF80300FFF7A2FEDB
:1058500005469DF80200FFF79DFE05EB00159DF83B
:105860000500FFF797FE06469DF80400FFF792FE3D
:1058700006EB0010169928430843C009CBE7179898
:1058800019901699149801F008FE06B22B994FF65C
:10589000FF70814226D02C99814223D04D4A484640
:1058A0001599126890472B9988421BDD2C998842E4
:1058B00018DCBDF80C00ADF80000BDF80E10ADF816
:1058C0000210228D189B0244701E1044ADF8040093
:1058D000AAF101000844ADF8060005AA68461C9923
:1058E00001F08CFB1898019019988DF8000003A81E
:1058F000169B149A1C99FFF7C5F8002E06DDBDF81B
:105900000C00218D08443044ADF80C001598B842C5
:10591000FFF44CAFCDF8008009EB0700B4F9282064
:105920000546029B149902F0FAFD3E4687191B9822
:105930000088ADF80C005FEA487015D5CDF80080FE
:10594000B81B81B2B4F928302846149A02F0A7FD9A
:1059500005461B9800F033F8401BBDF80C1000EB17
:10596000D07001EB600014E05FEA087013D5CDF849
:105970000080B81B81B2B4F928302846149A02F08E
:105980008EFD05461B9800F01AF8BDF80C10401B60
:105990000844ADF80C00BDF80E1001EB0A0000B28F
:1059A000ADF80E001C99B1F90610884204DC19F814
:1059B000060000287FF4EFAE1FB0BDE8F08F8188AD
:1059C0000088081A401C00B27047000028420020DE
:1059D000641B0020701B002002280ED003280FD06B
:1059E000042811D0C1EBC101401EB1FBF0F0FF490A
:1059F000C0B2085C5043000A7047FC48093801E017
:105A0000FA48C01F405CF5E7F848001FFAE770B598
:105A100015460E460446FEF76AF801F051FFB4EB56
:105A2000660F04DBC6F34F040CB1641EA4B2B4EBE2
:105A3000650F04DBC5F34F0424B1641EA4B20CB19E
:105A4000201A84B2204670BD2DE9FF4F99B01E4642
:105A500015460746B2F804A0FEF749F801F030FFFA
:105A60000690B5F90A10A8680D902C7B687BFF2E74
:105A700001D07043000A0C90491E06980FFA81F974
:105A800018B1A9F101000FFA80F9384601F000FBC6
:105A90000646384601F002FB024631465046FFF703
:105AA000B6FF064606983A883118501800B205909D
:105AB0007A8807901144F8880FFA81FB821B0698B8
:105AC00012A9101ABA8800B2931B069A82469A1A33
:105AD00012B262F30F08039260F31F48099232B2C8
